{
  "_format": "hh-sol-artifact-1",
  "contractName": "Keep3rLibrary",
  "sourceName": "solidity/contracts/libraries/Keep3rLibrary.sol",
  "abi": [
    {
      "inputs": [],
      "name": "LiquidityPairInvalid",
      "type": "error"
    },
    {
      "inputs": [
        {
          "internalType": "uint256",
          "name": "baseAmount",
          "type": "uint256"
        },
        {
          "internalType": "int56",
          "name": "tickDifference",
          "type": "int56"
        },
        {
          "internalType": "uint256",
          "name": "timeInterval",
          "type": "uint256"
        }
      ],
      "name": "getKP3RsAtTick",
      "outputs": [
        {
          "internalType": "uint256",
          "name": "_kp3rAmount",
          "type": "uint256"
        }
      ],
      "stateMutability": "pure",
      "type": "function"
    },
    {
      "inputs": [
        {
          "internalType": "address",
          "name": "_pool",
          "type": "address"
        }
      ],
      "name": "getPoolTokens",
      "outputs": [
        {
          "internalType": "address",
          "name": "_token0",
          "type": "address"
        },
        {
          "internalType": "address",
          "name": "_token1",
          "type": "address"
        }
      ],
      "stateMutability": "view",
      "type": "function"
    },
    {
      "inputs": [
        {
          "internalType": "uint256",
          "name": "baseAmount",
          "type": "uint256"
        },
        {
          "internalType": "int56",
          "name": "tickDifference",
          "type": "int56"
        },
        {
          "internalType": "uint256",
          "name": "timeInterval",
          "type": "uint256"
        }
      ],
      "name": "getQuoteAtTick",
      "outputs": [
        {
          "internalType": "uint256",
          "name": "_quoteAmount",
          "type": "uint256"
        }
      ],
      "stateMutability": "pure",
      "type": "function"
    },
    {
      "inputs": [
        {
          "internalType": "int24",
          "name": "tick",
          "type": "int24"
        }
      ],
      "name": "getSqrtRatioAtTick",
      "outputs": [
        {
          "internalType": "uint160",
          "name": "sqrtPriceX96",
          "type": "uint160"
        }
      ],
      "stateMutability": "pure",
      "type": "function"
    },
    {
      "inputs": [
        {
          "internalType": "address",
          "name": "_keep3rV1",
          "type": "address"
        },
        {
          "internalType": "address",
          "name": "_pool",
          "type": "address"
        }
      ],
      "name": "isKP3RToken0",
      "outputs": [
        {
          "internalType": "bool",
          "name": "_isKP3RToken0",
          "type": "bool"
        }
      ],
      "stateMutability": "view",
      "type": "function"
    },
    {
      "inputs": [
        {
          "internalType": "uint256",
          "name": "a",
          "type": "uint256"
        },
        {
          "internalType": "uint256",
          "name": "b",
          "type": "uint256"
        },
        {
          "internalType": "uint256",
          "name": "denominator",
          "type": "uint256"
        }
      ],
      "name": "mulDiv",
      "outputs": [
        {
          "internalType": "uint256",
          "name": "result",
          "type": "uint256"
        }
      ],
      "stateMutability": "pure",
      "type": "function"
    },
    {
      "inputs": [
        {
          "internalType": "address",
          "name": "_pool",
          "type": "address"
        },
        {
          "internalType": "uint32[]",
          "name": "secondsAgo",
          "type": "uint32[]"
        }
      ],
      "name": "observe",
      "outputs": [
        {
          "internalType": "int56",
          "name": "_tickCumulative1",
          "type": "int56"
        },
        {
          "internalType": "int56",
          "name": "_tickCumulative2",
          "type": "int56"
        },
        {
          "internalType": "bool",
          "name": "_success",
          "type": "bool"
        }
      ],
      "stateMutability": "view",
      "type": "function"
    }
  ],
  "bytecode": "0x610f0961003a600b82828239805160001a60731461002d57634e487b7160e01b600052600060045260246000fd5b30600052607381538281f3fe73000000000000000000000000000000000000000030146080604052600436106100775760003560e01c80630a5b52271461007c578063986cfba3146100a4578063a0d27107146100cf578063a58c72e3146100f0578063aa9a091214610103578063ca4f280314610116578063dc686d9114610149575b600080fd5b61008f61008a366004610aaf565b610181565b60405190151581526020015b60405180910390f35b6100b76100b2366004610c6f565b6101ee565b6040516001600160a01b03909116815260200161009b565b6100e26100dd366004610c92565b6105f8565b60405190815260200161009b565b6100e26100fe366004610c92565b61062f565b6100e2610111366004610cca565b61067a565b610129610124366004610a75565b610801565b604080516001600160a01b0393841681529290911660208301520161009b565b61015c610157366004610ae8565b6108ef565b60408051600694850b81529290930b602083015215159181019190915260600161009b565b600080600061018f84610801565b90925090506001600160a01b0380831690861614156101b3576001925050506101e8565b846001600160a01b0316816001600160a01b0316146101e557604051637d7c8f2760e11b815260040160405180910390fd5b50505b92915050565b60008060008360020b12610205578260020b610212565b8260020b61021290610e37565b9050620d89e881111561024f5760405162461bcd60e51b81526020600482015260016024820152601560fa1b604482015260640160405180910390fd5b60006001821661026357600160801b610275565b6ffffcb933bd6fad37aa2d162d1a5940015b6001600160881b0316905060028216156102aa5760806102a5826ffff97272373d413259a46990580e213a610ded565b901c90505b60048216156102d45760806102cf826ffff2e50f5f656932ef12357cf3c7fdcc610ded565b901c90505b60088216156102fe5760806102f9826fffe5caca7e10e4e61c3624eaa0941cd0610ded565b901c90505b6010821615610328576080610323826fffcb9843d60f6159c9db58835c926644610ded565b901c90505b602082161561035257608061034d826fff973b41fa98c081472e6896dfb254c0610ded565b901c90505b604082161561037c576080610377826fff2ea16466c96a3843ec78b326b52861610ded565b901c90505b60808216156103a65760806103a1826ffe5dee046a99a2a811c461f1969c3053610ded565b901c90505b6101008216156103d15760806103cc826ffcbe86c7900a88aedcffc83b479aa3a4610ded565b901c90505b6102008216156103fc5760806103f7826ff987a7253ac413176f2b074cf7815e54610ded565b901c90505b610400821615610427576080610422826ff3392b0822b70005940c7a398e4b70f3610ded565b901c90505b61080082161561045257608061044d826fe7159475a2c29b7443b29c7fa6e889d9610ded565b901c90505b61100082161561047d576080610478826fd097f3bdfd2022b8845ad8f792aa5825610ded565b901c90505b6120008216156104a85760806104a3826fa9f746462d870fdf8a65dc1f90e061e5610ded565b901c90505b6140008216156104d35760806104ce826f70d869a156d2a1b890bb3df62baf32f7610ded565b901c90505b6180008216156104fe5760806104f9826f31be135f97d08fd981231505542fcfa6610ded565b901c90505b6201000082161561052a576080610525826f09aa508b5b7a84e1c677de54f3e99bc9610ded565b901c90505b62020000821615610555576080610550826e5d6af8dedb81196699c329225ee604610ded565b901c90505b6204000082161561057f57608061057a826d2216e584f5fa1ea926041bedfe98610ded565b901c90505b620800008216156105a75760806105a2826b048a170391f7dc42444e8fa2610ded565b901c90505b60008460020b13156105c2576105bf81600019610dd9565b90505b6105d0600160201b82610e23565b156105dc5760016105df565b60005b6105f09060ff16602083901c610d93565b949350505050565b60008061060c6100b284600687900b610dab565b9050610626600160601b86836001600160a01b031661067a565b95945050505050565b6000806106436100b284600687900b610dab565b9050600061065f6001600160a01b03831680600160401b61067a565b9050610670600160801b878361067a565b9695505050505050565b6000808060001985870985870292508281108382030391505080600014156106b457600084116106a957600080fd5b5082900490506107fa565b8084116106c057600080fd5b6000848688098084039381119092039190506000856106e181600019610e0c565b6106ec906001610d93565b1695869004959384900493600081900304600101905061070c8184610ded565b90931792600061071d876003610ded565b600218905061072c8188610ded565b610737906002610e0c565b6107419082610ded565b905061074d8188610ded565b610758906002610e0c565b6107629082610ded565b905061076e8188610ded565b610779906002610e0c565b6107839082610ded565b905061078f8188610ded565b61079a906002610e0c565b6107a49082610ded565b90506107b08188610ded565b6107bb906002610e0c565b6107c59082610ded565b90506107d18188610ded565b6107dc906002610e0c565b6107e69082610ded565b90506107f28186610ded565b955050505050505b9392505050565b600080826001600160a01b0316630dfe16816040518163ffffffff1660e01b815260040160206040518083038186803b15801561083d57600080fd5b505afa158015610851573d6000803e3d6000fd5b505050506040513d601f19601f820116820180604052508101906108759190610a92565b836001600160a01b031663d21220a76040518163ffffffff1660e01b815260040160206040518083038186803b1580156108ae57600080fd5b505afa1580156108c2573d6000803e3d6000fd5b505050506040513d601f19601f820116820180604052508101906108e69190610a92565b91509150915091565b6000806000846001600160a01b031663883bdbfd856040518263ffffffff1660e01b81526004016109209190610cf6565b60006040518083038186803b15801561093857600080fd5b505afa92505050801561096d57506040513d6000823e601f3d908101601f1916820160405261096a9190810190610ba4565b60015b6109a7573d80801561099b576040519150601f19603f3d011682016040523d82523d6000602084013e6109a0565b606091505b50506109f3565b816000815181106109ba576109ba610e80565b602002602001015194506001825111156109ec57816001815181106109e1576109e1610e80565b602002602001015193505b6001925050505b9250925092565b600082601f830112610a0b57600080fd5b81516020610a20610a1b83610d70565b610d40565b80838252828201915082860187848660051b8901011115610a4057600080fd5b60005b85811015610a68578151610a5681610eac565b84529284019290840190600101610a43565b5090979650505050505050565b600060208284031215610a8757600080fd5b81356107fa81610eac565b600060208284031215610aa457600080fd5b81516107fa81610eac565b60008060408385031215610ac257600080fd5b8235610acd81610eac565b91506020830135610add81610eac565b809150509250929050565b60008060408385031215610afb57600080fd5b8235610b0681610eac565b91506020838101356001600160401b03811115610b2257600080fd5b8401601f81018613610b3357600080fd5b8035610b41610a1b82610d70565b80828252848201915084840189868560051b8701011115610b6157600080fd5b60009450845b84811015610b9457813563ffffffff81168114610b82578687fd5b84529286019290860190600101610b67565b5096999098509650505050505050565b60008060408385031215610bb757600080fd5b82516001600160401b0380821115610bce57600080fd5b818501915085601f830112610be257600080fd5b81516020610bf2610a1b83610d70565b8083825282820191508286018a848660051b8901011115610c1257600080fd5b600096505b84871015610c3e578051610c2a81610ec4565b835260019690960195918301918301610c17565b5091880151919650909350505080821115610c5857600080fd5b50610c65858286016109fa565b9150509250929050565b600060208284031215610c8157600080fd5b81358060020b81146107fa57600080fd5b600080600060608486031215610ca757600080fd5b833592506020840135610cb981610ec4565b929592945050506040919091013590565b600080600060608486031215610cdf57600080fd5b505081359360208301359350604090920135919050565b6020808252825182820181905260009190848201906040850190845b81811015610d3457835163ffffffff1683529284019291840191600101610d12565b50909695505050505050565b604051601f8201601f191681016001600160401b0381118282101715610d6857610d68610e96565b604052919050565b60006001600160401b03821115610d8957610d89610e96565b5060051b60200190565b60008219821115610da657610da6610e54565b500190565b600082610dba57610dba610e6a565b600160ff1b821460001984141615610dd457610dd4610e54565b500590565b600082610de857610de8610e6a565b500490565b6000816000190483118215151615610e0757610e07610e54565b500290565b600082821015610e1e57610e1e610e54565b500390565b600082610e3257610e32610e6a565b500690565b6000600160ff1b821415610e4d57610e4d610e54565b5060000390565b634e487b7160e01b600052601160045260246000fd5b634e487b7160e01b600052601260045260246000fd5b634e487b7160e01b600052603260045260246000fd5b634e487b7160e01b600052604160045260246000fd5b6001600160a01b0381168114610ec157600080fd5b50565b8060060b8114610ec157600080fdfea264697066735822122029ae6c6681f4e00dab45dfb4b64ba54f8d4084642c5e6efcecc19082aa7a0f8a64736f6c63430008070033",
  "linkReferences": {},
  "deployedLinkReferences": {}
}