{
  "_format": "hh-sol-artifact-1",
  "contractName": "UniV3PairManager",
  "sourceName": "solidity/contracts/UniV3PairManager.sol",
  "abi": [
    {
      "inputs": [
        {
          "internalType": "address",
          "name": "_pool",
          "type": "address"
        },
        {
          "internalType": "address",
          "name": "_governance",
          "type": "address"
        }
      ],
      "stateMutability": "nonpayable",
      "type": "constructor"
    },
    {
      "inputs": [],
      "name": "ExcessiveSlippage",
      "type": "error"
    },
    {
      "inputs": [],
      "name": "NoGovernanceZeroAddress",
      "type": "error"
    },
    {
      "inputs": [],
      "name": "OnlyGovernance",
      "type": "error"
    },
    {
      "inputs": [],
      "name": "OnlyPendingGovernance",
      "type": "error"
    },
    {
      "inputs": [],
      "name": "OnlyPool",
      "type": "error"
    },
    {
      "inputs": [],
      "name": "UnsuccessfulTransfer",
      "type": "error"
    },
    {
      "anonymous": false,
      "inputs": [
        {
          "indexed": true,
          "internalType": "address",
          "name": "owner",
          "type": "address"
        },
        {
          "indexed": true,
          "internalType": "address",
          "name": "spender",
          "type": "address"
        },
        {
          "indexed": false,
          "internalType": "uint256",
          "name": "value",
          "type": "uint256"
        }
      ],
      "name": "Approval",
      "type": "event"
    },
    {
      "anonymous": false,
      "inputs": [
        {
          "indexed": false,
          "internalType": "address",
          "name": "_pendingGovernance",
          "type": "address"
        }
      ],
      "name": "GovernanceProposal",
      "type": "event"
    },
    {
      "anonymous": false,
      "inputs": [
        {
          "indexed": false,
          "internalType": "address",
          "name": "_governance",
          "type": "address"
        }
      ],
      "name": "GovernanceSet",
      "type": "event"
    },
    {
      "anonymous": false,
      "inputs": [
        {
          "indexed": true,
          "internalType": "address",
          "name": "from",
          "type": "address"
        },
        {
          "indexed": true,
          "internalType": "address",
          "name": "to",
          "type": "address"
        },
        {
          "indexed": false,
          "internalType": "uint256",
          "name": "value",
          "type": "uint256"
        }
      ],
      "name": "Transfer",
      "type": "event"
    },
    {
      "inputs": [],
      "name": "acceptGovernance",
      "outputs": [],
      "stateMutability": "nonpayable",
      "type": "function"
    },
    {
      "inputs": [
        {
          "internalType": "address",
          "name": "",
          "type": "address"
        },
        {
          "internalType": "address",
          "name": "",
          "type": "address"
        }
      ],
      "name": "allowance",
      "outputs": [
        {
          "internalType": "uint256",
          "name": "",
          "type": "uint256"
        }
      ],
      "stateMutability": "view",
      "type": "function"
    },
    {
      "inputs": [
        {
          "internalType": "address",
          "name": "spender",
          "type": "address"
        },
        {
          "internalType": "uint256",
          "name": "amount",
          "type": "uint256"
        }
      ],
      "name": "approve",
      "outputs": [
        {
          "internalType": "bool",
          "name": "",
          "type": "bool"
        }
      ],
      "stateMutability": "nonpayable",
      "type": "function"
    },
    {
      "inputs": [
        {
          "internalType": "address",
          "name": "",
          "type": "address"
        }
      ],
      "name": "balanceOf",
      "outputs": [
        {
          "internalType": "uint256",
          "name": "",
          "type": "uint256"
        }
      ],
      "stateMutability": "view",
      "type": "function"
    },
    {
      "inputs": [
        {
          "internalType": "uint128",
          "name": "liquidity",
          "type": "uint128"
        },
        {
          "internalType": "uint256",
          "name": "amount0Min",
          "type": "uint256"
        },
        {
          "internalType": "uint256",
          "name": "amount1Min",
          "type": "uint256"
        },
        {
          "internalType": "address",
          "name": "to",
          "type": "address"
        }
      ],
      "name": "burn",
      "outputs": [
        {
          "internalType": "uint256",
          "name": "amount0",
          "type": "uint256"
        },
        {
          "internalType": "uint256",
          "name": "amount1",
          "type": "uint256"
        }
      ],
      "stateMutability": "nonpayable",
      "type": "function"
    },
    {
      "inputs": [],
      "name": "collect",
      "outputs": [
        {
          "internalType": "uint256",
          "name": "amount0",
          "type": "uint256"
        },
        {
          "internalType": "uint256",
          "name": "amount1",
          "type": "uint256"
        }
      ],
      "stateMutability": "nonpayable",
      "type": "function"
    },
    {
      "inputs": [],
      "name": "decimals",
      "outputs": [
        {
          "internalType": "uint8",
          "name": "",
          "type": "uint8"
        }
      ],
      "stateMutability": "view",
      "type": "function"
    },
    {
      "inputs": [],
      "name": "fee",
      "outputs": [
        {
          "internalType": "uint24",
          "name": "",
          "type": "uint24"
        }
      ],
      "stateMutability": "view",
      "type": "function"
    },
    {
      "inputs": [],
      "name": "governance",
      "outputs": [
        {
          "internalType": "address",
          "name": "",
          "type": "address"
        }
      ],
      "stateMutability": "view",
      "type": "function"
    },
    {
      "inputs": [
        {
          "internalType": "uint256",
          "name": "amount0Desired",
          "type": "uint256"
        },
        {
          "internalType": "uint256",
          "name": "amount1Desired",
          "type": "uint256"
        },
        {
          "internalType": "uint256",
          "name": "amount0Min",
          "type": "uint256"
        },
        {
          "internalType": "uint256",
          "name": "amount1Min",
          "type": "uint256"
        },
        {
          "internalType": "address",
          "name": "to",
          "type": "address"
        }
      ],
      "name": "mint",
      "outputs": [
        {
          "internalType": "uint128",
          "name": "liquidity",
          "type": "uint128"
        }
      ],
      "stateMutability": "nonpayable",
      "type": "function"
    },
    {
      "inputs": [],
      "name": "name",
      "outputs": [
        {
          "internalType": "string",
          "name": "",
          "type": "string"
        }
      ],
      "stateMutability": "view",
      "type": "function"
    },
    {
      "inputs": [],
      "name": "pendingGovernance",
      "outputs": [
        {
          "internalType": "address",
          "name": "",
          "type": "address"
        }
      ],
      "stateMutability": "view",
      "type": "function"
    },
    {
      "inputs": [],
      "name": "pool",
      "outputs": [
        {
          "internalType": "address",
          "name": "",
          "type": "address"
        }
      ],
      "stateMutability": "view",
      "type": "function"
    },
    {
      "inputs": [],
      "name": "position",
      "outputs": [
        {
          "internalType": "uint128",
          "name": "liquidity",
          "type": "uint128"
        },
        {
          "internalType": "uint256",
          "name": "feeGrowthInside0LastX128",
          "type": "uint256"
        },
        {
          "internalType": "uint256",
          "name": "feeGrowthInside1LastX128",
          "type": "uint256"
        },
        {
          "internalType": "uint128",
          "name": "tokensOwed0",
          "type": "uint128"
        },
        {
          "internalType": "uint128",
          "name": "tokensOwed1",
          "type": "uint128"
        }
      ],
      "stateMutability": "view",
      "type": "function"
    },
    {
      "inputs": [
        {
          "internalType": "address",
          "name": "_governance",
          "type": "address"
        }
      ],
      "name": "setGovernance",
      "outputs": [],
      "stateMutability": "nonpayable",
      "type": "function"
    },
    {
      "inputs": [],
      "name": "sqrtRatioAX96",
      "outputs": [
        {
          "internalType": "uint160",
          "name": "",
          "type": "uint160"
        }
      ],
      "stateMutability": "view",
      "type": "function"
    },
    {
      "inputs": [],
      "name": "sqrtRatioBX96",
      "outputs": [
        {
          "internalType": "uint160",
          "name": "",
          "type": "uint160"
        }
      ],
      "stateMutability": "view",
      "type": "function"
    },
    {
      "inputs": [],
      "name": "symbol",
      "outputs": [
        {
          "internalType": "string",
          "name": "",
          "type": "string"
        }
      ],
      "stateMutability": "view",
      "type": "function"
    },
    {
      "inputs": [],
      "name": "token0",
      "outputs": [
        {
          "internalType": "address",
          "name": "",
          "type": "address"
        }
      ],
      "stateMutability": "view",
      "type": "function"
    },
    {
      "inputs": [],
      "name": "token1",
      "outputs": [
        {
          "internalType": "address",
          "name": "",
          "type": "address"
        }
      ],
      "stateMutability": "view",
      "type": "function"
    },
    {
      "inputs": [],
      "name": "totalSupply",
      "outputs": [
        {
          "internalType": "uint256",
          "name": "",
          "type": "uint256"
        }
      ],
      "stateMutability": "view",
      "type": "function"
    },
    {
      "inputs": [
        {
          "internalType": "address",
          "name": "to",
          "type": "address"
        },
        {
          "internalType": "uint256",
          "name": "amount",
          "type": "uint256"
        }
      ],
      "name": "transfer",
      "outputs": [
        {
          "internalType": "bool",
          "name": "",
          "type": "bool"
        }
      ],
      "stateMutability": "nonpayable",
      "type": "function"
    },
    {
      "inputs": [
        {
          "internalType": "address",
          "name": "from",
          "type": "address"
        },
        {
          "internalType": "address",
          "name": "to",
          "type": "address"
        },
        {
          "internalType": "uint256",
          "name": "amount",
          "type": "uint256"
        }
      ],
      "name": "transferFrom",
      "outputs": [
        {
          "internalType": "bool",
          "name": "",
          "type": "bool"
        }
      ],
      "stateMutability": "nonpayable",
      "type": "function"
    },
    {
      "inputs": [
        {
          "internalType": "uint256",
          "name": "amount0Owed",
          "type": "uint256"
        },
        {
          "internalType": "uint256",
          "name": "amount1Owed",
          "type": "uint256"
        },
        {
          "internalType": "bytes",
          "name": "data",
          "type": "bytes"
        }
      ],
      "name": "uniswapV3MintCallback",
      "outputs": [],
      "stateMutability": "nonpayable",
      "type": "function"
    }
  ],
  "bytecode": "0x61014060405260006004553480156200001757600080fd5b5060405162002e4638038062002e468339810160408190526200003a9162000a9f565b806001600160a01b038116620000625760405162b293ed60e81b815260040160405180910390fd5b600080546001600160a01b0319166001600160a01b03928316178155606084901b6001600160601b03191660c0526040805163ddca3f4360e01b81529051919285169163ddca3f4391600480820192602092909190829003018186803b158015620000cc57600080fd5b505afa158015620000e1573d6000803e3d6000fd5b505050506040513d601f19601f8201168201806040525081019062000107919062000b8f565b90508062ffffff1660e08162ffffff1660e81b815250506000836001600160a01b0316630dfe16816040518163ffffffff1660e01b815260040160206040518083038186803b1580156200015a57600080fd5b505afa1580156200016f573d6000803e3d6000fd5b505050506040513d601f19601f8201168201806040525081019062000195919062000a7a565b90506000846001600160a01b031663d21220a76040518163ffffffff1660e01b815260040160206040518083038186803b158015620001d357600080fd5b505afa158015620001e8573d6000803e3d6000fd5b505050506040513d601f19601f820116820180604052508101906200020e919062000a7a565b6001600160601b0319606084811b821660805282901b1660a052604080516395d89b4160e01b815290519192506001600160a01b038416916395d89b4191600480820192600092909190829003018186803b1580156200026d57600080fd5b505afa15801562000282573d6000803e3d6000fd5b505050506040513d6000823e601f3d908101601f19168201604052620002ac919081019062000ad7565b816001600160a01b03166395d89b416040518163ffffffff1660e01b815260040160006040518083038186803b158015620002e657600080fd5b505afa158015620002fb573d6000803e3d6000fd5b505050506040513d6000823e601f3d908101601f1916820160405262000325919081019062000ad7565b6040516020016200033892919062000c06565b604051602081830303815290604052600290805190602001906200035e929190620009b7565b50816001600160a01b03166395d89b416040518163ffffffff1660e01b815260040160006040518083038186803b1580156200039957600080fd5b505afa158015620003ae573d6000803e3d6000fd5b505050506040513d6000823e601f3d908101601f19168201604052620003d8919081019062000ad7565b816001600160a01b03166395d89b416040518163ffffffff1660e01b815260040160006040518083038186803b1580156200041257600080fd5b505afa15801562000427573d6000803e3d6000fd5b505050506040513d6000823e601f3d908101601f1916820160405262000451919081019062000ad7565b6040516020016200046492919062000bb6565b604051602081830303815290604052600390805190602001906200048a929190620009b7565b50620004a5620d899f196200055560201b62000c531760201c565b6001600160a01b0316610100816001600160a01b031660601b81525050620004db620d89a06200055560201b62000c531760201c565b606090811b6001600160601b031916610120526040805191820181526001600160a01b03938416808352929093166020820181905262ffffff949094169201829052600780546001600160a01b0319169091179055600880546001600160b81b031916909217600160a01b9091021790555062000dc09050565b60008060008360020b126200056e578260020b6200057d565b8260020b6200057d9062000d5e565b90506200058e620d89e71962000d38565b60020b811115620005c95760405162461bcd60e51b81526020600482015260016024820152601560fa1b604482015260640160405180910390fd5b600060018216620005df57600160801b620005f1565b6ffffcb933bd6fad37aa2d162d1a5940015b6001600160881b0316905060028216156200062957608062000624826ffff97272373d413259a46990580e213a62000c8f565b901c90505b60048216156200065657608062000651826ffff2e50f5f656932ef12357cf3c7fdcc62000c8f565b901c90505b6008821615620006835760806200067e826fffe5caca7e10e4e61c3624eaa0941cd062000c8f565b901c90505b6010821615620006b0576080620006ab826fffcb9843d60f6159c9db58835c92664462000c8f565b901c90505b6020821615620006dd576080620006d8826fff973b41fa98c081472e6896dfb254c062000c8f565b901c90505b60408216156200070a57608062000705826fff2ea16466c96a3843ec78b326b5286162000c8f565b901c90505b60808216156200073757608062000732826ffe5dee046a99a2a811c461f1969c305362000c8f565b901c90505b6101008216156200076557608062000760826ffcbe86c7900a88aedcffc83b479aa3a462000c8f565b901c90505b610200821615620007935760806200078e826ff987a7253ac413176f2b074cf7815e5462000c8f565b901c90505b610400821615620007c1576080620007bc826ff3392b0822b70005940c7a398e4b70f362000c8f565b901c90505b610800821615620007ef576080620007ea826fe7159475a2c29b7443b29c7fa6e889d962000c8f565b901c90505b6110008216156200081d57608062000818826fd097f3bdfd2022b8845ad8f792aa582562000c8f565b901c90505b6120008216156200084b57608062000846826fa9f746462d870fdf8a65dc1f90e061e562000c8f565b901c90505b6140008216156200087957608062000874826f70d869a156d2a1b890bb3df62baf32f762000c8f565b901c90505b618000821615620008a7576080620008a2826f31be135f97d08fd981231505542fcfa662000c8f565b901c90505b62010000821615620008d6576080620008d1826f09aa508b5b7a84e1c677de54f3e99bc962000c8f565b901c90505b6202000082161562000904576080620008ff826e5d6af8dedb81196699c329225ee60462000c8f565b901c90505b62040000821615620009315760806200092c826d2216e584f5fa1ea926041bedfe9862000c8f565b901c90505b620800008216156200095c57608062000957826b048a170391f7dc42444e8fa262000c8f565b901c90505b60008460020b13156200097a57620009778160001962000c78565b90505b6200098b6401000000008262000d21565b15620009995760016200099c565b60005b620009af9060ff16602083901c62000c5d565b949350505050565b828054620009c59062000ce4565b90600052602060002090601f016020900481019282620009e9576000855562000a34565b82601f1062000a0457805160ff191683800117855562000a34565b8280016001018555821562000a34579182015b8281111562000a3457825182559160200191906001019062000a17565b5062000a4292915062000a46565b5090565b5b8082111562000a42576000815560010162000a47565b80516001600160a01b038116811462000a7557600080fd5b919050565b60006020828403121562000a8d57600080fd5b62000a988262000a5d565b9392505050565b6000806040838503121562000ab357600080fd5b62000abe8362000a5d565b915062000ace6020840162000a5d565b90509250929050565b60006020828403121562000aea57600080fd5b81516001600160401b038082111562000b0257600080fd5b818401915084601f83011262000b1757600080fd5b81518181111562000b2c5762000b2c62000daa565b604051601f8201601f19908116603f0116810190838211818310171562000b575762000b5762000daa565b8160405282815287602084870101111562000b7157600080fd5b62000b8483602083016020880162000cb1565b979650505050505050565b60006020828403121562000ba257600080fd5b815162ffffff8116811462000a9857600080fd5b636b4c502d60e01b81526000835162000bd781600485016020880162000cb1565b602f60f81b600491840191820152835162000bfa81600584016020880162000cb1565b01600501949350505050565b6a025b2b2b819b92b189016960ad1b81526000835162000c2e81600b85016020880162000cb1565b602f60f81b600b91840191820152835162000c5181600c84016020880162000cb1565b01600c01949350505050565b6000821982111562000c735762000c7362000d7e565b500190565b60008262000c8a5762000c8a62000d94565b500490565b600081600019048311821515161562000cac5762000cac62000d7e565b500290565b60005b8381101562000cce57818101518382015260200162000cb4565b8381111562000cde576000848401525b50505050565b600181811c9082168062000cf957607f821691505b6020821081141562000d1b57634e487b7160e01b600052602260045260246000fd5b50919050565b60008262000d335762000d3362000d94565b500690565b60008160020b627fffff1981141562000d555762000d5562000d7e565b60000392915050565b6000600160ff1b82141562000d775762000d7762000d7e565b5060000390565b634e487b7160e01b600052601160045260246000fd5b634e487b7160e01b600052601260045260246000fd5b634e487b7160e01b600052604160045260246000fd5b60805160601c60a05160601c60c05160601c60e05160e81c6101005160601c6101205160601c611fd062000e766000396000818161030d01526111cb01526000818161024001526111aa015260006103c10152600081816101e5015281816104aa01528181610837015281816108f9015281816109c701528181610a1a01528181610a5801528181610ab701528181610ba40152818161110d01526112820152600061035c015260006101b10152611fd06000f3fe608060405234801561001057600080fd5b50600436106101285760003560e01c806306fdde031461012d57806309218e911461014b578063095ea7b3146101895780630dfe1681146101ac57806316f0115b146101e057806318160ddd14610207578063238efcbc1461021e57806323b872dd146102285780632ea28f5b1461023b578063313ce567146102625780635aa6e6751461027c57806370a082311461028f57806395d89b41146102af578063a3e6dc28146102b7578063a9059cbb146102e2578063ab033ea9146102f5578063c627526114610308578063cf51148d1461032f578063d21220a714610357578063d34879971461037e578063dd62ed3e14610391578063ddca3f43146103bc578063e5225381146103f7578063f39c38a0146103ff575b600080fd5b610135610412565b6040516101429190611d73565b60405180910390f35b6101536104a0565b604080516001600160801b039687168152602081019590955284019290925283166060830152909116608082015260a001610142565b61019c610197366004611902565b610588565b6040519015158152602001610142565b6101d37f000000000000000000000000000000000000000000000000000000000000000081565b6040516101429190611cd2565b6101d37f000000000000000000000000000000000000000000000000000000000000000081565b61021060045481565b604051908152602001610142565b6102266105e2565b005b61019c6102363660046118c1565b61066e565b6101d37f000000000000000000000000000000000000000000000000000000000000000081565b61026a601281565b60405160ff9091168152602001610142565b6000546101d3906001600160a01b031681565b61021061029d36600461186b565b60066020526000908152604090205481565b610135610725565b6102ca6102c5366004611c1b565b610732565b6040516001600160801b039091168152602001610142565b61019c6102f0366004611902565b610762565b61022661030336600461186b565b610778565b6101d37f000000000000000000000000000000000000000000000000000000000000000081565b61034261033d366004611a32565b6107f9565b60408051928352602083019190915201610142565b6101d37f000000000000000000000000000000000000000000000000000000000000000081565b61022661038c366004611b9c565b6109ac565b61021061039f366004611888565b600560209081526000928352604080842090915290825290205481565b6103e37f000000000000000000000000000000000000000000000000000000000000000081565b60405162ffffff9091168152602001610142565b610342610a84565b6001546101d3906001600160a01b031681565b6002805461041f90611e72565b80601f016020809104026020016040519081016040528092919081815260200182805461044b90611e72565b80156104985780601f1061046d57610100808354040283529160200191610498565b820191906000526020600020905b81548152906001019060200180831161047b57829003601f168201915b505050505081565b60008060008060007f00000000000000000000000000000000000000000000000000000000000000006001600160a01b031663514ea4bf30620d899f19620d89a06040516020016104f393929190611c86565b604051602081830303815290604052805190602001206040518263ffffffff1660e01b815260040161052791815260200190565b60a06040518083038186803b15801561053f57600080fd5b505afa158015610553573d6000803e3d6000fd5b505050506040513d601f19601f820116820180604052508101906105779190611a7c565b939992985090965094509092509050565b3360008181526005602090815260408083206001600160a01b03871680855292528083208590555191929091600080516020611f7b833981519152906105d19086815260200190565b60405180910390a350600192915050565b6001546001600160a01b0316331461060d57604051637ef5703160e11b815260040160405180910390fd5b60018054600080546001600160a01b0383166001600160a01b031991821681179092559091169091556040517fc73be659241aade67e9a059bcf21494955018b213dbd1179054ccf928b13f3b69161066491611cd2565b60405180910390a1565b6001600160a01b0383166000818152600560209081526040808320338085529252822054919290919082148015906106a857506000198114155b1561070c5760006106b98583611e2f565b6001600160a01b03888116600081815260056020908152604080832094891680845294825291829020859055905184815293945091929091600080516020611f7b833981519152910160405180910390a3505b610717868686611069565b6001925050505b9392505050565b6003805461041f90611e72565b600061074086868686611105565b509091506107599050826001600160801b038316611353565b95945050505050565b600061076f338484611069565b50600192915050565b6000546001600160a01b031633146107a3576040516354348f0360e01b815260040160405180910390fd5b600180546001600160a01b0319166001600160a01b0383161790556040517fe987aaedf9d279143bdf1eee16cf1d0feb47742867d81083df8d6cd0a5ac857f906107ee908390611cd2565b60405180910390a150565b60405163a34123a760e01b8152620d899f196004820152620d89a060248201526001600160801b038516604482015260009081906001600160a01b037f0000000000000000000000000000000000000000000000000000000000000000169063a34123a7906064016040805180830381600087803b15801561087a57600080fd5b505af115801561088e573d6000803e3d6000fd5b505050506040513d601f19601f820116820180604052508101906108b29190611b78565b9092509050848210806108c457508381105b156108e2576040516397c7f53760e01b815260040160405180910390fd5b6040516309e3d67b60e31b81526001600160a01b037f00000000000000000000000000000000000000000000000000000000000000001690634f1eb3d89061093d908690620d899f1990620d89a09088908890600401611d36565b6040805180830381600087803b15801561095657600080fd5b505af115801561096a573d6000803e3d6000fd5b505050506040513d601f19601f8201168201806040525081019061098e9190611a03565b50506109a333876001600160801b03166113cb565b94509492505050565b60006109ba82840184611949565b9050336001600160a01b037f00000000000000000000000000000000000000000000000000000000000000001614610a0557604051634b60273560e01b815260040160405180910390fd5b8415610a3f578051516020820151610a3f91907f00000000000000000000000000000000000000000000000000000000000000008861143b565b8315610a7d57610a7d81600001516020015182602001517f00000000000000000000000000000000000000000000000000000000000000008761143b565b5050505050565b6000805481906001600160a01b03163314610ab2576040516354348f0360e01b815260040160405180910390fd5b6000807f00000000000000000000000000000000000000000000000000000000000000006001600160a01b031663514ea4bf30620d899f19620d89a0604051602001610b0093929190611c86565b604051602081830303815290604052805190602001206040518263ffffffff1660e01b8152600401610b3491815260200190565b60a06040518083038186803b158015610b4c57600080fd5b505afa158015610b60573d6000803e3d6000fd5b505050506040513d601f19601f82011682018060405250810190610b849190611a7c565b6000546040516309e3d67b60e31b81529297509095506001600160a01b037f000000000000000000000000000000000000000000000000000000000000000081169550634f1eb3d89450610bec93501690620d899f1990620d89a09088908890600401611d36565b6040805180830381600087803b158015610c0557600080fd5b505af1158015610c19573d6000803e3d6000fd5b505050506040513d601f19601f82011682018060405250810190610c3d9190611a03565b6001600160801b03918216969116945092505050565b60008060008360020b12610c6a578260020b610c77565b8260020b610c7790611ee4565b9050610c86620d89e719611ec1565b60020b811115610cc05760405162461bcd60e51b81526020600482015260016024820152601560fa1b604482015260640160405180910390fd5b600060018216610cd457600160801b610ce6565b6ffffcb933bd6fad37aa2d162d1a5940015b6001600160881b031690506002821615610d1b576080610d16826ffff97272373d413259a46990580e213a611de8565b901c90505b6004821615610d45576080610d40826ffff2e50f5f656932ef12357cf3c7fdcc611de8565b901c90505b6008821615610d6f576080610d6a826fffe5caca7e10e4e61c3624eaa0941cd0611de8565b901c90505b6010821615610d99576080610d94826fffcb9843d60f6159c9db58835c926644611de8565b901c90505b6020821615610dc3576080610dbe826fff973b41fa98c081472e6896dfb254c0611de8565b901c90505b6040821615610ded576080610de8826fff2ea16466c96a3843ec78b326b52861611de8565b901c90505b6080821615610e17576080610e12826ffe5dee046a99a2a811c461f1969c3053611de8565b901c90505b610100821615610e42576080610e3d826ffcbe86c7900a88aedcffc83b479aa3a4611de8565b901c90505b610200821615610e6d576080610e68826ff987a7253ac413176f2b074cf7815e54611de8565b901c90505b610400821615610e98576080610e93826ff3392b0822b70005940c7a398e4b70f3611de8565b901c90505b610800821615610ec3576080610ebe826fe7159475a2c29b7443b29c7fa6e889d9611de8565b901c90505b611000821615610eee576080610ee9826fd097f3bdfd2022b8845ad8f792aa5825611de8565b901c90505b612000821615610f19576080610f14826fa9f746462d870fdf8a65dc1f90e061e5611de8565b901c90505b614000821615610f44576080610f3f826f70d869a156d2a1b890bb3df62baf32f7611de8565b901c90505b618000821615610f6f576080610f6a826f31be135f97d08fd981231505542fcfa6611de8565b901c90505b62010000821615610f9b576080610f96826f09aa508b5b7a84e1c677de54f3e99bc9611de8565b901c90505b62020000821615610fc6576080610fc1826e5d6af8dedb81196699c329225ee604611de8565b901c90505b62040000821615610ff0576080610feb826d2216e584f5fa1ea926041bedfe98611de8565b901c90505b62080000821615611018576080611013826b048a170391f7dc42444e8fa2611de8565b901c90505b60008460020b13156110335761103081600019611dd4565b90505b611041600160201b82611ead565b1561104d576001611050565b60005b6110619060ff16602083901c611dbc565b949350505050565b6001600160a01b03831660009081526006602052604081208054839290611091908490611e2f565b90915550506001600160a01b038216600090815260066020526040812080548392906110be908490611dbc565b92505081905550816001600160a01b0316836001600160a01b0316600080516020611f5b833981519152836040516110f891815260200190565b60405180910390a3505050565b6000806000807f00000000000000000000000000000000000000000000000000000000000000006001600160a01b0316633850c7bd6040518163ffffffff1660e01b815260040160e06040518083038186803b15801561116457600080fd5b505afa158015611178573d6000803e3d6000fd5b505050506040513d601f19601f8201168201806040525081019061119c9190611ade565b50505050505090506111f1817f00000000000000000000000000000000000000000000000000000000000000007f00000000000000000000000000000000000000000000000000000000000000008b8b61144d565b6040805160a080820183526007546001600160a01b039081168385018181526008548084166060808801918252600160a01b90920462ffffff9081166080808a01918252948952336020998a019081528a51998a019690965291518616888a01529051169086015290518216848201528451808503909101815291830193849052633c8a7d8d60e01b9093529296507f000000000000000000000000000000000000000000000000000000000000000090911691633c8a7d8d916112c7913091620d899f1991620d89a0918b919060a401611ce6565b6040805180830381600087803b1580156112e057600080fd5b505af11580156112f4573d6000803e3d6000fd5b505050506040513d601f19601f820116820180604052508101906113189190611b78565b90935091508583108061132a57508482105b15611348576040516397c7f53760e01b815260040160405180910390fd5b509450945094915050565b80600460008282546113659190611dbc565b90915550506001600160a01b03821660009081526006602052604081208054839290611392908490611dbc565b90915550506040518181526001600160a01b03831690600090600080516020611f5b833981519152906020015b60405180910390a35050565b80600460008282546113dd9190611e2f565b90915550506001600160a01b0382166000908152600660205260408120805483929061140a908490611e2f565b90915550506040518181526000906001600160a01b03841690600080516020611f5b833981519152906020016113bf565b6114478484848461150f565b50505050565b6000836001600160a01b0316856001600160a01b0316111561146d579293925b846001600160a01b0316866001600160a01b03161161149857611491858585611609565b9050610759565b836001600160a01b0316866001600160a01b031610156114fa5760006114bf878686611609565b905060006114ce878986611673565b9050806001600160801b0316826001600160801b0316106114ef57806114f1565b815b92505050610759565b611505858584611673565b9695505050505050565b604080516001600160a01b0385811660248301528481166044830152606480830185905283518084039091018152608490920183526020820180516001600160e01b03166323b872dd60e01b17905291516000928392908816916115739190611cb6565b6000604051808303816000865af19150503d80600081146115b0576040519150601f19603f3d011682016040523d82523d6000602084013e6115b5565b606091505b50915091508115806115e357508051158015906115e35750808060200190518101906115e1919061192e565b155b15611601576040516316369daf60e31b815260040160405180910390fd5b505050505050565b6000826001600160a01b0316846001600160a01b03161115611629579192915b600061164c856001600160a01b0316856001600160a01b0316600160601b6116a9565b905061075961166e84836116608989611e07565b6001600160a01b03166116a9565b61182e565b6000826001600160a01b0316846001600160a01b03161115611693579192915b61106161166e83600160601b6116608888611e07565b6000808060001985870985870292508281108382030391505080600014156116e357600084116116d857600080fd5b50829004905061071e565b8084116116ef57600080fd5b60008486880980840393811190920391905060008561171081600019611e2f565b61171b906001611dbc565b1695869004959384900493600081900304600101905061173b8184611de8565b90931792600061174c876003611de8565b600218905061175b8188611de8565b611766906002611e2f565b6117709082611de8565b905061177c8188611de8565b611787906002611e2f565b6117919082611de8565b905061179d8188611de8565b6117a8906002611e2f565b6117b29082611de8565b90506117be8188611de8565b6117c9906002611e2f565b6117d39082611de8565b90506117df8188611de8565b6117ea906002611e2f565b6117f49082611de8565b90506118008188611de8565b61180b906002611e2f565b6118159082611de8565b90506118218186611de8565b9998505050505050505050565b806001600160801b038116811461184457600080fd5b919050565b8051801515811461184457600080fd5b805161ffff8116811461184457600080fd5b60006020828403121561187d57600080fd5b813561071e81611f2d565b6000806040838503121561189b57600080fd5b82356118a681611f2d565b915060208301356118b681611f2d565b809150509250929050565b6000806000606084860312156118d657600080fd5b83356118e181611f2d565b925060208401356118f181611f2d565b929592945050506040919091013590565b6000806040838503121561191557600080fd5b823561192081611f2d565b946020939093013593505050565b60006020828403121561194057600080fd5b61071e82611849565b6000818303608081121561195c57600080fd5b604080519081016001600160401b038111828210171561198c57634e487b7160e01b600052604160045260246000fd5b604052606082121561199d57600080fd5b6119a5611d86565b915083356119b281611f2d565b825260208401356119c281611f2d565b6020830152604084013562ffffff811681146119dd57600080fd5b60408301529081526060830135906119f482611f2d565b60208101919091529392505050565b60008060408385031215611a1657600080fd5b8251611a2181611f45565b60208401519092506118b681611f45565b60008060008060808587031215611a4857600080fd5b8435611a5381611f45565b935060208501359250604085013591506060850135611a7181611f2d565b939692955090935050565b600080600080600060a08688031215611a9457600080fd5b8551611a9f81611f45565b8095505060208601519350604086015192506060860151611abf81611f45565b6080870151909250611ad081611f45565b809150509295509295909350565b600080600080600080600060e0888a031215611af957600080fd5b8751611b0481611f2d565b8097505060208801518060020b8114611b1c57600080fd5b9550611b2a60408901611859565b9450611b3860608901611859565b9350611b4660808901611859565b925060a088015160ff81168114611b5c57600080fd5b9150611b6a60c08901611849565b905092959891949750929550565b60008060408385031215611b8b57600080fd5b505080516020909101519092909150565b60008060008060608587031215611bb257600080fd5b843593506020850135925060408501356001600160401b0380821115611bd757600080fd5b818701915087601f830112611beb57600080fd5b813581811115611bfa57600080fd5b886020828501011115611c0c57600080fd5b95989497505060200194505050565b600080600080600060a08688031215611c3357600080fd5b853594506020860135935060408601359250606086013591506080860135611ad081611f2d565b60008151808452611c72816020860160208601611e46565b601f01601f19169290920160200192915050565b60609390931b6001600160601b0319168352600291820b60e890811b6014850152910b901b6017820152601a0190565b60008251611cc8818460208701611e46565b9190910192915050565b6001600160a01b0391909116815260200190565b6001600160a01b0386168152600285810b602083015284900b60408201526001600160801b038316606082015260a060808201819052600090611d2b90830184611c5a565b979650505050505050565b6001600160a01b03959095168552600293840b60208601529190920b60408401526001600160801b03918216606084015216608082015260a00190565b60208152600061071e6020830184611c5a565b604051606081016001600160401b0381118282101715611db657634e487b7160e01b600052604160045260246000fd5b60405290565b60008219821115611dcf57611dcf611f01565b500190565b600082611de357611de3611f17565b500490565b6000816000190483118215151615611e0257611e02611f01565b500290565b60006001600160a01b0383811690831681811015611e2757611e27611f01565b039392505050565b600082821015611e4157611e41611f01565b500390565b60005b83811015611e61578181015183820152602001611e49565b838111156114475750506000910152565b600181811c90821680611e8657607f821691505b60208210811415611ea757634e487b7160e01b600052602260045260246000fd5b50919050565b600082611ebc57611ebc611f17565b500690565b60008160020b627fffff19811415611edb57611edb611f01565b60000392915050565b6000600160ff1b821415611efa57611efa611f01565b5060000390565b634e487b7160e01b600052601160045260246000fd5b634e487b7160e01b600052601260045260246000fd5b6001600160a01b0381168114611f4257600080fd5b50565b6001600160801b0381168114611f4257600080fdfeddf252ad1be2c89b69c2b068fc378daa952ba7f163c4a11628f55a4df523b3ef8c5be1e5ebec7d5bd14f71427d1e84f3dd0314c0f7b2291e5b200ac8c7c3b925a26469706673582212205bc9ff73b95ba8fa9d01a59f8cdcde928df4dc3ced86457aa713d2dcbca1a31164736f6c63430008070033",
  "linkReferences": {},
  "deployedLinkReferences": {}
}