{
  "_format": "hh-sol-artifact-1",
  "contractName": "UniV3PairManager",
  "sourceName": "solidity/contracts/UniV3PairManager.sol",
  "abi": [
    {
      "inputs": [
        {
          "internalType": "address",
          "name": "_pool",
          "type": "address"
        },
        {
          "internalType": "address",
          "name": "_governance",
          "type": "address"
        }
      ],
      "stateMutability": "nonpayable",
      "type": "constructor"
    },
    {
      "anonymous": false,
      "inputs": [
        {
          "indexed": true,
          "internalType": "address",
          "name": "owner",
          "type": "address"
        },
        {
          "indexed": true,
          "internalType": "address",
          "name": "spender",
          "type": "address"
        },
        {
          "indexed": false,
          "internalType": "uint256",
          "name": "value",
          "type": "uint256"
        }
      ],
      "name": "Approval",
      "type": "event"
    },
    {
      "anonymous": false,
      "inputs": [
        {
          "indexed": false,
          "internalType": "address",
          "name": "_pendingGovernance",
          "type": "address"
        }
      ],
      "name": "GovernanceProposal",
      "type": "event"
    },
    {
      "anonymous": false,
      "inputs": [
        {
          "indexed": false,
          "internalType": "address",
          "name": "_governance",
          "type": "address"
        }
      ],
      "name": "GovernanceSet",
      "type": "event"
    },
    {
      "anonymous": false,
      "inputs": [
        {
          "indexed": true,
          "internalType": "address",
          "name": "from",
          "type": "address"
        },
        {
          "indexed": true,
          "internalType": "address",
          "name": "to",
          "type": "address"
        },
        {
          "indexed": false,
          "internalType": "uint256",
          "name": "value",
          "type": "uint256"
        }
      ],
      "name": "Transfer",
      "type": "event"
    },
    {
      "inputs": [],
      "name": "acceptGovernance",
      "outputs": [],
      "stateMutability": "nonpayable",
      "type": "function"
    },
    {
      "inputs": [
        {
          "internalType": "address",
          "name": "",
          "type": "address"
        },
        {
          "internalType": "address",
          "name": "",
          "type": "address"
        }
      ],
      "name": "allowance",
      "outputs": [
        {
          "internalType": "uint256",
          "name": "",
          "type": "uint256"
        }
      ],
      "stateMutability": "view",
      "type": "function"
    },
    {
      "inputs": [
        {
          "internalType": "address",
          "name": "spender",
          "type": "address"
        },
        {
          "internalType": "uint256",
          "name": "amount",
          "type": "uint256"
        }
      ],
      "name": "approve",
      "outputs": [
        {
          "internalType": "bool",
          "name": "",
          "type": "bool"
        }
      ],
      "stateMutability": "nonpayable",
      "type": "function"
    },
    {
      "inputs": [
        {
          "internalType": "address",
          "name": "",
          "type": "address"
        }
      ],
      "name": "balanceOf",
      "outputs": [
        {
          "internalType": "uint256",
          "name": "",
          "type": "uint256"
        }
      ],
      "stateMutability": "view",
      "type": "function"
    },
    {
      "inputs": [
        {
          "internalType": "uint128",
          "name": "liquidity",
          "type": "uint128"
        },
        {
          "internalType": "uint256",
          "name": "amount0Min",
          "type": "uint256"
        },
        {
          "internalType": "uint256",
          "name": "amount1Min",
          "type": "uint256"
        },
        {
          "internalType": "address",
          "name": "to",
          "type": "address"
        }
      ],
      "name": "burn",
      "outputs": [
        {
          "internalType": "uint256",
          "name": "amount0",
          "type": "uint256"
        },
        {
          "internalType": "uint256",
          "name": "amount1",
          "type": "uint256"
        }
      ],
      "stateMutability": "nonpayable",
      "type": "function"
    },
    {
      "inputs": [],
      "name": "collect",
      "outputs": [
        {
          "internalType": "uint256",
          "name": "amount0",
          "type": "uint256"
        },
        {
          "internalType": "uint256",
          "name": "amount1",
          "type": "uint256"
        }
      ],
      "stateMutability": "nonpayable",
      "type": "function"
    },
    {
      "inputs": [],
      "name": "decimals",
      "outputs": [
        {
          "internalType": "uint8",
          "name": "",
          "type": "uint8"
        }
      ],
      "stateMutability": "view",
      "type": "function"
    },
    {
      "inputs": [],
      "name": "fee",
      "outputs": [
        {
          "internalType": "uint24",
          "name": "",
          "type": "uint24"
        }
      ],
      "stateMutability": "view",
      "type": "function"
    },
    {
      "inputs": [],
      "name": "governance",
      "outputs": [
        {
          "internalType": "address",
          "name": "",
          "type": "address"
        }
      ],
      "stateMutability": "view",
      "type": "function"
    },
    {
      "inputs": [
        {
          "internalType": "uint256",
          "name": "amount0Desired",
          "type": "uint256"
        },
        {
          "internalType": "uint256",
          "name": "amount1Desired",
          "type": "uint256"
        },
        {
          "internalType": "uint256",
          "name": "amount0Min",
          "type": "uint256"
        },
        {
          "internalType": "uint256",
          "name": "amount1Min",
          "type": "uint256"
        },
        {
          "internalType": "address",
          "name": "to",
          "type": "address"
        }
      ],
      "name": "mint",
      "outputs": [
        {
          "internalType": "uint128",
          "name": "liquidity",
          "type": "uint128"
        }
      ],
      "stateMutability": "nonpayable",
      "type": "function"
    },
    {
      "inputs": [],
      "name": "name",
      "outputs": [
        {
          "internalType": "string",
          "name": "",
          "type": "string"
        }
      ],
      "stateMutability": "view",
      "type": "function"
    },
    {
      "inputs": [],
      "name": "pendingGovernance",
      "outputs": [
        {
          "internalType": "address",
          "name": "",
          "type": "address"
        }
      ],
      "stateMutability": "view",
      "type": "function"
    },
    {
      "inputs": [],
      "name": "pool",
      "outputs": [
        {
          "internalType": "address",
          "name": "",
          "type": "address"
        }
      ],
      "stateMutability": "view",
      "type": "function"
    },
    {
      "inputs": [],
      "name": "position",
      "outputs": [
        {
          "internalType": "uint128",
          "name": "liquidity",
          "type": "uint128"
        },
        {
          "internalType": "uint256",
          "name": "feeGrowthInside0LastX128",
          "type": "uint256"
        },
        {
          "internalType": "uint256",
          "name": "feeGrowthInside1LastX128",
          "type": "uint256"
        },
        {
          "internalType": "uint128",
          "name": "tokensOwed0",
          "type": "uint128"
        },
        {
          "internalType": "uint128",
          "name": "tokensOwed1",
          "type": "uint128"
        }
      ],
      "stateMutability": "view",
      "type": "function"
    },
    {
      "inputs": [
        {
          "internalType": "address",
          "name": "_governance",
          "type": "address"
        }
      ],
      "name": "setGovernance",
      "outputs": [],
      "stateMutability": "nonpayable",
      "type": "function"
    },
    {
      "inputs": [],
      "name": "sqrtRatioAX96",
      "outputs": [
        {
          "internalType": "uint160",
          "name": "",
          "type": "uint160"
        }
      ],
      "stateMutability": "view",
      "type": "function"
    },
    {
      "inputs": [],
      "name": "sqrtRatioBX96",
      "outputs": [
        {
          "internalType": "uint160",
          "name": "",
          "type": "uint160"
        }
      ],
      "stateMutability": "view",
      "type": "function"
    },
    {
      "inputs": [],
      "name": "symbol",
      "outputs": [
        {
          "internalType": "string",
          "name": "",
          "type": "string"
        }
      ],
      "stateMutability": "view",
      "type": "function"
    },
    {
      "inputs": [],
      "name": "token0",
      "outputs": [
        {
          "internalType": "address",
          "name": "",
          "type": "address"
        }
      ],
      "stateMutability": "view",
      "type": "function"
    },
    {
      "inputs": [],
      "name": "token1",
      "outputs": [
        {
          "internalType": "address",
          "name": "",
          "type": "address"
        }
      ],
      "stateMutability": "view",
      "type": "function"
    },
    {
      "inputs": [],
      "name": "totalSupply",
      "outputs": [
        {
          "internalType": "uint256",
          "name": "",
          "type": "uint256"
        }
      ],
      "stateMutability": "view",
      "type": "function"
    },
    {
      "inputs": [
        {
          "internalType": "address",
          "name": "to",
          "type": "address"
        },
        {
          "internalType": "uint256",
          "name": "amount",
          "type": "uint256"
        }
      ],
      "name": "transfer",
      "outputs": [
        {
          "internalType": "bool",
          "name": "",
          "type": "bool"
        }
      ],
      "stateMutability": "nonpayable",
      "type": "function"
    },
    {
      "inputs": [
        {
          "internalType": "address",
          "name": "from",
          "type": "address"
        },
        {
          "internalType": "address",
          "name": "to",
          "type": "address"
        },
        {
          "internalType": "uint256",
          "name": "amount",
          "type": "uint256"
        }
      ],
      "name": "transferFrom",
      "outputs": [
        {
          "internalType": "bool",
          "name": "",
          "type": "bool"
        }
      ],
      "stateMutability": "nonpayable",
      "type": "function"
    },
    {
      "inputs": [
        {
          "internalType": "uint256",
          "name": "amount0Owed",
          "type": "uint256"
        },
        {
          "internalType": "uint256",
          "name": "amount1Owed",
          "type": "uint256"
        },
        {
          "internalType": "bytes",
          "name": "data",
          "type": "bytes"
        }
      ],
      "name": "uniswapV3MintCallback",
      "outputs": [],
      "stateMutability": "nonpayable",
      "type": "function"
    }
  ],
  "bytecode": "0x61014060405260006004553480156200001757600080fd5b5060405162002e6338038062002e638339810160408190526200003a9162000ad1565b806001600160a01b038116620000975760405162461bcd60e51b815260206004820152601960248201527f4e6f476f7665726e616e63655a65726f4164647265737328290000000000000060448201526064015b60405180910390fd5b600080546001600160a01b0319166001600160a01b03928316178155606084901b6001600160601b03191660c0526040805163ddca3f4360e01b81529051919285169163ddca3f4391600480820192602092909190829003018186803b1580156200010157600080fd5b505afa15801562000116573d6000803e3d6000fd5b505050506040513d601f19601f820116820180604052508101906200013c919062000bc1565b90508062ffffff1660e08162ffffff1660e81b815250506000836001600160a01b0316630dfe16816040518163ffffffff1660e01b815260040160206040518083038186803b1580156200018f57600080fd5b505afa158015620001a4573d6000803e3d6000fd5b505050506040513d601f19601f82011682018060405250810190620001ca919062000aac565b90506000846001600160a01b031663d21220a76040518163ffffffff1660e01b815260040160206040518083038186803b1580156200020857600080fd5b505afa1580156200021d573d6000803e3d6000fd5b505050506040513d601f19601f8201168201806040525081019062000243919062000aac565b6001600160601b0319606084811b821660805282901b1660a052604080516395d89b4160e01b815290519192506001600160a01b038416916395d89b4191600480820192600092909190829003018186803b158015620002a257600080fd5b505afa158015620002b7573d6000803e3d6000fd5b505050506040513d6000823e601f3d908101601f19168201604052620002e1919081019062000b09565b816001600160a01b03166395d89b416040518163ffffffff1660e01b815260040160006040518083038186803b1580156200031b57600080fd5b505afa15801562000330573d6000803e3d6000fd5b505050506040513d6000823e601f3d908101601f191682016040526200035a919081019062000b09565b6040516020016200036d92919062000c38565b6040516020818303038152906040526002908051906020019062000393929190620009e9565b50816001600160a01b03166395d89b416040518163ffffffff1660e01b815260040160006040518083038186803b158015620003ce57600080fd5b505afa158015620003e3573d6000803e3d6000fd5b505050506040513d6000823e601f3d908101601f191682016040526200040d919081019062000b09565b816001600160a01b03166395d89b416040518163ffffffff1660e01b815260040160006040518083038186803b1580156200044757600080fd5b505afa1580156200045c573d6000803e3d6000fd5b505050506040513d6000823e601f3d908101601f1916820160405262000486919081019062000b09565b6040516020016200049992919062000be8565b60405160208183030381529060405260039080519060200190620004bf929190620009e9565b50620004da620d899f196200058a60201b62000c9a1760201c565b6001600160a01b0316610100816001600160a01b031660601b8152505062000510620d89a06200058a60201b62000c9a1760201c565b606090811b6001600160601b031916610120526040805191820181526001600160a01b03938416808352929093166020820181905262ffffff949094169201829052600780546001600160a01b0319169091179055600880546001600160b81b031916909217600160a01b9091021790555062000df29050565b60008060008360020b12620005a3578260020b620005b2565b8260020b620005b29062000d90565b9050620005c3620d89e71962000d6a565b60020b811115620005fb5760405162461bcd60e51b81526020600482015260016024820152601560fa1b60448201526064016200008e565b6000600182166200061157600160801b62000623565b6ffffcb933bd6fad37aa2d162d1a5940015b6001600160881b0316905060028216156200065b57608062000656826ffff97272373d413259a46990580e213a62000cc1565b901c90505b60048216156200068857608062000683826ffff2e50f5f656932ef12357cf3c7fdcc62000cc1565b901c90505b6008821615620006b5576080620006b0826fffe5caca7e10e4e61c3624eaa0941cd062000cc1565b901c90505b6010821615620006e2576080620006dd826fffcb9843d60f6159c9db58835c92664462000cc1565b901c90505b60208216156200070f5760806200070a826fff973b41fa98c081472e6896dfb254c062000cc1565b901c90505b60408216156200073c57608062000737826fff2ea16466c96a3843ec78b326b5286162000cc1565b901c90505b60808216156200076957608062000764826ffe5dee046a99a2a811c461f1969c305362000cc1565b901c90505b6101008216156200079757608062000792826ffcbe86c7900a88aedcffc83b479aa3a462000cc1565b901c90505b610200821615620007c5576080620007c0826ff987a7253ac413176f2b074cf7815e5462000cc1565b901c90505b610400821615620007f3576080620007ee826ff3392b0822b70005940c7a398e4b70f362000cc1565b901c90505b610800821615620008215760806200081c826fe7159475a2c29b7443b29c7fa6e889d962000cc1565b901c90505b6110008216156200084f5760806200084a826fd097f3bdfd2022b8845ad8f792aa582562000cc1565b901c90505b6120008216156200087d57608062000878826fa9f746462d870fdf8a65dc1f90e061e562000cc1565b901c90505b614000821615620008ab576080620008a6826f70d869a156d2a1b890bb3df62baf32f762000cc1565b901c90505b618000821615620008d9576080620008d4826f31be135f97d08fd981231505542fcfa662000cc1565b901c90505b620100008216156200090857608062000903826f09aa508b5b7a84e1c677de54f3e99bc962000cc1565b901c90505b620200008216156200093657608062000931826e5d6af8dedb81196699c329225ee60462000cc1565b901c90505b62040000821615620009635760806200095e826d2216e584f5fa1ea926041bedfe9862000cc1565b901c90505b620800008216156200098e57608062000989826b048a170391f7dc42444e8fa262000cc1565b901c90505b60008460020b1315620009ac57620009a98160001962000caa565b90505b620009bd6401000000008262000d53565b15620009cb576001620009ce565b60005b620009e19060ff16602083901c62000c8f565b949350505050565b828054620009f79062000d16565b90600052602060002090601f01602090048101928262000a1b576000855562000a66565b82601f1062000a3657805160ff191683800117855562000a66565b8280016001018555821562000a66579182015b8281111562000a6657825182559160200191906001019062000a49565b5062000a7492915062000a78565b5090565b5b8082111562000a74576000815560010162000a79565b80516001600160a01b038116811462000aa757600080fd5b919050565b60006020828403121562000abf57600080fd5b62000aca8262000a8f565b9392505050565b6000806040838503121562000ae557600080fd5b62000af08362000a8f565b915062000b006020840162000a8f565b90509250929050565b60006020828403121562000b1c57600080fd5b81516001600160401b038082111562000b3457600080fd5b818401915084601f83011262000b4957600080fd5b81518181111562000b5e5762000b5e62000ddc565b604051601f8201601f19908116603f0116810190838211818310171562000b895762000b8962000ddc565b8160405282815287602084870101111562000ba357600080fd5b62000bb683602083016020880162000ce3565b979650505050505050565b60006020828403121562000bd457600080fd5b815162ffffff8116811462000aca57600080fd5b636b4c502d60e01b81526000835162000c0981600485016020880162000ce3565b602f60f81b600491840191820152835162000c2c81600584016020880162000ce3565b01600501949350505050565b6a025b2b2b819b926281016960ad1b81526000835162000c6081600b85016020880162000ce3565b602f60f81b600b91840191820152835162000c8381600c84016020880162000ce3565b01600c01949350505050565b6000821982111562000ca55762000ca562000db0565b500190565b60008262000cbc5762000cbc62000dc6565b500490565b600081600019048311821515161562000cde5762000cde62000db0565b500290565b60005b8381101562000d0057818101518382015260200162000ce6565b8381111562000d10576000848401525b50505050565b600181811c9082168062000d2b57607f821691505b6020821081141562000d4d57634e487b7160e01b600052602260045260246000fd5b50919050565b60008262000d655762000d6562000dc6565b500690565b60008160020b627fffff1981141562000d875762000d8762000db0565b60000392915050565b6000600160ff1b82141562000da95762000da962000db0565b5060000390565b634e487b7160e01b600052601160045260246000fd5b634e487b7160e01b600052601260045260246000fd5b634e487b7160e01b600052604160045260246000fd5b60805160601c60a05160601c60c05160601c60e05160e81c6101005160601c6101205160601c611fbb62000ea86000396000818161030d015261120e01526000818161024001526111ed015260006103c10152600081816101e5015281816104aa0152818161086401528181610925015281816109f301528181610a6201528181610aa001528181610afe01528181610beb0152818161115001526112c50152600061035c015260006101b10152611fbb6000f3fe608060405234801561001057600080fd5b50600436106101285760003560e01c806306fdde031461012d57806309218e911461014b578063095ea7b3146101895780630dfe1681146101ac57806316f0115b146101e057806318160ddd14610207578063238efcbc1461021e57806323b872dd146102285780632ea28f5b1461023b578063313ce567146102625780635aa6e6751461027c57806370a082311461028f57806395d89b41146102af578063a3e6dc28146102b7578063a9059cbb146102e2578063ab033ea9146102f5578063c627526114610308578063cf51148d1461032f578063d21220a714610357578063d34879971461037e578063dd62ed3e14610391578063ddca3f43146103bc578063e5225381146103f7578063f39c38a0146103ff575b600080fd5b610135610412565b6040516101429190611d07565b60405180910390f35b6101536104a0565b604080516001600160801b039687168152602081019590955284019290925283166060830152909116608082015260a001610142565b61019c610197366004611896565b610588565b6040519015158152602001610142565b6101d37f000000000000000000000000000000000000000000000000000000000000000081565b6040516101429190611c66565b6101d37f000000000000000000000000000000000000000000000000000000000000000081565b61021060045481565b604051908152602001610142565b6102266105e2565b005b61019c610236366004611855565b61069c565b6101d37f000000000000000000000000000000000000000000000000000000000000000081565b61026a601281565b60405160ff9091168152602001610142565b6000546101d3906001600160a01b031681565b61021061029d3660046117ff565b60066020526000908152604090205481565b610135610753565b6102ca6102c5366004611baf565b610760565b6040516001600160801b039091168152602001610142565b61019c6102f0366004611896565b610790565b6102266103033660046117ff565b6107a6565b6101d37f000000000000000000000000000000000000000000000000000000000000000081565b61034261033d3660046119c6565b610826565b60408051928352602083019190915201610142565b6101d37f000000000000000000000000000000000000000000000000000000000000000081565b61022661038c366004611b30565b6109d8565b61021061039f36600461181c565b600560209081526000928352604080842090915290825290205481565b6103e37f000000000000000000000000000000000000000000000000000000000000000081565b60405162ffffff9091168152602001610142565b610342610acc565b6001546101d3906001600160a01b031681565b6002805461041f90611e5d565b80601f016020809104026020016040519081016040528092919081815260200182805461044b90611e5d565b80156104985780601f1061046d57610100808354040283529160200191610498565b820191906000526020600020905b81548152906001019060200180831161047b57829003601f168201915b505050505081565b60008060008060007f00000000000000000000000000000000000000000000000000000000000000006001600160a01b031663514ea4bf30620d899f19620d89a06040516020016104f393929190611c1a565b604051602081830303815290604052805190602001206040518263ffffffff1660e01b815260040161052791815260200190565b60a06040518083038186803b15801561053f57600080fd5b505afa158015610553573d6000803e3d6000fd5b505050506040513d601f19601f820116820180604052508101906105779190611a10565b939992985090965094509092509050565b3360008181526005602090815260408083206001600160a01b03871680855292528083208590555191929091600080516020611f66833981519152906105d19086815260200190565b60405180910390a350600192915050565b6001546001600160a01b0316331461063b5760405162461bcd60e51b81526020600482015260176024820152764f6e6c7950656e64696e67476f7665726e616e6365282960481b60448201526064015b60405180910390fd5b60018054600080546001600160a01b0383166001600160a01b031991821681179092559091169091556040517fc73be659241aade67e9a059bcf21494955018b213dbd1179054ccf928b13f3b69161069291611c66565b60405180910390a1565b6001600160a01b0383166000818152600560209081526040808320338085529252822054919290919082148015906106d657506000198114155b1561073a5760006106e78583611e1a565b6001600160a01b03888116600081815260056020908152604080832094891680845294825291829020859055905184815293945091929091600080516020611f66833981519152910160405180910390a3505b6107458686866110ac565b6001925050505b9392505050565b6003805461041f90611e5d565b600061076e86868686611148565b509091506107879050826001600160801b038316611395565b95945050505050565b600061079d3384846110ac565b50600192915050565b6000546001600160a01b031633146107d05760405162461bcd60e51b815260040161063290611d1a565b600180546001600160a01b0319166001600160a01b0383161790556040517fe987aaedf9d279143bdf1eee16cf1d0feb47742867d81083df8d6cd0a5ac857f9061081b908390611c66565b60405180910390a150565b60405163a34123a760e01b8152620d899f196004820152620d89a060248201526001600160801b038516604482015260009081906001600160a01b037f0000000000000000000000000000000000000000000000000000000000000000169063a34123a7906064016040805180830381600087803b1580156108a757600080fd5b505af11580156108bb573d6000803e3d6000fd5b505050506040513d601f19601f820116820180604052508101906108df9190611b0c565b9092509050848210806108f157508381105b1561090e5760405162461bcd60e51b815260040161063290611d44565b6040516309e3d67b60e31b81526001600160a01b037f00000000000000000000000000000000000000000000000000000000000000001690634f1eb3d890610969908690620d899f1990620d89a09088908890600401611cca565b6040805180830381600087803b15801561098257600080fd5b505af1158015610996573d6000803e3d6000fd5b505050506040513d601f19601f820116820180604052508101906109ba9190611997565b50506109cf33876001600160801b031661140d565b94509492505050565b60006109e6828401846118dd565b9050336001600160a01b037f00000000000000000000000000000000000000000000000000000000000000001614610a4d5760405162461bcd60e51b815260206004820152600a6024820152694f6e6c79506f6f6c282960b01b6044820152606401610632565b8415610a87578051516020820151610a8791907f00000000000000000000000000000000000000000000000000000000000000008861147d565b8315610ac557610ac581600001516020015182602001517f00000000000000000000000000000000000000000000000000000000000000008761147d565b5050505050565b6000805481906001600160a01b03163314610af95760405162461bcd60e51b815260040161063290611d1a565b6000807f00000000000000000000000000000000000000000000000000000000000000006001600160a01b031663514ea4bf30620d899f19620d89a0604051602001610b4793929190611c1a565b604051602081830303815290604052805190602001206040518263ffffffff1660e01b8152600401610b7b91815260200190565b60a06040518083038186803b158015610b9357600080fd5b505afa158015610ba7573d6000803e3d6000fd5b505050506040513d601f19601f82011682018060405250810190610bcb9190611a10565b6000546040516309e3d67b60e31b81529297509095506001600160a01b037f000000000000000000000000000000000000000000000000000000000000000081169550634f1eb3d89450610c3393501690620d899f1990620d89a09088908890600401611cca565b6040805180830381600087803b158015610c4c57600080fd5b505af1158015610c60573d6000803e3d6000fd5b505050506040513d601f19601f82011682018060405250810190610c849190611997565b6001600160801b03918216969116945092505050565b60008060008360020b12610cb1578260020b610cbe565b8260020b610cbe90611ecf565b9050610ccd620d89e719611eac565b60020b811115610d035760405162461bcd60e51b81526020600482015260016024820152601560fa1b6044820152606401610632565b600060018216610d1757600160801b610d29565b6ffffcb933bd6fad37aa2d162d1a5940015b6001600160881b031690506002821615610d5e576080610d59826ffff97272373d413259a46990580e213a611dd3565b901c90505b6004821615610d88576080610d83826ffff2e50f5f656932ef12357cf3c7fdcc611dd3565b901c90505b6008821615610db2576080610dad826fffe5caca7e10e4e61c3624eaa0941cd0611dd3565b901c90505b6010821615610ddc576080610dd7826fffcb9843d60f6159c9db58835c926644611dd3565b901c90505b6020821615610e06576080610e01826fff973b41fa98c081472e6896dfb254c0611dd3565b901c90505b6040821615610e30576080610e2b826fff2ea16466c96a3843ec78b326b52861611dd3565b901c90505b6080821615610e5a576080610e55826ffe5dee046a99a2a811c461f1969c3053611dd3565b901c90505b610100821615610e85576080610e80826ffcbe86c7900a88aedcffc83b479aa3a4611dd3565b901c90505b610200821615610eb0576080610eab826ff987a7253ac413176f2b074cf7815e54611dd3565b901c90505b610400821615610edb576080610ed6826ff3392b0822b70005940c7a398e4b70f3611dd3565b901c90505b610800821615610f06576080610f01826fe7159475a2c29b7443b29c7fa6e889d9611dd3565b901c90505b611000821615610f31576080610f2c826fd097f3bdfd2022b8845ad8f792aa5825611dd3565b901c90505b612000821615610f5c576080610f57826fa9f746462d870fdf8a65dc1f90e061e5611dd3565b901c90505b614000821615610f87576080610f82826f70d869a156d2a1b890bb3df62baf32f7611dd3565b901c90505b618000821615610fb2576080610fad826f31be135f97d08fd981231505542fcfa6611dd3565b901c90505b62010000821615610fde576080610fd9826f09aa508b5b7a84e1c677de54f3e99bc9611dd3565b901c90505b62020000821615611009576080611004826e5d6af8dedb81196699c329225ee604611dd3565b901c90505b6204000082161561103357608061102e826d2216e584f5fa1ea926041bedfe98611dd3565b901c90505b6208000082161561105b576080611056826b048a170391f7dc42444e8fa2611dd3565b901c90505b60008460020b13156110765761107381600019611dbf565b90505b611084600160201b82611e98565b15611090576001611093565b60005b6110a49060ff16602083901c611da7565b949350505050565b6001600160a01b038316600090815260066020526040812080548392906110d4908490611e1a565b90915550506001600160a01b03821660009081526006602052604081208054839290611101908490611da7565b92505081905550816001600160a01b0316836001600160a01b0316600080516020611f468339815191528360405161113b91815260200190565b60405180910390a3505050565b6000806000807f00000000000000000000000000000000000000000000000000000000000000006001600160a01b0316633850c7bd6040518163ffffffff1660e01b815260040160e06040518083038186803b1580156111a757600080fd5b505afa1580156111bb573d6000803e3d6000fd5b505050506040513d601f19601f820116820180604052508101906111df9190611a72565b5050505050509050611234817f00000000000000000000000000000000000000000000000000000000000000007f00000000000000000000000000000000000000000000000000000000000000008b8b61148f565b6040805160a080820183526007546001600160a01b039081168385018181526008548084166060808801918252600160a01b90920462ffffff9081166080808a01918252948952336020998a019081528a51998a019690965291518616888a01529051169086015290518216848201528451808503909101815291830193849052633c8a7d8d60e01b9093529296507f000000000000000000000000000000000000000000000000000000000000000090911691633c8a7d8d9161130a913091620d899f1991620d89a0918b919060a401611c7a565b6040805180830381600087803b15801561132357600080fd5b505af1158015611337573d6000803e3d6000fd5b505050506040513d601f19601f8201168201806040525081019061135b9190611b0c565b90935091508583108061136d57508482105b1561138a5760405162461bcd60e51b815260040161063290611d44565b509450945094915050565b80600460008282546113a79190611da7565b90915550506001600160a01b038216600090815260066020526040812080548392906113d4908490611da7565b90915550506040518181526001600160a01b03831690600090600080516020611f46833981519152906020015b60405180910390a35050565b806004600082825461141f9190611e1a565b90915550506001600160a01b0382166000908152600660205260408120805483929061144c908490611e1a565b90915550506040518181526000906001600160a01b03841690600080516020611f4683398151915290602001611401565b61148984848484611551565b50505050565b6000836001600160a01b0316856001600160a01b031611156114af579293925b846001600160a01b0316866001600160a01b0316116114da576114d3858585611673565b9050610787565b836001600160a01b0316866001600160a01b0316101561153c576000611501878686611673565b905060006115108789866116dd565b9050806001600160801b0316826001600160801b0316106115315780611533565b815b92505050610787565b6115478585846116dd565b9695505050505050565b604080516001600160a01b0385811660248301528481166044830152606480830185905283518084039091018152608490920183526020820180516001600160e01b03166323b872dd60e01b17905291516000928392908816916115b59190611c4a565b6000604051808303816000865af19150503d80600081146115f2576040519150601f19603f3d011682016040523d82523d6000602084013e6115f7565b606091505b5091509150811580611625575080511580159061162557508080602001905181019061162391906118c2565b155b1561166b5760405162461bcd60e51b8152602060048201526016602482015275556e7375636365737366756c5472616e73666572282960501b6044820152606401610632565b505050505050565b6000826001600160a01b0316846001600160a01b03161115611693579192915b60006116b6856001600160a01b0316856001600160a01b0316600160601b611713565b90506107876116d884836116ca8989611df2565b6001600160a01b0316611713565b6117c2565b6000826001600160a01b0316846001600160a01b031611156116fd579192915b6110a46116d883600160601b6116ca8888611df2565b60008080600019858709858702925082811083820303915050806000141561174d576000841161174257600080fd5b50829004905061074c565b80841161175957600080fd5b60008486880960026001871981018816978890046003810283188082028403028082028403028082028403028082028403028082028403029081029092039091026000889003889004909101858311909403939093029303949094049190911702949350505050565b806001600160801b03811681146117d857600080fd5b919050565b805180151581146117d857600080fd5b805161ffff811681146117d857600080fd5b60006020828403121561181157600080fd5b813561074c81611f18565b6000806040838503121561182f57600080fd5b823561183a81611f18565b9150602083013561184a81611f18565b809150509250929050565b60008060006060848603121561186a57600080fd5b833561187581611f18565b9250602084013561188581611f18565b929592945050506040919091013590565b600080604083850312156118a957600080fd5b82356118b481611f18565b946020939093013593505050565b6000602082840312156118d457600080fd5b61074c826117dd565b600081830360808112156118f057600080fd5b604080519081016001600160401b038111828210171561192057634e487b7160e01b600052604160045260246000fd5b604052606082121561193157600080fd5b611939611d71565b9150833561194681611f18565b8252602084013561195681611f18565b6020830152604084013562ffffff8116811461197157600080fd5b604083015290815260608301359061198882611f18565b60208101919091529392505050565b600080604083850312156119aa57600080fd5b82516119b581611f30565b602084015190925061184a81611f30565b600080600080608085870312156119dc57600080fd5b84356119e781611f30565b935060208501359250604085013591506060850135611a0581611f18565b939692955090935050565b600080600080600060a08688031215611a2857600080fd5b8551611a3381611f30565b8095505060208601519350604086015192506060860151611a5381611f30565b6080870151909250611a6481611f30565b809150509295509295909350565b600080600080600080600060e0888a031215611a8d57600080fd5b8751611a9881611f18565b8097505060208801518060020b8114611ab057600080fd5b9550611abe604089016117ed565b9450611acc606089016117ed565b9350611ada608089016117ed565b925060a088015160ff81168114611af057600080fd5b9150611afe60c089016117dd565b905092959891949750929550565b60008060408385031215611b1f57600080fd5b505080516020909101519092909150565b60008060008060608587031215611b4657600080fd5b843593506020850135925060408501356001600160401b0380821115611b6b57600080fd5b818701915087601f830112611b7f57600080fd5b813581811115611b8e57600080fd5b886020828501011115611ba057600080fd5b95989497505060200194505050565b600080600080600060a08688031215611bc757600080fd5b853594506020860135935060408601359250606086013591506080860135611a6481611f18565b60008151808452611c06816020860160208601611e31565b601f01601f19169290920160200192915050565b60609390931b6001600160601b0319168352600291820b60e890811b6014850152910b901b6017820152601a0190565b60008251611c5c818460208701611e31565b9190910192915050565b6001600160a01b0391909116815260200190565b6001600160a01b0386168152600285810b602083015284900b60408201526001600160801b038316606082015260a060808201819052600090611cbf90830184611bee565b979650505050505050565b6001600160a01b03959095168552600293840b60208601529190920b60408401526001600160801b03918216606084015216608082015260a00190565b60208152600061074c6020830184611bee565b60208082526010908201526f4f6e6c79476f7665726e616e6365282960801b604082015260600190565b602080825260139082015272457863657373697665536c697070616765282960681b604082015260600190565b604051606081016001600160401b0381118282101715611da157634e487b7160e01b600052604160045260246000fd5b60405290565b60008219821115611dba57611dba611eec565b500190565b600082611dce57611dce611f02565b500490565b6000816000190483118215151615611ded57611ded611eec565b500290565b60006001600160a01b0383811690831681811015611e1257611e12611eec565b039392505050565b600082821015611e2c57611e2c611eec565b500390565b60005b83811015611e4c578181015183820152602001611e34565b838111156114895750506000910152565b600181811c90821680611e7157607f821691505b60208210811415611e9257634e487b7160e01b600052602260045260246000fd5b50919050565b600082611ea757611ea7611f02565b500690565b60008160020b627fffff19811415611ec657611ec6611eec565b60000392915050565b6000600160ff1b821415611ee557611ee5611eec565b5060000390565b634e487b7160e01b600052601160045260246000fd5b634e487b7160e01b600052601260045260246000fd5b6001600160a01b0381168114611f2d57600080fd5b50565b6001600160801b0381168114611f2d57600080fdfeddf252ad1be2c89b69c2b068fc378daa952ba7f163c4a11628f55a4df523b3ef8c5be1e5ebec7d5bd14f71427d1e84f3dd0314c0f7b2291e5b200ac8c7c3b925a2646970667358221220bd8b2dfcdf85820c83e2cf874f773ace6bcd6045e670b08ff6800a85afabdf7364736f6c63430008070033",
  "linkReferences": {},
  "deployedLinkReferences": {}
}