{
  "_format": "hh-sol-artifact-1",
  "contractName": "Keep3rHelper",
  "sourceName": "solidity/contracts/Keep3rHelper.sol",
  "abi": [
    {
      "inputs": [
        {
          "internalType": "address",
          "name": "_keep3rV2",
          "type": "address"
        }
      ],
      "stateMutability": "nonpayable",
      "type": "constructor"
    },
    {
      "inputs": [],
      "name": "BOOST_BASE",
      "outputs": [
        {
          "internalType": "uint256",
          "name": "",
          "type": "uint256"
        }
      ],
      "stateMutability": "view",
      "type": "function"
    },
    {
      "inputs": [],
      "name": "KP3R",
      "outputs": [
        {
          "internalType": "address",
          "name": "",
          "type": "address"
        }
      ],
      "stateMutability": "view",
      "type": "function"
    },
    {
      "inputs": [],
      "name": "KP3R_WETH_POOL",
      "outputs": [
        {
          "internalType": "address",
          "name": "",
          "type": "address"
        }
      ],
      "stateMutability": "view",
      "type": "function"
    },
    {
      "inputs": [],
      "name": "MAX",
      "outputs": [
        {
          "internalType": "uint256",
          "name": "",
          "type": "uint256"
        }
      ],
      "stateMutability": "view",
      "type": "function"
    },
    {
      "inputs": [],
      "name": "MIN",
      "outputs": [
        {
          "internalType": "uint256",
          "name": "",
          "type": "uint256"
        }
      ],
      "stateMutability": "view",
      "type": "function"
    },
    {
      "inputs": [],
      "name": "TARGETBOND",
      "outputs": [
        {
          "internalType": "uint256",
          "name": "",
          "type": "uint256"
        }
      ],
      "stateMutability": "view",
      "type": "function"
    },
    {
      "inputs": [
        {
          "internalType": "address",
          "name": "_keeper",
          "type": "address"
        }
      ],
      "name": "bonds",
      "outputs": [
        {
          "internalType": "uint256",
          "name": "_amountBonded",
          "type": "uint256"
        }
      ],
      "stateMutability": "view",
      "type": "function"
    },
    {
      "inputs": [
        {
          "internalType": "uint256",
          "name": "_liquidityAmount",
          "type": "uint256"
        },
        {
          "internalType": "int56",
          "name": "_tickDifference",
          "type": "int56"
        },
        {
          "internalType": "uint256",
          "name": "_timeInterval",
          "type": "uint256"
        }
      ],
      "name": "getKP3RsAtTick",
      "outputs": [
        {
          "internalType": "uint256",
          "name": "_kp3rAmount",
          "type": "uint256"
        }
      ],
      "stateMutability": "pure",
      "type": "function"
    },
    {
      "inputs": [
        {
          "internalType": "address",
          "name": "_pool",
          "type": "address"
        }
      ],
      "name": "getPoolTokens",
      "outputs": [
        {
          "internalType": "address",
          "name": "_token0",
          "type": "address"
        },
        {
          "internalType": "address",
          "name": "_token1",
          "type": "address"
        }
      ],
      "stateMutability": "view",
      "type": "function"
    },
    {
      "inputs": [
        {
          "internalType": "uint128",
          "name": "_baseAmount",
          "type": "uint128"
        },
        {
          "internalType": "int56",
          "name": "_tickDifference",
          "type": "int56"
        },
        {
          "internalType": "uint256",
          "name": "_timeInterval",
          "type": "uint256"
        }
      ],
      "name": "getQuoteAtTick",
      "outputs": [
        {
          "internalType": "uint256",
          "name": "_quoteAmount",
          "type": "uint256"
        }
      ],
      "stateMutability": "pure",
      "type": "function"
    },
    {
      "inputs": [
        {
          "internalType": "uint256",
          "name": "_gasUsed",
          "type": "uint256"
        }
      ],
      "name": "getRewardAmount",
      "outputs": [
        {
          "internalType": "uint256",
          "name": "_amount",
          "type": "uint256"
        }
      ],
      "stateMutability": "view",
      "type": "function"
    },
    {
      "inputs": [
        {
          "internalType": "address",
          "name": "_keeper",
          "type": "address"
        },
        {
          "internalType": "uint256",
          "name": "_gasUsed",
          "type": "uint256"
        }
      ],
      "name": "getRewardAmountFor",
      "outputs": [
        {
          "internalType": "uint256",
          "name": "_kp3r",
          "type": "uint256"
        }
      ],
      "stateMutability": "view",
      "type": "function"
    },
    {
      "inputs": [
        {
          "internalType": "uint256",
          "name": "_bonds",
          "type": "uint256"
        }
      ],
      "name": "getRewardBoostFor",
      "outputs": [
        {
          "internalType": "uint256",
          "name": "_rewardBoost",
          "type": "uint256"
        }
      ],
      "stateMutability": "view",
      "type": "function"
    },
    {
      "inputs": [
        {
          "internalType": "address",
          "name": "_pool",
          "type": "address"
        }
      ],
      "name": "isKP3RToken0",
      "outputs": [
        {
          "internalType": "bool",
          "name": "_isKP3RToken0",
          "type": "bool"
        }
      ],
      "stateMutability": "view",
      "type": "function"
    },
    {
      "inputs": [],
      "name": "keep3rV2",
      "outputs": [
        {
          "internalType": "address",
          "name": "",
          "type": "address"
        }
      ],
      "stateMutability": "view",
      "type": "function"
    },
    {
      "inputs": [
        {
          "internalType": "address",
          "name": "_pool",
          "type": "address"
        },
        {
          "internalType": "uint32[]",
          "name": "_secondsAgo",
          "type": "uint32[]"
        }
      ],
      "name": "observe",
      "outputs": [
        {
          "internalType": "int56",
          "name": "_tickCumulative1",
          "type": "int56"
        },
        {
          "internalType": "int56",
          "name": "_tickCumulative2",
          "type": "int56"
        },
        {
          "internalType": "bool",
          "name": "_success",
          "type": "bool"
        }
      ],
      "stateMutability": "view",
      "type": "function"
    },
    {
      "inputs": [
        {
          "internalType": "uint256",
          "name": "_eth",
          "type": "uint256"
        }
      ],
      "name": "quote",
      "outputs": [
        {
          "internalType": "uint256",
          "name": "_amountOut",
          "type": "uint256"
        }
      ],
      "stateMutability": "view",
      "type": "function"
    }
  ],
  "bytecode": "0x60a060405234801561001057600080fd5b5060405161145f38038061145f83398101604081905261002f91610044565b60601b6001600160601b031916608052610074565b60006020828403121561005657600080fd5b81516001600160a01b038116811461006d57600080fd5b9392505050565b60805160601c6113b86100a760003960008181610116015281816106db015281816107aa015261086001526113b86000f3fe608060405234801561001057600080fd5b50600436106100db5760003560e01c806305e0b9a0146100e0578063117cfc1b146101115780632248e82d1461013857806325f09e611461015957806337a7f2b714610162578063516c33231461016b578063696a437b1461017e5780638e686d56146101a1578063a0d27107146101b1578063ab8cedc5146101c4578063c1a67746146101d7578063c84993af146101f2578063ca4f280314610205578063d49d518114610226578063dc686d911461022f578063ed1bd76c14610267578063fe10d7741461027a575b600080fd5b6100fb731ceb5cb57c4d4e2b2433641b95dd330a33185a4481565b6040516101089190611151565b60405180910390f35b6100fb7f000000000000000000000000000000000000000000000000000000000000000081565b61014b610146366004610f4a565b61028d565b604051908152602001610108565b61014b61271081565b61014b612af881565b61014b6101793660046110f8565b6102c0565b61019161018c366004610e54565b610317565b6040519015158152602001610108565b61014b680ad78ebc5ac620000081565b61014b6101bf36600461112a565b6103ca565b61014b6101d23660046110ab565b610406565b6100fb7311b7a6bc0259ed6cf9db8f499988f9ecc7167bf581565b61014b6102003660046110f8565b6104aa565b610218610213366004610e54565b6104bc565b604051610108929190611165565b61014b612ee081565b61024261023d366004610e8e565b6105aa565b60408051600694850b81529290930b6020830152151591810191909152606001610108565b61014b6102753660046110f8565b6106b5565b61014b610288366004610e54565b610846565b60008061029c61017985610846565b90506102b86127106102ae8386611276565b6102759190611262565b949350505050565b60006102d582680ad78ebc5ac62000006108fb565b91506000610304612af8680ad78ebc5ac62000006102f586612ee0611276565b6102ff9190611262565b610911565b90506103104882611276565b9392505050565b6000806000610325846104bc565b90925090506001600160a01b038216731ceb5cb57c4d4e2b2433641b95dd330a33185a441415610359575060019392505050565b6001600160a01b038116731ceb5cb57c4d4e2b2433641b95dd330a33185a44146103c35760405162461bcd60e51b81526020600482015260166024820152754c697175696469747950616972496e76616c6964282960501b60448201526064015b60405180910390fd5b5050919050565b6000806103e36103de84600687900b611234565b610921565b90506103fd600160601b86836001600160a01b0316610d2b565b95945050505050565b60008061041a6103de84600687900b611234565b90506001600160801b036001600160a01b0382161161046a5760006104486001600160a01b03831680611276565b9050610462600160c01b876001600160801b031683610d2b565b9250506104a2565b60006104846001600160a01b03831680600160401b610d2b565b905061049e600160801b876001600160801b031683610d2b565b9250505b509392505050565b60006104b6328361028d565b92915050565b600080826001600160a01b0316630dfe16816040518163ffffffff1660e01b815260040160206040518083038186803b1580156104f857600080fd5b505afa15801561050c573d6000803e3d6000fd5b505050506040513d601f19601f820116820180604052508101906105309190610e71565b836001600160a01b031663d21220a76040518163ffffffff1660e01b815260040160206040518083038186803b15801561056957600080fd5b505afa15801561057d573d6000803e3d6000fd5b505050506040513d601f19601f820116820180604052508101906105a19190610e71565b91509150915091565b6000806000846001600160a01b031663883bdbfd856040518263ffffffff1660e01b81526004016105db919061117f565b60006040518083038186803b1580156105f357600080fd5b505afa92505050801561062857506040513d6000823e601f3d908101601f191682016040526106259190810190610f76565b60015b610662573d808015610656576040519150601f19603f3d011682016040523d82523d6000602084013e61065b565b606091505b50506106ae565b816000815181106106755761067561132f565b602002602001015194506001825111156106a7578160018151811061069c5761069c61132f565b602002602001015193505b6001925050505b9250925092565b6000806106d57311b7a6bc0259ed6cf9db8f499988f9ecc7167bf5610317565b905060007f00000000000000000000000000000000000000000000000000000000000000006001600160a01b031663165e62e77311b7a6bc0259ed6cf9db8f499988f9ecc7167bf56040518263ffffffff1660e01b81526004016107399190611151565b60606040518083038186803b15801561075157600080fd5b505afa158015610765573d6000803e3d6000fd5b505050506040513d601f19601f820116820180604052508101906107899190611041565b602001519050816107a25761079d816112e9565b6107a4565b805b905060007f00000000000000000000000000000000000000000000000000000000000000006001600160a01b031663768b5d906040518163ffffffff1660e01b815260040160206040518083038186803b15801561080157600080fd5b505afa158015610815573d6000803e3d6000fd5b505050506040513d601f19601f820116820180604052508101906108399190611111565b90506103fd858383610406565b60405163a39744b560e01b81526000906001600160a01b037f0000000000000000000000000000000000000000000000000000000000000000169063a39744b5906108ab908590731ceb5cb57c4d4e2b2433641b95dd330a33185a4490600401611165565b60206040518083038186803b1580156108c357600080fd5b505afa1580156108d7573d6000803e3d6000fd5b505050506040513d601f19601f820116820180604052508101906104b69190611111565b600081831061090a5781610310565b5090919050565b60008183101561090a5781610310565b60008060008360020b12610938578260020b610945565b8260020b610945906112cc565b9050610954620d89e7196112a9565b60020b81111561098a5760405162461bcd60e51b81526020600482015260016024820152601560fa1b60448201526064016103ba565b60006001821661099e57600160801b6109b0565b6ffffcb933bd6fad37aa2d162d1a5940015b6001600160881b0316905060028216156109e55760806109e0826ffff97272373d413259a46990580e213a611276565b901c90505b6004821615610a0f576080610a0a826ffff2e50f5f656932ef12357cf3c7fdcc611276565b901c90505b6008821615610a39576080610a34826fffe5caca7e10e4e61c3624eaa0941cd0611276565b901c90505b6010821615610a63576080610a5e826fffcb9843d60f6159c9db58835c926644611276565b901c90505b6020821615610a8d576080610a88826fff973b41fa98c081472e6896dfb254c0611276565b901c90505b6040821615610ab7576080610ab2826fff2ea16466c96a3843ec78b326b52861611276565b901c90505b6080821615610ae1576080610adc826ffe5dee046a99a2a811c461f1969c3053611276565b901c90505b610100821615610b0c576080610b07826ffcbe86c7900a88aedcffc83b479aa3a4611276565b901c90505b610200821615610b37576080610b32826ff987a7253ac413176f2b074cf7815e54611276565b901c90505b610400821615610b62576080610b5d826ff3392b0822b70005940c7a398e4b70f3611276565b901c90505b610800821615610b8d576080610b88826fe7159475a2c29b7443b29c7fa6e889d9611276565b901c90505b611000821615610bb8576080610bb3826fd097f3bdfd2022b8845ad8f792aa5825611276565b901c90505b612000821615610be3576080610bde826fa9f746462d870fdf8a65dc1f90e061e5611276565b901c90505b614000821615610c0e576080610c09826f70d869a156d2a1b890bb3df62baf32f7611276565b901c90505b618000821615610c39576080610c34826f31be135f97d08fd981231505542fcfa6611276565b901c90505b62010000821615610c65576080610c60826f09aa508b5b7a84e1c677de54f3e99bc9611276565b901c90505b62020000821615610c90576080610c8b826e5d6af8dedb81196699c329225ee604611276565b901c90505b62040000821615610cba576080610cb5826d2216e584f5fa1ea926041bedfe98611276565b901c90505b62080000821615610ce2576080610cdd826b048a170391f7dc42444e8fa2611276565b901c90505b60008460020b1315610cfd57610cfa81600019611262565b90505b610d0b600160201b82611295565b15610d17576001610d1a565b60005b6102b89060ff16602083901c61121c565b600080806000198587098587029250828110838203039150508060001415610d655760008411610d5a57600080fd5b508290049050610310565b808411610d7157600080fd5b600084868809600260036001881981018916988990049182028318808302840302808302840302808302840302808302840302808302840302918202909203026000889003889004909101858311909403939093029303949094049190911702949350505050565b600082601f830112610dea57600080fd5b81516020610dff610dfa836111f9565b6111c9565b80838252828201915082860187848660051b8901011115610e1f57600080fd5b60005b85811015610e47578151610e358161135b565b84529284019290840190600101610e22565b5090979650505050505050565b600060208284031215610e6657600080fd5b81356103108161135b565b600060208284031215610e8357600080fd5b81516103108161135b565b60008060408385031215610ea157600080fd5b8235610eac8161135b565b91506020838101356001600160401b03811115610ec857600080fd5b8401601f81018613610ed957600080fd5b8035610ee7610dfa826111f9565b80828252848201915084840189868560051b8701011115610f0757600080fd5b60009450845b84811015610f3a57813563ffffffff81168114610f28578687fd5b84529286019290860190600101610f0d565b5096999098509650505050505050565b60008060408385031215610f5d57600080fd5b8235610f688161135b565b946020939093013593505050565b60008060408385031215610f8957600080fd5b82516001600160401b0380821115610fa057600080fd5b818501915085601f830112610fb457600080fd5b81516020610fc4610dfa836111f9565b8083825282820191508286018a848660051b8901011115610fe457600080fd5b600096505b84871015611010578051610ffc81611373565b835260019690960195918301918301610fe9565b509188015191965090935050508082111561102a57600080fd5b5061103785828601610dd9565b9150509250929050565b60006060828403121561105357600080fd5b604051606081016001600160401b038111828210171561107557611075611345565b604052825161108381611373565b8152602083015161109381611373565b60208201526040928301519281019290925250919050565b6000806000606084860312156110c057600080fd5b83356001600160801b03811681146110d757600080fd5b925060208401356110e781611373565b929592945050506040919091013590565b60006020828403121561110a57600080fd5b5035919050565b60006020828403121561112357600080fd5b5051919050565b60008060006060848603121561113f57600080fd5b8335925060208401356110e781611373565b6001600160a01b0391909116815260200190565b6001600160a01b0392831681529116602082015260400190565b6020808252825182820181905260009190848201906040850190845b818110156111bd57835163ffffffff168352928401929184019160010161119b565b50909695505050505050565b604051601f8201601f191681016001600160401b03811182821017156111f1576111f1611345565b604052919050565b60006001600160401b0382111561121257611212611345565b5060051b60200190565b6000821982111561122f5761122f611303565b500190565b60008261124357611243611319565b600160ff1b82146000198414161561125d5761125d611303565b500590565b60008261127157611271611319565b500490565b600081600019048311821515161561129057611290611303565b500290565b6000826112a4576112a4611319565b500690565b60008160020b627fffff198114156112c3576112c3611303565b60000392915050565b6000600160ff1b8214156112e2576112e2611303565b5060000390565b60008160060b667fffffffffffff198114156112c3576112c35b634e487b7160e01b600052601160045260246000fd5b634e487b7160e01b600052601260045260246000fd5b634e487b7160e01b600052603260045260246000fd5b634e487b7160e01b600052604160045260246000fd5b6001600160a01b038116811461137057600080fd5b50565b8060060b811461137057600080fdfea26469706673582212202659c24a8d378c2285fce73136abfa7e130c3dc8a581717144b20b6b5e9edbb464736f6c63430008070033",
  "linkReferences": {},
  "deployedLinkReferences": {}
}