{
  "_format": "hh-sol-artifact-1",
  "contractName": "Keep3rHelper",
  "sourceName": "solidity/contracts/Keep3rHelper.sol",
  "abi": [
    {
      "inputs": [
        {
          "internalType": "address",
          "name": "_keep3rV2",
          "type": "address"
        }
      ],
      "stateMutability": "nonpayable",
      "type": "constructor"
    },
    {
      "inputs": [],
      "name": "BOOST_BASE",
      "outputs": [
        {
          "internalType": "uint256",
          "name": "",
          "type": "uint256"
        }
      ],
      "stateMutability": "view",
      "type": "function"
    },
    {
      "inputs": [],
      "name": "KP3R",
      "outputs": [
        {
          "internalType": "address",
          "name": "",
          "type": "address"
        }
      ],
      "stateMutability": "view",
      "type": "function"
    },
    {
      "inputs": [],
      "name": "KP3R_WETH_POOL",
      "outputs": [
        {
          "internalType": "address",
          "name": "",
          "type": "address"
        }
      ],
      "stateMutability": "view",
      "type": "function"
    },
    {
      "inputs": [],
      "name": "MAX",
      "outputs": [
        {
          "internalType": "uint256",
          "name": "",
          "type": "uint256"
        }
      ],
      "stateMutability": "view",
      "type": "function"
    },
    {
      "inputs": [],
      "name": "MIN",
      "outputs": [
        {
          "internalType": "uint256",
          "name": "",
          "type": "uint256"
        }
      ],
      "stateMutability": "view",
      "type": "function"
    },
    {
      "inputs": [],
      "name": "TARGETBOND",
      "outputs": [
        {
          "internalType": "uint256",
          "name": "",
          "type": "uint256"
        }
      ],
      "stateMutability": "view",
      "type": "function"
    },
    {
      "inputs": [
        {
          "internalType": "address",
          "name": "_keeper",
          "type": "address"
        }
      ],
      "name": "bonds",
      "outputs": [
        {
          "internalType": "uint256",
          "name": "_amountBonded",
          "type": "uint256"
        }
      ],
      "stateMutability": "view",
      "type": "function"
    },
    {
      "inputs": [
        {
          "internalType": "uint256",
          "name": "_gasUsed",
          "type": "uint256"
        }
      ],
      "name": "getRewardAmount",
      "outputs": [
        {
          "internalType": "uint256",
          "name": "_amount",
          "type": "uint256"
        }
      ],
      "stateMutability": "view",
      "type": "function"
    },
    {
      "inputs": [
        {
          "internalType": "address",
          "name": "_keeper",
          "type": "address"
        },
        {
          "internalType": "uint256",
          "name": "_gasUsed",
          "type": "uint256"
        }
      ],
      "name": "getRewardAmountFor",
      "outputs": [
        {
          "internalType": "uint256",
          "name": "_kp3r",
          "type": "uint256"
        }
      ],
      "stateMutability": "view",
      "type": "function"
    },
    {
      "inputs": [
        {
          "internalType": "uint256",
          "name": "_bonds",
          "type": "uint256"
        }
      ],
      "name": "getRewardBoostFor",
      "outputs": [
        {
          "internalType": "uint256",
          "name": "_rewardBoost",
          "type": "uint256"
        }
      ],
      "stateMutability": "view",
      "type": "function"
    },
    {
      "inputs": [],
      "name": "keep3rV2",
      "outputs": [
        {
          "internalType": "address",
          "name": "",
          "type": "address"
        }
      ],
      "stateMutability": "view",
      "type": "function"
    },
    {
      "inputs": [
        {
          "internalType": "uint256",
          "name": "_eth",
          "type": "uint256"
        }
      ],
      "name": "quote",
      "outputs": [
        {
          "internalType": "uint256",
          "name": "_amountOut",
          "type": "uint256"
        }
      ],
      "stateMutability": "view",
      "type": "function"
    }
  ],
  "bytecode": "0x60a060405234801561001057600080fd5b506040516108a73803806108a783398101604081905261002f91610044565b60601b6001600160601b031916608052610074565b60006020828403121561005657600080fd5b81516001600160a01b038116811461006d57600080fd5b9392505050565b60805160601c6108016100a66000396000818160df0152818161030a015281816103d9015261052201526108016000f3fe608060405234801561001057600080fd5b50600436106100a45760003560e01c806305e0b9a0146100a9578063117cfc1b146100da5780632248e82d1461010157806325f09e611461012257806337a7f2b71461012b578063516c3323146101345780638e686d5614610147578063c1a6774614610157578063c84993af14610172578063d49d518114610185578063ed1bd76c1461018e578063fe10d774146101a1575b600080fd5b6100c4731ceb5cb57c4d4e2b2433641b95dd330a33185a4481565b6040516100d1919061071f565b60405180910390f35b6100c47f000000000000000000000000000000000000000000000000000000000000000081565b61011461010f36600461062c565b6101b4565b6040519081526020016100d1565b61011461271081565b610114612af881565b6101146101423660046106ed565b6101e7565b610114680ad78ebc5ac620000081565b6100c47311b7a6bc0259ed6cf9db8f499988f9ecc7167bf581565b6101146101803660046106ed565b61023e565b610114612ee081565b61011461019c3660046106ed565b610250565b6101146101af366004610611565b610508565b6000806101c361014285610508565b90506101df6127106101d5838661076f565b61019c919061074d565b949350505050565b60006101fc82680ad78ebc5ac62000006105bd565b9150600061022b612af8680ad78ebc5ac620000061021c86612ee061076f565b610226919061074d565b6105d3565b9050610237488261076f565b9392505050565b600061024a32836101b4565b92915050565b60008073__$c5dd7ebc0ce14d94f217945953a329b66b$__630a5b5227731ceb5cb57c4d4e2b2433641b95dd330a33185a447311b7a6bc0259ed6cf9db8f499988f9ecc7167bf56040518363ffffffff1660e01b81526004016102b4929190610733565b60206040518083038186803b1580156102cc57600080fd5b505af41580156102e0573d6000803e3d6000fd5b505050506040513d601f19601f820116820180604052508101906103049190610656565b905060007f00000000000000000000000000000000000000000000000000000000000000006001600160a01b031663165e62e77311b7a6bc0259ed6cf9db8f499988f9ecc7167bf56040518263ffffffff1660e01b8152600401610368919061071f565b60606040518083038186803b15801561038057600080fd5b505afa158015610394573d6000803e3d6000fd5b505050506040513d601f19601f820116820180604052508101906103b89190610678565b602001519050816103d1576103cc8161078e565b6103d3565b805b905060007f00000000000000000000000000000000000000000000000000000000000000006001600160a01b031663768b5d906040518163ffffffff1660e01b815260040160206040518083038186803b15801561043057600080fd5b505afa158015610444573d6000803e3d6000fd5b505050506040513d601f19601f820116820180604052508101906104689190610706565b60405163a58c72e360e01b815260048101879052600684900b60248201526044810182905290915073__$c5dd7ebc0ce14d94f217945953a329b66b$__9063a58c72e39060640160206040518083038186803b1580156104c757600080fd5b505af41580156104db573d6000803e3d6000fd5b505050506040513d601f19601f820116820180604052508101906104ff9190610706565b95945050505050565b60405163a39744b560e01b81526000906001600160a01b037f0000000000000000000000000000000000000000000000000000000000000000169063a39744b59061056d908590731ceb5cb57c4d4e2b2433641b95dd330a33185a4490600401610733565b60206040518083038186803b15801561058557600080fd5b505afa158015610599573d6000803e3d6000fd5b505050506040513d601f19601f8201168201806040525081019061024a9190610706565b60008183106105cc5781610237565b5090919050565b6000818310156105cc5781610237565b80356001600160a01b03811681146105fa57600080fd5b919050565b8051600681900b81146105fa57600080fd5b60006020828403121561062357600080fd5b610237826105e3565b6000806040838503121561063f57600080fd5b610648836105e3565b946020939093013593505050565b60006020828403121561066857600080fd5b8151801515811461023757600080fd5b60006060828403121561068a57600080fd5b604051606081016001600160401b03811182821017156106ba57634e487b7160e01b600052604160045260246000fd5b6040526106c6836105ff565b81526106d4602084016105ff565b6020820152604083015160408201528091505092915050565b6000602082840312156106ff57600080fd5b5035919050565b60006020828403121561071857600080fd5b5051919050565b6001600160a01b0391909116815260200190565b6001600160a01b0392831681529116602082015260400190565b60008261076a57634e487b7160e01b600052601260045260246000fd5b500490565b6000816000190483118215151615610789576107896107b5565b500290565b60008160060b667fffffffffffff198114156107ac576107ac6107b5565b60000392915050565b634e487b7160e01b600052601160045260246000fdfea2646970667358221220e4b609b3b5de23cd9af12fba92d714e096e29efb3747555420f8dc564c7ec79a64736f6c63430008070033",
  "linkReferences": {
    "solidity/contracts/libraries/Keep3rLibrary.sol": {
      "Keep3rLibrary": [
        {
          "length": 20,
          "start": 763
        },
        {
          "length": 20,
          "start": 1336
        }
      ]
    }
  },
  "deployedLinkReferences": {
    "solidity/contracts/libraries/Keep3rLibrary.sol": {
      "Keep3rLibrary": [
        {
          "length": 20,
          "start": 597
        },
        {
          "length": 20,
          "start": 1170
        }
      ]
    }
  }
}