{
  "_format": "hh-sol-artifact-1",
  "contractName": "Keep3rHelperForTest",
  "sourceName": "solidity/for-test/Keep3rHelperForTest.sol",
  "abi": [
    {
      "inputs": [
        {
          "internalType": "address",
          "name": "_keep3rV2",
          "type": "address"
        }
      ],
      "stateMutability": "nonpayable",
      "type": "constructor"
    },
    {
      "inputs": [],
      "name": "LiquidityPairInvalid",
      "type": "error"
    },
    {
      "inputs": [],
      "name": "BOOST_BASE",
      "outputs": [
        {
          "internalType": "uint256",
          "name": "",
          "type": "uint256"
        }
      ],
      "stateMutability": "view",
      "type": "function"
    },
    {
      "inputs": [],
      "name": "KP3R",
      "outputs": [
        {
          "internalType": "address",
          "name": "",
          "type": "address"
        }
      ],
      "stateMutability": "view",
      "type": "function"
    },
    {
      "inputs": [],
      "name": "KP3R_WETH_POOL",
      "outputs": [
        {
          "internalType": "address",
          "name": "",
          "type": "address"
        }
      ],
      "stateMutability": "view",
      "type": "function"
    },
    {
      "inputs": [],
      "name": "MAX",
      "outputs": [
        {
          "internalType": "uint256",
          "name": "",
          "type": "uint256"
        }
      ],
      "stateMutability": "view",
      "type": "function"
    },
    {
      "inputs": [],
      "name": "MIN",
      "outputs": [
        {
          "internalType": "uint256",
          "name": "",
          "type": "uint256"
        }
      ],
      "stateMutability": "view",
      "type": "function"
    },
    {
      "inputs": [],
      "name": "TARGETBOND",
      "outputs": [
        {
          "internalType": "uint256",
          "name": "",
          "type": "uint256"
        }
      ],
      "stateMutability": "view",
      "type": "function"
    },
    {
      "inputs": [],
      "name": "basefee",
      "outputs": [
        {
          "internalType": "uint256",
          "name": "",
          "type": "uint256"
        }
      ],
      "stateMutability": "view",
      "type": "function"
    },
    {
      "inputs": [
        {
          "internalType": "address",
          "name": "_keeper",
          "type": "address"
        }
      ],
      "name": "bonds",
      "outputs": [
        {
          "internalType": "uint256",
          "name": "_amountBonded",
          "type": "uint256"
        }
      ],
      "stateMutability": "view",
      "type": "function"
    },
    {
      "inputs": [
        {
          "internalType": "uint256",
          "name": "_liquidityAmount",
          "type": "uint256"
        },
        {
          "internalType": "int56",
          "name": "_tickDifference",
          "type": "int56"
        },
        {
          "internalType": "uint256",
          "name": "_timeInterval",
          "type": "uint256"
        }
      ],
      "name": "getKP3RsAtTick",
      "outputs": [
        {
          "internalType": "uint256",
          "name": "_kp3rAmount",
          "type": "uint256"
        }
      ],
      "stateMutability": "pure",
      "type": "function"
    },
    {
      "inputs": [
        {
          "internalType": "address",
          "name": "_pool",
          "type": "address"
        }
      ],
      "name": "getPoolTokens",
      "outputs": [
        {
          "internalType": "address",
          "name": "_token0",
          "type": "address"
        },
        {
          "internalType": "address",
          "name": "_token1",
          "type": "address"
        }
      ],
      "stateMutability": "view",
      "type": "function"
    },
    {
      "inputs": [
        {
          "internalType": "uint128",
          "name": "_baseAmount",
          "type": "uint128"
        },
        {
          "internalType": "int56",
          "name": "_tickDifference",
          "type": "int56"
        },
        {
          "internalType": "uint256",
          "name": "_timeInterval",
          "type": "uint256"
        }
      ],
      "name": "getQuoteAtTick",
      "outputs": [
        {
          "internalType": "uint256",
          "name": "_quoteAmount",
          "type": "uint256"
        }
      ],
      "stateMutability": "pure",
      "type": "function"
    },
    {
      "inputs": [
        {
          "internalType": "uint256",
          "name": "_gasUsed",
          "type": "uint256"
        }
      ],
      "name": "getRewardAmount",
      "outputs": [
        {
          "internalType": "uint256",
          "name": "_amount",
          "type": "uint256"
        }
      ],
      "stateMutability": "view",
      "type": "function"
    },
    {
      "inputs": [
        {
          "internalType": "address",
          "name": "_keeper",
          "type": "address"
        },
        {
          "internalType": "uint256",
          "name": "_gasUsed",
          "type": "uint256"
        }
      ],
      "name": "getRewardAmountFor",
      "outputs": [
        {
          "internalType": "uint256",
          "name": "_kp3r",
          "type": "uint256"
        }
      ],
      "stateMutability": "view",
      "type": "function"
    },
    {
      "inputs": [
        {
          "internalType": "uint256",
          "name": "_bonds",
          "type": "uint256"
        }
      ],
      "name": "getRewardBoostFor",
      "outputs": [
        {
          "internalType": "uint256",
          "name": "_rewardBoost",
          "type": "uint256"
        }
      ],
      "stateMutability": "view",
      "type": "function"
    },
    {
      "inputs": [
        {
          "internalType": "address",
          "name": "_pool",
          "type": "address"
        }
      ],
      "name": "isKP3RToken0",
      "outputs": [
        {
          "internalType": "bool",
          "name": "_isKP3RToken0",
          "type": "bool"
        }
      ],
      "stateMutability": "view",
      "type": "function"
    },
    {
      "inputs": [],
      "name": "keep3rV2",
      "outputs": [
        {
          "internalType": "address",
          "name": "",
          "type": "address"
        }
      ],
      "stateMutability": "view",
      "type": "function"
    },
    {
      "inputs": [
        {
          "internalType": "address",
          "name": "_pool",
          "type": "address"
        },
        {
          "internalType": "uint32[]",
          "name": "_secondsAgo",
          "type": "uint32[]"
        }
      ],
      "name": "observe",
      "outputs": [
        {
          "internalType": "int56",
          "name": "_tickCumulative1",
          "type": "int56"
        },
        {
          "internalType": "int56",
          "name": "_tickCumulative2",
          "type": "int56"
        },
        {
          "internalType": "bool",
          "name": "_success",
          "type": "bool"
        }
      ],
      "stateMutability": "view",
      "type": "function"
    },
    {
      "inputs": [
        {
          "internalType": "uint256",
          "name": "_eth",
          "type": "uint256"
        }
      ],
      "name": "quote",
      "outputs": [
        {
          "internalType": "uint256",
          "name": "_amountOut",
          "type": "uint256"
        }
      ],
      "stateMutability": "view",
      "type": "function"
    },
    {
      "inputs": [
        {
          "internalType": "uint256",
          "name": "_baseFee",
          "type": "uint256"
        }
      ],
      "name": "setBaseFee",
      "outputs": [],
      "stateMutability": "nonpayable",
      "type": "function"
    },
    {
      "inputs": [
        {
          "internalType": "bool",
          "name": "_shouldFail",
          "type": "bool"
        }
      ],
      "name": "setShouldFail",
      "outputs": [],
      "stateMutability": "nonpayable",
      "type": "function"
    },
    {
      "inputs": [],
      "name": "shouldFail",
      "outputs": [
        {
          "internalType": "bool",
          "name": "",
          "type": "bool"
        }
      ],
      "stateMutability": "view",
      "type": "function"
    }
  ],
  "bytecode": "0x60a060405234801561001057600080fd5b5060405161154038038061154083398101604081905261002f91610044565b60601b6001600160601b031916608052610074565b60006020828403121561005657600080fd5b81516001600160a01b038116811461006d57600080fd5b9392505050565b60805160601c6114996100a760003960008181610152015281816106740152818161074301526107f901526114996000f3fe608060405234801561001057600080fd5b50600436106101175760003560e01c80638e686d56116100a85780638e686d5614610208578063a0d2710714610218578063a5aa5c121461022b578063ab8cedc51461024c578063c1a677461461025f578063c84993af1461027a578063ca4f28031461028d578063d49d5181146102ae578063dc686d91146102b7578063ed1bd76c146102ef578063fe10d7741461030257600080fd5b806305e0b9a01461011c578063117cfc1b1461014d5780632248e82d1461017457806325f09e611461019557806337a7f2b71461019e57806346860698146101a7578063516c3323146101bc5780635cf24969146101cf578063678d2204146101d8578063696a437b146101f5575b600080fd5b610137731ceb5cb57c4d4e2b2433641b95dd330a33185a4481565b604051610144919061121b565b60405180910390f35b6101377f000000000000000000000000000000000000000000000000000000000000000081565b610187610182366004610ff2565b610315565b604051908152602001610144565b61018761271081565b610187612af881565b6101ba6101b53660046111c2565b600055565b005b6101876101ca3660046111c2565b610348565b61018760005481565b6001546101e59060ff1681565b6040519015158152602001610144565b6101e5610203366004610efc565b6103bf565b610187680ad78ebc5ac620000081565b6101876102263660046111f4565b610445565b6101ba6102393660046110e9565b6001805460ff1916911515919091179055565b61018761025a366004611175565b610481565b6101377311b7a6bc0259ed6cf9db8f499988f9ecc7167bf581565b6101876102883660046111c2565b610525565b6102a061029b366004610efc565b610537565b60405161014492919061122f565b610187612ee081565b6102ca6102c5366004610f36565b610625565b60408051600694850b81529290930b6020830152151591810191909152606001610144565b6101876102fd3660046111c2565b61064e565b610187610310366004610efc565b6107df565b6000806103246101ca856107df565b90506103406127106103368386611340565b6102fd919061132c565b949350505050565b600061035d82680ad78ebc5ac6200000610894565b915060006103a3612af8680ad78ebc5ac62000008561037e83612ee061135f565b6103889190611340565b610392919061132c565b61039e90612af86112e6565b6108aa565b90506103ae60005490565b6103b89082611340565b9392505050565b60008060006103cd84610537565b90925090506001600160a01b038216731ceb5cb57c4d4e2b2433641b95dd330a33185a441415610401575060019392505050565b6001600160a01b038116731ceb5cb57c4d4e2b2433641b95dd330a33185a441461043e57604051637d7c8f2760e11b815260040160405180910390fd5b5050919050565b60008061045e61045984600687900b6112fe565b6108ba565b9050610478600160601b86836001600160a01b0316610cc9565b95945050505050565b60008061049561045984600687900b6112fe565b90506001600160801b036001600160a01b038216116104e55760006104c36001600160a01b03831680611340565b90506104dd600160c01b876001600160801b031683610cc9565b92505061051d565b60006104ff6001600160a01b03831680600160401b610cc9565b9050610519600160801b876001600160801b031683610cc9565b9250505b509392505050565b60006105313283610315565b92915050565b600080826001600160a01b0316630dfe16816040518163ffffffff1660e01b815260040160206040518083038186803b15801561057357600080fd5b505afa158015610587573d6000803e3d6000fd5b505050506040513d601f19601f820116820180604052508101906105ab9190610f19565b836001600160a01b031663d21220a76040518163ffffffff1660e01b815260040160206040518083038186803b1580156105e457600080fd5b505afa1580156105f8573d6000803e3d6000fd5b505050506040513d601f19601f8201168201806040525081019061061c9190610f19565b91509150915091565b6001546000908190819060ff16610647576106408585610d77565b9250925092505b9250925092565b60008061066e7311b7a6bc0259ed6cf9db8f499988f9ecc7167bf56103bf565b905060007f00000000000000000000000000000000000000000000000000000000000000006001600160a01b031663165e62e77311b7a6bc0259ed6cf9db8f499988f9ecc7167bf56040518263ffffffff1660e01b81526004016106d2919061121b565b60606040518083038186803b1580156106ea57600080fd5b505afa1580156106fe573d6000803e3d6000fd5b505050506040513d601f19601f82011682018060405250810190610722919061110b565b6020015190508161073b57610736816113ca565b61073d565b805b905060007f00000000000000000000000000000000000000000000000000000000000000006001600160a01b031663768b5d906040518163ffffffff1660e01b815260040160206040518083038186803b15801561079a57600080fd5b505afa1580156107ae573d6000803e3d6000fd5b505050506040513d601f19601f820116820180604052508101906107d291906111db565b9050610478858383610481565b60405163a39744b560e01b81526000906001600160a01b037f0000000000000000000000000000000000000000000000000000000000000000169063a39744b590610844908590731ceb5cb57c4d4e2b2433641b95dd330a33185a449060040161122f565b60206040518083038186803b15801561085c57600080fd5b505afa158015610870573d6000803e3d6000fd5b505050506040513d601f19601f8201168201806040525081019061053191906111db565b60008183106108a357816103b8565b5090919050565b6000818310156108a357816103b8565b60008060008360020b126108d1578260020b6108de565b8260020b6108de906113ad565b90506108ed620d89e71961138a565b60020b8111156109275760405162461bcd60e51b81526020600482015260016024820152601560fa1b604482015260640160405180910390fd5b60006001821661093b57600160801b61094d565b6ffffcb933bd6fad37aa2d162d1a5940015b6001600160881b03169050600282161561098257608061097d826ffff97272373d413259a46990580e213a611340565b901c90505b60048216156109ac5760806109a7826ffff2e50f5f656932ef12357cf3c7fdcc611340565b901c90505b60088216156109d65760806109d1826fffe5caca7e10e4e61c3624eaa0941cd0611340565b901c90505b6010821615610a005760806109fb826fffcb9843d60f6159c9db58835c926644611340565b901c90505b6020821615610a2a576080610a25826fff973b41fa98c081472e6896dfb254c0611340565b901c90505b6040821615610a54576080610a4f826fff2ea16466c96a3843ec78b326b52861611340565b901c90505b6080821615610a7e576080610a79826ffe5dee046a99a2a811c461f1969c3053611340565b901c90505b610100821615610aa9576080610aa4826ffcbe86c7900a88aedcffc83b479aa3a4611340565b901c90505b610200821615610ad4576080610acf826ff987a7253ac413176f2b074cf7815e54611340565b901c90505b610400821615610aff576080610afa826ff3392b0822b70005940c7a398e4b70f3611340565b901c90505b610800821615610b2a576080610b25826fe7159475a2c29b7443b29c7fa6e889d9611340565b901c90505b611000821615610b55576080610b50826fd097f3bdfd2022b8845ad8f792aa5825611340565b901c90505b612000821615610b80576080610b7b826fa9f746462d870fdf8a65dc1f90e061e5611340565b901c90505b614000821615610bab576080610ba6826f70d869a156d2a1b890bb3df62baf32f7611340565b901c90505b618000821615610bd6576080610bd1826f31be135f97d08fd981231505542fcfa6611340565b901c90505b62010000821615610c02576080610bfd826f09aa508b5b7a84e1c677de54f3e99bc9611340565b901c90505b62020000821615610c2d576080610c28826e5d6af8dedb81196699c329225ee604611340565b901c90505b62040000821615610c57576080610c52826d2216e584f5fa1ea926041bedfe98611340565b901c90505b62080000821615610c7f576080610c7a826b048a170391f7dc42444e8fa2611340565b901c90505b60008460020b1315610c9a57610c978160001961132c565b90505b610ca964010000000082611376565b15610cb5576001610cb8565b60005b6103409060ff16602083901c6112e6565b600080806000198587098587029250828110838203039150508060001415610d035760008411610cf857600080fd5b5082900490506103b8565b808411610d0f57600080fd5b600084868809600260036001881981018916988990049182028318808302840302808302840302808302840302808302840302808302840302918202909203026000889003889004909101858311909403939093029303949094049190911702949350505050565b6000806000846001600160a01b031663883bdbfd856040518263ffffffff1660e01b8152600401610da89190611249565b60006040518083038186803b158015610dc057600080fd5b505afa925050508015610df557506040513d6000823e601f3d908101601f19168201604052610df2919081019061101e565b60015b610e2f573d808015610e23576040519150601f19603f3d011682016040523d82523d6000602084013e610e28565b606091505b5050610647565b81600081518110610e4257610e42611410565b60200260200101519450600182511115610e745781600181518110610e6957610e69611410565b602002602001015193505b6001925050509250925092565b600082601f830112610e9257600080fd5b81516020610ea7610ea2836112c3565b611293565b80838252828201915082860187848660051b8901011115610ec757600080fd5b60005b85811015610eef578151610edd8161143c565b84529284019290840190600101610eca565b5090979650505050505050565b600060208284031215610f0e57600080fd5b81356103b88161143c565b600060208284031215610f2b57600080fd5b81516103b88161143c565b60008060408385031215610f4957600080fd5b8235610f548161143c565b91506020838101356001600160401b03811115610f7057600080fd5b8401601f81018613610f8157600080fd5b8035610f8f610ea2826112c3565b80828252848201915084840189868560051b8701011115610faf57600080fd5b60009450845b84811015610fe257813563ffffffff81168114610fd0578687fd5b84529286019290860190600101610fb5565b5096999098509650505050505050565b6000806040838503121561100557600080fd5b82356110108161143c565b946020939093013593505050565b6000806040838503121561103157600080fd5b82516001600160401b038082111561104857600080fd5b818501915085601f83011261105c57600080fd5b8151602061106c610ea2836112c3565b8083825282820191508286018a848660051b890101111561108c57600080fd5b600096505b848710156110b85780516110a481611454565b835260019690960195918301918301611091565b50918801519196509093505050808211156110d257600080fd5b506110df85828601610e81565b9150509250929050565b6000602082840312156110fb57600080fd5b813580151581146103b857600080fd5b60006060828403121561111d57600080fd5b604051606081018181106001600160401b038211171561113f5761113f611426565b604052825161114d81611454565b8152602083015161115d81611454565b60208201526040928301519281019290925250919050565b60008060006060848603121561118a57600080fd5b83356001600160801b03811681146111a157600080fd5b925060208401356111b181611454565b929592945050506040919091013590565b6000602082840312156111d457600080fd5b5035919050565b6000602082840312156111ed57600080fd5b5051919050565b60008060006060848603121561120957600080fd5b8335925060208401356111b181611454565b6001600160a01b0391909116815260200190565b6001600160a01b0392831681529116602082015260400190565b6020808252825182820181905260009190848201906040850190845b8181101561128757835163ffffffff1683529284019291840191600101611265565b50909695505050505050565b604051601f8201601f191681016001600160401b03811182821017156112bb576112bb611426565b604052919050565b60006001600160401b038211156112dc576112dc611426565b5060051b60200190565b600082198211156112f9576112f96113e4565b500190565b60008261130d5761130d6113fa565b600160ff1b821460001984141615611327576113276113e4565b500590565b60008261133b5761133b6113fa565b500490565b600081600019048311821515161561135a5761135a6113e4565b500290565b600082821015611371576113716113e4565b500390565b600082611385576113856113fa565b500690565b60008160020b627fffff198114156113a4576113a46113e4565b60000392915050565b6000600160ff1b8214156113c3576113c36113e4565b5060000390565b60008160060b667fffffffffffff198114156113a4576113a45b634e487b7160e01b600052601160045260246000fd5b634e487b7160e01b600052601260045260246000fd5b634e487b7160e01b600052603260045260246000fd5b634e487b7160e01b600052604160045260246000fd5b6001600160a01b038116811461145157600080fd5b50565b8060060b811461145157600080fdfea2646970667358221220af9ee79d3f18d8b76d53583ad7722cebe87be6bcc58c60f06731bea14bf8b56e64736f6c63430008070033",
  "linkReferences": {},
  "deployedLinkReferences": {}
}