{
  "_format": "hh-sol-artifact-1",
  "contractName": "Keep3rHelperForTest",
  "sourceName": "solidity/for-test/Keep3rHelperForTest.sol",
  "abi": [
    {
      "inputs": [
        {
          "internalType": "address",
          "name": "_keep3rV2",
          "type": "address"
        }
      ],
      "stateMutability": "nonpayable",
      "type": "constructor"
    },
    {
      "inputs": [],
      "name": "BOOST_BASE",
      "outputs": [
        {
          "internalType": "uint256",
          "name": "",
          "type": "uint256"
        }
      ],
      "stateMutability": "view",
      "type": "function"
    },
    {
      "inputs": [],
      "name": "KP3R",
      "outputs": [
        {
          "internalType": "address",
          "name": "",
          "type": "address"
        }
      ],
      "stateMutability": "view",
      "type": "function"
    },
    {
      "inputs": [],
      "name": "KP3R_WETH_POOL",
      "outputs": [
        {
          "internalType": "address",
          "name": "",
          "type": "address"
        }
      ],
      "stateMutability": "view",
      "type": "function"
    },
    {
      "inputs": [],
      "name": "MAX",
      "outputs": [
        {
          "internalType": "uint256",
          "name": "",
          "type": "uint256"
        }
      ],
      "stateMutability": "view",
      "type": "function"
    },
    {
      "inputs": [],
      "name": "MIN",
      "outputs": [
        {
          "internalType": "uint256",
          "name": "",
          "type": "uint256"
        }
      ],
      "stateMutability": "view",
      "type": "function"
    },
    {
      "inputs": [],
      "name": "TARGETBOND",
      "outputs": [
        {
          "internalType": "uint256",
          "name": "",
          "type": "uint256"
        }
      ],
      "stateMutability": "view",
      "type": "function"
    },
    {
      "inputs": [],
      "name": "basefee",
      "outputs": [
        {
          "internalType": "uint256",
          "name": "",
          "type": "uint256"
        }
      ],
      "stateMutability": "view",
      "type": "function"
    },
    {
      "inputs": [
        {
          "internalType": "address",
          "name": "_keeper",
          "type": "address"
        }
      ],
      "name": "bonds",
      "outputs": [
        {
          "internalType": "uint256",
          "name": "_amountBonded",
          "type": "uint256"
        }
      ],
      "stateMutability": "view",
      "type": "function"
    },
    {
      "inputs": [
        {
          "internalType": "uint256",
          "name": "_gasUsed",
          "type": "uint256"
        }
      ],
      "name": "getRewardAmount",
      "outputs": [
        {
          "internalType": "uint256",
          "name": "_amount",
          "type": "uint256"
        }
      ],
      "stateMutability": "view",
      "type": "function"
    },
    {
      "inputs": [
        {
          "internalType": "address",
          "name": "_keeper",
          "type": "address"
        },
        {
          "internalType": "uint256",
          "name": "_gasUsed",
          "type": "uint256"
        }
      ],
      "name": "getRewardAmountFor",
      "outputs": [
        {
          "internalType": "uint256",
          "name": "_kp3r",
          "type": "uint256"
        }
      ],
      "stateMutability": "view",
      "type": "function"
    },
    {
      "inputs": [
        {
          "internalType": "uint256",
          "name": "_bonds",
          "type": "uint256"
        }
      ],
      "name": "getRewardBoostFor",
      "outputs": [
        {
          "internalType": "uint256",
          "name": "_rewardBoost",
          "type": "uint256"
        }
      ],
      "stateMutability": "view",
      "type": "function"
    },
    {
      "inputs": [],
      "name": "keep3rV2",
      "outputs": [
        {
          "internalType": "address",
          "name": "",
          "type": "address"
        }
      ],
      "stateMutability": "view",
      "type": "function"
    },
    {
      "inputs": [
        {
          "internalType": "uint256",
          "name": "_eth",
          "type": "uint256"
        }
      ],
      "name": "quote",
      "outputs": [
        {
          "internalType": "uint256",
          "name": "_amountOut",
          "type": "uint256"
        }
      ],
      "stateMutability": "view",
      "type": "function"
    },
    {
      "inputs": [
        {
          "internalType": "uint256",
          "name": "_basefee",
          "type": "uint256"
        }
      ],
      "name": "setBaseFee",
      "outputs": [],
      "stateMutability": "nonpayable",
      "type": "function"
    }
  ],
  "bytecode": "0x60a060405234801561001057600080fd5b506040516108e43803806108e483398101604081905261002f91610044565b60601b6001600160601b031916608052610074565b60006020828403121561005657600080fd5b81516001600160a01b038116811461006d57600080fd5b9392505050565b60805160601c61083e6100a66000396000818160f50152818161034701528181610416015261055f015261083e6000f3fe608060405234801561001057600080fd5b50600436106100ba5760003560e01c806305e0b9a0146100bf578063117cfc1b146100f05780632248e82d1461011757806325f09e611461013857806337a7f2b714610141578063468606981461014a578063516c33231461015f5780635cf24969146101725780638e686d561461017b578063c1a677461461018b578063c84993af146101a6578063d49d5181146101b9578063ed1bd76c146101c2578063fe10d774146101d5575b600080fd5b6100da731ceb5cb57c4d4e2b2433641b95dd330a33185a4481565b6040516100e7919061075c565b60405180910390f35b6100da7f000000000000000000000000000000000000000000000000000000000000000081565b61012a610125366004610669565b6101e8565b6040519081526020016100e7565b61012a61271081565b61012a612af881565b61015d61015836600461072a565b600055565b005b61012a61016d36600461072a565b61021b565b61012a60005481565b61012a680ad78ebc5ac620000081565b6100da7311b7a6bc0259ed6cf9db8f499988f9ecc7167bf581565b61012a6101b436600461072a565b61027b565b61012a612ee081565b61012a6101d036600461072a565b61028d565b61012a6101e336600461064e565b610545565b6000806101f761016d85610545565b905061021361271061020983866107ac565b6101d0919061078a565b949350505050565b600061023082680ad78ebc5ac62000006105fa565b9150600061025f612af8680ad78ebc5ac620000061025086612ee06107ac565b61025a919061078a565b610610565b905061026a60005490565b61027490826107ac565b9392505050565b600061028732836101e8565b92915050565b60008073__$c5dd7ebc0ce14d94f217945953a329b66b$__630a5b5227731ceb5cb57c4d4e2b2433641b95dd330a33185a447311b7a6bc0259ed6cf9db8f499988f9ecc7167bf56040518363ffffffff1660e01b81526004016102f1929190610770565b60206040518083038186803b15801561030957600080fd5b505af415801561031d573d6000803e3d6000fd5b505050506040513d601f19601f820116820180604052508101906103419190610693565b905060007f00000000000000000000000000000000000000000000000000000000000000006001600160a01b031663165e62e77311b7a6bc0259ed6cf9db8f499988f9ecc7167bf56040518263ffffffff1660e01b81526004016103a5919061075c565b60606040518083038186803b1580156103bd57600080fd5b505afa1580156103d1573d6000803e3d6000fd5b505050506040513d601f19601f820116820180604052508101906103f591906106b5565b6020015190508161040e57610409816107cb565b610410565b805b905060007f00000000000000000000000000000000000000000000000000000000000000006001600160a01b031663768b5d906040518163ffffffff1660e01b815260040160206040518083038186803b15801561046d57600080fd5b505afa158015610481573d6000803e3d6000fd5b505050506040513d601f19601f820116820180604052508101906104a59190610743565b60405163a58c72e360e01b815260048101879052600684900b60248201526044810182905290915073__$c5dd7ebc0ce14d94f217945953a329b66b$__9063a58c72e39060640160206040518083038186803b15801561050457600080fd5b505af4158015610518573d6000803e3d6000fd5b505050506040513d601f19601f8201168201806040525081019061053c9190610743565b95945050505050565b60405163a39744b560e01b81526000906001600160a01b037f0000000000000000000000000000000000000000000000000000000000000000169063a39744b5906105aa908590731ceb5cb57c4d4e2b2433641b95dd330a33185a4490600401610770565b60206040518083038186803b1580156105c257600080fd5b505afa1580156105d6573d6000803e3d6000fd5b505050506040513d601f19601f820116820180604052508101906102879190610743565b60008183106106095781610274565b5090919050565b6000818310156106095781610274565b80356001600160a01b038116811461063757600080fd5b919050565b8051600681900b811461063757600080fd5b60006020828403121561066057600080fd5b61027482610620565b6000806040838503121561067c57600080fd5b61068583610620565b946020939093013593505050565b6000602082840312156106a557600080fd5b8151801515811461027457600080fd5b6000606082840312156106c757600080fd5b604051606081016001600160401b03811182821017156106f757634e487b7160e01b600052604160045260246000fd5b6040526107038361063c565b81526107116020840161063c565b6020820152604083015160408201528091505092915050565b60006020828403121561073c57600080fd5b5035919050565b60006020828403121561075557600080fd5b5051919050565b6001600160a01b0391909116815260200190565b6001600160a01b0392831681529116602082015260400190565b6000826107a757634e487b7160e01b600052601260045260246000fd5b500490565b60008160001904831182151516156107c6576107c66107f2565b500290565b60008160060b667fffffffffffff198114156107e9576107e96107f2565b60000392915050565b634e487b7160e01b600052601160045260246000fdfea2646970667358221220f6972a9dc13d9d153dcf27c9669874188107a0bbd1a46d29214c09d34d3872df64736f6c63430008070033",
  "linkReferences": {
    "solidity/contracts/libraries/Keep3rLibrary.sol": {
      "Keep3rLibrary": [
        {
          "length": 20,
          "start": 824
        },
        {
          "length": 20,
          "start": 1397
        }
      ]
    }
  },
  "deployedLinkReferences": {
    "solidity/contracts/libraries/Keep3rLibrary.sol": {
      "Keep3rLibrary": [
        {
          "length": 20,
          "start": 658
        },
        {
          "length": 20,
          "start": 1231
        }
      ]
    }
  }
}