{
  "_format": "hh-sol-artifact-1",
  "contractName": "Keep3rHelperForTest",
  "sourceName": "solidity/for-test/Keep3rHelperForTest.sol",
  "abi": [
    {
      "inputs": [
        {
          "internalType": "address",
          "name": "_keep3rV2",
          "type": "address"
        }
      ],
      "stateMutability": "nonpayable",
      "type": "constructor"
    },
    {
      "inputs": [],
      "name": "BOOST_BASE",
      "outputs": [
        {
          "internalType": "uint256",
          "name": "",
          "type": "uint256"
        }
      ],
      "stateMutability": "view",
      "type": "function"
    },
    {
      "inputs": [],
      "name": "KP3R",
      "outputs": [
        {
          "internalType": "address",
          "name": "",
          "type": "address"
        }
      ],
      "stateMutability": "view",
      "type": "function"
    },
    {
      "inputs": [],
      "name": "KP3R_WETH_POOL",
      "outputs": [
        {
          "internalType": "address",
          "name": "",
          "type": "address"
        }
      ],
      "stateMutability": "view",
      "type": "function"
    },
    {
      "inputs": [],
      "name": "MAX",
      "outputs": [
        {
          "internalType": "uint256",
          "name": "",
          "type": "uint256"
        }
      ],
      "stateMutability": "view",
      "type": "function"
    },
    {
      "inputs": [],
      "name": "MIN",
      "outputs": [
        {
          "internalType": "uint256",
          "name": "",
          "type": "uint256"
        }
      ],
      "stateMutability": "view",
      "type": "function"
    },
    {
      "inputs": [],
      "name": "TARGETBOND",
      "outputs": [
        {
          "internalType": "uint256",
          "name": "",
          "type": "uint256"
        }
      ],
      "stateMutability": "view",
      "type": "function"
    },
    {
      "inputs": [],
      "name": "basefee",
      "outputs": [
        {
          "internalType": "uint256",
          "name": "",
          "type": "uint256"
        }
      ],
      "stateMutability": "view",
      "type": "function"
    },
    {
      "inputs": [
        {
          "internalType": "address",
          "name": "_keeper",
          "type": "address"
        }
      ],
      "name": "bonds",
      "outputs": [
        {
          "internalType": "uint256",
          "name": "_amountBonded",
          "type": "uint256"
        }
      ],
      "stateMutability": "view",
      "type": "function"
    },
    {
      "inputs": [
        {
          "internalType": "uint256",
          "name": "_liquidityAmount",
          "type": "uint256"
        },
        {
          "internalType": "int56",
          "name": "_tickDifference",
          "type": "int56"
        },
        {
          "internalType": "uint256",
          "name": "_timeInterval",
          "type": "uint256"
        }
      ],
      "name": "getKP3RsAtTick",
      "outputs": [
        {
          "internalType": "uint256",
          "name": "_kp3rAmount",
          "type": "uint256"
        }
      ],
      "stateMutability": "pure",
      "type": "function"
    },
    {
      "inputs": [
        {
          "internalType": "address",
          "name": "_pool",
          "type": "address"
        }
      ],
      "name": "getPoolTokens",
      "outputs": [
        {
          "internalType": "address",
          "name": "_token0",
          "type": "address"
        },
        {
          "internalType": "address",
          "name": "_token1",
          "type": "address"
        }
      ],
      "stateMutability": "view",
      "type": "function"
    },
    {
      "inputs": [
        {
          "internalType": "uint128",
          "name": "_baseAmount",
          "type": "uint128"
        },
        {
          "internalType": "int56",
          "name": "_tickDifference",
          "type": "int56"
        },
        {
          "internalType": "uint256",
          "name": "_timeInterval",
          "type": "uint256"
        }
      ],
      "name": "getQuoteAtTick",
      "outputs": [
        {
          "internalType": "uint256",
          "name": "_quoteAmount",
          "type": "uint256"
        }
      ],
      "stateMutability": "pure",
      "type": "function"
    },
    {
      "inputs": [
        {
          "internalType": "uint256",
          "name": "_gasUsed",
          "type": "uint256"
        }
      ],
      "name": "getRewardAmount",
      "outputs": [
        {
          "internalType": "uint256",
          "name": "_amount",
          "type": "uint256"
        }
      ],
      "stateMutability": "view",
      "type": "function"
    },
    {
      "inputs": [
        {
          "internalType": "address",
          "name": "_keeper",
          "type": "address"
        },
        {
          "internalType": "uint256",
          "name": "_gasUsed",
          "type": "uint256"
        }
      ],
      "name": "getRewardAmountFor",
      "outputs": [
        {
          "internalType": "uint256",
          "name": "_kp3r",
          "type": "uint256"
        }
      ],
      "stateMutability": "view",
      "type": "function"
    },
    {
      "inputs": [
        {
          "internalType": "uint256",
          "name": "_bonds",
          "type": "uint256"
        }
      ],
      "name": "getRewardBoostFor",
      "outputs": [
        {
          "internalType": "uint256",
          "name": "_rewardBoost",
          "type": "uint256"
        }
      ],
      "stateMutability": "view",
      "type": "function"
    },
    {
      "inputs": [
        {
          "internalType": "address",
          "name": "_pool",
          "type": "address"
        }
      ],
      "name": "isKP3RToken0",
      "outputs": [
        {
          "internalType": "bool",
          "name": "_isKP3RToken0",
          "type": "bool"
        }
      ],
      "stateMutability": "view",
      "type": "function"
    },
    {
      "inputs": [],
      "name": "keep3rV2",
      "outputs": [
        {
          "internalType": "address",
          "name": "",
          "type": "address"
        }
      ],
      "stateMutability": "view",
      "type": "function"
    },
    {
      "inputs": [
        {
          "internalType": "address",
          "name": "_pool",
          "type": "address"
        },
        {
          "internalType": "uint32[]",
          "name": "_secondsAgo",
          "type": "uint32[]"
        }
      ],
      "name": "observe",
      "outputs": [
        {
          "internalType": "int56",
          "name": "_tickCumulative1",
          "type": "int56"
        },
        {
          "internalType": "int56",
          "name": "_tickCumulative2",
          "type": "int56"
        },
        {
          "internalType": "bool",
          "name": "_success",
          "type": "bool"
        }
      ],
      "stateMutability": "view",
      "type": "function"
    },
    {
      "inputs": [
        {
          "internalType": "uint256",
          "name": "_eth",
          "type": "uint256"
        }
      ],
      "name": "quote",
      "outputs": [
        {
          "internalType": "uint256",
          "name": "_amountOut",
          "type": "uint256"
        }
      ],
      "stateMutability": "view",
      "type": "function"
    },
    {
      "inputs": [
        {
          "internalType": "uint256",
          "name": "_baseFee",
          "type": "uint256"
        }
      ],
      "name": "setBaseFee",
      "outputs": [],
      "stateMutability": "nonpayable",
      "type": "function"
    }
  ],
  "bytecode": "0x60a060405234801561001057600080fd5b5060405161149c38038061149c83398101604081905261002f91610044565b60601b6001600160601b031916608052610074565b60006020828403121561005657600080fd5b81516001600160a01b038116811461006d57600080fd5b9392505050565b60805160601c6113f56100a76000396000818161012c01528181610718015281816107e7015261089d01526113f56000f3fe608060405234801561001057600080fd5b50600436106100f15760003560e01c806305e0b9a0146100f6578063117cfc1b146101275780632248e82d1461014e57806325f09e611461016f57806337a7f2b7146101785780634686069814610181578063516c3323146101965780635cf24969146101a9578063696a437b146101b25780638e686d56146101d5578063a0d27107146101e5578063ab8cedc5146101f8578063c1a677461461020b578063c84993af14610226578063ca4f280314610239578063d49d51811461025a578063dc686d9114610263578063ed1bd76c1461029b578063fe10d774146102ae575b600080fd5b610111731ceb5cb57c4d4e2b2433641b95dd330a33185a4481565b60405161011e919061118e565b60405180910390f35b6101117f000000000000000000000000000000000000000000000000000000000000000081565b61016161015c366004610f87565b6102c1565b60405190815260200161011e565b61016161271081565b610161612af881565b61019461018f366004611135565b600055565b005b6101616101a4366004611135565b6102f4565b61016160005481565b6101c56101c0366004610e91565b610354565b604051901515815260200161011e565b610161680ad78ebc5ac620000081565b6101616101f3366004611167565b610407565b6101616102063660046110e8565b610443565b6101117311b7a6bc0259ed6cf9db8f499988f9ecc7167bf581565b610161610234366004611135565b6104e7565b61024c610247366004610e91565b6104f9565b60405161011e9291906111a2565b610161612ee081565b610276610271366004610ecb565b6105e7565b60408051600694850b81529290930b602083015215159181019190915260600161011e565b6101616102a9366004611135565b6106f2565b6101616102bc366004610e91565b610883565b6000806102d06101a485610883565b90506102ec6127106102e283866112b3565b6102a9919061129f565b949350505050565b600061030982680ad78ebc5ac6200000610938565b91506000610338612af8680ad78ebc5ac620000061032986612ee06112b3565b610333919061129f565b61094e565b905061034360005490565b61034d90826112b3565b9392505050565b6000806000610362846104f9565b90925090506001600160a01b038216731ceb5cb57c4d4e2b2433641b95dd330a33185a441415610396575060019392505050565b6001600160a01b038116731ceb5cb57c4d4e2b2433641b95dd330a33185a44146104005760405162461bcd60e51b81526020600482015260166024820152754c697175696469747950616972496e76616c6964282960501b60448201526064015b60405180910390fd5b5050919050565b60008061042061041b84600687900b611271565b61095e565b905061043a600160601b86836001600160a01b0316610d68565b95945050505050565b60008061045761041b84600687900b611271565b90506001600160801b036001600160a01b038216116104a75760006104856001600160a01b038316806112b3565b905061049f600160c01b876001600160801b031683610d68565b9250506104df565b60006104c16001600160a01b03831680600160401b610d68565b90506104db600160801b876001600160801b031683610d68565b9250505b509392505050565b60006104f332836102c1565b92915050565b600080826001600160a01b0316630dfe16816040518163ffffffff1660e01b815260040160206040518083038186803b15801561053557600080fd5b505afa158015610549573d6000803e3d6000fd5b505050506040513d601f19601f8201168201806040525081019061056d9190610eae565b836001600160a01b031663d21220a76040518163ffffffff1660e01b815260040160206040518083038186803b1580156105a657600080fd5b505afa1580156105ba573d6000803e3d6000fd5b505050506040513d601f19601f820116820180604052508101906105de9190610eae565b91509150915091565b6000806000846001600160a01b031663883bdbfd856040518263ffffffff1660e01b815260040161061891906111bc565b60006040518083038186803b15801561063057600080fd5b505afa92505050801561066557506040513d6000823e601f3d908101601f191682016040526106629190810190610fb3565b60015b61069f573d808015610693576040519150601f19603f3d011682016040523d82523d6000602084013e610698565b606091505b50506106eb565b816000815181106106b2576106b261136c565b602002602001015194506001825111156106e457816001815181106106d9576106d961136c565b602002602001015193505b6001925050505b9250925092565b6000806107127311b7a6bc0259ed6cf9db8f499988f9ecc7167bf5610354565b905060007f00000000000000000000000000000000000000000000000000000000000000006001600160a01b031663165e62e77311b7a6bc0259ed6cf9db8f499988f9ecc7167bf56040518263ffffffff1660e01b8152600401610776919061118e565b60606040518083038186803b15801561078e57600080fd5b505afa1580156107a2573d6000803e3d6000fd5b505050506040513d601f19601f820116820180604052508101906107c6919061107e565b602001519050816107df576107da81611326565b6107e1565b805b905060007f00000000000000000000000000000000000000000000000000000000000000006001600160a01b031663768b5d906040518163ffffffff1660e01b815260040160206040518083038186803b15801561083e57600080fd5b505afa158015610852573d6000803e3d6000fd5b505050506040513d601f19601f82011682018060405250810190610876919061114e565b905061043a858383610443565b60405163a39744b560e01b81526000906001600160a01b037f0000000000000000000000000000000000000000000000000000000000000000169063a39744b5906108e8908590731ceb5cb57c4d4e2b2433641b95dd330a33185a44906004016111a2565b60206040518083038186803b15801561090057600080fd5b505afa158015610914573d6000803e3d6000fd5b505050506040513d601f19601f820116820180604052508101906104f3919061114e565b6000818310610947578161034d565b5090919050565b600081831015610947578161034d565b60008060008360020b12610975578260020b610982565b8260020b61098290611309565b9050610991620d89e7196112e6565b60020b8111156109c75760405162461bcd60e51b81526020600482015260016024820152601560fa1b60448201526064016103f7565b6000600182166109db57600160801b6109ed565b6ffffcb933bd6fad37aa2d162d1a5940015b6001600160881b031690506002821615610a22576080610a1d826ffff97272373d413259a46990580e213a6112b3565b901c90505b6004821615610a4c576080610a47826ffff2e50f5f656932ef12357cf3c7fdcc6112b3565b901c90505b6008821615610a76576080610a71826fffe5caca7e10e4e61c3624eaa0941cd06112b3565b901c90505b6010821615610aa0576080610a9b826fffcb9843d60f6159c9db58835c9266446112b3565b901c90505b6020821615610aca576080610ac5826fff973b41fa98c081472e6896dfb254c06112b3565b901c90505b6040821615610af4576080610aef826fff2ea16466c96a3843ec78b326b528616112b3565b901c90505b6080821615610b1e576080610b19826ffe5dee046a99a2a811c461f1969c30536112b3565b901c90505b610100821615610b49576080610b44826ffcbe86c7900a88aedcffc83b479aa3a46112b3565b901c90505b610200821615610b74576080610b6f826ff987a7253ac413176f2b074cf7815e546112b3565b901c90505b610400821615610b9f576080610b9a826ff3392b0822b70005940c7a398e4b70f36112b3565b901c90505b610800821615610bca576080610bc5826fe7159475a2c29b7443b29c7fa6e889d96112b3565b901c90505b611000821615610bf5576080610bf0826fd097f3bdfd2022b8845ad8f792aa58256112b3565b901c90505b612000821615610c20576080610c1b826fa9f746462d870fdf8a65dc1f90e061e56112b3565b901c90505b614000821615610c4b576080610c46826f70d869a156d2a1b890bb3df62baf32f76112b3565b901c90505b618000821615610c76576080610c71826f31be135f97d08fd981231505542fcfa66112b3565b901c90505b62010000821615610ca2576080610c9d826f09aa508b5b7a84e1c677de54f3e99bc96112b3565b901c90505b62020000821615610ccd576080610cc8826e5d6af8dedb81196699c329225ee6046112b3565b901c90505b62040000821615610cf7576080610cf2826d2216e584f5fa1ea926041bedfe986112b3565b901c90505b62080000821615610d1f576080610d1a826b048a170391f7dc42444e8fa26112b3565b901c90505b60008460020b1315610d3a57610d378160001961129f565b90505b610d48600160201b826112d2565b15610d54576001610d57565b60005b6102ec9060ff16602083901c611259565b600080806000198587098587029250828110838203039150508060001415610da25760008411610d9757600080fd5b50829004905061034d565b808411610dae57600080fd5b600084868809600260036001881981018916988990049182028318808302840302808302840302808302840302808302840302808302840302918202909203026000889003889004909101858311909403939093029303949094049190911702949350505050565b600082601f830112610e2757600080fd5b81516020610e3c610e3783611236565b611206565b80838252828201915082860187848660051b8901011115610e5c57600080fd5b60005b85811015610e84578151610e7281611398565b84529284019290840190600101610e5f565b5090979650505050505050565b600060208284031215610ea357600080fd5b813561034d81611398565b600060208284031215610ec057600080fd5b815161034d81611398565b60008060408385031215610ede57600080fd5b8235610ee981611398565b91506020838101356001600160401b03811115610f0557600080fd5b8401601f81018613610f1657600080fd5b8035610f24610e3782611236565b80828252848201915084840189868560051b8701011115610f4457600080fd5b60009450845b84811015610f7757813563ffffffff81168114610f65578687fd5b84529286019290860190600101610f4a565b5096999098509650505050505050565b60008060408385031215610f9a57600080fd5b8235610fa581611398565b946020939093013593505050565b60008060408385031215610fc657600080fd5b82516001600160401b0380821115610fdd57600080fd5b818501915085601f830112610ff157600080fd5b81516020611001610e3783611236565b8083825282820191508286018a848660051b890101111561102157600080fd5b600096505b8487101561104d578051611039816113b0565b835260019690960195918301918301611026565b509188015191965090935050508082111561106757600080fd5b5061107485828601610e16565b9150509250929050565b60006060828403121561109057600080fd5b604051606081016001600160401b03811182821017156110b2576110b2611382565b60405282516110c0816113b0565b815260208301516110d0816113b0565b60208201526040928301519281019290925250919050565b6000806000606084860312156110fd57600080fd5b83356001600160801b038116811461111457600080fd5b92506020840135611124816113b0565b929592945050506040919091013590565b60006020828403121561114757600080fd5b5035919050565b60006020828403121561116057600080fd5b5051919050565b60008060006060848603121561117c57600080fd5b833592506020840135611124816113b0565b6001600160a01b0391909116815260200190565b6001600160a01b0392831681529116602082015260400190565b6020808252825182820181905260009190848201906040850190845b818110156111fa57835163ffffffff16835292840192918401916001016111d8565b50909695505050505050565b604051601f8201601f191681016001600160401b038111828210171561122e5761122e611382565b604052919050565b60006001600160401b0382111561124f5761124f611382565b5060051b60200190565b6000821982111561126c5761126c611340565b500190565b60008261128057611280611356565b600160ff1b82146000198414161561129a5761129a611340565b500590565b6000826112ae576112ae611356565b500490565b60008160001904831182151516156112cd576112cd611340565b500290565b6000826112e1576112e1611356565b500690565b60008160020b627fffff1981141561130057611300611340565b60000392915050565b6000600160ff1b82141561131f5761131f611340565b5060000390565b60008160060b667fffffffffffff19811415611300576113005b634e487b7160e01b600052601160045260246000fd5b634e487b7160e01b600052601260045260246000fd5b634e487b7160e01b600052603260045260246000fd5b634e487b7160e01b600052604160045260246000fd5b6001600160a01b03811681146113ad57600080fd5b50565b8060060b81146113ad57600080fdfea2646970667358221220247430df418814a4d7fc9d25846afd27defe5dd8adecf6b75ccc9781f06c8b8464736f6c63430008070033",
  "linkReferences": {},
  "deployedLinkReferences": {}
}