{
  "_format": "hh-sol-artifact-1",
  "contractName": "LiquidityAmountsForTest",
  "sourceName": "solidity/for-test/libraries/LiquidityAmountsForTest.sol",
  "abi": [
    {
      "inputs": [
        {
          "internalType": "uint160",
          "name": "sqrtRatioAX96",
          "type": "uint160"
        },
        {
          "internalType": "uint160",
          "name": "sqrtRatioBX96",
          "type": "uint160"
        },
        {
          "internalType": "uint128",
          "name": "liquidity",
          "type": "uint128"
        }
      ],
      "name": "getAmount0ForLiquidity",
      "outputs": [
        {
          "internalType": "uint256",
          "name": "amount0",
          "type": "uint256"
        }
      ],
      "stateMutability": "pure",
      "type": "function"
    },
    {
      "inputs": [
        {
          "internalType": "uint160",
          "name": "sqrtRatioAX96",
          "type": "uint160"
        },
        {
          "internalType": "uint160",
          "name": "sqrtRatioBX96",
          "type": "uint160"
        },
        {
          "internalType": "uint128",
          "name": "liquidity",
          "type": "uint128"
        }
      ],
      "name": "getAmount1ForLiquidity",
      "outputs": [
        {
          "internalType": "uint256",
          "name": "amount1",
          "type": "uint256"
        }
      ],
      "stateMutability": "pure",
      "type": "function"
    },
    {
      "inputs": [
        {
          "internalType": "uint160",
          "name": "sqrtRatioX96",
          "type": "uint160"
        },
        {
          "internalType": "uint160",
          "name": "sqrtRatioAX96",
          "type": "uint160"
        },
        {
          "internalType": "uint160",
          "name": "sqrtRatioBX96",
          "type": "uint160"
        },
        {
          "internalType": "uint128",
          "name": "liquidity",
          "type": "uint128"
        }
      ],
      "name": "getAmountsForLiquidity",
      "outputs": [
        {
          "internalType": "uint256",
          "name": "amount0",
          "type": "uint256"
        },
        {
          "internalType": "uint256",
          "name": "amount1",
          "type": "uint256"
        }
      ],
      "stateMutability": "pure",
      "type": "function"
    },
    {
      "inputs": [
        {
          "internalType": "uint160",
          "name": "sqrtRatioAX96",
          "type": "uint160"
        },
        {
          "internalType": "uint160",
          "name": "sqrtRatioBX96",
          "type": "uint160"
        },
        {
          "internalType": "uint256",
          "name": "amount0",
          "type": "uint256"
        }
      ],
      "name": "getLiquidityForAmount0",
      "outputs": [
        {
          "internalType": "uint128",
          "name": "liquidity",
          "type": "uint128"
        }
      ],
      "stateMutability": "pure",
      "type": "function"
    },
    {
      "inputs": [
        {
          "internalType": "uint160",
          "name": "sqrtRatioAX96",
          "type": "uint160"
        },
        {
          "internalType": "uint160",
          "name": "sqrtRatioBX96",
          "type": "uint160"
        },
        {
          "internalType": "uint256",
          "name": "amount1",
          "type": "uint256"
        }
      ],
      "name": "getLiquidityForAmount1",
      "outputs": [
        {
          "internalType": "uint128",
          "name": "liquidity",
          "type": "uint128"
        }
      ],
      "stateMutability": "pure",
      "type": "function"
    },
    {
      "inputs": [
        {
          "internalType": "uint160",
          "name": "sqrtRatioX96",
          "type": "uint160"
        },
        {
          "internalType": "uint160",
          "name": "sqrtRatioAX96",
          "type": "uint160"
        },
        {
          "internalType": "uint160",
          "name": "sqrtRatioBX96",
          "type": "uint160"
        },
        {
          "internalType": "uint256",
          "name": "amount0",
          "type": "uint256"
        },
        {
          "internalType": "uint256",
          "name": "amount1",
          "type": "uint256"
        }
      ],
      "name": "getLiquidityForAmounts",
      "outputs": [
        {
          "internalType": "uint128",
          "name": "liquidity",
          "type": "uint128"
        }
      ],
      "stateMutability": "pure",
      "type": "function"
    }
  ],
  "bytecode": "0x608060405234801561001057600080fd5b506107b1806100206000396000f3fe608060405234801561001057600080fd5b50600436106100625760003560e01c806308c0f7951461006757806329e24cb7146100975780636098fd4a146100b857806367df6e89146100cb5780636ac69a8e146100de578063c72e160b146100f1575b600080fd5b61007a610075366004610691565b610119565b6040516001600160801b0390911681526020015b60405180910390f35b6100aa6100a53660046105a5565b61016c565b60405190815260200161008e565b61007a6100c636600461063c565b6101b6565b61007a6100d9366004610691565b61027a565b6100aa6100ec3660046105a5565b6102d1565b6101046100ff3660046105e8565b61033b565b6040805192835260208301919091520161008e565b6000826001600160a01b0316846001600160a01b03161115610139579192915b61016261015d83600160601b61014f8888610726565b6001600160a01b03166103d7565b61055c565b90505b9392505050565b6000826001600160a01b0316846001600160a01b0316111561018c579192915b6101626001600160801b0383166101a38686610726565b6001600160a01b0316600160601b6103d7565b6000836001600160a01b0316856001600160a01b031611156101d6579293925b846001600160a01b0316866001600160a01b031611610201576101fa85858561027a565b9050610271565b836001600160a01b0316866001600160a01b0316101561026357600061022887868661027a565b90506000610237878986610119565b9050806001600160801b0316826001600160801b031610610258578061025a565b815b92505050610271565b61026e858584610119565b90505b95945050505050565b6000826001600160a01b0316846001600160a01b0316111561029a579192915b60006102bd856001600160a01b0316856001600160a01b0316600160601b6103d7565b905061027161015d848361014f8989610726565b6000826001600160a01b0316846001600160a01b031611156102f1579192915b6001600160a01b038416610331600160601b600160e01b03606085901b166103198787610726565b6001600160a01b0316866001600160a01b03166103d7565b61016291906106e5565b600080836001600160a01b0316856001600160a01b0316111561035c579293925b846001600160a01b0316866001600160a01b031611610387576103808585856102d1565b91506103ce565b836001600160a01b0316866001600160a01b031610156103c0576103ac8685856102d1565b91506103b985878561016c565b90506103ce565b6103cb85858561016c565b90505b94509492505050565b600080806000198587098587029250828110838203039150508060001415610411576000841161040657600080fd5b508290049050610165565b80841161041d57600080fd5b60008486880980840393811190920391905060008561043e8160001961074e565b6104499060016106cd565b169586900495938490049360008190030460010190506104698184610707565b90931792600061047a876003610707565b60021890506104898188610707565b61049490600261074e565b61049e9082610707565b90506104aa8188610707565b6104b590600261074e565b6104bf9082610707565b90506104cb8188610707565b6104d690600261074e565b6104e09082610707565b90506104ec8188610707565b6104f790600261074e565b6105019082610707565b905061050d8188610707565b61051890600261074e565b6105229082610707565b905061052e8188610707565b61053990600261074e565b6105439082610707565b905061054f8186610707565b9998505050505050505050565b806001600160801b038116811461057257600080fd5b919050565b80356001600160801b038116811461057257600080fd5b80356001600160a01b038116811461057257600080fd5b6000806000606084860312156105ba57600080fd5b6105c38461058e565b92506105d16020850161058e565b91506105df60408501610577565b90509250925092565b600080600080608085870312156105fe57600080fd5b6106078561058e565b93506106156020860161058e565b92506106236040860161058e565b915061063160608601610577565b905092959194509250565b600080600080600060a0868803121561065457600080fd5b61065d8661058e565b945061066b6020870161058e565b93506106796040870161058e565b94979396509394606081013594506080013592915050565b6000806000606084860312156106a657600080fd5b6106af8461058e565b92506106bd6020850161058e565b9150604084013590509250925092565b600082198211156106e0576106e0610765565b500190565b60008261070257634e487b7160e01b600052601260045260246000fd5b500490565b600081600019048311821515161561072157610721610765565b500290565b60006001600160a01b038381169083168181101561074657610746610765565b039392505050565b60008282101561076057610760610765565b500390565b634e487b7160e01b600052601160045260246000fdfea2646970667358221220be9c79d7f659badb78709acf3749c94c8a1a8d315cbab439b97c276c0604bf5964736f6c63430008070033",
  "linkReferences": {},
  "deployedLinkReferences": {}
}