{
  "_format": "hh-sol-artifact-1",
  "contractName": "JobForTest",
  "sourceName": "solidity/for-test/JobForTest.sol",
  "abi": [
    {
      "inputs": [
        {
          "internalType": "address",
          "name": "_keep3r",
          "type": "address"
        }
      ],
      "stateMutability": "nonpayable",
      "type": "constructor"
    },
    {
      "inputs": [],
      "name": "InvalidKeeper",
      "type": "error"
    },
    {
      "inputs": [],
      "name": "keep3r",
      "outputs": [
        {
          "internalType": "address",
          "name": "",
          "type": "address"
        }
      ],
      "stateMutability": "view",
      "type": "function"
    },
    {
      "inputs": [],
      "name": "nonce",
      "outputs": [
        {
          "internalType": "uint256",
          "name": "",
          "type": "uint256"
        }
      ],
      "stateMutability": "view",
      "type": "function"
    },
    {
      "inputs": [],
      "name": "work",
      "outputs": [],
      "stateMutability": "nonpayable",
      "type": "function"
    },
    {
      "inputs": [
        {
          "internalType": "uint256",
          "name": "_factor",
          "type": "uint256"
        }
      ],
      "name": "workHard",
      "outputs": [],
      "stateMutability": "nonpayable",
      "type": "function"
    }
  ],
  "bytecode": "0x608060405234801561001057600080fd5b506040516104c93803806104c983398101604081905261002f91610054565b600080546001600160a01b0319166001600160a01b0392909216919091179055610084565b60006020828403121561006657600080fd5b81516001600160a01b038116811461007d57600080fd5b9392505050565b610436806100936000396000f3fe608060405234801561001057600080fd5b506004361061004c5760003560e01c8063322e9f04146100515780633bb39c331461005b578063634c7bb51461006e578063affed0e014610097575b600080fd5b6100596100ae565b005b61005961006936600461035a565b6101ef565b600054610081906001600160a01b031681565b60405161008e9190610373565b60405180910390f35b6100a060015481565b60405190815260200161008e565b6000546040516335d2155560e11b81526001600160a01b0390911690636ba42aaa906100de903390600401610373565b602060405180830381600087803b1580156100f857600080fd5b505af115801561010c573d6000803e3d6000fd5b505050506040513d601f19601f820116820180604052508101906101309190610331565b6101555760405162461bcd60e51b815260040161014c90610387565b60405180910390fd5b60005b6103e881101561018a5760018054906000610172836103cf565b91905055508080610182906103cf565b915050610158565b506000546040516317fbade560e21b81526001600160a01b0390911690635feeb794906101bb903390600401610373565b600060405180830381600087803b1580156101d557600080fd5b505af11580156101e9573d6000803e3d6000fd5b50505050565b6000546040516335d2155560e11b81526001600160a01b0390911690636ba42aaa9061021f903390600401610373565b602060405180830381600087803b15801561023957600080fd5b505af115801561024d573d6000803e3d6000fd5b505050506040513d601f19601f820116820180604052508101906102719190610331565b61028d5760405162461bcd60e51b815260040161014c90610387565b60005b61029c826103e86103b0565b8110156102cb57600180549060006102b3836103cf565b919050555080806102c3906103cf565b915050610290565b506000546040516317fbade560e21b81526001600160a01b0390911690635feeb794906102fc903390600401610373565b600060405180830381600087803b15801561031657600080fd5b505af115801561032a573d6000803e3d6000fd5b5050505050565b60006020828403121561034357600080fd5b8151801515811461035357600080fd5b9392505050565b60006020828403121561036c57600080fd5b5035919050565b6001600160a01b0391909116815260200190565b6020808252600f908201526e496e76616c69644b6565706572282960881b604082015260600190565b60008160001904831182151516156103ca576103ca6103ea565b500290565b60006000198214156103e3576103e36103ea565b5060010190565b634e487b7160e01b600052601160045260246000fdfea26469706673582212208c743cc4ba0a9175f5018f90c81db7be6cacf3cc69d629f05dcb07c07d4e18c764736f6c63430008070033",
  "linkReferences": {},
  "deployedLinkReferences": {}
}