{
  "_format": "hh-sol-artifact-1",
  "contractName": "ERC20ForTest",
  "sourceName": "solidity/for-test/ERC20ForTest.sol",
  "abi": [
    {
      "inputs": [
        {
          "internalType": "string",
          "name": "_name",
          "type": "string"
        },
        {
          "internalType": "string",
          "name": "_symbol",
          "type": "string"
        },
        {
          "internalType": "address",
          "name": "_initialAccount",
          "type": "address"
        },
        {
          "internalType": "uint256",
          "name": "_initialBalance",
          "type": "uint256"
        }
      ],
      "stateMutability": "nonpayable",
      "type": "constructor"
    },
    {
      "anonymous": false,
      "inputs": [
        {
          "indexed": true,
          "internalType": "address",
          "name": "owner",
          "type": "address"
        },
        {
          "indexed": true,
          "internalType": "address",
          "name": "spender",
          "type": "address"
        },
        {
          "indexed": false,
          "internalType": "uint256",
          "name": "value",
          "type": "uint256"
        }
      ],
      "name": "Approval",
      "type": "event"
    },
    {
      "anonymous": false,
      "inputs": [
        {
          "indexed": true,
          "internalType": "address",
          "name": "from",
          "type": "address"
        },
        {
          "indexed": true,
          "internalType": "address",
          "name": "to",
          "type": "address"
        },
        {
          "indexed": false,
          "internalType": "uint256",
          "name": "value",
          "type": "uint256"
        }
      ],
      "name": "Transfer",
      "type": "event"
    },
    {
      "inputs": [
        {
          "internalType": "address",
          "name": "owner",
          "type": "address"
        },
        {
          "internalType": "address",
          "name": "spender",
          "type": "address"
        }
      ],
      "name": "allowance",
      "outputs": [
        {
          "internalType": "uint256",
          "name": "",
          "type": "uint256"
        }
      ],
      "stateMutability": "view",
      "type": "function"
    },
    {
      "inputs": [
        {
          "internalType": "address",
          "name": "spender",
          "type": "address"
        },
        {
          "internalType": "uint256",
          "name": "amount",
          "type": "uint256"
        }
      ],
      "name": "approve",
      "outputs": [
        {
          "internalType": "bool",
          "name": "",
          "type": "bool"
        }
      ],
      "stateMutability": "nonpayable",
      "type": "function"
    },
    {
      "inputs": [
        {
          "internalType": "address",
          "name": "_owner",
          "type": "address"
        },
        {
          "internalType": "address",
          "name": "_spender",
          "type": "address"
        },
        {
          "internalType": "uint256",
          "name": "_value",
          "type": "uint256"
        }
      ],
      "name": "approveInternal",
      "outputs": [],
      "stateMutability": "nonpayable",
      "type": "function"
    },
    {
      "inputs": [
        {
          "internalType": "address",
          "name": "account",
          "type": "address"
        }
      ],
      "name": "balanceOf",
      "outputs": [
        {
          "internalType": "uint256",
          "name": "",
          "type": "uint256"
        }
      ],
      "stateMutability": "view",
      "type": "function"
    },
    {
      "inputs": [
        {
          "internalType": "address",
          "name": "_account",
          "type": "address"
        },
        {
          "internalType": "uint256",
          "name": "_amount",
          "type": "uint256"
        }
      ],
      "name": "burn",
      "outputs": [],
      "stateMutability": "nonpayable",
      "type": "function"
    },
    {
      "inputs": [],
      "name": "decimals",
      "outputs": [
        {
          "internalType": "uint8",
          "name": "",
          "type": "uint8"
        }
      ],
      "stateMutability": "view",
      "type": "function"
    },
    {
      "inputs": [
        {
          "internalType": "address",
          "name": "spender",
          "type": "address"
        },
        {
          "internalType": "uint256",
          "name": "subtractedValue",
          "type": "uint256"
        }
      ],
      "name": "decreaseAllowance",
      "outputs": [
        {
          "internalType": "bool",
          "name": "",
          "type": "bool"
        }
      ],
      "stateMutability": "nonpayable",
      "type": "function"
    },
    {
      "inputs": [
        {
          "internalType": "uint256",
          "name": "_amount",
          "type": "uint256"
        }
      ],
      "name": "deposit",
      "outputs": [],
      "stateMutability": "payable",
      "type": "function"
    },
    {
      "inputs": [
        {
          "internalType": "address",
          "name": "spender",
          "type": "address"
        },
        {
          "internalType": "uint256",
          "name": "addedValue",
          "type": "uint256"
        }
      ],
      "name": "increaseAllowance",
      "outputs": [
        {
          "internalType": "bool",
          "name": "",
          "type": "bool"
        }
      ],
      "stateMutability": "nonpayable",
      "type": "function"
    },
    {
      "inputs": [
        {
          "internalType": "address",
          "name": "_account",
          "type": "address"
        },
        {
          "internalType": "uint256",
          "name": "_amount",
          "type": "uint256"
        }
      ],
      "name": "mint",
      "outputs": [],
      "stateMutability": "nonpayable",
      "type": "function"
    },
    {
      "inputs": [],
      "name": "name",
      "outputs": [
        {
          "internalType": "string",
          "name": "",
          "type": "string"
        }
      ],
      "stateMutability": "view",
      "type": "function"
    },
    {
      "inputs": [],
      "name": "symbol",
      "outputs": [
        {
          "internalType": "string",
          "name": "",
          "type": "string"
        }
      ],
      "stateMutability": "view",
      "type": "function"
    },
    {
      "inputs": [],
      "name": "totalSupply",
      "outputs": [
        {
          "internalType": "uint256",
          "name": "",
          "type": "uint256"
        }
      ],
      "stateMutability": "view",
      "type": "function"
    },
    {
      "inputs": [
        {
          "internalType": "address",
          "name": "recipient",
          "type": "address"
        },
        {
          "internalType": "uint256",
          "name": "amount",
          "type": "uint256"
        }
      ],
      "name": "transfer",
      "outputs": [
        {
          "internalType": "bool",
          "name": "",
          "type": "bool"
        }
      ],
      "stateMutability": "nonpayable",
      "type": "function"
    },
    {
      "inputs": [
        {
          "internalType": "address",
          "name": "sender",
          "type": "address"
        },
        {
          "internalType": "address",
          "name": "recipient",
          "type": "address"
        },
        {
          "internalType": "uint256",
          "name": "amount",
          "type": "uint256"
        }
      ],
      "name": "transferFrom",
      "outputs": [
        {
          "internalType": "bool",
          "name": "",
          "type": "bool"
        }
      ],
      "stateMutability": "nonpayable",
      "type": "function"
    },
    {
      "inputs": [
        {
          "internalType": "address",
          "name": "_from",
          "type": "address"
        },
        {
          "internalType": "address",
          "name": "_to",
          "type": "address"
        },
        {
          "internalType": "uint256",
          "name": "_value",
          "type": "uint256"
        }
      ],
      "name": "transferInternal",
      "outputs": [],
      "stateMutability": "nonpayable",
      "type": "function"
    }
  ],
  "bytecode": "0x60806040523480156200001157600080fd5b5060405162001066380380620010668339810160408190526200003491620002c7565b8351849084906200004d9060039060208501906200016a565b508051620000639060049060208401906200016a565b5050506200007882826200008260201b60201c565b50505050620003d4565b6001600160a01b038216620000dd5760405162461bcd60e51b815260206004820152601f60248201527f45524332303a206d696e7420746f20746865207a65726f206164647265737300604482015260640160405180910390fd5b8060026000828254620000f191906200035a565b90915550506001600160a01b03821660009081526020819052604081208054839290620001209084906200035a565b90915550506040518181526001600160a01b038316906000907fddf252ad1be2c89b69c2b068fc378daa952ba7f163c4a11628f55a4df523b3ef9060200160405180910390a35050565b828054620001789062000381565b90600052602060002090601f0160209004810192826200019c5760008555620001e7565b82601f10620001b757805160ff1916838001178555620001e7565b82800160010185558215620001e7579182015b82811115620001e7578251825591602001919060010190620001ca565b50620001f5929150620001f9565b5090565b5b80821115620001f55760008155600101620001fa565b600082601f8301126200022257600080fd5b81516001600160401b03808211156200023f576200023f620003be565b604051601f8301601f19908116603f011681019082821181831017156200026a576200026a620003be565b816040528381526020925086838588010111156200028757600080fd5b600091505b83821015620002ab57858201830151818301840152908201906200028c565b83821115620002bd5760008385830101525b9695505050505050565b60008060008060808587031215620002de57600080fd5b84516001600160401b0380821115620002f657600080fd5b620003048883890162000210565b955060208701519150808211156200031b57600080fd5b506200032a8782880162000210565b604087015190945090506001600160a01b03811681146200034a57600080fd5b6060959095015193969295505050565b600082198211156200037c57634e487b7160e01b600052601160045260246000fd5b500190565b600181811c908216806200039657607f821691505b60208210811415620003b857634e487b7160e01b600052602260045260246000fd5b50919050565b634e487b7160e01b600052604160045260246000fd5b610c8280620003e46000396000f3fe6080604052600436106100c35760003560e01c806306fdde03146100c8578063095ea7b3146100f357806318160ddd14610123578063222f5be01461014257806323b872dd14610164578063313ce5671461018457806339509351146101a057806340c10f19146101c057806356189cb4146101e057806370a082311461020057806395d89b41146102365780639dc29fac1461024b578063a457c2d71461026b578063a9059cbb1461028b578063b6b55f25146102ab578063dd62ed3e146102bc575b600080fd5b3480156100d457600080fd5b506100dd610302565b6040516100ea9190610b57565b60405180910390f35b3480156100ff57600080fd5b5061011361010e366004610b14565b610394565b60405190151581526020016100ea565b34801561012f57600080fd5b506002545b6040519081526020016100ea565b34801561014e57600080fd5b5061016261015d366004610ad8565b6103aa565b005b34801561017057600080fd5b5061011361017f366004610ad8565b6103ba565b34801561019057600080fd5b50604051601281526020016100ea565b3480156101ac57600080fd5b506101136101bb366004610b14565b610469565b3480156101cc57600080fd5b506101626101db366004610b14565b6104a5565b3480156101ec57600080fd5b506101626101fb366004610ad8565b6104b3565b34801561020c57600080fd5b5061013461021b366004610a83565b6001600160a01b031660009081526020819052604090205490565b34801561024257600080fd5b506100dd6104be565b34801561025757600080fd5b50610162610266366004610b14565b6104cd565b34801561027757600080fd5b50610113610286366004610b14565b6104d7565b34801561029757600080fd5b506101136102a6366004610b14565b610570565b6101626102b9366004610b3e565b50565b3480156102c857600080fd5b506101346102d7366004610aa5565b6001600160a01b03918216600090815260016020908152604080832093909416825291909152205490565b60606003805461031190610bdb565b80601f016020809104026020016040519081016040528092919081815260200182805461033d90610bdb565b801561038a5780601f1061035f5761010080835404028352916020019161038a565b820191906000526020600020905b81548152906001019060200180831161036d57829003601f168201915b5050505050905090565b60006103a133848461057d565b50600192915050565b6103b58383836106a1565b505050565b60006103c78484846106a1565b6001600160a01b0384166000908152600160209081526040808320338452909152902054828110156104515760405162461bcd60e51b815260206004820152602860248201527f45524332303a207472616e7366657220616d6f756e74206578636565647320616044820152676c6c6f77616e636560c01b60648201526084015b60405180910390fd5b61045e853385840361057d565b506001949350505050565b3360008181526001602090815260408083206001600160a01b038716845290915281205490916103a19185906104a0908690610bac565b61057d565b6104af828261085e565b5050565b6103b583838361057d565b60606004805461031190610bdb565b6104af828261092b565b3360009081526001602090815260408083206001600160a01b0386168452909152812054828110156105595760405162461bcd60e51b815260206004820152602560248201527f45524332303a2064656372656173656420616c6c6f77616e63652062656c6f77604482015264207a65726f60d81b6064820152608401610448565b610566338585840361057d565b5060019392505050565b60006103a13384846106a1565b6001600160a01b0383166105df5760405162461bcd60e51b8152602060048201526024808201527f45524332303a20617070726f76652066726f6d20746865207a65726f206164646044820152637265737360e01b6064820152608401610448565b6001600160a01b0382166106405760405162461bcd60e51b815260206004820152602260248201527f45524332303a20617070726f766520746f20746865207a65726f206164647265604482015261737360f01b6064820152608401610448565b6001600160a01b0383811660008181526001602090815260408083209487168084529482529182902085905590518481527f8c5be1e5ebec7d5bd14f71427d1e84f3dd0314c0f7b2291e5b200ac8c7c3b925910160405180910390a3505050565b6001600160a01b0383166107055760405162461bcd60e51b815260206004820152602560248201527f45524332303a207472616e736665722066726f6d20746865207a65726f206164604482015264647265737360d81b6064820152608401610448565b6001600160a01b0382166107675760405162461bcd60e51b815260206004820152602360248201527f45524332303a207472616e7366657220746f20746865207a65726f206164647260448201526265737360e81b6064820152608401610448565b6001600160a01b038316600090815260208190526040902054818110156107df5760405162461bcd60e51b815260206004820152602660248201527f45524332303a207472616e7366657220616d6f756e7420657863656564732062604482015265616c616e636560d01b6064820152608401610448565b6001600160a01b03808516600090815260208190526040808220858503905591851681529081208054849290610816908490610bac565b92505081905550826001600160a01b0316846001600160a01b0316600080516020610c2d8339815191528460405161085091815260200190565b60405180910390a350505050565b6001600160a01b0382166108b45760405162461bcd60e51b815260206004820152601f60248201527f45524332303a206d696e7420746f20746865207a65726f2061646472657373006044820152606401610448565b80600260008282546108c69190610bac565b90915550506001600160a01b038216600090815260208190526040812080548392906108f3908490610bac565b90915550506040518181526001600160a01b03831690600090600080516020610c2d8339815191529060200160405180910390a35050565b6001600160a01b03821661098b5760405162461bcd60e51b815260206004820152602160248201527f45524332303a206275726e2066726f6d20746865207a65726f206164647265736044820152607360f81b6064820152608401610448565b6001600160a01b038216600090815260208190526040902054818110156109ff5760405162461bcd60e51b815260206004820152602260248201527f45524332303a206275726e20616d6f756e7420657863656564732062616c616e604482015261636560f01b6064820152608401610448565b6001600160a01b0383166000908152602081905260408120838303905560028054849290610a2e908490610bc4565b90915550506040518281526000906001600160a01b03851690600080516020610c2d8339815191529060200160405180910390a3505050565b80356001600160a01b0381168114610a7e57600080fd5b919050565b600060208284031215610a9557600080fd5b610a9e82610a67565b9392505050565b60008060408385031215610ab857600080fd5b610ac183610a67565b9150610acf60208401610a67565b90509250929050565b600080600060608486031215610aed57600080fd5b610af684610a67565b9250610b0460208501610a67565b9150604084013590509250925092565b60008060408385031215610b2757600080fd5b610b3083610a67565b946020939093013593505050565b600060208284031215610b5057600080fd5b5035919050565b600060208083528351808285015260005b81811015610b8457858101830151858201604001528201610b68565b81811115610b96576000604083870101525b50601f01601f1916929092016040019392505050565b60008219821115610bbf57610bbf610c16565b500190565b600082821015610bd657610bd6610c16565b500390565b600181811c90821680610bef57607f821691505b60208210811415610c1057634e487b7160e01b600052602260045260246000fd5b50919050565b634e487b7160e01b600052601160045260246000fdfeddf252ad1be2c89b69c2b068fc378daa952ba7f163c4a11628f55a4df523b3efa2646970667358221220ab4346124fbbeba114f986e82f0c6b667b4066debbbbcdfd4f7cad5246f9b6e064736f6c63430008070033",
  "linkReferences": {},
  "deployedLinkReferences": {}
}