{
  "_format": "hh-sol-artifact-1",
  "contractName": "UniV3PairManager",
  "sourceName": "solidity/for-test/UniV3PairManagerForTest.sol",
  "abi": [
    {
      "inputs": [
        {
          "internalType": "address",
          "name": "_pool",
          "type": "address"
        },
        {
          "internalType": "address",
          "name": "_governance",
          "type": "address"
        }
      ],
      "stateMutability": "nonpayable",
      "type": "constructor"
    },
    {
      "inputs": [],
      "name": "ExcessiveSlippage",
      "type": "error"
    },
    {
      "inputs": [],
      "name": "NoGovernanceZeroAddress",
      "type": "error"
    },
    {
      "inputs": [],
      "name": "OnlyGovernance",
      "type": "error"
    },
    {
      "inputs": [],
      "name": "OnlyPendingGovernance",
      "type": "error"
    },
    {
      "inputs": [],
      "name": "OnlyPool",
      "type": "error"
    },
    {
      "inputs": [],
      "name": "UnsuccessfulTransfer",
      "type": "error"
    },
    {
      "anonymous": false,
      "inputs": [
        {
          "indexed": true,
          "internalType": "address",
          "name": "owner",
          "type": "address"
        },
        {
          "indexed": true,
          "internalType": "address",
          "name": "spender",
          "type": "address"
        },
        {
          "indexed": false,
          "internalType": "uint256",
          "name": "value",
          "type": "uint256"
        }
      ],
      "name": "Approval",
      "type": "event"
    },
    {
      "anonymous": false,
      "inputs": [
        {
          "indexed": false,
          "internalType": "address",
          "name": "_pendingGovernance",
          "type": "address"
        }
      ],
      "name": "GovernanceProposal",
      "type": "event"
    },
    {
      "anonymous": false,
      "inputs": [
        {
          "indexed": false,
          "internalType": "address",
          "name": "_governance",
          "type": "address"
        }
      ],
      "name": "GovernanceSet",
      "type": "event"
    },
    {
      "anonymous": false,
      "inputs": [
        {
          "indexed": true,
          "internalType": "address",
          "name": "from",
          "type": "address"
        },
        {
          "indexed": true,
          "internalType": "address",
          "name": "to",
          "type": "address"
        },
        {
          "indexed": false,
          "internalType": "uint256",
          "name": "value",
          "type": "uint256"
        }
      ],
      "name": "Transfer",
      "type": "event"
    },
    {
      "inputs": [],
      "name": "_TICK_LOWER",
      "outputs": [
        {
          "internalType": "int24",
          "name": "",
          "type": "int24"
        }
      ],
      "stateMutability": "view",
      "type": "function"
    },
    {
      "inputs": [],
      "name": "_TICK_UPPER",
      "outputs": [
        {
          "internalType": "int24",
          "name": "",
          "type": "int24"
        }
      ],
      "stateMutability": "view",
      "type": "function"
    },
    {
      "inputs": [],
      "name": "acceptGovernance",
      "outputs": [],
      "stateMutability": "nonpayable",
      "type": "function"
    },
    {
      "inputs": [
        {
          "internalType": "address",
          "name": "",
          "type": "address"
        },
        {
          "internalType": "address",
          "name": "",
          "type": "address"
        }
      ],
      "name": "allowance",
      "outputs": [
        {
          "internalType": "uint256",
          "name": "",
          "type": "uint256"
        }
      ],
      "stateMutability": "view",
      "type": "function"
    },
    {
      "inputs": [
        {
          "internalType": "address",
          "name": "spender",
          "type": "address"
        },
        {
          "internalType": "uint256",
          "name": "amount",
          "type": "uint256"
        }
      ],
      "name": "approve",
      "outputs": [
        {
          "internalType": "bool",
          "name": "",
          "type": "bool"
        }
      ],
      "stateMutability": "nonpayable",
      "type": "function"
    },
    {
      "inputs": [
        {
          "internalType": "address",
          "name": "",
          "type": "address"
        }
      ],
      "name": "balanceOf",
      "outputs": [
        {
          "internalType": "uint256",
          "name": "",
          "type": "uint256"
        }
      ],
      "stateMutability": "view",
      "type": "function"
    },
    {
      "inputs": [
        {
          "internalType": "uint128",
          "name": "liquidity",
          "type": "uint128"
        },
        {
          "internalType": "uint256",
          "name": "amount0Min",
          "type": "uint256"
        },
        {
          "internalType": "uint256",
          "name": "amount1Min",
          "type": "uint256"
        },
        {
          "internalType": "address",
          "name": "to",
          "type": "address"
        }
      ],
      "name": "burn",
      "outputs": [
        {
          "internalType": "uint256",
          "name": "amount0",
          "type": "uint256"
        },
        {
          "internalType": "uint256",
          "name": "amount1",
          "type": "uint256"
        }
      ],
      "stateMutability": "nonpayable",
      "type": "function"
    },
    {
      "inputs": [],
      "name": "collect",
      "outputs": [
        {
          "internalType": "uint256",
          "name": "amount0",
          "type": "uint256"
        },
        {
          "internalType": "uint256",
          "name": "amount1",
          "type": "uint256"
        }
      ],
      "stateMutability": "nonpayable",
      "type": "function"
    },
    {
      "inputs": [],
      "name": "decimals",
      "outputs": [
        {
          "internalType": "uint8",
          "name": "",
          "type": "uint8"
        }
      ],
      "stateMutability": "view",
      "type": "function"
    },
    {
      "inputs": [],
      "name": "fee",
      "outputs": [
        {
          "internalType": "uint24",
          "name": "",
          "type": "uint24"
        }
      ],
      "stateMutability": "view",
      "type": "function"
    },
    {
      "inputs": [],
      "name": "governance",
      "outputs": [
        {
          "internalType": "address",
          "name": "",
          "type": "address"
        }
      ],
      "stateMutability": "view",
      "type": "function"
    },
    {
      "inputs": [
        {
          "internalType": "uint256",
          "name": "amount0Desired",
          "type": "uint256"
        },
        {
          "internalType": "uint256",
          "name": "amount1Desired",
          "type": "uint256"
        },
        {
          "internalType": "uint256",
          "name": "amount0Min",
          "type": "uint256"
        },
        {
          "internalType": "uint256",
          "name": "amount1Min",
          "type": "uint256"
        },
        {
          "internalType": "address",
          "name": "to",
          "type": "address"
        }
      ],
      "name": "mint",
      "outputs": [
        {
          "internalType": "uint128",
          "name": "liquidity",
          "type": "uint128"
        }
      ],
      "stateMutability": "nonpayable",
      "type": "function"
    },
    {
      "inputs": [],
      "name": "name",
      "outputs": [
        {
          "internalType": "string",
          "name": "",
          "type": "string"
        }
      ],
      "stateMutability": "view",
      "type": "function"
    },
    {
      "inputs": [],
      "name": "pendingGovernance",
      "outputs": [
        {
          "internalType": "address",
          "name": "",
          "type": "address"
        }
      ],
      "stateMutability": "view",
      "type": "function"
    },
    {
      "inputs": [],
      "name": "pool",
      "outputs": [
        {
          "internalType": "address",
          "name": "",
          "type": "address"
        }
      ],
      "stateMutability": "view",
      "type": "function"
    },
    {
      "inputs": [],
      "name": "position",
      "outputs": [
        {
          "internalType": "uint128",
          "name": "liquidity",
          "type": "uint128"
        },
        {
          "internalType": "uint256",
          "name": "feeGrowthInside0LastX128",
          "type": "uint256"
        },
        {
          "internalType": "uint256",
          "name": "feeGrowthInside1LastX128",
          "type": "uint256"
        },
        {
          "internalType": "uint128",
          "name": "tokensOwed0",
          "type": "uint128"
        },
        {
          "internalType": "uint128",
          "name": "tokensOwed1",
          "type": "uint128"
        }
      ],
      "stateMutability": "view",
      "type": "function"
    },
    {
      "inputs": [
        {
          "internalType": "address",
          "name": "_governance",
          "type": "address"
        }
      ],
      "name": "setGovernance",
      "outputs": [],
      "stateMutability": "nonpayable",
      "type": "function"
    },
    {
      "inputs": [
        {
          "internalType": "int24",
          "name": "_tick_lower",
          "type": "int24"
        },
        {
          "internalType": "int24",
          "name": "_tick_upper",
          "type": "int24"
        }
      ],
      "name": "setTicks",
      "outputs": [],
      "stateMutability": "nonpayable",
      "type": "function"
    },
    {
      "inputs": [],
      "name": "sqrtRatioAX96",
      "outputs": [
        {
          "internalType": "uint160",
          "name": "",
          "type": "uint160"
        }
      ],
      "stateMutability": "view",
      "type": "function"
    },
    {
      "inputs": [],
      "name": "sqrtRatioBX96",
      "outputs": [
        {
          "internalType": "uint160",
          "name": "",
          "type": "uint160"
        }
      ],
      "stateMutability": "view",
      "type": "function"
    },
    {
      "inputs": [],
      "name": "symbol",
      "outputs": [
        {
          "internalType": "string",
          "name": "",
          "type": "string"
        }
      ],
      "stateMutability": "view",
      "type": "function"
    },
    {
      "inputs": [],
      "name": "token0",
      "outputs": [
        {
          "internalType": "address",
          "name": "",
          "type": "address"
        }
      ],
      "stateMutability": "view",
      "type": "function"
    },
    {
      "inputs": [],
      "name": "token1",
      "outputs": [
        {
          "internalType": "address",
          "name": "",
          "type": "address"
        }
      ],
      "stateMutability": "view",
      "type": "function"
    },
    {
      "inputs": [],
      "name": "totalSupply",
      "outputs": [
        {
          "internalType": "uint256",
          "name": "",
          "type": "uint256"
        }
      ],
      "stateMutability": "view",
      "type": "function"
    },
    {
      "inputs": [
        {
          "internalType": "address",
          "name": "to",
          "type": "address"
        },
        {
          "internalType": "uint256",
          "name": "amount",
          "type": "uint256"
        }
      ],
      "name": "transfer",
      "outputs": [
        {
          "internalType": "bool",
          "name": "",
          "type": "bool"
        }
      ],
      "stateMutability": "nonpayable",
      "type": "function"
    },
    {
      "inputs": [
        {
          "internalType": "address",
          "name": "from",
          "type": "address"
        },
        {
          "internalType": "address",
          "name": "to",
          "type": "address"
        },
        {
          "internalType": "uint256",
          "name": "amount",
          "type": "uint256"
        }
      ],
      "name": "transferFrom",
      "outputs": [
        {
          "internalType": "bool",
          "name": "",
          "type": "bool"
        }
      ],
      "stateMutability": "nonpayable",
      "type": "function"
    },
    {
      "inputs": [
        {
          "internalType": "uint256",
          "name": "amount0Owed",
          "type": "uint256"
        },
        {
          "internalType": "uint256",
          "name": "amount1Owed",
          "type": "uint256"
        },
        {
          "internalType": "bytes",
          "name": "data",
          "type": "bytes"
        }
      ],
      "name": "uniswapV3MintCallback",
      "outputs": [],
      "stateMutability": "nonpayable",
      "type": "function"
    }
  ],
  "bytecode": "0x61010060405260006004556006805465ffffffffffff60a01b1916646c4d0793b360a51b1790553480156200003357600080fd5b5060405162002fc338038062002fc3833981016040819052620000569162000adb565b806001600160a01b0381166200007e5760405162b293ed60e81b815260040160405180910390fd5b600080546001600160a01b0319166001600160a01b03928316178155606084901b6001600160601b03191660c0526040805163ddca3f4360e01b81529051919285169163ddca3f4391600480820192602092909190829003018186803b158015620000e857600080fd5b505afa158015620000fd573d6000803e3d6000fd5b505050506040513d601f19601f8201168201806040525081019062000123919062000bcb565b90508062ffffff1660e08162ffffff1660e81b815250506000836001600160a01b0316630dfe16816040518163ffffffff1660e01b815260040160206040518083038186803b1580156200017657600080fd5b505afa1580156200018b573d6000803e3d6000fd5b505050506040513d601f19601f82011682018060405250810190620001b1919062000ab6565b90506000846001600160a01b031663d21220a76040518163ffffffff1660e01b815260040160206040518083038186803b158015620001ef57600080fd5b505afa15801562000204573d6000803e3d6000fd5b505050506040513d601f19601f820116820180604052508101906200022a919062000ab6565b6001600160601b0319606084811b821660805282901b1660a052604080516395d89b4160e01b815290519192506001600160a01b038416916395d89b4191600480820192600092909190829003018186803b1580156200028957600080fd5b505afa1580156200029e573d6000803e3d6000fd5b505050506040513d6000823e601f3d908101601f19168201604052620002c8919081019062000b13565b816001600160a01b03166395d89b416040518163ffffffff1660e01b815260040160006040518083038186803b1580156200030257600080fd5b505afa15801562000317573d6000803e3d6000fd5b505050506040513d6000823e601f3d908101601f1916820160405262000341919081019062000b13565b6040516020016200035492919062000c42565b604051602081830303815290604052600290805190602001906200037a929190620009f3565b50816001600160a01b03166395d89b416040518163ffffffff1660e01b815260040160006040518083038186803b158015620003b557600080fd5b505afa158015620003ca573d6000803e3d6000fd5b505050506040513d6000823e601f3d908101601f19168201604052620003f4919081019062000b13565b816001600160a01b03166395d89b416040518163ffffffff1660e01b815260040160006040518083038186803b1580156200042e57600080fd5b505afa15801562000443573d6000803e3d6000fd5b505050506040513d6000823e601f3d908101601f191682016040526200046d919081019062000b13565b6040516020016200048092919062000bf2565b60405160208183030381529060405260039080519060200190620004a6929190620009f3565b50620004cc600660149054906101000a900460020b6200059160201b62000da51760201c565b600560006101000a8154816001600160a01b0302191690836001600160a01b0316021790555062000517600660179054906101000a900460020b6200059160201b62000da51760201c565b600680546001600160a01b03199081166001600160a01b039384161790915560408051606081018252948316808652939092166020850181905262ffffff9590951693909101839052600980549091169091179055600a80546001600160b81b031916909217600160a01b9091021790555062000dfc9050565b60008060008360020b12620005aa578260020b620005b9565b8260020b620005b99062000d9a565b9050620005ca620d89e71962000d74565b60020b811115620006055760405162461bcd60e51b81526020600482015260016024820152601560fa1b604482015260640160405180910390fd5b6000600182166200061b57600160801b6200062d565b6ffffcb933bd6fad37aa2d162d1a5940015b6001600160881b0316905060028216156200066557608062000660826ffff97272373d413259a46990580e213a62000ccb565b901c90505b6004821615620006925760806200068d826ffff2e50f5f656932ef12357cf3c7fdcc62000ccb565b901c90505b6008821615620006bf576080620006ba826fffe5caca7e10e4e61c3624eaa0941cd062000ccb565b901c90505b6010821615620006ec576080620006e7826fffcb9843d60f6159c9db58835c92664462000ccb565b901c90505b60208216156200071957608062000714826fff973b41fa98c081472e6896dfb254c062000ccb565b901c90505b60408216156200074657608062000741826fff2ea16466c96a3843ec78b326b5286162000ccb565b901c90505b6080821615620007735760806200076e826ffe5dee046a99a2a811c461f1969c305362000ccb565b901c90505b610100821615620007a15760806200079c826ffcbe86c7900a88aedcffc83b479aa3a462000ccb565b901c90505b610200821615620007cf576080620007ca826ff987a7253ac413176f2b074cf7815e5462000ccb565b901c90505b610400821615620007fd576080620007f8826ff3392b0822b70005940c7a398e4b70f362000ccb565b901c90505b6108008216156200082b57608062000826826fe7159475a2c29b7443b29c7fa6e889d962000ccb565b901c90505b6110008216156200085957608062000854826fd097f3bdfd2022b8845ad8f792aa582562000ccb565b901c90505b6120008216156200088757608062000882826fa9f746462d870fdf8a65dc1f90e061e562000ccb565b901c90505b614000821615620008b5576080620008b0826f70d869a156d2a1b890bb3df62baf32f762000ccb565b901c90505b618000821615620008e3576080620008de826f31be135f97d08fd981231505542fcfa662000ccb565b901c90505b62010000821615620009125760806200090d826f09aa508b5b7a84e1c677de54f3e99bc962000ccb565b901c90505b62020000821615620009405760806200093b826e5d6af8dedb81196699c329225ee60462000ccb565b901c90505b620400008216156200096d57608062000968826d2216e584f5fa1ea926041bedfe9862000ccb565b901c90505b620800008216156200099857608062000993826b048a170391f7dc42444e8fa262000ccb565b901c90505b60008460020b1315620009b657620009b38160001962000cb4565b90505b620009c76401000000008262000d5d565b15620009d5576001620009d8565b60005b620009eb9060ff16602083901c62000c99565b949350505050565b82805462000a019062000d20565b90600052602060002090601f01602090048101928262000a25576000855562000a70565b82601f1062000a4057805160ff191683800117855562000a70565b8280016001018555821562000a70579182015b8281111562000a7057825182559160200191906001019062000a53565b5062000a7e92915062000a82565b5090565b5b8082111562000a7e576000815560010162000a83565b80516001600160a01b038116811462000ab157600080fd5b919050565b60006020828403121562000ac957600080fd5b62000ad48262000a99565b9392505050565b6000806040838503121562000aef57600080fd5b62000afa8362000a99565b915062000b0a6020840162000a99565b90509250929050565b60006020828403121562000b2657600080fd5b81516001600160401b038082111562000b3e57600080fd5b818401915084601f83011262000b5357600080fd5b81518181111562000b685762000b6862000de6565b604051601f8201601f19908116603f0116810190838211818310171562000b935762000b9362000de6565b8160405282815287602084870101111562000bad57600080fd5b62000bc083602083016020880162000ced565b979650505050505050565b60006020828403121562000bde57600080fd5b815162ffffff8116811462000ad457600080fd5b636b4c502d60e01b81526000835162000c1381600485016020880162000ced565b602f60f81b600491840191820152835162000c3681600584016020880162000ced565b01600501949350505050565b6a025b2b2b819b92b189016960ad1b81526000835162000c6a81600b85016020880162000ced565b602f60f81b600b91840191820152835162000c8d81600c84016020880162000ced565b01600c01949350505050565b6000821982111562000caf5762000caf62000dba565b500190565b60008262000cc65762000cc662000dd0565b500490565b600081600019048311821515161562000ce85762000ce862000dba565b500290565b60005b8381101562000d0a57818101518382015260200162000cf0565b8381111562000d1a576000848401525b50505050565b600181811c9082168062000d3557607f821691505b6020821081141562000d5757634e487b7160e01b600052602260045260246000fd5b50919050565b60008262000d6f5762000d6f62000dd0565b500690565b60008160020b627fffff1981141562000d915762000d9162000dba565b60000392915050565b6000600160ff1b82141562000db35762000db362000dba565b5060000390565b634e487b7160e01b600052601160045260246000fd5b634e487b7160e01b600052601260045260246000fd5b634e487b7160e01b600052604160045260246000fd5b60805160601c60a05160601c60c05160601c60e05160e81c61213b62000e8860003960006103f4015260008181610206015281816104f10152818161095001528181610a1d01528181610af701528181610b4a01528181610b8801528181610bf701528181610cea0152818161125f01526113af0152600061038f015260006101d2015261213b6000f3fe608060405234801561001057600080fd5b50600436106101495760003560e01c806306fdde031461014e57806309218e911461016c578063095ea7b3146101aa5780630dfe1681146101cd57806316f0115b1461020157806318160ddd146102285780631efda4ce1461023f578063238efcbc1461025457806323b872dd1461025c5780632ea28f5b1461026f578063313ce567146102825780635aa6e6751461029c57806370a08231146102af5780637d3d6b3d146102cf57806395d89b41146102f6578063a3e6dc28146102fe578063a9059cbb14610329578063ab033ea91461033c578063c62752611461034f578063cf51148d14610362578063d21220a71461038a578063d3487997146103b1578063dd62ed3e146103c4578063ddca3f43146103ef578063e2aef29f1461042a578063e52253811461043e578063f39c38a014610446575b600080fd5b610156610459565b6040516101639190611ecf565b60405180910390f35b6101746104e7565b604080516001600160801b039687168152602081019590955284019290925283166060830152909116608082015260a001610163565b6101bd6101b8366004611a37565b6105e6565b6040519015158152602001610163565b6101f47f000000000000000000000000000000000000000000000000000000000000000081565b6040516101639190611e2e565b6101f47f000000000000000000000000000000000000000000000000000000000000000081565b61023160045481565b604051908152602001610163565b61025261024d366004611a7e565b610640565b005b6102526106ee565b6101bd61026a3660046119f6565b61077a565b6005546101f4906001600160a01b031681565b61028a601281565b60405160ff9091168152602001610163565b6000546101f4906001600160a01b031681565b6102316102bd3660046119a0565b60086020526000908152604090205481565b6006546102e390600160b81b900460020b81565b60405160029190910b8152602001610163565b610156610831565b61031161030c366004611d77565b61083e565b6040516001600160801b039091168152602001610163565b6101bd610337366004611a37565b61086e565b61025261034a3660046119a0565b610884565b6006546101f4906001600160a01b031681565b610375610370366004611b95565b610905565b60408051928352602083019190915201610163565b6101f47f000000000000000000000000000000000000000000000000000000000000000081565b6102526103bf366004611cf8565b610adc565b6102316103d23660046119bd565b600760209081526000928352604080842090915290825290205481565b6104167f000000000000000000000000000000000000000000000000000000000000000081565b60405162ffffff9091168152602001610163565b6006546102e390600160a01b900460020b81565b610375610bb4565b6001546101f4906001600160a01b031681565b6002805461046690611fce565b80601f016020809104026020016040519081016040528092919081815260200182805461049290611fce565b80156104df5780601f106104b4576101008083540402835291602001916104df565b820191906000526020600020905b8154815290600101906020018083116104c257829003601f168201915b505050505081565b60008060008060007f00000000000000000000000000000000000000000000000000000000000000006001600160a01b031663514ea4bf30600660149054906101000a900460020b600660179054906101000a900460020b60405160200161055193929190611de2565b604051602081830303815290604052805190602001206040518263ffffffff1660e01b815260040161058591815260200190565b60a06040518083038186803b15801561059d57600080fd5b505afa1580156105b1573d6000803e3d6000fd5b505050506040513d601f19601f820116820180604052508101906105d59190611bdf565b939992985090965094509092509050565b3360008181526007602090815260408083206001600160a01b038716808552925280832085905551919290916000805160206120e68339815191529061062f9086815260200190565b60405180910390a350600192915050565b6006805465ffffffffffff60a01b1916600160a01b600285810b62ffffff908116830262ffffff60b81b191693909317600160b81b86830b949094169390930292909217928390556106949204900b610da5565b600580546001600160a01b0319166001600160a01b03929092169190911790556006546106ca90600160b81b900460020b610da5565b600680546001600160a01b0319166001600160a01b03929092169190911790555050565b6001546001600160a01b0316331461071957604051637ef5703160e11b815260040160405180910390fd5b60018054600080546001600160a01b0383166001600160a01b031991821681179092559091169091556040517fc73be659241aade67e9a059bcf21494955018b213dbd1179054ccf928b13f3b69161077091611e2e565b60405180910390a1565b6001600160a01b0383166000818152600760209081526040808320338085529252822054919290919082148015906107b457506000198114155b156108185760006107c58583611f8b565b6001600160a01b038881166000818152600760209081526040808320948916808452948252918290208590559051848152939450919290916000805160206120e6833981519152910160405180910390a3505b6108238686866111bb565b6001925050505b9392505050565b6003805461046690611fce565b600061084c86868686611257565b509091506108659050826001600160801b038316611488565b95945050505050565b600061087b3384846111bb565b50600192915050565b6000546001600160a01b031633146108af576040516354348f0360e01b815260040160405180910390fd5b600180546001600160a01b0319166001600160a01b0383161790556040517fe987aaedf9d279143bdf1eee16cf1d0feb47742867d81083df8d6cd0a5ac857f906108fa908390611e2e565b60405180910390a150565b60065460405163a34123a760e01b8152600160a01b8204600290810b810b6004830152600160b81b909204820b90910b60248201526001600160801b038516604482015260009081907f00000000000000000000000000000000000000000000000000000000000000006001600160a01b03169063a34123a7906064016040805180830381600087803b15801561099b57600080fd5b505af11580156109af573d6000803e3d6000fd5b505050506040513d601f19601f820116820180604052508101906109d39190611cd4565b9092509050848210806109e557508381105b15610a03576040516397c7f53760e01b815260040160405180910390fd5b6006546040516309e3d67b60e31b81526001600160a01b037f00000000000000000000000000000000000000000000000000000000000000001691634f1eb3d891610a6d918791600160a01b8204600290810b92600160b81b9004900b9088908890600401611e92565b6040805180830381600087803b158015610a8657600080fd5b505af1158015610a9a573d6000803e3d6000fd5b505050506040513d601f19601f82011682018060405250810190610abe9190611b66565b5050610ad333876001600160801b0316611500565b94509492505050565b6000610aea82840184611aac565b9050336001600160a01b037f00000000000000000000000000000000000000000000000000000000000000001614610b3557604051634b60273560e01b815260040160405180910390fd5b8415610b6f578051516020820151610b6f91907f000000000000000000000000000000000000000000000000000000000000000088611570565b8315610bad57610bad81600001516020015182602001517f000000000000000000000000000000000000000000000000000000000000000087611570565b5050505050565b6000805481906001600160a01b03163314610be2576040516354348f0360e01b815260040160405180910390fd5b60065460405160009182916001600160a01b037f0000000000000000000000000000000000000000000000000000000000000000169163514ea4bf91610c43913091600160a01b8204600290810b92600160b81b9004900b90602001611de2565b604051602081830303815290604052805190602001206040518263ffffffff1660e01b8152600401610c7791815260200190565b60a06040518083038186803b158015610c8f57600080fd5b505afa158015610ca3573d6000803e3d6000fd5b505050506040513d601f19601f82011682018060405250810190610cc79190611bdf565b6000546006546040516309e3d67b60e31b81529398509196506001600160a01b037f000000000000000000000000000000000000000000000000000000000000000081169650634f1eb3d89550610d3e94501691600160a01b8204600290810b92600160b81b9004900b9088908890600401611e92565b6040805180830381600087803b158015610d5757600080fd5b505af1158015610d6b573d6000803e3d6000fd5b505050506040513d601f19601f82011682018060405250810190610d8f9190611b66565b6001600160801b03918216969116945092505050565b60008060008360020b12610dbc578260020b610dc9565b8260020b610dc990612040565b9050610dd8620d89e71961201d565b60020b811115610e125760405162461bcd60e51b81526020600482015260016024820152601560fa1b604482015260640160405180910390fd5b600060018216610e2657600160801b610e38565b6ffffcb933bd6fad37aa2d162d1a5940015b6001600160881b031690506002821615610e6d576080610e68826ffff97272373d413259a46990580e213a611f44565b901c90505b6004821615610e97576080610e92826ffff2e50f5f656932ef12357cf3c7fdcc611f44565b901c90505b6008821615610ec1576080610ebc826fffe5caca7e10e4e61c3624eaa0941cd0611f44565b901c90505b6010821615610eeb576080610ee6826fffcb9843d60f6159c9db58835c926644611f44565b901c90505b6020821615610f15576080610f10826fff973b41fa98c081472e6896dfb254c0611f44565b901c90505b6040821615610f3f576080610f3a826fff2ea16466c96a3843ec78b326b52861611f44565b901c90505b6080821615610f69576080610f64826ffe5dee046a99a2a811c461f1969c3053611f44565b901c90505b610100821615610f94576080610f8f826ffcbe86c7900a88aedcffc83b479aa3a4611f44565b901c90505b610200821615610fbf576080610fba826ff987a7253ac413176f2b074cf7815e54611f44565b901c90505b610400821615610fea576080610fe5826ff3392b0822b70005940c7a398e4b70f3611f44565b901c90505b610800821615611015576080611010826fe7159475a2c29b7443b29c7fa6e889d9611f44565b901c90505b61100082161561104057608061103b826fd097f3bdfd2022b8845ad8f792aa5825611f44565b901c90505b61200082161561106b576080611066826fa9f746462d870fdf8a65dc1f90e061e5611f44565b901c90505b614000821615611096576080611091826f70d869a156d2a1b890bb3df62baf32f7611f44565b901c90505b6180008216156110c15760806110bc826f31be135f97d08fd981231505542fcfa6611f44565b901c90505b620100008216156110ed5760806110e8826f09aa508b5b7a84e1c677de54f3e99bc9611f44565b901c90505b62020000821615611118576080611113826e5d6af8dedb81196699c329225ee604611f44565b901c90505b6204000082161561114257608061113d826d2216e584f5fa1ea926041bedfe98611f44565b901c90505b6208000082161561116a576080611165826b048a170391f7dc42444e8fa2611f44565b901c90505b60008460020b13156111855761118281600019611f30565b90505b611193600160201b82612009565b1561119f5760016111a2565b60005b6111b39060ff16602083901c611f18565b949350505050565b6001600160a01b038316600090815260086020526040812080548392906111e3908490611f8b565b90915550506001600160a01b03821660009081526008602052604081208054839290611210908490611f18565b92505081905550816001600160a01b0316836001600160a01b03166000805160206120c68339815191528360405161124a91815260200190565b60405180910390a3505050565b6000806000807f00000000000000000000000000000000000000000000000000000000000000006001600160a01b0316633850c7bd6040518163ffffffff1660e01b815260040160e06040518083038186803b1580156112b657600080fd5b505afa1580156112ca573d6000803e3d6000fd5b505050506040513d601f19601f820116820180604052508101906112ee9190611c41565b5050600554600654959650611319958795506001600160a01b0391821694501691508c90508b611582565b6006546040805160a080820183526009546001600160a01b03908116838501818152600a54808416606080880191825262ffffff600160a01b9384900481166080808b01918252958a523360209a8b019081528b519a8b019790975292518716898b015291519091169087015291518316858201528551808603909101815292840194859052633c8a7d8d60e01b9094529498507f000000000000000000000000000000000000000000000000000000000000000090941693633c8a7d8d936113fc933093908204600290810b93600160b81b909304900b918b9160a401611e42565b6040805180830381600087803b15801561141557600080fd5b505af1158015611429573d6000803e3d6000fd5b505050506040513d601f19601f8201168201806040525081019061144d9190611cd4565b90935091508583108061145f57508482105b1561147d576040516397c7f53760e01b815260040160405180910390fd5b509450945094915050565b806004600082825461149a9190611f18565b90915550506001600160a01b038216600090815260086020526040812080548392906114c7908490611f18565b90915550506040518181526001600160a01b038316906000906000805160206120c6833981519152906020015b60405180910390a35050565b80600460008282546115129190611f8b565b90915550506001600160a01b0382166000908152600860205260408120805483929061153f908490611f8b565b90915550506040518181526000906001600160a01b038416906000805160206120c6833981519152906020016114f4565b61157c84848484611644565b50505050565b6000836001600160a01b0316856001600160a01b031611156115a2579293925b846001600160a01b0316866001600160a01b0316116115cd576115c685858561173e565b9050610865565b836001600160a01b0316866001600160a01b0316101561162f5760006115f487868661173e565b905060006116038789866117a8565b9050806001600160801b0316826001600160801b0316106116245780611626565b815b92505050610865565b61163a8585846117a8565b9695505050505050565b604080516001600160a01b0385811660248301528481166044830152606480830185905283518084039091018152608490920183526020820180516001600160e01b03166323b872dd60e01b17905291516000928392908816916116a89190611e12565b6000604051808303816000865af19150503d80600081146116e5576040519150601f19603f3d011682016040523d82523d6000602084013e6116ea565b606091505b509150915081158061171857508051158015906117185750808060200190518101906117169190611a63565b155b15611736576040516316369daf60e31b815260040160405180910390fd5b505050505050565b6000826001600160a01b0316846001600160a01b0316111561175e579192915b6000611781856001600160a01b0316856001600160a01b0316600160601b6117de565b90506108656117a384836117958989611f63565b6001600160a01b03166117de565b611963565b6000826001600160a01b0316846001600160a01b031611156117c8579192915b6111b36117a383600160601b6117958888611f63565b600080806000198587098587029250828110838203039150508060001415611818576000841161180d57600080fd5b50829004905061082a565b80841161182457600080fd5b60008486880980840393811190920391905060008561184581600019611f8b565b611850906001611f18565b169586900495938490049360008190030460010190506118708184611f44565b909317926000611881876003611f44565b60021890506118908188611f44565b61189b906002611f8b565b6118a59082611f44565b90506118b18188611f44565b6118bc906002611f8b565b6118c69082611f44565b90506118d28188611f44565b6118dd906002611f8b565b6118e79082611f44565b90506118f38188611f44565b6118fe906002611f8b565b6119089082611f44565b90506119148188611f44565b61191f906002611f8b565b6119299082611f44565b90506119358188611f44565b611940906002611f8b565b61194a9082611f44565b90506119568186611f44565b9998505050505050505050565b806001600160801b038116811461197957600080fd5b919050565b8051801515811461197957600080fd5b805161ffff8116811461197957600080fd5b6000602082840312156119b257600080fd5b813561082a81612089565b600080604083850312156119d057600080fd5b82356119db81612089565b915060208301356119eb81612089565b809150509250929050565b600080600060608486031215611a0b57600080fd5b8335611a1681612089565b92506020840135611a2681612089565b929592945050506040919091013590565b60008060408385031215611a4a57600080fd5b8235611a5581612089565b946020939093013593505050565b600060208284031215611a7557600080fd5b61082a8261197e565b60008060408385031215611a9157600080fd5b8235611a9c816120a1565b915060208301356119eb816120a1565b60008183036080811215611abf57600080fd5b604080519081016001600160401b0381118282101715611aef57634e487b7160e01b600052604160045260246000fd5b6040526060821215611b0057600080fd5b611b08611ee2565b91508335611b1581612089565b82526020840135611b2581612089565b6020830152604084013562ffffff81168114611b4057600080fd5b6040830152908152606083013590611b5782612089565b60208101919091529392505050565b60008060408385031215611b7957600080fd5b8251611b84816120b0565b60208401519092506119eb816120b0565b60008060008060808587031215611bab57600080fd5b8435611bb6816120b0565b935060208501359250604085013591506060850135611bd481612089565b939692955090935050565b600080600080600060a08688031215611bf757600080fd5b8551611c02816120b0565b8095505060208601519350604086015192506060860151611c22816120b0565b6080870151909250611c33816120b0565b809150509295509295909350565b600080600080600080600060e0888a031215611c5c57600080fd5b8751611c6781612089565b6020890151909750611c78816120a1565b9550611c866040890161198e565b9450611c946060890161198e565b9350611ca26080890161198e565b925060a088015160ff81168114611cb857600080fd5b9150611cc660c0890161197e565b905092959891949750929550565b60008060408385031215611ce757600080fd5b505080516020909101519092909150565b60008060008060608587031215611d0e57600080fd5b843593506020850135925060408501356001600160401b0380821115611d3357600080fd5b818701915087601f830112611d4757600080fd5b813581811115611d5657600080fd5b886020828501011115611d6857600080fd5b95989497505060200194505050565b600080600080600060a08688031215611d8f57600080fd5b853594506020860135935060408601359250606086013591506080860135611c3381612089565b60008151808452611dce816020860160208601611fa2565b601f01601f19169290920160200192915050565b60609390931b6001600160601b0319168352600291820b60e890811b6014850152910b901b6017820152601a0190565b60008251611e24818460208701611fa2565b9190910192915050565b6001600160a01b0391909116815260200190565b6001600160a01b0386168152600285810b602083015284900b60408201526001600160801b038316606082015260a060808201819052600090611e8790830184611db6565b979650505050505050565b6001600160a01b03959095168552600293840b60208601529190920b60408401526001600160801b03918216606084015216608082015260a00190565b60208152600061082a6020830184611db6565b604051606081016001600160401b0381118282101715611f1257634e487b7160e01b600052604160045260246000fd5b60405290565b60008219821115611f2b57611f2b61205d565b500190565b600082611f3f57611f3f612073565b500490565b6000816000190483118215151615611f5e57611f5e61205d565b500290565b60006001600160a01b0383811690831681811015611f8357611f8361205d565b039392505050565b600082821015611f9d57611f9d61205d565b500390565b60005b83811015611fbd578181015183820152602001611fa5565b8381111561157c5750506000910152565b600181811c90821680611fe257607f821691505b6020821081141561200357634e487b7160e01b600052602260045260246000fd5b50919050565b60008261201857612018612073565b500690565b60008160020b627fffff198114156120375761203761205d565b60000392915050565b6000600160ff1b8214156120565761205661205d565b5060000390565b634e487b7160e01b600052601160045260246000fd5b634e487b7160e01b600052601260045260246000fd5b6001600160a01b038116811461209e57600080fd5b50565b8060020b811461209e57600080fd5b6001600160801b038116811461209e57600080fdfeddf252ad1be2c89b69c2b068fc378daa952ba7f163c4a11628f55a4df523b3ef8c5be1e5ebec7d5bd14f71427d1e84f3dd0314c0f7b2291e5b200ac8c7c3b925a2646970667358221220e6bcc1e198094089cf56f6ee6ee7db76609f3dae17f6462ac31a0983e2468b9664736f6c63430008070033",
  "linkReferences": {},
  "deployedLinkReferences": {}
}