{
  "_format": "hh-sol-artifact-1",
  "contractName": "Keep3r",
  "sourceName": "solidity/contracts/Keep3r.sol",
  "abi": [
    {
      "inputs": [
        {
          "internalType": "address",
          "name": "_governance",
          "type": "address"
        },
        {
          "internalType": "address",
          "name": "_keep3rHelper",
          "type": "address"
        },
        {
          "internalType": "address",
          "name": "_keep3rV1",
          "type": "address"
        },
        {
          "internalType": "address",
          "name": "_keep3rV1Proxy",
          "type": "address"
        },
        {
          "internalType": "address",
          "name": "_kp3rWethPool",
          "type": "address"
        }
      ],
      "stateMutability": "nonpayable",
      "type": "constructor"
    },
    {
      "inputs": [],
      "name": "AlreadyAJob",
      "type": "error"
    },
    {
      "inputs": [],
      "name": "AlreadyAKeeper",
      "type": "error"
    },
    {
      "inputs": [],
      "name": "AlreadyDisputed",
      "type": "error"
    },
    {
      "inputs": [],
      "name": "BondsLocked",
      "type": "error"
    },
    {
      "inputs": [],
      "name": "BondsUnexistent",
      "type": "error"
    },
    {
      "inputs": [],
      "name": "Disputed",
      "type": "error"
    },
    {
      "inputs": [],
      "name": "DisputerExistent",
      "type": "error"
    },
    {
      "inputs": [],
      "name": "DisputerUnexistent",
      "type": "error"
    },
    {
      "inputs": [],
      "name": "InsufficientFunds",
      "type": "error"
    },
    {
      "inputs": [],
      "name": "InsufficientJobTokenCredits",
      "type": "error"
    },
    {
      "inputs": [],
      "name": "JobAlreadyAdded",
      "type": "error"
    },
    {
      "inputs": [],
      "name": "JobDisputed",
      "type": "error"
    },
    {
      "inputs": [],
      "name": "JobLiquidityInsufficient",
      "type": "error"
    },
    {
      "inputs": [],
      "name": "JobLiquidityLessThanMin",
      "type": "error"
    },
    {
      "inputs": [],
      "name": "JobLiquidityUnexistent",
      "type": "error"
    },
    {
      "inputs": [],
      "name": "JobMigrationImpossible",
      "type": "error"
    },
    {
      "inputs": [],
      "name": "JobMigrationLocked",
      "type": "error"
    },
    {
      "inputs": [],
      "name": "JobMigrationUnavailable",
      "type": "error"
    },
    {
      "inputs": [],
      "name": "JobTokenCreditsLocked",
      "type": "error"
    },
    {
      "inputs": [],
      "name": "JobTokenInsufficient",
      "type": "error"
    },
    {
      "inputs": [],
      "name": "JobTokenUnexistent",
      "type": "error"
    },
    {
      "inputs": [],
      "name": "JobUnapproved",
      "type": "error"
    },
    {
      "inputs": [],
      "name": "JobUnavailable",
      "type": "error"
    },
    {
      "inputs": [],
      "name": "LiquidityPairApproved",
      "type": "error"
    },
    {
      "inputs": [],
      "name": "LiquidityPairUnapproved",
      "type": "error"
    },
    {
      "inputs": [],
      "name": "LiquidityPairUnexistent",
      "type": "error"
    },
    {
      "inputs": [],
      "name": "MinRewardPeriod",
      "type": "error"
    },
    {
      "inputs": [],
      "name": "NoGovernanceZeroAddress",
      "type": "error"
    },
    {
      "inputs": [],
      "name": "NotDisputed",
      "type": "error"
    },
    {
      "inputs": [],
      "name": "OnlyDisputer",
      "type": "error"
    },
    {
      "inputs": [],
      "name": "OnlyGovernance",
      "type": "error"
    },
    {
      "inputs": [],
      "name": "OnlyJobOwner",
      "type": "error"
    },
    {
      "inputs": [],
      "name": "OnlyPendingGovernance",
      "type": "error"
    },
    {
      "inputs": [],
      "name": "OnlyPendingJobOwner",
      "type": "error"
    },
    {
      "inputs": [],
      "name": "OnlySlasher",
      "type": "error"
    },
    {
      "inputs": [],
      "name": "SlasherExistent",
      "type": "error"
    },
    {
      "inputs": [],
      "name": "SlasherUnexistent",
      "type": "error"
    },
    {
      "inputs": [],
      "name": "TokenUnallowed",
      "type": "error"
    },
    {
      "inputs": [],
      "name": "UnbondsLocked",
      "type": "error"
    },
    {
      "inputs": [],
      "name": "UnbondsUnexistent",
      "type": "error"
    },
    {
      "inputs": [],
      "name": "ZeroAddress",
      "type": "error"
    },
    {
      "anonymous": false,
      "inputs": [
        {
          "indexed": true,
          "internalType": "address",
          "name": "_keeper",
          "type": "address"
        },
        {
          "indexed": true,
          "internalType": "address",
          "name": "_bond",
          "type": "address"
        },
        {
          "indexed": false,
          "internalType": "uint256",
          "name": "_amount",
          "type": "uint256"
        }
      ],
      "name": "Activation",
      "type": "event"
    },
    {
      "anonymous": false,
      "inputs": [
        {
          "indexed": false,
          "internalType": "uint256",
          "name": "_bondTime",
          "type": "uint256"
        }
      ],
      "name": "BondTimeChange",
      "type": "event"
    },
    {
      "anonymous": false,
      "inputs": [
        {
          "indexed": true,
          "internalType": "address",
          "name": "_keeper",
          "type": "address"
        },
        {
          "indexed": true,
          "internalType": "address",
          "name": "_bonding",
          "type": "address"
        },
        {
          "indexed": false,
          "internalType": "uint256",
          "name": "_amount",
          "type": "uint256"
        }
      ],
      "name": "Bonding",
      "type": "event"
    },
    {
      "anonymous": false,
      "inputs": [
        {
          "indexed": true,
          "internalType": "address",
          "name": "_jobOrKeeper",
          "type": "address"
        },
        {
          "indexed": true,
          "internalType": "address",
          "name": "_disputer",
          "type": "address"
        }
      ],
      "name": "Dispute",
      "type": "event"
    },
    {
      "anonymous": false,
      "inputs": [
        {
          "indexed": false,
          "internalType": "address",
          "name": "_disputer",
          "type": "address"
        }
      ],
      "name": "DisputerAdded",
      "type": "event"
    },
    {
      "anonymous": false,
      "inputs": [
        {
          "indexed": false,
          "internalType": "address",
          "name": "_disputer",
          "type": "address"
        }
      ],
      "name": "DisputerRemoved",
      "type": "event"
    },
    {
      "anonymous": false,
      "inputs": [
        {
          "indexed": false,
          "internalType": "address",
          "name": "_token",
          "type": "address"
        },
        {
          "indexed": false,
          "internalType": "uint256",
          "name": "_amount",
          "type": "uint256"
        },
        {
          "indexed": false,
          "internalType": "address",
          "name": "_to",
          "type": "address"
        }
      ],
      "name": "DustSent",
      "type": "event"
    },
    {
      "anonymous": false,
      "inputs": [
        {
          "indexed": false,
          "internalType": "uint256",
          "name": "_fee",
          "type": "uint256"
        }
      ],
      "name": "FeeChange",
      "type": "event"
    },
    {
      "anonymous": false,
      "inputs": [
        {
          "indexed": false,
          "internalType": "address",
          "name": "_pendingGovernance",
          "type": "address"
        }
      ],
      "name": "GovernanceProposal",
      "type": "event"
    },
    {
      "anonymous": false,
      "inputs": [
        {
          "indexed": false,
          "internalType": "address",
          "name": "_governance",
          "type": "address"
        }
      ],
      "name": "GovernanceSet",
      "type": "event"
    },
    {
      "anonymous": false,
      "inputs": [
        {
          "indexed": false,
          "internalType": "uint256",
          "name": "_inflationPeriod",
          "type": "uint256"
        }
      ],
      "name": "InflationPeriodChange",
      "type": "event"
    },
    {
      "anonymous": false,
      "inputs": [
        {
          "indexed": true,
          "internalType": "address",
          "name": "_job",
          "type": "address"
        },
        {
          "indexed": true,
          "internalType": "address",
          "name": "_jobOwner",
          "type": "address"
        }
      ],
      "name": "JobAddition",
      "type": "event"
    },
    {
      "anonymous": false,
      "inputs": [
        {
          "indexed": true,
          "internalType": "address",
          "name": "_fromJob",
          "type": "address"
        },
        {
          "indexed": false,
          "internalType": "address",
          "name": "_toJob",
          "type": "address"
        }
      ],
      "name": "JobMigrationRequested",
      "type": "event"
    },
    {
      "anonymous": false,
      "inputs": [
        {
          "indexed": false,
          "internalType": "address",
          "name": "_fromJob",
          "type": "address"
        },
        {
          "indexed": true,
          "internalType": "address",
          "name": "_toJob",
          "type": "address"
        }
      ],
      "name": "JobMigrationSuccessful",
      "type": "event"
    },
    {
      "anonymous": false,
      "inputs": [
        {
          "indexed": true,
          "internalType": "address",
          "name": "_job",
          "type": "address"
        },
        {
          "indexed": true,
          "internalType": "address",
          "name": "_previousOwner",
          "type": "address"
        },
        {
          "indexed": true,
          "internalType": "address",
          "name": "_newOwner",
          "type": "address"
        }
      ],
      "name": "JobOwnershipAssent",
      "type": "event"
    },
    {
      "anonymous": false,
      "inputs": [
        {
          "indexed": true,
          "internalType": "address",
          "name": "_job",
          "type": "address"
        },
        {
          "indexed": true,
          "internalType": "address",
          "name": "_owner",
          "type": "address"
        },
        {
          "indexed": true,
          "internalType": "address",
          "name": "_pendingOwner",
          "type": "address"
        }
      ],
      "name": "JobOwnershipChange",
      "type": "event"
    },
    {
      "anonymous": false,
      "inputs": [
        {
          "indexed": true,
          "internalType": "address",
          "name": "_job",
          "type": "address"
        },
        {
          "indexed": false,
          "internalType": "address",
          "name": "_liquidity",
          "type": "address"
        },
        {
          "indexed": true,
          "internalType": "address",
          "name": "_slasher",
          "type": "address"
        },
        {
          "indexed": false,
          "internalType": "uint256",
          "name": "_amount",
          "type": "uint256"
        }
      ],
      "name": "JobSlashLiquidity",
      "type": "event"
    },
    {
      "anonymous": false,
      "inputs": [
        {
          "indexed": true,
          "internalType": "address",
          "name": "_job",
          "type": "address"
        },
        {
          "indexed": false,
          "internalType": "address",
          "name": "_token",
          "type": "address"
        },
        {
          "indexed": true,
          "internalType": "address",
          "name": "_slasher",
          "type": "address"
        },
        {
          "indexed": false,
          "internalType": "uint256",
          "name": "_amount",
          "type": "uint256"
        }
      ],
      "name": "JobSlashToken",
      "type": "event"
    },
    {
      "anonymous": false,
      "inputs": [
        {
          "indexed": false,
          "internalType": "address",
          "name": "_keep3rHelper",
          "type": "address"
        }
      ],
      "name": "Keep3rHelperChange",
      "type": "event"
    },
    {
      "anonymous": false,
      "inputs": [
        {
          "indexed": false,
          "internalType": "address",
          "name": "_keep3rV1",
          "type": "address"
        }
      ],
      "name": "Keep3rV1Change",
      "type": "event"
    },
    {
      "anonymous": false,
      "inputs": [
        {
          "indexed": false,
          "internalType": "address",
          "name": "_keep3rV1Proxy",
          "type": "address"
        }
      ],
      "name": "Keep3rV1ProxyChange",
      "type": "event"
    },
    {
      "anonymous": false,
      "inputs": [
        {
          "indexed": true,
          "internalType": "address",
          "name": "_keeper",
          "type": "address"
        },
        {
          "indexed": true,
          "internalType": "address",
          "name": "_slasher",
          "type": "address"
        }
      ],
      "name": "KeeperRevoke",
      "type": "event"
    },
    {
      "anonymous": false,
      "inputs": [
        {
          "indexed": true,
          "internalType": "address",
          "name": "_keeper",
          "type": "address"
        },
        {
          "indexed": true,
          "internalType": "address",
          "name": "_slasher",
          "type": "address"
        },
        {
          "indexed": false,
          "internalType": "uint256",
          "name": "_amount",
          "type": "uint256"
        }
      ],
      "name": "KeeperSlash",
      "type": "event"
    },
    {
      "anonymous": false,
      "inputs": [
        {
          "indexed": false,
          "internalType": "uint256",
          "name": "_gasLeft",
          "type": "uint256"
        }
      ],
      "name": "KeeperValidation",
      "type": "event"
    },
    {
      "anonymous": false,
      "inputs": [
        {
          "indexed": true,
          "internalType": "address",
          "name": "_credit",
          "type": "address"
        },
        {
          "indexed": true,
          "internalType": "address",
          "name": "_job",
          "type": "address"
        },
        {
          "indexed": true,
          "internalType": "address",
          "name": "_keeper",
          "type": "address"
        },
        {
          "indexed": false,
          "internalType": "uint256",
          "name": "_amount",
          "type": "uint256"
        },
        {
          "indexed": false,
          "internalType": "uint256",
          "name": "_gasLeft",
          "type": "uint256"
        }
      ],
      "name": "KeeperWork",
      "type": "event"
    },
    {
      "anonymous": false,
      "inputs": [
        {
          "indexed": false,
          "internalType": "address",
          "name": "_kp3rWethPool",
          "type": "address"
        }
      ],
      "name": "Kp3rWethPoolChange",
      "type": "event"
    },
    {
      "anonymous": false,
      "inputs": [
        {
          "indexed": true,
          "internalType": "address",
          "name": "_job",
          "type": "address"
        },
        {
          "indexed": true,
          "internalType": "address",
          "name": "_liquidity",
          "type": "address"
        },
        {
          "indexed": true,
          "internalType": "address",
          "name": "_provider",
          "type": "address"
        },
        {
          "indexed": false,
          "internalType": "uint256",
          "name": "_amount",
          "type": "uint256"
        }
      ],
      "name": "LiquidityAddition",
      "type": "event"
    },
    {
      "anonymous": false,
      "inputs": [
        {
          "indexed": false,
          "internalType": "address",
          "name": "_liquidity",
          "type": "address"
        }
      ],
      "name": "LiquidityApproval",
      "type": "event"
    },
    {
      "anonymous": false,
      "inputs": [
        {
          "indexed": true,
          "internalType": "address",
          "name": "_job",
          "type": "address"
        },
        {
          "indexed": false,
          "internalType": "uint256",
          "name": "_rewardedAt",
          "type": "uint256"
        },
        {
          "indexed": false,
          "internalType": "uint256",
          "name": "_currentCredits",
          "type": "uint256"
        }
      ],
      "name": "LiquidityCreditsForced",
      "type": "event"
    },
    {
      "anonymous": false,
      "inputs": [
        {
          "indexed": true,
          "internalType": "address",
          "name": "_job",
          "type": "address"
        },
        {
          "indexed": false,
          "internalType": "uint256",
          "name": "_rewardedAt",
          "type": "uint256"
        },
        {
          "indexed": false,
          "internalType": "uint256",
          "name": "_currentCredits",
          "type": "uint256"
        },
        {
          "indexed": false,
          "internalType": "uint256",
          "name": "_periodCredits",
          "type": "uint256"
        }
      ],
      "name": "LiquidityCreditsReward",
      "type": "event"
    },
    {
      "anonymous": false,
      "inputs": [
        {
          "indexed": false,
          "internalType": "uint256",
          "name": "_liquidityMinimum",
          "type": "uint256"
        }
      ],
      "name": "LiquidityMinimumChange",
      "type": "event"
    },
    {
      "anonymous": false,
      "inputs": [
        {
          "indexed": false,
          "internalType": "address",
          "name": "_liquidity",
          "type": "address"
        }
      ],
      "name": "LiquidityRevocation",
      "type": "event"
    },
    {
      "anonymous": false,
      "inputs": [
        {
          "indexed": true,
          "internalType": "address",
          "name": "_job",
          "type": "address"
        },
        {
          "indexed": true,
          "internalType": "address",
          "name": "_liquidity",
          "type": "address"
        },
        {
          "indexed": true,
          "internalType": "address",
          "name": "_receiver",
          "type": "address"
        },
        {
          "indexed": false,
          "internalType": "uint256",
          "name": "_amount",
          "type": "uint256"
        }
      ],
      "name": "LiquidityWithdrawal",
      "type": "event"
    },
    {
      "anonymous": false,
      "inputs": [
        {
          "indexed": true,
          "internalType": "address",
          "name": "_jobOrKeeper",
          "type": "address"
        },
        {
          "indexed": true,
          "internalType": "address",
          "name": "_resolver",
          "type": "address"
        }
      ],
      "name": "Resolve",
      "type": "event"
    },
    {
      "anonymous": false,
      "inputs": [
        {
          "indexed": false,
          "internalType": "uint256",
          "name": "_rewardPeriodTime",
          "type": "uint256"
        }
      ],
      "name": "RewardPeriodTimeChange",
      "type": "event"
    },
    {
      "anonymous": false,
      "inputs": [
        {
          "indexed": false,
          "internalType": "address",
          "name": "_slasher",
          "type": "address"
        }
      ],
      "name": "SlasherAdded",
      "type": "event"
    },
    {
      "anonymous": false,
      "inputs": [
        {
          "indexed": false,
          "internalType": "address",
          "name": "_slasher",
          "type": "address"
        }
      ],
      "name": "SlasherRemoved",
      "type": "event"
    },
    {
      "anonymous": false,
      "inputs": [
        {
          "indexed": true,
          "internalType": "address",
          "name": "_job",
          "type": "address"
        },
        {
          "indexed": true,
          "internalType": "address",
          "name": "_token",
          "type": "address"
        },
        {
          "indexed": true,
          "internalType": "address",
          "name": "_provider",
          "type": "address"
        },
        {
          "indexed": false,
          "internalType": "uint256",
          "name": "_amount",
          "type": "uint256"
        }
      ],
      "name": "TokenCreditAddition",
      "type": "event"
    },
    {
      "anonymous": false,
      "inputs": [
        {
          "indexed": true,
          "internalType": "address",
          "name": "_job",
          "type": "address"
        },
        {
          "indexed": true,
          "internalType": "address",
          "name": "_token",
          "type": "address"
        },
        {
          "indexed": true,
          "internalType": "address",
          "name": "_receiver",
          "type": "address"
        },
        {
          "indexed": false,
          "internalType": "uint256",
          "name": "_amount",
          "type": "uint256"
        }
      ],
      "name": "TokenCreditWithdrawal",
      "type": "event"
    },
    {
      "anonymous": false,
      "inputs": [
        {
          "indexed": false,
          "internalType": "uint256",
          "name": "_unbondTime",
          "type": "uint256"
        }
      ],
      "name": "UnbondTimeChange",
      "type": "event"
    },
    {
      "anonymous": false,
      "inputs": [
        {
          "indexed": true,
          "internalType": "address",
          "name": "_keeperOrJob",
          "type": "address"
        },
        {
          "indexed": true,
          "internalType": "address",
          "name": "_unbonding",
          "type": "address"
        },
        {
          "indexed": false,
          "internalType": "uint256",
          "name": "_amount",
          "type": "uint256"
        }
      ],
      "name": "Unbonding",
      "type": "event"
    },
    {
      "anonymous": false,
      "inputs": [
        {
          "indexed": true,
          "internalType": "address",
          "name": "_keeper",
          "type": "address"
        },
        {
          "indexed": true,
          "internalType": "address",
          "name": "_bond",
          "type": "address"
        },
        {
          "indexed": false,
          "internalType": "uint256",
          "name": "_amount",
          "type": "uint256"
        }
      ],
      "name": "Withdrawal",
      "type": "event"
    },
    {
      "inputs": [],
      "name": "acceptGovernance",
      "outputs": [],
      "stateMutability": "nonpayable",
      "type": "function"
    },
    {
      "inputs": [
        {
          "internalType": "address",
          "name": "_fromJob",
          "type": "address"
        },
        {
          "internalType": "address",
          "name": "_toJob",
          "type": "address"
        }
      ],
      "name": "acceptJobMigration",
      "outputs": [],
      "stateMutability": "nonpayable",
      "type": "function"
    },
    {
      "inputs": [
        {
          "internalType": "address",
          "name": "_job",
          "type": "address"
        }
      ],
      "name": "acceptJobOwnership",
      "outputs": [],
      "stateMutability": "nonpayable",
      "type": "function"
    },
    {
      "inputs": [
        {
          "internalType": "address",
          "name": "_bonding",
          "type": "address"
        }
      ],
      "name": "activate",
      "outputs": [],
      "stateMutability": "nonpayable",
      "type": "function"
    },
    {
      "inputs": [
        {
          "internalType": "address",
          "name": "_disputer",
          "type": "address"
        }
      ],
      "name": "addDisputer",
      "outputs": [],
      "stateMutability": "nonpayable",
      "type": "function"
    },
    {
      "inputs": [
        {
          "internalType": "address",
          "name": "_job",
          "type": "address"
        }
      ],
      "name": "addJob",
      "outputs": [],
      "stateMutability": "nonpayable",
      "type": "function"
    },
    {
      "inputs": [
        {
          "internalType": "address",
          "name": "_job",
          "type": "address"
        },
        {
          "internalType": "address",
          "name": "_liquidity",
          "type": "address"
        },
        {
          "internalType": "uint256",
          "name": "_amount",
          "type": "uint256"
        }
      ],
      "name": "addLiquidityToJob",
      "outputs": [],
      "stateMutability": "nonpayable",
      "type": "function"
    },
    {
      "inputs": [
        {
          "internalType": "address",
          "name": "_slasher",
          "type": "address"
        }
      ],
      "name": "addSlasher",
      "outputs": [],
      "stateMutability": "nonpayable",
      "type": "function"
    },
    {
      "inputs": [
        {
          "internalType": "address",
          "name": "_job",
          "type": "address"
        },
        {
          "internalType": "address",
          "name": "_token",
          "type": "address"
        },
        {
          "internalType": "uint256",
          "name": "_amount",
          "type": "uint256"
        }
      ],
      "name": "addTokenCreditsToJob",
      "outputs": [],
      "stateMutability": "nonpayable",
      "type": "function"
    },
    {
      "inputs": [
        {
          "internalType": "address",
          "name": "_liquidity",
          "type": "address"
        }
      ],
      "name": "approveLiquidity",
      "outputs": [],
      "stateMutability": "nonpayable",
      "type": "function"
    },
    {
      "inputs": [],
      "name": "approvedLiquidities",
      "outputs": [
        {
          "internalType": "address[]",
          "name": "_list",
          "type": "address[]"
        }
      ],
      "stateMutability": "view",
      "type": "function"
    },
    {
      "inputs": [
        {
          "internalType": "address",
          "name": "_bonding",
          "type": "address"
        },
        {
          "internalType": "uint256",
          "name": "_amount",
          "type": "uint256"
        }
      ],
      "name": "bond",
      "outputs": [],
      "stateMutability": "nonpayable",
      "type": "function"
    },
    {
      "inputs": [],
      "name": "bondTime",
      "outputs": [
        {
          "internalType": "uint256",
          "name": "",
          "type": "uint256"
        }
      ],
      "stateMutability": "view",
      "type": "function"
    },
    {
      "inputs": [
        {
          "internalType": "address",
          "name": "_keeper",
          "type": "address"
        },
        {
          "internalType": "uint256",
          "name": "_payment",
          "type": "uint256"
        }
      ],
      "name": "bondedPayment",
      "outputs": [],
      "stateMutability": "nonpayable",
      "type": "function"
    },
    {
      "inputs": [
        {
          "internalType": "address",
          "name": "",
          "type": "address"
        },
        {
          "internalType": "address",
          "name": "",
          "type": "address"
        }
      ],
      "name": "bonds",
      "outputs": [
        {
          "internalType": "uint256",
          "name": "",
          "type": "uint256"
        }
      ],
      "stateMutability": "view",
      "type": "function"
    },
    {
      "inputs": [
        {
          "internalType": "address",
          "name": "",
          "type": "address"
        },
        {
          "internalType": "address",
          "name": "",
          "type": "address"
        }
      ],
      "name": "canActivateAfter",
      "outputs": [
        {
          "internalType": "uint256",
          "name": "",
          "type": "uint256"
        }
      ],
      "stateMutability": "view",
      "type": "function"
    },
    {
      "inputs": [
        {
          "internalType": "address",
          "name": "",
          "type": "address"
        },
        {
          "internalType": "address",
          "name": "",
          "type": "address"
        }
      ],
      "name": "canWithdrawAfter",
      "outputs": [
        {
          "internalType": "uint256",
          "name": "",
          "type": "uint256"
        }
      ],
      "stateMutability": "view",
      "type": "function"
    },
    {
      "inputs": [
        {
          "internalType": "address",
          "name": "_job",
          "type": "address"
        },
        {
          "internalType": "address",
          "name": "_newOwner",
          "type": "address"
        }
      ],
      "name": "changeJobOwnership",
      "outputs": [],
      "stateMutability": "nonpayable",
      "type": "function"
    },
    {
      "inputs": [
        {
          "internalType": "address",
          "name": "_token",
          "type": "address"
        },
        {
          "internalType": "address",
          "name": "_keeper",
          "type": "address"
        },
        {
          "internalType": "uint256",
          "name": "_amount",
          "type": "uint256"
        }
      ],
      "name": "directTokenPayment",
      "outputs": [],
      "stateMutability": "nonpayable",
      "type": "function"
    },
    {
      "inputs": [
        {
          "internalType": "address",
          "name": "_jobOrKeeper",
          "type": "address"
        }
      ],
      "name": "dispute",
      "outputs": [],
      "stateMutability": "nonpayable",
      "type": "function"
    },
    {
      "inputs": [
        {
          "internalType": "address",
          "name": "",
          "type": "address"
        }
      ],
      "name": "disputers",
      "outputs": [
        {
          "internalType": "bool",
          "name": "",
          "type": "bool"
        }
      ],
      "stateMutability": "view",
      "type": "function"
    },
    {
      "inputs": [
        {
          "internalType": "address",
          "name": "",
          "type": "address"
        }
      ],
      "name": "disputes",
      "outputs": [
        {
          "internalType": "bool",
          "name": "",
          "type": "bool"
        }
      ],
      "stateMutability": "view",
      "type": "function"
    },
    {
      "inputs": [],
      "name": "fee",
      "outputs": [
        {
          "internalType": "uint256",
          "name": "",
          "type": "uint256"
        }
      ],
      "stateMutability": "view",
      "type": "function"
    },
    {
      "inputs": [
        {
          "internalType": "address",
          "name": "",
          "type": "address"
        }
      ],
      "name": "firstSeen",
      "outputs": [
        {
          "internalType": "uint256",
          "name": "",
          "type": "uint256"
        }
      ],
      "stateMutability": "view",
      "type": "function"
    },
    {
      "inputs": [
        {
          "internalType": "address",
          "name": "_job",
          "type": "address"
        },
        {
          "internalType": "uint256",
          "name": "_amount",
          "type": "uint256"
        }
      ],
      "name": "forceLiquidityCreditsToJob",
      "outputs": [],
      "stateMutability": "nonpayable",
      "type": "function"
    },
    {
      "inputs": [],
      "name": "governance",
      "outputs": [
        {
          "internalType": "address",
          "name": "",
          "type": "address"
        }
      ],
      "stateMutability": "view",
      "type": "function"
    },
    {
      "inputs": [
        {
          "internalType": "address",
          "name": "",
          "type": "address"
        }
      ],
      "name": "hasBonded",
      "outputs": [
        {
          "internalType": "bool",
          "name": "",
          "type": "bool"
        }
      ],
      "stateMutability": "view",
      "type": "function"
    },
    {
      "inputs": [],
      "name": "inflationPeriod",
      "outputs": [
        {
          "internalType": "uint256",
          "name": "",
          "type": "uint256"
        }
      ],
      "stateMutability": "view",
      "type": "function"
    },
    {
      "inputs": [
        {
          "internalType": "address",
          "name": "_keeper",
          "type": "address"
        },
        {
          "internalType": "address",
          "name": "_bond",
          "type": "address"
        },
        {
          "internalType": "uint256",
          "name": "_minBond",
          "type": "uint256"
        },
        {
          "internalType": "uint256",
          "name": "_earned",
          "type": "uint256"
        },
        {
          "internalType": "uint256",
          "name": "_age",
          "type": "uint256"
        }
      ],
      "name": "isBondedKeeper",
      "outputs": [
        {
          "internalType": "bool",
          "name": "_isBondedKeeper",
          "type": "bool"
        }
      ],
      "stateMutability": "nonpayable",
      "type": "function"
    },
    {
      "inputs": [
        {
          "internalType": "address",
          "name": "_keeper",
          "type": "address"
        }
      ],
      "name": "isKeeper",
      "outputs": [
        {
          "internalType": "bool",
          "name": "_isKeeper",
          "type": "bool"
        }
      ],
      "stateMutability": "nonpayable",
      "type": "function"
    },
    {
      "inputs": [
        {
          "internalType": "address",
          "name": "_job",
          "type": "address"
        }
      ],
      "name": "jobLiquidityCredits",
      "outputs": [
        {
          "internalType": "uint256",
          "name": "_liquidityCredits",
          "type": "uint256"
        }
      ],
      "stateMutability": "view",
      "type": "function"
    },
    {
      "inputs": [
        {
          "internalType": "address",
          "name": "",
          "type": "address"
        }
      ],
      "name": "jobOwner",
      "outputs": [
        {
          "internalType": "address",
          "name": "",
          "type": "address"
        }
      ],
      "stateMutability": "view",
      "type": "function"
    },
    {
      "inputs": [
        {
          "internalType": "address",
          "name": "",
          "type": "address"
        }
      ],
      "name": "jobPendingOwner",
      "outputs": [
        {
          "internalType": "address",
          "name": "",
          "type": "address"
        }
      ],
      "stateMutability": "view",
      "type": "function"
    },
    {
      "inputs": [
        {
          "internalType": "address",
          "name": "_job",
          "type": "address"
        }
      ],
      "name": "jobPeriodCredits",
      "outputs": [
        {
          "internalType": "uint256",
          "name": "_periodCredits",
          "type": "uint256"
        }
      ],
      "stateMutability": "view",
      "type": "function"
    },
    {
      "inputs": [
        {
          "internalType": "address",
          "name": "",
          "type": "address"
        },
        {
          "internalType": "address",
          "name": "",
          "type": "address"
        }
      ],
      "name": "jobTokenCredits",
      "outputs": [
        {
          "internalType": "uint256",
          "name": "",
          "type": "uint256"
        }
      ],
      "stateMutability": "view",
      "type": "function"
    },
    {
      "inputs": [
        {
          "internalType": "address",
          "name": "",
          "type": "address"
        },
        {
          "internalType": "address",
          "name": "",
          "type": "address"
        }
      ],
      "name": "jobTokenCreditsAddedAt",
      "outputs": [
        {
          "internalType": "uint256",
          "name": "",
          "type": "uint256"
        }
      ],
      "stateMutability": "view",
      "type": "function"
    },
    {
      "inputs": [],
      "name": "jobs",
      "outputs": [
        {
          "internalType": "address[]",
          "name": "_list",
          "type": "address[]"
        }
      ],
      "stateMutability": "view",
      "type": "function"
    },
    {
      "inputs": [],
      "name": "keep3rHelper",
      "outputs": [
        {
          "internalType": "address",
          "name": "",
          "type": "address"
        }
      ],
      "stateMutability": "view",
      "type": "function"
    },
    {
      "inputs": [],
      "name": "keep3rV1",
      "outputs": [
        {
          "internalType": "address",
          "name": "",
          "type": "address"
        }
      ],
      "stateMutability": "view",
      "type": "function"
    },
    {
      "inputs": [],
      "name": "keep3rV1Proxy",
      "outputs": [
        {
          "internalType": "address",
          "name": "",
          "type": "address"
        }
      ],
      "stateMutability": "view",
      "type": "function"
    },
    {
      "inputs": [],
      "name": "keepers",
      "outputs": [
        {
          "internalType": "address[]",
          "name": "_list",
          "type": "address[]"
        }
      ],
      "stateMutability": "view",
      "type": "function"
    },
    {
      "inputs": [],
      "name": "kp3rWethPool",
      "outputs": [
        {
          "internalType": "address",
          "name": "",
          "type": "address"
        }
      ],
      "stateMutability": "view",
      "type": "function"
    },
    {
      "inputs": [
        {
          "internalType": "address",
          "name": "",
          "type": "address"
        },
        {
          "internalType": "address",
          "name": "",
          "type": "address"
        }
      ],
      "name": "liquidityAmount",
      "outputs": [
        {
          "internalType": "uint256",
          "name": "",
          "type": "uint256"
        }
      ],
      "stateMutability": "view",
      "type": "function"
    },
    {
      "inputs": [],
      "name": "liquidityMinimum",
      "outputs": [
        {
          "internalType": "uint256",
          "name": "",
          "type": "uint256"
        }
      ],
      "stateMutability": "view",
      "type": "function"
    },
    {
      "inputs": [
        {
          "internalType": "address",
          "name": "_fromJob",
          "type": "address"
        },
        {
          "internalType": "address",
          "name": "_toJob",
          "type": "address"
        }
      ],
      "name": "migrateJob",
      "outputs": [],
      "stateMutability": "nonpayable",
      "type": "function"
    },
    {
      "inputs": [
        {
          "internalType": "address",
          "name": "_liquidity",
          "type": "address"
        }
      ],
      "name": "observeLiquidity",
      "outputs": [
        {
          "components": [
            {
              "internalType": "int56",
              "name": "current",
              "type": "int56"
            },
            {
              "internalType": "int56",
              "name": "difference",
              "type": "int56"
            },
            {
              "internalType": "uint256",
              "name": "period",
              "type": "uint256"
            }
          ],
          "internalType": "struct IKeep3rJobFundableLiquidity.TickCache",
          "name": "_tickCache",
          "type": "tuple"
        }
      ],
      "stateMutability": "view",
      "type": "function"
    },
    {
      "inputs": [
        {
          "internalType": "address",
          "name": "",
          "type": "address"
        },
        {
          "internalType": "address",
          "name": "",
          "type": "address"
        }
      ],
      "name": "pendingBonds",
      "outputs": [
        {
          "internalType": "uint256",
          "name": "",
          "type": "uint256"
        }
      ],
      "stateMutability": "view",
      "type": "function"
    },
    {
      "inputs": [],
      "name": "pendingGovernance",
      "outputs": [
        {
          "internalType": "address",
          "name": "",
          "type": "address"
        }
      ],
      "stateMutability": "view",
      "type": "function"
    },
    {
      "inputs": [
        {
          "internalType": "address",
          "name": "",
          "type": "address"
        }
      ],
      "name": "pendingJobMigrations",
      "outputs": [
        {
          "internalType": "address",
          "name": "",
          "type": "address"
        }
      ],
      "stateMutability": "view",
      "type": "function"
    },
    {
      "inputs": [
        {
          "internalType": "address",
          "name": "",
          "type": "address"
        },
        {
          "internalType": "address",
          "name": "",
          "type": "address"
        }
      ],
      "name": "pendingUnbonds",
      "outputs": [
        {
          "internalType": "uint256",
          "name": "",
          "type": "uint256"
        }
      ],
      "stateMutability": "view",
      "type": "function"
    },
    {
      "inputs": [
        {
          "internalType": "address",
          "name": "_liquidity",
          "type": "address"
        },
        {
          "internalType": "uint256",
          "name": "_amount",
          "type": "uint256"
        }
      ],
      "name": "quoteLiquidity",
      "outputs": [
        {
          "internalType": "uint256",
          "name": "_periodCredits",
          "type": "uint256"
        }
      ],
      "stateMutability": "view",
      "type": "function"
    },
    {
      "inputs": [
        {
          "internalType": "address",
          "name": "_disputer",
          "type": "address"
        }
      ],
      "name": "removeDisputer",
      "outputs": [],
      "stateMutability": "nonpayable",
      "type": "function"
    },
    {
      "inputs": [
        {
          "internalType": "address",
          "name": "_slasher",
          "type": "address"
        }
      ],
      "name": "removeSlasher",
      "outputs": [],
      "stateMutability": "nonpayable",
      "type": "function"
    },
    {
      "inputs": [
        {
          "internalType": "address",
          "name": "_jobOrKeeper",
          "type": "address"
        }
      ],
      "name": "resolve",
      "outputs": [],
      "stateMutability": "nonpayable",
      "type": "function"
    },
    {
      "inputs": [
        {
          "internalType": "address",
          "name": "_keeper",
          "type": "address"
        }
      ],
      "name": "revoke",
      "outputs": [],
      "stateMutability": "nonpayable",
      "type": "function"
    },
    {
      "inputs": [
        {
          "internalType": "address",
          "name": "_liquidity",
          "type": "address"
        }
      ],
      "name": "revokeLiquidity",
      "outputs": [],
      "stateMutability": "nonpayable",
      "type": "function"
    },
    {
      "inputs": [],
      "name": "rewardPeriodTime",
      "outputs": [
        {
          "internalType": "uint256",
          "name": "",
          "type": "uint256"
        }
      ],
      "stateMutability": "view",
      "type": "function"
    },
    {
      "inputs": [
        {
          "internalType": "address",
          "name": "",
          "type": "address"
        }
      ],
      "name": "rewardedAt",
      "outputs": [
        {
          "internalType": "uint256",
          "name": "",
          "type": "uint256"
        }
      ],
      "stateMutability": "view",
      "type": "function"
    },
    {
      "inputs": [
        {
          "internalType": "address",
          "name": "_token",
          "type": "address"
        },
        {
          "internalType": "uint256",
          "name": "_amount",
          "type": "uint256"
        },
        {
          "internalType": "address",
          "name": "_to",
          "type": "address"
        }
      ],
      "name": "sendDust",
      "outputs": [],
      "stateMutability": "nonpayable",
      "type": "function"
    },
    {
      "inputs": [
        {
          "internalType": "uint256",
          "name": "_bondTime",
          "type": "uint256"
        }
      ],
      "name": "setBondTime",
      "outputs": [],
      "stateMutability": "nonpayable",
      "type": "function"
    },
    {
      "inputs": [
        {
          "internalType": "uint256",
          "name": "_fee",
          "type": "uint256"
        }
      ],
      "name": "setFee",
      "outputs": [],
      "stateMutability": "nonpayable",
      "type": "function"
    },
    {
      "inputs": [
        {
          "internalType": "address",
          "name": "_governance",
          "type": "address"
        }
      ],
      "name": "setGovernance",
      "outputs": [],
      "stateMutability": "nonpayable",
      "type": "function"
    },
    {
      "inputs": [
        {
          "internalType": "uint256",
          "name": "_inflationPeriod",
          "type": "uint256"
        }
      ],
      "name": "setInflationPeriod",
      "outputs": [],
      "stateMutability": "nonpayable",
      "type": "function"
    },
    {
      "inputs": [
        {
          "internalType": "address",
          "name": "_keep3rHelper",
          "type": "address"
        }
      ],
      "name": "setKeep3rHelper",
      "outputs": [],
      "stateMutability": "nonpayable",
      "type": "function"
    },
    {
      "inputs": [
        {
          "internalType": "address",
          "name": "_keep3rV1",
          "type": "address"
        }
      ],
      "name": "setKeep3rV1",
      "outputs": [],
      "stateMutability": "nonpayable",
      "type": "function"
    },
    {
      "inputs": [
        {
          "internalType": "address",
          "name": "_keep3rV1Proxy",
          "type": "address"
        }
      ],
      "name": "setKeep3rV1Proxy",
      "outputs": [],
      "stateMutability": "nonpayable",
      "type": "function"
    },
    {
      "inputs": [
        {
          "internalType": "address",
          "name": "_kp3rWethPool",
          "type": "address"
        }
      ],
      "name": "setKp3rWethPool",
      "outputs": [],
      "stateMutability": "nonpayable",
      "type": "function"
    },
    {
      "inputs": [
        {
          "internalType": "uint256",
          "name": "_liquidityMinimum",
          "type": "uint256"
        }
      ],
      "name": "setLiquidityMinimum",
      "outputs": [],
      "stateMutability": "nonpayable",
      "type": "function"
    },
    {
      "inputs": [
        {
          "internalType": "uint256",
          "name": "_rewardPeriodTime",
          "type": "uint256"
        }
      ],
      "name": "setRewardPeriodTime",
      "outputs": [],
      "stateMutability": "nonpayable",
      "type": "function"
    },
    {
      "inputs": [
        {
          "internalType": "uint256",
          "name": "_unbondTime",
          "type": "uint256"
        }
      ],
      "name": "setUnbondTime",
      "outputs": [],
      "stateMutability": "nonpayable",
      "type": "function"
    },
    {
      "inputs": [
        {
          "internalType": "address",
          "name": "_keeper",
          "type": "address"
        },
        {
          "internalType": "address",
          "name": "_bonded",
          "type": "address"
        },
        {
          "internalType": "uint256",
          "name": "_amount",
          "type": "uint256"
        }
      ],
      "name": "slash",
      "outputs": [],
      "stateMutability": "nonpayable",
      "type": "function"
    },
    {
      "inputs": [
        {
          "internalType": "address",
          "name": "_job",
          "type": "address"
        },
        {
          "internalType": "address",
          "name": "_liquidity",
          "type": "address"
        },
        {
          "internalType": "uint256",
          "name": "_amount",
          "type": "uint256"
        }
      ],
      "name": "slashLiquidityFromJob",
      "outputs": [],
      "stateMutability": "nonpayable",
      "type": "function"
    },
    {
      "inputs": [
        {
          "internalType": "address",
          "name": "_job",
          "type": "address"
        },
        {
          "internalType": "address",
          "name": "_token",
          "type": "address"
        },
        {
          "internalType": "uint256",
          "name": "_amount",
          "type": "uint256"
        }
      ],
      "name": "slashTokenFromJob",
      "outputs": [],
      "stateMutability": "nonpayable",
      "type": "function"
    },
    {
      "inputs": [
        {
          "internalType": "address",
          "name": "",
          "type": "address"
        }
      ],
      "name": "slashers",
      "outputs": [
        {
          "internalType": "bool",
          "name": "",
          "type": "bool"
        }
      ],
      "stateMutability": "view",
      "type": "function"
    },
    {
      "inputs": [
        {
          "internalType": "address",
          "name": "_job",
          "type": "address"
        }
      ],
      "name": "totalJobCredits",
      "outputs": [
        {
          "internalType": "uint256",
          "name": "_credits",
          "type": "uint256"
        }
      ],
      "stateMutability": "view",
      "type": "function"
    },
    {
      "inputs": [
        {
          "internalType": "address",
          "name": "_bonding",
          "type": "address"
        },
        {
          "internalType": "uint256",
          "name": "_amount",
          "type": "uint256"
        }
      ],
      "name": "unbond",
      "outputs": [],
      "stateMutability": "nonpayable",
      "type": "function"
    },
    {
      "inputs": [
        {
          "internalType": "address",
          "name": "_job",
          "type": "address"
        },
        {
          "internalType": "address",
          "name": "_liquidity",
          "type": "address"
        },
        {
          "internalType": "uint256",
          "name": "_amount",
          "type": "uint256"
        }
      ],
      "name": "unbondLiquidityFromJob",
      "outputs": [],
      "stateMutability": "nonpayable",
      "type": "function"
    },
    {
      "inputs": [],
      "name": "unbondTime",
      "outputs": [
        {
          "internalType": "uint256",
          "name": "",
          "type": "uint256"
        }
      ],
      "stateMutability": "view",
      "type": "function"
    },
    {
      "inputs": [
        {
          "internalType": "address",
          "name": "_bonding",
          "type": "address"
        }
      ],
      "name": "withdraw",
      "outputs": [],
      "stateMutability": "nonpayable",
      "type": "function"
    },
    {
      "inputs": [
        {
          "internalType": "address",
          "name": "_job",
          "type": "address"
        },
        {
          "internalType": "address",
          "name": "_liquidity",
          "type": "address"
        },
        {
          "internalType": "address",
          "name": "_receiver",
          "type": "address"
        }
      ],
      "name": "withdrawLiquidityFromJob",
      "outputs": [],
      "stateMutability": "nonpayable",
      "type": "function"
    },
    {
      "inputs": [
        {
          "internalType": "address",
          "name": "_job",
          "type": "address"
        },
        {
          "internalType": "address",
          "name": "_token",
          "type": "address"
        },
        {
          "internalType": "uint256",
          "name": "_amount",
          "type": "uint256"
        },
        {
          "internalType": "address",
          "name": "_receiver",
          "type": "address"
        }
      ],
      "name": "withdrawTokenCreditsFromJob",
      "outputs": [],
      "stateMutability": "nonpayable",
      "type": "function"
    },
    {
      "inputs": [
        {
          "internalType": "address",
          "name": "",
          "type": "address"
        }
      ],
      "name": "workCompleted",
      "outputs": [
        {
          "internalType": "uint256",
          "name": "",
          "type": "uint256"
        }
      ],
      "stateMutability": "view",
      "type": "function"
    },
    {
      "inputs": [
        {
          "internalType": "address",
          "name": "_keeper",
          "type": "address"
        }
      ],
      "name": "worked",
      "outputs": [],
      "stateMutability": "nonpayable",
      "type": "function"
    },
    {
      "inputs": [
        {
          "internalType": "address",
          "name": "",
          "type": "address"
        }
      ],
      "name": "workedAt",
      "outputs": [
        {
          "internalType": "uint256",
          "name": "",
          "type": "uint256"
        }
      ],
      "stateMutability": "view",
      "type": "function"
    }
  ],
  "bytecode": "0x60806040526203f480601f55621275006020556729a2241af62c000060215562069780602255622cd300602355601e6024553480156200003e57600080fd5b506040516200628d3803806200628d8339810160408190526200006191620001ce565b60016000558383838388806001600160a01b038116620000935760405162b293ed60e81b815260040160405180910390fd5b601780546001600160a01b03199081166001600160a01b0393841617909155601d80548216888416178155601b80548316888516179055601c80548316878516179055601e8054831686851690811782556000818152600e602052604090819020805490951690911790935590549054915163696a437b60e01b81529183166004830152909116915063696a437b9060240160206040518083038186803b1580156200013e57600080fd5b505afa15801562000153573d6000803e3d6000fd5b505050506040513d601f19601f820116820180604052508101906200017991906200023e565b6001600160a01b03919091166000908152600f60205260409020805460ff191691151591909117905550620002699650505050505050565b80516001600160a01b0381168114620001c957600080fd5b919050565b600080600080600060a08688031215620001e757600080fd5b620001f286620001b1565b94506200020260208701620001b1565b93506200021260408701620001b1565b92506200022260608701620001b1565b91506200023260808701620001b1565b90509295509295909350565b6000602082840312156200025157600080fd5b815180151581146200026257600080fd5b9392505050565b61601480620002796000396000f3fe608060405234801561001057600080fd5b506004361061042c5760003560e01c806390a4684e1161022d578063c7ae40d011610131578063ec00cdfc116100be578063ec00cdfc14610afa578063ec8ca64314610b0d578063f0f346b914610b36578063f11a1d1a14610b49578063f136a09d14610b5c578063f25e311b14610b7c578063f39c38a014610b8f578063f75f9f7b14610ba2578063f9d46cf214610bb5578063fc253d2b14610bc8578063fe75bc4614610bd157600080fd5b8063c7ae40d014610a21578063cb4be2bb14610a34578063cb54694d14610a47578063cd22af1b14610a5a578063d55995fe14610a85578063dd2080d614610a98578063ddca3f4314610aab578063e326ac4314610ab4578063e74f823914610ad4578063ebbb619414610ae757600080fd5b8063a7d2e784116101ba578063a7d2e78414610922578063aac6aa9c1461092b578063ab033ea91461093e578063af320e8114610951578063b0103b1a14610964578063b239223314610987578063b440027f1461099a578063b600702a146109c5578063b7e77340146109d8578063b87fcbff146109eb578063c5198abc14610a0e57600080fd5b806390a4684e14610834578063951dc22c14610847578063966abd001461084f57806398e90a0f146108625780639d5c33d81461088b578063a21458091461089e578063a39744b5146108b1578063a515366a146108dc578063a5d059ca146108ef578063a676f9ff1461090257600080fd5b806359a2255e116103345780636cf262bc116102c15780636cf262bc146107525780636e2a9ca61461076557806372da828a1461077857806374a8f1031461078b578063768b5d901461079e5780637b40c913146107a75780637c8fce23146107ba578063878c723e146107c25780638bb6dfa8146107eb5780638cb22b76146107fe5780638fe204dd1461082157600080fd5b806359a2255e146106905780635aa6e675146106a35780635ebe23f0146106b65780635feeb794146106bf578063633fb68f146106d257806364bb43ee146106db57806368a9f19c146106ee578063694798e61461070157806369fe0e2d1461072c5780636ba42aaa1461073f57600080fd5b80631b44555e116103bd5780631b44555e146105785780631c5a9d9c146105985780631ef94b91146105ab57806321040b01146105cb578063238efcbc146105f6578063274a8db4146105fe57806351cff8d91461063157806352a4de291461064457806355ea6c4714610657578063575288bf1461066a578063594a3a931461067d57600080fd5b8063034d4c611461043157806307b435c2146104575780630c620bce146104825780630d6a1f87146104975780631101eb41146104aa57806311466d72146104bf57806315006b82146104d2578063160e1e31146104fd578063165e62e714610510578063168f92e71461054d575b600080fd5b61044461043f3660046159dc565b610be4565b6040519081526020015b60405180910390f35b610444610465366004615a16565b601260209081526000928352604080842090915290825290205481565b61048a610ce9565b60405161044e9190615d17565b6104446104a5366004615b7f565b610cfa565b6104bd6104b8366004615a9a565b610e00565b005b6104bd6104cd366004615b7f565b610f5a565b6104446104e0366004615a16565b601060209081526000928352604080842090915290825290205481565b6104bd61050b3660046159dc565b6110e2565b61052361051e3660046159dc565b611248565b604080518251600690810b825260208085015190910b90820152918101519082015260600161044e565b61044461055b366004615a16565b600960209081526000928352604080842090915290825290205481565b6104446105863660046159dc565b60056020526000908152604090205481565b6104bd6105a63660046159dc565b61160e565b601b546105be906001600160a01b031681565b60405161044e9190615c8e565b6104446105d9366004615a16565b601360209081526000928352604080842090915290825290205481565b6104bd6116d0565b61062161060c3660046159dc565b601a6020526000908152604090205460ff1681565b604051901515815260200161044e565b6104bd61063f3660046159dc565b61175c565b6104bd610652366004615a9a565b61194e565b6104bd6106653660046159dc565b611b7f565b6104bd610678366004615a9a565b611c33565b6104bd61068b366004615a16565b611ef6565b6104bd61069e3660046159dc565b611f9b565b6017546105be906001600160a01b031681565b610444601f5481565b6104bd6106cd3660046159dc565b61204d565b61044460215481565b6104bd6106e93660046159dc565b6122e9565b6104bd6106fc3660046159dc565b61236b565b61044461070f366004615a16565b602860209081526000928352604080842090915290825290205481565b6104bd61073a366004615c40565b612423565b61062161074d3660046159dc565b612483565b6104446107603660046159dc565b6124dc565b6104bd610773366004615a9a565b612635565b6104bd6107863660046159dc565b612784565b6104bd6107993660046159dc565b612821565b61044460225481565b601e546105be906001600160a01b031681565b61048a612908565b6105be6107d03660046159dc565b6001602052600090815260409020546001600160a01b031681565b6104446107f93660046159dc565b612914565b61062161080c3660046159dc565b60146020526000908152604090205460ff1681565b6104bd61082f366004615c40565b6129ec565b6104bd610842366004615a16565b612a4a565b61048a612b38565b6104bd61085d366004615bab565b612b44565b6105be6108703660046159dc565b6002602052600090815260409020546001600160a01b031681565b6104bd6108993660046159dc565b612c5a565b6104bd6108ac366004615a4f565b612d12565b6104446108bf366004615a16565b600860209081526000928352604080842090915290825290205481565b6104bd6108ea366004615b7f565b612ef2565b6104bd6108fd366004615b7f565b613153565b6104446109103660046159dc565b60296020526000908152604090205481565b61044460205481565b6104bd6109393660046159dc565b61322d565b6104bd61094c3660046159dc565b6132e1565b6104bd61095f366004615a16565b613357565b6106216109723660046159dc565b60076020526000908152604090205460ff1681565b6104bd610995366004615c40565b6137d6565b6104446109a8366004615a16565b602560209081526000928352604080842090915290825290205481565b6104bd6109d33660046159dc565b613836565b6104bd6109e6366004615c40565b613a5b565b6106216109f93660046159dc565b60196020526000908152604090205460ff1681565b6104bd610a1c3660046159dc565b613abb565b601c546105be906001600160a01b031681565b6104bd610a423660046159dc565b613b80565b6104bd610a55366004615c40565b613c1d565b610444610a68366004615a16565b601160209081526000928352604080842090915290825290205481565b6104bd610a93366004615adb565b613ca1565b6104bd610aa6366004615a9a565b613ed8565b61044460245481565b610444610ac23660046159dc565b60066020526000908152604090205481565b6104bd610ae2366004615a9a565b61404e565b6104bd610af5366004615c40565b6140ff565b6104bd610b083660046159dc565b61415f565b6105be610b1b3660046159dc565b602c602052600090815260409020546001600160a01b031681565b6104bd610b443660046159dc565b6141fc565b601d546105be906001600160a01b031681565b610444610b6a3660046159dc565b602a6020526000908152604090205481565b6104bd610b8a366004615a9a565b6142b0565b6018546105be906001600160a01b031681565b6104bd610bb03660046159dc565b6144f5565b610621610bc3366004615b2e565b6145ad565b61044460235481565b6104bd610bdf366004615b7f565b61468f565b600080610bf0836124dc565b90506000610c0a60225442610c059190615e98565b61477f565b6001600160a01b0385166000908152602960205260409020541115610cae576022546001600160a01b038516600090815260296020526040902054610c4f9042615e98565b10610c8b576022546001600160a01b038516600090815260296020526040902054610c7a9190615dfd565b610c849042615e98565b9050610cc4565b6001600160a01b038416600090815260296020526040902054610c849042615e98565b610cb74261477f565b610cc19042615e98565b90505b610cce8183614799565b610cd785612914565b610ce19190615dfd565b949350505050565b6060610cf560266147c3565b905090565b6000610d076026846147d7565b15610dfa576000610d1784611248565b90508060400151600014610df8576001600160a01b0384166000908152600f602052604081205460ff16610d58578160200151610d5390615f0a565b610d5e565b81602001515b601d5460225460405163a0d2710760e01b8152929350610def926001600160a01b039092169163a0d2710791610d9a9189918791600401615dce565b60206040518083038186803b158015610db257600080fd5b505afa158015610dc6573d6000803e3d6000fd5b505050506040513d601f19601f82011682018060405250810190610dea9190615c59565b6147f9565b92505050610dfa565b505b92915050565b6001600160a01b038381166000908152600160205260409020548491163314610e3c57604051636efb4f4160e11b815260040160405180910390fd5b602054610e499042615dfd565b6001600160a01b03808616600081815260126020908152604080832094891680845294825280832095909555918152601382528381209281529190529081208054849290610e98908490615dfd565b90915550610ea9905084848461480a565b6001600160a01b038085166000908152602860209081526040808320938716835292905220548015801590610ee85750602154610ee68286614a18565b105b15610f0657604051636f447fcd60e11b815260040160405180910390fd5b836001600160a01b0316856001600160a01b03167f9aaab310d247ad45aef26bbdefc4ebf20c728fdb84c92b95b2b05d21826940de85604051610f4b91815260200190565b60405180910390a35050505050565b3360008181526007602052604090205460ff1615610f8b5760405163ad2fdf3b60e01b815260040160405180910390fd5b610f966015826147d7565b610fb25760405162941a5760e11b815260040160405180910390fd5b610fbb81614b36565b15611016576001600160a01b038116600081815260296020908152604080832054600a835281842054600b90935292819020549051600080516020615fbf8339815191529361100d9390929091615de7565b60405180910390a25b6001600160a01b0381166000908152600a60205260409020548211156110955761103f81614d0c565b6001600160a01b038116600081815260296020908152604080832054600a835281842054600b90935292819020549051600080516020615fbf8339815191529361108c9390929091615de7565b60405180910390a25b6110a0818484614d9a565b601b546001600160a01b03808516918382169116600080516020615f9f833981519152855a6040805192835260208301919091520160405180910390a4505050565b6017546001600160a01b0316331461110d576040516354348f0360e01b815260040160405180910390fd5b6001600160a01b0381166111345760405163d92e233d60e01b815260040160405180910390fd5b601e80546001600160a01b038084166001600160a01b031992831681179093556000838152600e6020526040908190208054909316909317909155601d54915163696a437b60e01b815291169063696a437b90611195908490600401615c8e565b60206040518083038186803b1580156111ad57600080fd5b505afa1580156111c1573d6000803e3d6000fd5b505050506040513d601f19601f820116820180604052508101906111e59190615be2565b6001600160a01b0382166000908152600f602052604090819020805460ff191692151592909217909155517f9bb1515b0fc2645a3f011162460a22fdd512e0bca265e7dc9ba6bceae8930afa9061123d908390615c8e565b60405180910390a150565b604080516060810182526000808252602082018190529181019190915261126e4261477f565b6001600160a01b0383166000908152602b602052604090206001015414156112e457506001600160a01b03166000908152602b602090815260409182902082516060810184528154600681810b810b810b8352600160381b909104810b810b900b92810192909252600101549181019190915290565b6000806112f860225442610c059190615e98565b6001600160a01b0385166000908152602b602052604090206001015490915081141561145c57604080516001808252818301909252600091602080830190803683375050506001600160a01b0386166000908152602b602052604090205490915060060b6113654261477f565b61136f9042615e98565b8260008151811061138257611382615f73565b63ffffffff909216602092830291909101820152601d546001600160a01b038881166000908152600e90935260409283902054925163dc686d9160e01b81529181169263dc686d91926113de9291909116908690600401615ca2565b60606040518083038186803b1580156113f657600080fd5b505afa15801561140a573d6000803e3d6000fd5b505050506040513d601f19601f8201168201806040525081019061142e9190615bfd565b600692830b90920b80885291955061144891839150615e48565b600690810b900b6020860152506115e59050565b6001600160a01b0384166000908152602b60205260409020600101548111156115e5576040805160028082526060820183526000926020830190803683370190505090506114a94261477f565b6114b39042615e98565b816000815181106114c6576114c6615f73565b602002602001019063ffffffff16908163ffffffff16815250506022546114ec4261477f565b6114f69042615e98565b6115009190615dfd565b8160018151811061151357611513615f73565b63ffffffff909216602092830291909101820152601d546001600160a01b038781166000908152600e909352604080842054905163dc686d9160e01b81529282169263dc686d919261156b9216908690600401615ca2565b60606040518083038186803b15801561158357600080fd5b505afa158015611597573d6000803e3d6000fd5b505050506040513d601f19601f820116820180604052508101906115bb9190615bfd565b600692830b90920b80885291955091506115d6908290615e48565b600690810b900b602086015250505b81156115fe576115f44261477f565b6040840152611606565b600060408401525b50505b919050565b3360009081526007602052604090205460ff161561163f576040516362e6201d60e01b815260040160405180910390fd5b3360009081526011602090815260408083206001600160a01b038516845290915290205461168057604051636258f48160e01b815260040160405180910390fd5b3360009081526011602090815260408083206001600160a01b038516845290915290205442116116c357604051630fd0eeef60e11b815260040160405180910390fd5b6116cd3382614e7e565b50565b6018546001600160a01b031633146116fb57604051637ef5703160e11b815260040160405180910390fd5b60188054601780546001600160a01b0383166001600160a01b031991821681179092559091169091556040517fc73be659241aade67e9a059bcf21494955018b213dbd1179054ccf928b13f3b69161175291615c8e565b60405180910390a1565b600260005414156117885760405162461bcd60e51b815260040161177f90615d97565b60405180910390fd5b600260009081553381526012602090815260408083206001600160a01b03851684529091529020546117cd5760405163184c088160e21b815260040160405180910390fd5b3360009081526012602090815260408083206001600160a01b03851684529091529020544211611810576040516327cfdcb760e01b815260040160405180910390fd5b3360009081526007602052604090205460ff1615611841576040516362e6201d60e01b815260040160405180910390fd5b3360009081526013602090815260408083206001600160a01b0385811680865291909352922054601b549092911614156118d457601c5460405163140e25ad60e31b8152600481018390526001600160a01b039091169063a0712d6890602401600060405180830381600087803b1580156118bb57600080fd5b505af11580156118cf573d6000803e3d6000fd5b505050505b3360008181526013602090815260408083206001600160a01b03871680855292528220919091556119059183614f3f565b6040518181526001600160a01b0383169033907f2717ead6b9200dd235aad468c9809ea400fe33ac69b5bfaa6d3e90fc922b63989060200160405180910390a350506001600055565b600260005414156119715760405162461bcd60e51b815260040161177f90615d97565b60026000556119816026836147d7565b61199e5760405163e0b6aead60e01b815260040160405180910390fd5b6119a96015846147d7565b6119c657604051636211d34960e01b815260040160405180910390fd5b6001600160a01b0383166000908152600d602052604090206119e89083614f9a565b506119f283614faf565b6021546001600160a01b03808516600090815260286020908152604080832093871683529290522054611a3090611a2a908490615dfd565b84614a18565b1015611a4f57604051636f447fcd60e11b815260040160405180910390fd5b6001600160a01b038316600081815260296020908152604080832054600a835281842054600b90935292819020549051600080516020615fbf83398151915293611a9c9390929091615de7565b60405180910390a2611ab96001600160a01b03831633308461500d565b6001600160a01b03808416600090815260286020908152604080832093861683529290529081208054839290611af0908490615dfd565b90915550611b039050610dea8284614a18565b6001600160a01b0384166000908152600b602052604081208054909190611b2b908490615dfd565b909155505060405181815233906001600160a01b0384811691908616907f4e186bc75a2220191b826baff3ee63c3e970e94e58a9007ff94c9a7b8e6ebb3f9060200160405180910390a45050600160005550565b336000908152601a602052604090205460ff16611baf57604051630942721960e31b815260040160405180910390fd5b6001600160a01b03811660009081526007602052604090205460ff16611be8576040516310cec38560e21b815260040160405180910390fd5b6001600160a01b038116600081815260076020526040808220805460ff19169055513392917fe02b2375d8fb4aef3e5bc5d53bffcf70b6f185c5c93e69dcbe8b6cfc58e837e291a350565b60026000541415611c565760405162461bcd60e51b815260040161177f90615d97565b6002600055611c666015846147d7565b611c8357604051636211d34960e01b815260040160405180910390fd5b601b546001600160a01b0383811691161415611cb15760405162822d9760e71b815260040160405180910390fd5b6040516370a0823160e01b81526000906001600160a01b038416906370a0823190611ce0903090600401615c8e565b60206040518083038186803b158015611cf857600080fd5b505afa158015611d0c573d6000803e3d6000fd5b505050506040513d601f19601f82011682018060405250810190611d309190615c59565b9050611d476001600160a01b03841633308561500d565b600081846001600160a01b03166370a08231306040518263ffffffff1660e01b8152600401611d769190615c8e565b60206040518083038186803b158015611d8e57600080fd5b505afa158015611da2573d6000803e3d6000fd5b505050506040513d601f19601f82011682018060405250810190611dc69190615c59565b611dd09190615e98565b9050600061271060245483611de59190615e29565b611def9190615e15565b9050611dfb8183615e98565b6001600160a01b038088166000908152600960209081526040808320938a1683529290529081208054909190611e32908490615dfd565b90915550506001600160a01b0380871660009081526025602090815260408083208985168085529252909120429055601754611e6f921683614f3f565b6001600160a01b0386166000908152600c60205260409020611e919086614f9a565b50336001600160a01b0316856001600160a01b0316876001600160a01b03167fec1a37d4a331a5059081e0fb5da1735e7890900cd215a4fb1e9f2779fd7b83eb85604051611ee191815260200190565b60405180910390a45050600160005550505050565b6001600160a01b038281166000908152600160205260409020548391163314611f3257604051636efb4f4160e11b815260040160405180910390fd5b6001600160a01b03838116600081815260026020908152604080832080546001600160a01b031916888716908117909155600190925280832054905191941692917fa8bad3f0b781e1d954af9945167d5f80bfe5e57930f17c93843187c77557a6b891a4505050565b6001600160a01b038181166000908152600260205260409020548291163314611fd75760405163cfe9663360e01b815260040160405180910390fd5b6001600160a01b03828116600081815260016020908152604080832080546002909352818420805487166001600160a01b031980861691909117909255805490911690555193169283929133917fcf30c54296d5eee76168b564c59c50578d49c271733a470f32707c8cfbc88a8b9190a4505050565b3360008181526007602052604090205460ff161561207e5760405163ad2fdf3b60e01b815260040160405180910390fd5b6120896015826147d7565b6120a55760405162941a5760e11b815260040160405180910390fd5b6120ae81614b36565b15612109576001600160a01b038116600081815260296020908152604080832054600a835281842054600b90935292819020549051600080516020615fbf833981519152936121009390929091615de7565b60405180910390a25b60005a601d546001600160a01b038581166000908152600860209081526040808320601b548516845290915280822054905163516c332360e01b815260048101919091529394509291169063516c33239060240160206040518083038186803b15801561217557600080fd5b505afa158015612189573d6000803e3d6000fd5b505050506040513d601f19601f820116820180604052508101906121ad9190615c59565b905060006121df6127108385602e546121c69190615e98565b6121d09190615e29565b6121da9190615e15565b61504b565b6001600160a01b0385166000908152600a60205260409020549091508111156122615761220b84614d0c565b6001600160a01b038416600081815260296020908152604080832054600a835281842054600b90935292819020549051600080516020615fbf833981519152936122589390929091615de7565b60405180910390a25b60005a905083602e546122749190615e98565b8282602e546122839190615e98565b61228d9190615e29565b6122979190615e15565b91506122a4858784614d9a565b601b5460408051848152602081018490526001600160a01b038981169389821693911691600080516020615f9f833981519152910160405180910390a4505050505050565b6017546001600160a01b03163314612314576040516354348f0360e01b815260040160405180910390fd5b61231f602682615162565b61233c57604051630a8d08b160e01b815260040160405180910390fd5b7f51199d699bdfd516fa88dd0d2f8487c40c147b4867acaa23adc8d4df6b098e568160405161123d9190615c8e565b6017546001600160a01b03163314612396576040516354348f0360e01b815260040160405180910390fd5b6001600160a01b03811660009081526019602052604090205460ff16156123d05760405163546da66560e11b815260040160405180910390fd5b6001600160a01b03811660009081526019602052604090819020805460ff19166001179055517f049ccb28ab796d3225573a065712f6e7754487ced56056cda8889c337511807b9061123d908390615c8e565b6017546001600160a01b0316331461244e576040516354348f0360e01b815260040160405180910390fd5b60248190556040518181527f4c10ca068ff7002cf5da78f2f697d1e91f6f0ac27f7344b28e8ef25263f87e5d9060200161123d565b60005a602e556124946003836147d7565b15611609577f4851cad52e624c8f7a1d44c28a80db05988ba2451fc0db6b0ec338d8eca95afb602e546040516124cc91815260200190565b60405180910390a1506001919050565b6000805b6001600160a01b0383166000908152600d6020526040902061250190615177565b81101561262f576001600160a01b0383166000908152600d6020526040812061252a9083615181565b90506125376026826147d7565b1561261c57600061254782611248565b905080604001516000146125fb576001600160a01b0382166000908152600f602052604081205460ff1661258857816020015161258390615f0a565b61258e565b81602001515b601d546001600160a01b03888116600090815260286020908152604080832089851684529091529081902054602254915163a0d2710760e01b81529495506125e994929093169263a0d2710792610d9a928791600401615dce565b6125f39086615dfd565b94505061261a565b505050506001600160a01b03166000908152600a602052604090205490565b505b508061262781615edb565b9150506124e0565b50919050565b3360009081526019602052604090205460ff1661266557604051637e57b1e160e01b815260040160405180910390fd5b6001600160a01b03831660009081526007602052604090205460ff1661269e576040516310cec38560e21b815260040160405180910390fd5b6126a983838361480a565b60175460405163a9059cbb60e01b81526001600160a01b038481169263a9059cbb926126dd92909116908590600401615cfe565b602060405180830381600087803b1580156126f757600080fd5b505af1925050508015612727575060408051601f3d908101601f1916820190925261272491810190615be2565b60015b61273057612732565b505b336001600160a01b0316836001600160a01b03167f6e10247c3c094d220ee99436c164b7f38d63b335a20ed817cbefaee4bb02d20e8484604051612777929190615cfe565b60405180910390a3505050565b6017546001600160a01b031633146127af576040516354348f0360e01b815260040160405180910390fd5b6001600160a01b0381166127d65760405163d92e233d60e01b815260040160405180910390fd5b601d80546001600160a01b0319166001600160a01b0383161790556040517f71973fd672e51deb8f739b1f7e1eab991936645acd6f83e2bde6eeeaff5490b09061123d908390615c8e565b3360009081526019602052604090205460ff1661285157604051637e57b1e160e01b815260040160405180910390fd5b6001600160a01b03811660009081526007602052604090205460ff1661288a576040516310cec38560e21b815260040160405180910390fd5b612895600382615162565b50601b546001600160a01b0380831660009081526008602090815260408083209390941680835292905291909120546128cf91839161518d565b60405133906001600160a01b038316907f038a17b9b553c0c3fc2ed14b957a5d8420a1666fd2efe5c1b3fe5f23eea61bb390600090a350565b6060610cf560156147c3565b600080612920836124dc565b905061293360225442610c059190615e98565b6001600160a01b0384166000908152602960205260409020541115610dfa576022546001600160a01b0384166000908152602960205260409020546129789042615e98565b106129855780915061262f565b600081116129ab576001600160a01b0383166000908152600a60205260409020546129e5565b6001600160a01b0383166000908152600b6020908152604080832054600a909252909120546129db908390615e29565b6129e59190615e15565b915061262f565b6017546001600160a01b03163314612a17576040516354348f0360e01b815260040160405180910390fd5b60208181556040518281527fc8d443472c9783cc36f8f5f5091f08ce9f37fc2f9e6d79cf1d9aaf40a433fee2910161123d565b6001600160a01b038281166000908152600160205260409020548391163314612a8657604051636efb4f4160e11b815260040160405180910390fd5b816001600160a01b0316836001600160a01b03161415612ab95760405163afe7ad4960e01b815260040160405180910390fd5b6001600160a01b038381166000818152602c6020908152604080832080546001600160a01b0319169588169586179055602d825280832094835293905282902042905590517fff0456758201108de53c0ff04c69988d4678ff455b2ce6f733328cf85722c04c90612b2b908590615c8e565b60405180910390a2505050565b6060610cf560036147c3565b6017546001600160a01b03163314612b6f576040516354348f0360e01b815260040160405180910390fd5b6001600160a01b038116612b965760405163d92e233d60e01b815260040160405180910390fd5b6001600160a01b03831673eeeeeeeeeeeeeeeeeeeeeeeeeeeeeeeeeeeeeeee1415612bf7576040516001600160a01b0382169083156108fc029084906000818181858888f19350505050158015612bf1573d6000803e3d6000fd5b50612c0b565b612c0b6001600160a01b0384168284614f3f565b604080516001600160a01b0385811682526020820185905283168183015290517f9a3055ded8c8b5f21bbf4946c5afab6e1fa8b3f057922658e5e1ade125fb0b1e9181900360600190a1505050565b6017546001600160a01b03163314612c85576040516354348f0360e01b815260040160405180910390fd5b6001600160a01b0381166000908152601a602052604090205460ff1615612cbf5760405163274e25dd60e11b815260040160405180910390fd5b6001600160a01b0381166000908152601a602052604090819020805460ff19166001179055517f8addc69f897ecca0e41d70ed4ff9d75a9148a615a0fbda8597e53aea2684302f9061123d908390615c8e565b6001600160a01b038381166000908152600160205260409020548491163314612d4e57604051636efb4f4160e11b815260040160405180910390fd5b6001600160a01b038216612d755760405163d92e233d60e01b815260040160405180910390fd5b6001600160a01b03808516600090815260126020908152604080832093871683529290522054612db85760405163184c088160e21b815260040160405180910390fd5b6001600160a01b038085166000908152601260209081526040808320938716835292905220544211612dfd576040516327cfdcb760e01b815260040160405180910390fd5b6001600160a01b03841660009081526007602052604090205460ff1615612e37576040516362e6201d60e01b815260040160405180910390fd5b6001600160a01b0380851660009081526013602090815260408083209387168084529390915290205490612e6c908483614f3f565b826001600160a01b0316846001600160a01b0316866001600160a01b03167ffdb7893bf11f50c621e59cc7f1cf540e94295cb27ca869ec7ed7618ca792886284604051612ebb91815260200190565b60405180910390a45050506001600160a01b0391821660009081526013602090815260408083209390941682529190915290812055565b60026000541415612f155760405162461bcd60e51b815260040161177f90615d97565b600260009081553381526007602052604090205460ff1615612f4a576040516362e6201d60e01b815260040160405180910390fd5b612f556015336147d7565b15612f735760405163d7229c4360e01b815260040160405180910390fd5b601f54612f809042615dfd565b3360009081526011602090815260408083206001600160a01b03871680855292528083209390935591516370a0823160e01b81529091906370a0823190612fcb903090600401615c8e565b60206040518083038186803b158015612fe357600080fd5b505afa158015612ff7573d6000803e3d6000fd5b505050506040513d601f19601f8201168201806040525081019061301b9190615c59565b90506130326001600160a01b03841633308561500d565b6040516370a0823160e01b815281906001600160a01b038516906370a0823190613060903090600401615c8e565b60206040518083038186803b15801561307857600080fd5b505afa15801561308c573d6000803e3d6000fd5b505050506040513d601f19601f820116820180604052508101906130b09190615c59565b6130ba9190615e98565b336000908152601460209081526040808320805460ff19166001179055601082528083206001600160a01b0388168452909152812080549294508492909190613104908490615dfd565b90915550506040518281526001600160a01b0384169033907fa7e66869262026842e8d81f5e6806cdc8d846e27c824e2e22f4fe51442771b349060200160405180910390a35050600160005550565b6020546131609042615dfd565b3360008181526012602090815260408083206001600160a01b038816808552908352818420959095559282526008815282822093825292909252812080548392906131ac908490615e98565b90915550503360009081526013602090815260408083206001600160a01b0386168452909152812080548392906131e4908490615dfd565b90915550506040518181526001600160a01b0383169033907f9aaab310d247ad45aef26bbdefc4ebf20c728fdb84c92b95b2b05d21826940de9060200160405180910390a35050565b6017546001600160a01b03163314613258576040516354348f0360e01b815260040160405180910390fd5b6001600160a01b03811660009081526019602052604090205460ff16613291576040516336fe17e760e21b815260040160405180910390fd5b6001600160a01b03811660009081526019602052604090819020805460ff19169055517f3ed8cbce8cab40e59282f1743e2b607effa08b5cbe0111bb4721134f2f80d0259061123d908390615c8e565b6017546001600160a01b0316331461330c576040516354348f0360e01b815260040160405180910390fd5b601880546001600160a01b0319166001600160a01b0383161790556040517fe987aaedf9d279143bdf1eee16cf1d0feb47742867d81083df8d6cd0a5ac857f9061123d908390615c8e565b6001600160a01b03818116600090815260016020526040902054829116331461339357604051636efb4f4160e11b815260040160405180910390fd5b6001600160a01b03831660009081526007602052604090205460ff16806133d257506001600160a01b03821660009081526007602052604090205460ff165b156133f05760405163ad2fdf3b60e01b815260040160405180910390fd5b6001600160a01b038381166000908152602c602052604090205481169083161461342d57604051630ced616b60e21b815260040160405180910390fd5b6001600160a01b038084166000908152602d602090815260408083209386168352929052205461345f90603c90615dfd565b42101561347f576040516356248e9760e01b815260040160405180910390fd5b61348883614faf565b61349182614faf565b6001600160a01b0383166000908152600c602052604081206134b290615177565b1115613594576001600160a01b0383166000908152600c602052604081206134da9082615181565b6001600160a01b03808616600090815260096020818152604080842085871680865290835281852054958a168552928252808420928452919052812080549394509192613528908490615dfd565b90915550506001600160a01b0380851660008181526009602090815260408083209486168352938152838220829055918152600c9091522061356a9082615162565b506001600160a01b0383166000908152600c6020526040902061358d9082614f9a565b5050613491565b6001600160a01b0383166000908152600d602052604081206135b590615177565b1115613697576001600160a01b0383166000908152600d602052604081206135dd9082615181565b6001600160a01b03808616600090815260286020818152604080842085871680865290835281852054958a16855292825280842092845291905281208054939450919261362b908490615dfd565b90915550506001600160a01b038085166000908152602860209081526040808320858516845282528083208390559286168252600d90522061366d9082614f9a565b506001600160a01b0384166000908152600d602052604090206136909082615162565b5050613594565b6001600160a01b038084166000908152600b6020526040808220549285168252812080549091906136c9908490615dfd565b90915550506001600160a01b038084166000908152600b60209081526040808320839055600a9091528082205492851682528120805490919061370d908490615dfd565b90915550506001600160a01b0383166000908152600a602090815260408083208390556029909152812055613743601584615162565b506001600160a01b03808416600081815260016020908152604080832080546001600160a01b031990811690915560028352818420805482169055602d8352818420958816808552958352818420849055938352602c909152908190208054909216909155517f9b712b63e3fb1325fa042d3c238ce8144937875065900528ea1e4f3b00f379f290612b2b908690615c8e565b6017546001600160a01b03163314613801576040516354348f0360e01b815260040160405180910390fd5b60238190556040518181527fbdcfd7b8482f31cff6a87c362d9e2e3887f4cdc2018c7c485d8e78a7b2fadb699060200161123d565b6017546001600160a01b03163314613861576040516354348f0360e01b815260040160405180910390fd5b61386c602682614f9a565b6138895760405163f25e6b9f60e01b815260040160405180910390fd5b806001600160a01b03166316f0115b6040518163ffffffff1660e01b815260040160206040518083038186803b1580156138c257600080fd5b505afa1580156138d6573d6000803e3d6000fd5b505050506040513d601f19601f820116820180604052508101906138fa91906159f9565b6001600160a01b038281166000908152600e60205260409081902080546001600160a01b0319169383169384179055601d54905163696a437b60e01b815291169163696a437b9161394e9190600401615c8e565b60206040518083038186803b15801561396657600080fd5b505afa15801561397a573d6000803e3d6000fd5b505050506040513d601f19601f8201168201806040525081019061399e9190615be2565b6001600160a01b0382166000908152600f60205260409020805460ff19169115159190911790556139ce81611248565b6001600160a01b0382166000908152602b60209081526040918290208351815492850151600690810b66ffffffffffffff908116600160381b026001600160701b03199095169290910b161791909117815591810151600190920191909155517fabfa8db4d238fa78bf4e15fcc91328dd35f3978f200e2857a56bb719732b7b0b9061123d908390615c8e565b6017546001600160a01b03163314613a86576040516354348f0360e01b815260040160405180910390fd5b601f8190556040518181527fd319ef78d2b690bb773fcccc2d096306bac7c9222dd0bb6b300f461e4a376b439060200161123d565b613ac66015826147d7565b15613ae457604051630809740d60e01b815260040160405180910390fd5b6001600160a01b03811660009081526014602052604090205460ff1615613b1e57604051632f3d320560e01b815260040160405180910390fd5b613b29601582614f9a565b506001600160a01b03811660008181526001602052604080822080546001600160a01b03191633908117909155905190917fed3faef50715743626cd57de74281a2b17cdbfc11c0486feda541fb911e0293d91a350565b6017546001600160a01b03163314613bab576040516354348f0360e01b815260040160405180910390fd5b6001600160a01b038116613bd25760405163d92e233d60e01b815260040160405180910390fd5b601c80546001600160a01b0319166001600160a01b0383161790556040517feb931b4b5a98d20a6b1e6693a7c59d8e337a06e2f1473bb776e19251db7ae2509061123d908390615c8e565b6017546001600160a01b03163314613c48576040516354348f0360e01b815260040160405180910390fd5b62015180811015613c6c57604051633f384aad60e21b815260040160405180910390fd5b60228190556040518181527f54aafa56429e22230b52f1495588ffc632277d74f3a85ec755e13ac50c1584d99060200161123d565b60026000541415613cc45760405162461bcd60e51b815260040161177f90615d97565b600260009081556001600160a01b03858116825260016020526040909120548591163314613d0557604051636efb4f4160e11b815260040160405180910390fd5b6001600160a01b03808616600090815260256020908152604080832093881683529290522054613d3790603c90615dfd565b4211613d5657604051631e0b407560e01b815260040160405180910390fd5b6001600160a01b03808616600090815260096020908152604080832093881683529290522054831115613d9c5760405163024ae82d60e61b815260040160405180910390fd5b6001600160a01b03851660009081526007602052604090205460ff1615613dd65760405163ad2fdf3b60e01b815260040160405180910390fd5b6001600160a01b03808616600090815260096020908152604080832093881683529290529081208054859290613e0d908490615e98565b90915550613e2790506001600160a01b0385168385614f3f565b6001600160a01b03808616600090815260096020908152604080832093881683529290522054613e75576001600160a01b0385166000908152600c60205260409020613e739085615162565b505b816001600160a01b0316846001600160a01b0316866001600160a01b03167f53e982dd9ec088d634c74c98fbbc161f808b4b6469a26c657120b9a31cb34bfe86604051613ec491815260200190565b60405180910390a450506001600055505050565b3360008181526007602052604090205460ff1615613f095760405163ad2fdf3b60e01b815260040160405180910390fd5b6001600160a01b03831660009081526007602052604090205460ff1615613f43576040516362e6201d60e01b815260040160405180910390fd5b613f4e6015826147d7565b613f6a5760405162941a5760e11b815260040160405180910390fd5b6001600160a01b03808216600090815260096020908152604080832093881683529290522054821115613fb05760405163356680b760e01b815260040160405180910390fd5b6001600160a01b03808216600090815260096020908152604080832093881683529290529081208054849290613fe7908490615e98565b9091555061400190506001600160a01b0385168484614f3f565b826001600160a01b0316816001600160a01b0316856001600160a01b0316600080516020615f9f833981519152855a6040805192835260208301919091520160405180910390a450505050565b3360009081526019602052604090205460ff1661407e57604051637e57b1e160e01b815260040160405180910390fd5b6001600160a01b03831660009081526007602052604090205460ff166140b7576040516310cec38560e21b815260040160405180910390fd5b6140c283838361518d565b60405181815233906001600160a01b038516907f10a73de7ab6e9023aa6e2bc23f7abf4dcef591487e7e55f44c00e34fe60d56db90602001612777565b6017546001600160a01b0316331461412a576040516354348f0360e01b815260040160405180910390fd5b60218190556040518181527f24d51b415694a791b1c77df7817c075ac82b83ce611bcd8627d2e66cf37aa3e79060200161123d565b6017546001600160a01b0316331461418a576040516354348f0360e01b815260040160405180910390fd5b6001600160a01b0381166141b15760405163d92e233d60e01b815260040160405180910390fd5b601b80546001600160a01b0319166001600160a01b0383161790556040517f1d1a3e7caf0717056e48dc8aefa54d806c7af86324fece4e5d49f8e1f01f84bf9061123d908390615c8e565b6017546001600160a01b03163314614227576040516354348f0360e01b815260040160405180910390fd5b6001600160a01b0381166000908152601a602052604090205460ff1661426057604051633ca0d42760e11b815260040160405180910390fd5b6001600160a01b0381166000908152601a602052604090819020805460ff19169055517f5e8bd21d0a98cb2caf33706e56139ff40ffbdca7ec5d9d412a0a2292496dc70e9061123d908390615c8e565b3360009081526019602052604090205460ff166142e057604051637e57b1e160e01b815260040160405180910390fd5b6001600160a01b03831660009081526007602052604090205460ff16614319576040516310cec38560e21b815260040160405180910390fd5b6001600160a01b0383166000908152600c6020526040902061433b90836147d7565b61435857604051632eda7a1160e01b815260040160405180910390fd5b6001600160a01b0380841660009081526009602090815260408083209386168352929052205481111561439d5760405162919bed60e01b815260040160405180910390fd5b60175460405163a9059cbb60e01b81526001600160a01b038481169263a9059cbb926143d192909116908590600401615cfe565b602060405180830381600087803b1580156143eb57600080fd5b505af192505050801561441b575060408051601f3d908101601f1916820190925261441891810190615be2565b60015b61442457614426565b505b6001600160a01b0380841660009081526009602090815260408083209386168352929052908120805483929061445d908490615e98565b90915550506001600160a01b038084166000908152600960209081526040808320938616835292905220546144b0576001600160a01b0383166000908152600c602052604090206144ae9083615162565b505b336001600160a01b0316836001600160a01b03167f20262b97130b5cb8f80624eed2733df2b05db4a0789b4a3d0157e1d3183331048484604051612777929190615cfe565b336000908152601a602052604090205460ff1661452557604051630942721960e31b815260040160405180910390fd5b6001600160a01b03811660009081526007602052604090205460ff161561455f576040516304ee891b60e11b815260040160405180910390fd5b6001600160a01b038116600081815260076020526040808220805460ff19166001179055513392917f070125a1c0f5202217aae14ec399abfaaa13c2fd98a91d43bd3a897dd4751e8091a350565b60005a602e556145be6003876147d7565b80156145ef57506001600160a01b038087166000908152600860209081526040808320938916835292905220548411155b801561461357506001600160a01b0386166000908152600560205260409020548311155b801561464257506001600160a01b038616600090815260066020526040902054829061463f9042615e98565b10155b15614686577f4851cad52e624c8f7a1d44c28a80db05988ba2451fc0db6b0ec338d8eca95afb602e5460405161467a91815260200190565b60405180910390a15060015b95945050505050565b6017546001600160a01b031633146146ba576040516354348f0360e01b815260040160405180910390fd5b6146c56015836147d7565b6146e257604051636211d34960e01b815260040160405180910390fd5b6146eb82614faf565b6001600160a01b0382166000908152600a602052604081208054839290614713908490615dfd565b90915550506001600160a01b038216600081815260296020908152604080832054600a909252918290205491517f5abcf5031fdbd3badb9d1e09094208de329aee72730e87650f346584205d23d192614773928252602082015260400190565b60405180910390a25050565b60006022548261478f9190615ef6565b610dfa9083615e98565b600060225483101561262f576022546147b28385615e29565b6147bc9190615e15565b9050610dfa565b606060006147d083615293565b9392505050565b6001600160a01b038116600090815260018301602052604081205415156147d0565b6000610dfa826022546023546152ef565b6002600054141561482d5760405162461bcd60e51b815260040161177f90615d97565b600260009081556001600160a01b0384168152600d6020526040902061485390836147d7565b61486f576040516241cfa560e21b815260040160405180910390fd5b6001600160a01b038084166000908152602860209081526040808320938616835292905220548111156148b55760405163435b562560e01b815260040160405180910390fd5b6148be8361539d565b60006148cd610dea8385614a18565b6001600160a01b0385166000908152600b602052604090205490915015614983576001600160a01b0384166000908152600b6020908152604080832054600a9092529091205461491e908390615e29565b6149289190615e15565b6001600160a01b0385166000908152600a602052604081208054909190614950908490615e98565b90915550506001600160a01b0384166000908152600b60205260408120805483929061497d908490615e98565b90915550505b6001600160a01b038085166000908152602860209081526040808320938716835292905290812080548492906149ba908490615e98565b90915550506001600160a01b03808516600090815260286020908152604080832093871683529290522054614a0d576001600160a01b0384166000908152600d60205260409020614a0b9084615162565b505b505060016000555050565b6001600160a01b0381166000908152602b602052604081206001015415610dfa576001600160a01b0382166000908152600f602052604081205460ff16614a8a576001600160a01b0383166000908152602b6020526040902054614a8590600160381b900460060b615f0a565b614aae565b6001600160a01b0383166000908152602b6020526040902054600160381b900460060b5b601d5460225460405163a0d2710760e01b81529293506001600160a01b039091169163a0d2710791614ae69188918691600401615dce565b60206040518083038186803b158015614afe57600080fd5b505afa158015614b12573d6000803e3d6000fd5b505050506040513d601f19601f82011682018060405250810190610ce19190615c59565b6000614b414261477f565b6001600160a01b038316600090815260296020526040902054101561160957614b7160225442610c059190615e98565b6001600160a01b03831660009081526029602052604090205411614be757614b988261539d565b6001600160a01b0382166000908152600b6020908152604080832054600a90925290912055614bc64261477f565b6001600160a01b038316600090815260296020526040902055506001919050565b6022546001600160a01b038316600090815260296020526040902054614c0d9042615e98565b10614c6957614c1b8261539d565b6001600160a01b0382166000908152600b6020908152604080832054600a83528184205560225460299092528220805491929091614c5a908490615dfd565b90915550600191506116099050565b614c724261477f565b6001600160a01b0383166000908152602a60205260409020541015611609576001600160a01b0382166000908152600b6020526040902054614cb38361539d565b6001600160a01b0383166000908152600b6020908152604080832054600a909252909120548291614ce391615e29565b614ced9190615e15565b6001600160a01b0384166000908152600a602052604090205550919050565b6001600160a01b038116600090815260296020526040902054614d5190614d339042615e98565b6001600160a01b0383166000908152600b6020526040902054614799565b6001600160a01b0382166000908152600a602052604081208054909190614d79908490615dfd565b90915550506001600160a01b03166000908152602960205260409020429055565b6001600160a01b0383166000908152600a6020526040902054811115614dd35760405163356680b760e01b815260040160405180910390fd5b6001600160a01b0383166000908152602a60209081526040808320429055600a90915281208054839290614e08908490615e98565b90915550506001600160a01b038083166000908152600860209081526040808320601b5490941683529290529081208054839290614e47908490615dfd565b90915550506001600160a01b03821660009081526005602052604081208054839290614e74908490615dfd565b9091555050505050565b6001600160a01b038216600090815260066020526040902054614eb7576001600160a01b03821660009081526006602052604090204290555b614ec2600383614f9a565b506001600160a01b03828116600090815260106020908152604080832093851683529290529081208054919055614efa8284836153c2565b816001600160a01b0316836001600160a01b03167f3673530133b6da67e9854f605b0cfa7bb9798cd33c18036dfc10d8da7c4d4a758360405161277791815260200190565b614f958363a9059cbb60e01b8484604051602401614f5e929190615cfe565b60408051601f198184030181529190526020810180516001600160e01b03166001600160e01b031990931692909217909152615477565b505050565b60006147d0836001600160a01b038416615549565b614fb881614b36565b50614fc281614d0c565b6001600160a01b0381166000908152600a6020908152604080832054600b90925290912054614ff19190615598565b6001600160a01b039091166000908152600a6020526040902055565b6040516001600160a01b03808516602483015283166044820152606481018290526150459085906323b872dd60e01b90608401614f5e565b50505050565b601e546001600160a01b03166000908152600f6020526040812054819060ff166150a257601e546001600160a01b03166000908152602b602052604090205461509d90600160381b900460060b615f0a565b6150c8565b601e546001600160a01b03166000908152602b6020526040902054600160381b900460060b5b601d5460225460405163ab8cedc560e01b81526001600160801b0387166004820152600684900b602482015260448101919091529192506001600160a01b03169063ab8cedc59060640160206040518083038186803b15801561512a57600080fd5b505afa15801561513e573d6000803e3d6000fd5b505050506040513d601f19601f820116820180604052508101906147d09190615c59565b60006147d0836001600160a01b0384166155ae565b6000610dfa825490565b60006147d083836156a1565b601b546001600160a01b0383811691161461525c5760175460405163a9059cbb60e01b81526001600160a01b038481169263a9059cbb926151d692909116908590600401615cfe565b602060405180830381600087803b1580156151f057600080fd5b505af1925050508015615220575060408051601f3d908101601f1916820190925261521d91810190615be2565b60015b61525a573d80801561524e576040519150601f19603f3d011682016040523d82523d6000602084013e615253565b606091505b505061525c565b505b6001600160a01b03808416600090815260086020908152604080832093861683529290529081208054839290614e74908490615e98565b6060816000018054806020026020016040519081016040528092919081815260200182805480156152e357602002820191906000526020600020905b8154815260200190600101908083116152cf575b50505050509050919050565b600080806000198587098587029250828110838203039150508060001415615329576000841161531e57600080fd5b5082900490506147d0565b80841161533557600080fd5b600084868809600260036001881981018916988990049182028318808302840302808302840302808302840302808302840302808302840302918202909203026000889003889004909101858311909403939093029303949094049190911702949350505050565b6153a6816156cb565b6001600160a01b039091166000908152600b6020526040902055565b6001600160a01b038083166000908152600860209081526040808320938716835292905290812080548392906153f9908490615dfd565b9091555050601b546001600160a01b0384811691161415614f9557601b54604051630852cd8d60e31b8152600481018390526001600160a01b03909116906342966c6890602401600060405180830381600087803b15801561545a57600080fd5b505af115801561546e573d6000803e3d6000fd5b50505050505050565b60006154cc826040518060400160405280602081526020017f5361666545524332303a206c6f772d6c6576656c2063616c6c206661696c6564815250856001600160a01b03166158af9092919063ffffffff16565b805190915015614f9557808060200190518101906154ea9190615be2565b614f955760405162461bcd60e51b815260206004820152602a60248201527f5361666545524332303a204552433230206f7065726174696f6e20646964206e6044820152691bdd081cdd58d8d9595960b21b606482015260840161177f565b600081815260018301602052604081205461559057508154600181810184556000848152602080822090930184905584548482528286019093526040902091909155610dfa565b506000610dfa565b60008183106155a757816147d0565b5090919050565b600081815260018301602052604081205480156156975760006155d2600183615e98565b85549091506000906155e690600190615e98565b905081811461564b57600086600001828154811061560657615606615f73565b906000526020600020015490508087600001848154811061562957615629615f73565b6000918252602080832090910192909255918252600188019052604090208390555b855486908061565c5761565c615f5d565b600190038181906000526020600020016000905590558560010160008681526020019081526020016000206000905560019350505050610dfa565b6000915050610dfa565b60008260000182815481106156b8576156b8615f73565b9060005260206000200154905092915050565b60006156d64261477f565b601e546001600160a01b03166000908152602b60205260409020600101541461576d57601e5461570e906001600160a01b0316611248565b601e546001600160a01b03166000908152602b60209081526040918290208351815492850151600690810b66ffffffffffffff908116600160381b026001600160701b03199095169290910b1617919091178155910151600191909101555b60005b6001600160a01b0383166000908152600d6020526040902061579190615177565b81101561262f576001600160a01b0383166000908152600d602052604081206157ba9083615181565b90506157c76026826147d7565b1561589c576157d54261477f565b6001600160a01b0382166000908152602b60205260409020600101541461585b576157ff81611248565b6001600160a01b0382166000908152602b60209081526040918290208351815492850151600690810b66ffffffffffffff908116600160381b026001600160701b03199095169290910b16179190911781559101516001909101555b6001600160a01b0380851660009081526028602090815260408083209385168352929052205461588f90610dea9083614a18565b6158999084615dfd565b92505b50806158a781615edb565b915050615770565b6060610ce1848460008585843b6159085760405162461bcd60e51b815260206004820152601d60248201527f416464726573733a2063616c6c20746f206e6f6e2d636f6e7472616374000000604482015260640161177f565b600080866001600160a01b031685876040516159249190615c72565b60006040518083038185875af1925050503d8060008114615961576040519150601f19603f3d011682016040523d82523d6000602084013e615966565b606091505b5091509150615976828286615981565b979650505050505050565b606083156159905750816147d0565b8251156159a05782518084602001fd5b8160405162461bcd60e51b815260040161177f9190615d64565b8051801515811461160957600080fd5b8051600681900b811461160957600080fd5b6000602082840312156159ee57600080fd5b81356147d081615f89565b600060208284031215615a0b57600080fd5b81516147d081615f89565b60008060408385031215615a2957600080fd5b8235615a3481615f89565b91506020830135615a4481615f89565b809150509250929050565b600080600060608486031215615a6457600080fd5b8335615a6f81615f89565b92506020840135615a7f81615f89565b91506040840135615a8f81615f89565b809150509250925092565b600080600060608486031215615aaf57600080fd5b8335615aba81615f89565b92506020840135615aca81615f89565b929592945050506040919091013590565b60008060008060808587031215615af157600080fd5b8435615afc81615f89565b93506020850135615b0c81615f89565b9250604085013591506060850135615b2381615f89565b939692955090935050565b600080600080600060a08688031215615b4657600080fd5b8535615b5181615f89565b94506020860135615b6181615f89565b94979496505050506040830135926060810135926080909101359150565b60008060408385031215615b9257600080fd5b8235615b9d81615f89565b946020939093013593505050565b600080600060608486031215615bc057600080fd5b8335615bcb81615f89565b9250602084013591506040840135615a8f81615f89565b600060208284031215615bf457600080fd5b6147d0826159ba565b600080600060608486031215615c1257600080fd5b615c1b846159ca565b9250615c29602085016159ca565b9150615c37604085016159ba565b90509250925092565b600060208284031215615c5257600080fd5b5035919050565b600060208284031215615c6b57600080fd5b5051919050565b60008251615c84818460208701615eaf565b9190910192915050565b6001600160a01b0391909116815260200190565b6001600160a01b038316815260406020808301829052835191830182905260009184820191906060850190845b81811015615cf157845163ffffffff1683529383019391830191600101615ccf565b5090979650505050505050565b6001600160a01b03929092168252602082015260400190565b6020808252825182820181905260009190848201906040850190845b81811015615d585783516001600160a01b031683529284019291840191600101615d33565b50909695505050505050565b6020815260008251806020840152615d83816040850160208701615eaf565b601f01601f19169190910160400192915050565b6020808252601f908201527f5265656e7472616e637947756172643a207265656e7472616e742063616c6c00604082015260600190565b92835260069190910b6020830152604082015260600190565b9283526020830191909152604082015260600190565b60008219821115615e1057615e10615f31565b500190565b600082615e2457615e24615f47565b500490565b6000816000190483118215151615615e4357615e43615f31565b500290565b60008160060b8360060b6000811281667fffffffffffff1901831281151615615e7357615e73615f31565b81667fffffffffffff018313811615615e8e57615e8e615f31565b5090039392505050565b600082821015615eaa57615eaa615f31565b500390565b60005b83811015615eca578181015183820152602001615eb2565b838111156150455750506000910152565b6000600019821415615eef57615eef615f31565b5060010190565b600082615f0557615f05615f47565b500690565b60008160060b667fffffffffffff19811415615f2857615f28615f31565b60000392915050565b634e487b7160e01b600052601160045260246000fd5b634e487b7160e01b600052601260045260246000fd5b634e487b7160e01b600052603160045260246000fd5b634e487b7160e01b600052603260045260246000fd5b6001600160a01b03811681146116cd57600080fdfe46f2180879a7123a197cc3828c28955d70d661c70acbdc02450daf5f9a9c1cfaee3f0daba9837d1ab0597acf34328550e4832d02e24e467825e7c2dd318c3820a26469706673582212201e6881259c75e579b560ae5b6abb14f7cd0e905e7dfede862f25c22c5f736b0c64736f6c63430008070033",
  "linkReferences": {},
  "deployedLinkReferences": {}
}