{
  "_format": "hh-sol-artifact-1",
  "contractName": "Keep3r",
  "sourceName": "solidity/contracts/Keep3r.sol",
  "abi": [
    {
      "inputs": [
        {
          "internalType": "address",
          "name": "_governance",
          "type": "address"
        },
        {
          "internalType": "address",
          "name": "_keep3rHelper",
          "type": "address"
        },
        {
          "internalType": "address",
          "name": "_keep3rV1",
          "type": "address"
        },
        {
          "internalType": "address",
          "name": "_keep3rV1Proxy",
          "type": "address"
        },
        {
          "internalType": "address",
          "name": "_kp3rWethPool",
          "type": "address"
        }
      ],
      "stateMutability": "nonpayable",
      "type": "constructor"
    },
    {
      "inputs": [],
      "name": "AlreadyAJob",
      "type": "error"
    },
    {
      "inputs": [],
      "name": "AlreadyAKeeper",
      "type": "error"
    },
    {
      "inputs": [],
      "name": "AlreadyDisputed",
      "type": "error"
    },
    {
      "inputs": [],
      "name": "BondsLocked",
      "type": "error"
    },
    {
      "inputs": [],
      "name": "BondsUnexistent",
      "type": "error"
    },
    {
      "inputs": [],
      "name": "Disputed",
      "type": "error"
    },
    {
      "inputs": [],
      "name": "DisputerExistent",
      "type": "error"
    },
    {
      "inputs": [],
      "name": "DisputerUnexistent",
      "type": "error"
    },
    {
      "inputs": [],
      "name": "InsufficientFunds",
      "type": "error"
    },
    {
      "inputs": [],
      "name": "InsufficientJobTokenCredits",
      "type": "error"
    },
    {
      "inputs": [],
      "name": "JobAlreadyAdded",
      "type": "error"
    },
    {
      "inputs": [],
      "name": "JobDisputed",
      "type": "error"
    },
    {
      "inputs": [],
      "name": "JobLiquidityInsufficient",
      "type": "error"
    },
    {
      "inputs": [],
      "name": "JobLiquidityLessThanMin",
      "type": "error"
    },
    {
      "inputs": [],
      "name": "JobLiquidityUnexistent",
      "type": "error"
    },
    {
      "inputs": [],
      "name": "JobMigrationImpossible",
      "type": "error"
    },
    {
      "inputs": [],
      "name": "JobMigrationLocked",
      "type": "error"
    },
    {
      "inputs": [],
      "name": "JobMigrationUnavailable",
      "type": "error"
    },
    {
      "inputs": [],
      "name": "JobTokenCreditsLocked",
      "type": "error"
    },
    {
      "inputs": [],
      "name": "JobTokenInsufficient",
      "type": "error"
    },
    {
      "inputs": [],
      "name": "JobTokenUnexistent",
      "type": "error"
    },
    {
      "inputs": [],
      "name": "JobUnapproved",
      "type": "error"
    },
    {
      "inputs": [],
      "name": "JobUnavailable",
      "type": "error"
    },
    {
      "inputs": [],
      "name": "LiquidityPairApproved",
      "type": "error"
    },
    {
      "inputs": [],
      "name": "LiquidityPairUnapproved",
      "type": "error"
    },
    {
      "inputs": [],
      "name": "LiquidityPairUnexistent",
      "type": "error"
    },
    {
      "inputs": [],
      "name": "MinRewardPeriod",
      "type": "error"
    },
    {
      "inputs": [],
      "name": "NoGovernanceZeroAddress",
      "type": "error"
    },
    {
      "inputs": [],
      "name": "NotDisputed",
      "type": "error"
    },
    {
      "inputs": [],
      "name": "OnlyDisputer",
      "type": "error"
    },
    {
      "inputs": [],
      "name": "OnlyGovernance",
      "type": "error"
    },
    {
      "inputs": [],
      "name": "OnlyJobOwner",
      "type": "error"
    },
    {
      "inputs": [],
      "name": "OnlyPendingGovernance",
      "type": "error"
    },
    {
      "inputs": [],
      "name": "OnlyPendingJobOwner",
      "type": "error"
    },
    {
      "inputs": [],
      "name": "OnlySlasher",
      "type": "error"
    },
    {
      "inputs": [],
      "name": "SlasherExistent",
      "type": "error"
    },
    {
      "inputs": [],
      "name": "SlasherUnexistent",
      "type": "error"
    },
    {
      "inputs": [],
      "name": "TokenUnallowed",
      "type": "error"
    },
    {
      "inputs": [],
      "name": "UnbondsLocked",
      "type": "error"
    },
    {
      "inputs": [],
      "name": "UnbondsUnexistent",
      "type": "error"
    },
    {
      "inputs": [],
      "name": "ZeroAddress",
      "type": "error"
    },
    {
      "anonymous": false,
      "inputs": [
        {
          "indexed": true,
          "internalType": "address",
          "name": "_keeper",
          "type": "address"
        },
        {
          "indexed": true,
          "internalType": "address",
          "name": "_bond",
          "type": "address"
        },
        {
          "indexed": false,
          "internalType": "uint256",
          "name": "_amount",
          "type": "uint256"
        }
      ],
      "name": "Activation",
      "type": "event"
    },
    {
      "anonymous": false,
      "inputs": [
        {
          "indexed": false,
          "internalType": "uint256",
          "name": "_bondTime",
          "type": "uint256"
        }
      ],
      "name": "BondTimeChange",
      "type": "event"
    },
    {
      "anonymous": false,
      "inputs": [
        {
          "indexed": true,
          "internalType": "address",
          "name": "_keeper",
          "type": "address"
        },
        {
          "indexed": true,
          "internalType": "address",
          "name": "_bonding",
          "type": "address"
        },
        {
          "indexed": false,
          "internalType": "uint256",
          "name": "_amount",
          "type": "uint256"
        }
      ],
      "name": "Bonding",
      "type": "event"
    },
    {
      "anonymous": false,
      "inputs": [
        {
          "indexed": true,
          "internalType": "address",
          "name": "_jobOrKeeper",
          "type": "address"
        },
        {
          "indexed": true,
          "internalType": "address",
          "name": "_disputer",
          "type": "address"
        }
      ],
      "name": "Dispute",
      "type": "event"
    },
    {
      "anonymous": false,
      "inputs": [
        {
          "indexed": false,
          "internalType": "address",
          "name": "_disputer",
          "type": "address"
        }
      ],
      "name": "DisputerAdded",
      "type": "event"
    },
    {
      "anonymous": false,
      "inputs": [
        {
          "indexed": false,
          "internalType": "address",
          "name": "_disputer",
          "type": "address"
        }
      ],
      "name": "DisputerRemoved",
      "type": "event"
    },
    {
      "anonymous": false,
      "inputs": [
        {
          "indexed": false,
          "internalType": "address",
          "name": "_token",
          "type": "address"
        },
        {
          "indexed": false,
          "internalType": "uint256",
          "name": "_amount",
          "type": "uint256"
        },
        {
          "indexed": false,
          "internalType": "address",
          "name": "_to",
          "type": "address"
        }
      ],
      "name": "DustSent",
      "type": "event"
    },
    {
      "anonymous": false,
      "inputs": [
        {
          "indexed": false,
          "internalType": "uint256",
          "name": "_fee",
          "type": "uint256"
        }
      ],
      "name": "FeeChange",
      "type": "event"
    },
    {
      "anonymous": false,
      "inputs": [
        {
          "indexed": false,
          "internalType": "address",
          "name": "_pendingGovernance",
          "type": "address"
        }
      ],
      "name": "GovernanceProposal",
      "type": "event"
    },
    {
      "anonymous": false,
      "inputs": [
        {
          "indexed": false,
          "internalType": "address",
          "name": "_governance",
          "type": "address"
        }
      ],
      "name": "GovernanceSet",
      "type": "event"
    },
    {
      "anonymous": false,
      "inputs": [
        {
          "indexed": false,
          "internalType": "uint256",
          "name": "_inflationPeriod",
          "type": "uint256"
        }
      ],
      "name": "InflationPeriodChange",
      "type": "event"
    },
    {
      "anonymous": false,
      "inputs": [
        {
          "indexed": true,
          "internalType": "address",
          "name": "_job",
          "type": "address"
        },
        {
          "indexed": true,
          "internalType": "address",
          "name": "_jobOwner",
          "type": "address"
        }
      ],
      "name": "JobAddition",
      "type": "event"
    },
    {
      "anonymous": false,
      "inputs": [
        {
          "indexed": true,
          "internalType": "address",
          "name": "_fromJob",
          "type": "address"
        },
        {
          "indexed": false,
          "internalType": "address",
          "name": "_toJob",
          "type": "address"
        }
      ],
      "name": "JobMigrationRequested",
      "type": "event"
    },
    {
      "anonymous": false,
      "inputs": [
        {
          "indexed": false,
          "internalType": "address",
          "name": "_fromJob",
          "type": "address"
        },
        {
          "indexed": true,
          "internalType": "address",
          "name": "_toJob",
          "type": "address"
        }
      ],
      "name": "JobMigrationSuccessful",
      "type": "event"
    },
    {
      "anonymous": false,
      "inputs": [
        {
          "indexed": true,
          "internalType": "address",
          "name": "_job",
          "type": "address"
        },
        {
          "indexed": true,
          "internalType": "address",
          "name": "_previousOwner",
          "type": "address"
        },
        {
          "indexed": true,
          "internalType": "address",
          "name": "_newOwner",
          "type": "address"
        }
      ],
      "name": "JobOwnershipAssent",
      "type": "event"
    },
    {
      "anonymous": false,
      "inputs": [
        {
          "indexed": true,
          "internalType": "address",
          "name": "_job",
          "type": "address"
        },
        {
          "indexed": true,
          "internalType": "address",
          "name": "_owner",
          "type": "address"
        },
        {
          "indexed": true,
          "internalType": "address",
          "name": "_pendingOwner",
          "type": "address"
        }
      ],
      "name": "JobOwnershipChange",
      "type": "event"
    },
    {
      "anonymous": false,
      "inputs": [
        {
          "indexed": true,
          "internalType": "address",
          "name": "_job",
          "type": "address"
        },
        {
          "indexed": false,
          "internalType": "address",
          "name": "_liquidity",
          "type": "address"
        },
        {
          "indexed": true,
          "internalType": "address",
          "name": "_slasher",
          "type": "address"
        },
        {
          "indexed": false,
          "internalType": "uint256",
          "name": "_amount",
          "type": "uint256"
        }
      ],
      "name": "JobSlashLiquidity",
      "type": "event"
    },
    {
      "anonymous": false,
      "inputs": [
        {
          "indexed": true,
          "internalType": "address",
          "name": "_job",
          "type": "address"
        },
        {
          "indexed": false,
          "internalType": "address",
          "name": "_token",
          "type": "address"
        },
        {
          "indexed": true,
          "internalType": "address",
          "name": "_slasher",
          "type": "address"
        },
        {
          "indexed": false,
          "internalType": "uint256",
          "name": "_amount",
          "type": "uint256"
        }
      ],
      "name": "JobSlashToken",
      "type": "event"
    },
    {
      "anonymous": false,
      "inputs": [
        {
          "indexed": false,
          "internalType": "address",
          "name": "_keep3rHelper",
          "type": "address"
        }
      ],
      "name": "Keep3rHelperChange",
      "type": "event"
    },
    {
      "anonymous": false,
      "inputs": [
        {
          "indexed": false,
          "internalType": "address",
          "name": "_keep3rV1",
          "type": "address"
        }
      ],
      "name": "Keep3rV1Change",
      "type": "event"
    },
    {
      "anonymous": false,
      "inputs": [
        {
          "indexed": false,
          "internalType": "address",
          "name": "_keep3rV1Proxy",
          "type": "address"
        }
      ],
      "name": "Keep3rV1ProxyChange",
      "type": "event"
    },
    {
      "anonymous": false,
      "inputs": [
        {
          "indexed": true,
          "internalType": "address",
          "name": "_keeper",
          "type": "address"
        },
        {
          "indexed": true,
          "internalType": "address",
          "name": "_slasher",
          "type": "address"
        }
      ],
      "name": "KeeperRevoke",
      "type": "event"
    },
    {
      "anonymous": false,
      "inputs": [
        {
          "indexed": true,
          "internalType": "address",
          "name": "_keeper",
          "type": "address"
        },
        {
          "indexed": true,
          "internalType": "address",
          "name": "_slasher",
          "type": "address"
        },
        {
          "indexed": false,
          "internalType": "uint256",
          "name": "_amount",
          "type": "uint256"
        }
      ],
      "name": "KeeperSlash",
      "type": "event"
    },
    {
      "anonymous": false,
      "inputs": [
        {
          "indexed": false,
          "internalType": "uint256",
          "name": "_gasLeft",
          "type": "uint256"
        }
      ],
      "name": "KeeperValidation",
      "type": "event"
    },
    {
      "anonymous": false,
      "inputs": [
        {
          "indexed": true,
          "internalType": "address",
          "name": "_credit",
          "type": "address"
        },
        {
          "indexed": true,
          "internalType": "address",
          "name": "_job",
          "type": "address"
        },
        {
          "indexed": true,
          "internalType": "address",
          "name": "_keeper",
          "type": "address"
        },
        {
          "indexed": false,
          "internalType": "uint256",
          "name": "_amount",
          "type": "uint256"
        },
        {
          "indexed": false,
          "internalType": "uint256",
          "name": "_gasLeft",
          "type": "uint256"
        }
      ],
      "name": "KeeperWork",
      "type": "event"
    },
    {
      "anonymous": false,
      "inputs": [
        {
          "indexed": false,
          "internalType": "address",
          "name": "_kp3rWethPool",
          "type": "address"
        }
      ],
      "name": "Kp3rWethPoolChange",
      "type": "event"
    },
    {
      "anonymous": false,
      "inputs": [
        {
          "indexed": true,
          "internalType": "address",
          "name": "_job",
          "type": "address"
        },
        {
          "indexed": true,
          "internalType": "address",
          "name": "_liquidity",
          "type": "address"
        },
        {
          "indexed": true,
          "internalType": "address",
          "name": "_provider",
          "type": "address"
        },
        {
          "indexed": false,
          "internalType": "uint256",
          "name": "_amount",
          "type": "uint256"
        }
      ],
      "name": "LiquidityAddition",
      "type": "event"
    },
    {
      "anonymous": false,
      "inputs": [
        {
          "indexed": false,
          "internalType": "address",
          "name": "_liquidity",
          "type": "address"
        }
      ],
      "name": "LiquidityApproval",
      "type": "event"
    },
    {
      "anonymous": false,
      "inputs": [
        {
          "indexed": true,
          "internalType": "address",
          "name": "_job",
          "type": "address"
        },
        {
          "indexed": false,
          "internalType": "uint256",
          "name": "_rewardedAt",
          "type": "uint256"
        },
        {
          "indexed": false,
          "internalType": "uint256",
          "name": "_currentCredits",
          "type": "uint256"
        }
      ],
      "name": "LiquidityCreditsForced",
      "type": "event"
    },
    {
      "anonymous": false,
      "inputs": [
        {
          "indexed": true,
          "internalType": "address",
          "name": "_job",
          "type": "address"
        },
        {
          "indexed": false,
          "internalType": "uint256",
          "name": "_rewardedAt",
          "type": "uint256"
        },
        {
          "indexed": false,
          "internalType": "uint256",
          "name": "_currentCredits",
          "type": "uint256"
        },
        {
          "indexed": false,
          "internalType": "uint256",
          "name": "_periodCredits",
          "type": "uint256"
        }
      ],
      "name": "LiquidityCreditsReward",
      "type": "event"
    },
    {
      "anonymous": false,
      "inputs": [
        {
          "indexed": false,
          "internalType": "uint256",
          "name": "_liquidityMinimum",
          "type": "uint256"
        }
      ],
      "name": "LiquidityMinimumChange",
      "type": "event"
    },
    {
      "anonymous": false,
      "inputs": [
        {
          "indexed": false,
          "internalType": "address",
          "name": "_liquidity",
          "type": "address"
        }
      ],
      "name": "LiquidityRevocation",
      "type": "event"
    },
    {
      "anonymous": false,
      "inputs": [
        {
          "indexed": true,
          "internalType": "address",
          "name": "_job",
          "type": "address"
        },
        {
          "indexed": true,
          "internalType": "address",
          "name": "_liquidity",
          "type": "address"
        },
        {
          "indexed": true,
          "internalType": "address",
          "name": "_receiver",
          "type": "address"
        },
        {
          "indexed": false,
          "internalType": "uint256",
          "name": "_amount",
          "type": "uint256"
        }
      ],
      "name": "LiquidityWithdrawal",
      "type": "event"
    },
    {
      "anonymous": false,
      "inputs": [
        {
          "indexed": true,
          "internalType": "address",
          "name": "_jobOrKeeper",
          "type": "address"
        },
        {
          "indexed": true,
          "internalType": "address",
          "name": "_resolver",
          "type": "address"
        }
      ],
      "name": "Resolve",
      "type": "event"
    },
    {
      "anonymous": false,
      "inputs": [
        {
          "indexed": false,
          "internalType": "uint256",
          "name": "_rewardPeriodTime",
          "type": "uint256"
        }
      ],
      "name": "RewardPeriodTimeChange",
      "type": "event"
    },
    {
      "anonymous": false,
      "inputs": [
        {
          "indexed": false,
          "internalType": "address",
          "name": "_slasher",
          "type": "address"
        }
      ],
      "name": "SlasherAdded",
      "type": "event"
    },
    {
      "anonymous": false,
      "inputs": [
        {
          "indexed": false,
          "internalType": "address",
          "name": "_slasher",
          "type": "address"
        }
      ],
      "name": "SlasherRemoved",
      "type": "event"
    },
    {
      "anonymous": false,
      "inputs": [
        {
          "indexed": true,
          "internalType": "address",
          "name": "_job",
          "type": "address"
        },
        {
          "indexed": true,
          "internalType": "address",
          "name": "_token",
          "type": "address"
        },
        {
          "indexed": true,
          "internalType": "address",
          "name": "_provider",
          "type": "address"
        },
        {
          "indexed": false,
          "internalType": "uint256",
          "name": "_amount",
          "type": "uint256"
        }
      ],
      "name": "TokenCreditAddition",
      "type": "event"
    },
    {
      "anonymous": false,
      "inputs": [
        {
          "indexed": true,
          "internalType": "address",
          "name": "_job",
          "type": "address"
        },
        {
          "indexed": true,
          "internalType": "address",
          "name": "_token",
          "type": "address"
        },
        {
          "indexed": true,
          "internalType": "address",
          "name": "_receiver",
          "type": "address"
        },
        {
          "indexed": false,
          "internalType": "uint256",
          "name": "_amount",
          "type": "uint256"
        }
      ],
      "name": "TokenCreditWithdrawal",
      "type": "event"
    },
    {
      "anonymous": false,
      "inputs": [
        {
          "indexed": false,
          "internalType": "uint256",
          "name": "_unbondTime",
          "type": "uint256"
        }
      ],
      "name": "UnbondTimeChange",
      "type": "event"
    },
    {
      "anonymous": false,
      "inputs": [
        {
          "indexed": true,
          "internalType": "address",
          "name": "_keeperOrJob",
          "type": "address"
        },
        {
          "indexed": true,
          "internalType": "address",
          "name": "_unbonding",
          "type": "address"
        },
        {
          "indexed": false,
          "internalType": "uint256",
          "name": "_amount",
          "type": "uint256"
        }
      ],
      "name": "Unbonding",
      "type": "event"
    },
    {
      "anonymous": false,
      "inputs": [
        {
          "indexed": true,
          "internalType": "address",
          "name": "_keeper",
          "type": "address"
        },
        {
          "indexed": true,
          "internalType": "address",
          "name": "_bond",
          "type": "address"
        },
        {
          "indexed": false,
          "internalType": "uint256",
          "name": "_amount",
          "type": "uint256"
        }
      ],
      "name": "Withdrawal",
      "type": "event"
    },
    {
      "inputs": [],
      "name": "BASE",
      "outputs": [
        {
          "internalType": "uint256",
          "name": "",
          "type": "uint256"
        }
      ],
      "stateMutability": "view",
      "type": "function"
    },
    {
      "inputs": [],
      "name": "ETH_ADDRESS",
      "outputs": [
        {
          "internalType": "address",
          "name": "",
          "type": "address"
        }
      ],
      "stateMutability": "view",
      "type": "function"
    },
    {
      "inputs": [],
      "name": "MIN_REWARD_PERIOD_TIME",
      "outputs": [
        {
          "internalType": "uint256",
          "name": "",
          "type": "uint256"
        }
      ],
      "stateMutability": "view",
      "type": "function"
    },
    {
      "inputs": [],
      "name": "acceptGovernance",
      "outputs": [],
      "stateMutability": "nonpayable",
      "type": "function"
    },
    {
      "inputs": [
        {
          "internalType": "address",
          "name": "_fromJob",
          "type": "address"
        },
        {
          "internalType": "address",
          "name": "_toJob",
          "type": "address"
        }
      ],
      "name": "acceptJobMigration",
      "outputs": [],
      "stateMutability": "nonpayable",
      "type": "function"
    },
    {
      "inputs": [
        {
          "internalType": "address",
          "name": "_job",
          "type": "address"
        }
      ],
      "name": "acceptJobOwnership",
      "outputs": [],
      "stateMutability": "nonpayable",
      "type": "function"
    },
    {
      "inputs": [
        {
          "internalType": "address",
          "name": "_bonding",
          "type": "address"
        }
      ],
      "name": "activate",
      "outputs": [],
      "stateMutability": "nonpayable",
      "type": "function"
    },
    {
      "inputs": [
        {
          "internalType": "address",
          "name": "_disputer",
          "type": "address"
        }
      ],
      "name": "addDisputer",
      "outputs": [],
      "stateMutability": "nonpayable",
      "type": "function"
    },
    {
      "inputs": [
        {
          "internalType": "address",
          "name": "_job",
          "type": "address"
        }
      ],
      "name": "addJob",
      "outputs": [],
      "stateMutability": "nonpayable",
      "type": "function"
    },
    {
      "inputs": [
        {
          "internalType": "address",
          "name": "_job",
          "type": "address"
        },
        {
          "internalType": "address",
          "name": "_liquidity",
          "type": "address"
        },
        {
          "internalType": "uint256",
          "name": "_amount",
          "type": "uint256"
        }
      ],
      "name": "addLiquidityToJob",
      "outputs": [],
      "stateMutability": "nonpayable",
      "type": "function"
    },
    {
      "inputs": [
        {
          "internalType": "address",
          "name": "_slasher",
          "type": "address"
        }
      ],
      "name": "addSlasher",
      "outputs": [],
      "stateMutability": "nonpayable",
      "type": "function"
    },
    {
      "inputs": [
        {
          "internalType": "address",
          "name": "_job",
          "type": "address"
        },
        {
          "internalType": "address",
          "name": "_token",
          "type": "address"
        },
        {
          "internalType": "uint256",
          "name": "_amount",
          "type": "uint256"
        }
      ],
      "name": "addTokenCreditsToJob",
      "outputs": [],
      "stateMutability": "nonpayable",
      "type": "function"
    },
    {
      "inputs": [
        {
          "internalType": "address",
          "name": "_liquidity",
          "type": "address"
        }
      ],
      "name": "approveLiquidity",
      "outputs": [],
      "stateMutability": "nonpayable",
      "type": "function"
    },
    {
      "inputs": [],
      "name": "approvedLiquidities",
      "outputs": [
        {
          "internalType": "address[]",
          "name": "_list",
          "type": "address[]"
        }
      ],
      "stateMutability": "view",
      "type": "function"
    },
    {
      "inputs": [
        {
          "internalType": "address",
          "name": "_bonding",
          "type": "address"
        },
        {
          "internalType": "uint256",
          "name": "_amount",
          "type": "uint256"
        }
      ],
      "name": "bond",
      "outputs": [],
      "stateMutability": "nonpayable",
      "type": "function"
    },
    {
      "inputs": [],
      "name": "bondTime",
      "outputs": [
        {
          "internalType": "uint256",
          "name": "",
          "type": "uint256"
        }
      ],
      "stateMutability": "view",
      "type": "function"
    },
    {
      "inputs": [
        {
          "internalType": "address",
          "name": "_keeper",
          "type": "address"
        },
        {
          "internalType": "uint256",
          "name": "_payment",
          "type": "uint256"
        }
      ],
      "name": "bondedPayment",
      "outputs": [],
      "stateMutability": "nonpayable",
      "type": "function"
    },
    {
      "inputs": [
        {
          "internalType": "address",
          "name": "",
          "type": "address"
        },
        {
          "internalType": "address",
          "name": "",
          "type": "address"
        }
      ],
      "name": "bonds",
      "outputs": [
        {
          "internalType": "uint256",
          "name": "",
          "type": "uint256"
        }
      ],
      "stateMutability": "view",
      "type": "function"
    },
    {
      "inputs": [
        {
          "internalType": "address",
          "name": "",
          "type": "address"
        },
        {
          "internalType": "address",
          "name": "",
          "type": "address"
        }
      ],
      "name": "canActivateAfter",
      "outputs": [
        {
          "internalType": "uint256",
          "name": "",
          "type": "uint256"
        }
      ],
      "stateMutability": "view",
      "type": "function"
    },
    {
      "inputs": [
        {
          "internalType": "address",
          "name": "",
          "type": "address"
        },
        {
          "internalType": "address",
          "name": "",
          "type": "address"
        }
      ],
      "name": "canWithdrawAfter",
      "outputs": [
        {
          "internalType": "uint256",
          "name": "",
          "type": "uint256"
        }
      ],
      "stateMutability": "view",
      "type": "function"
    },
    {
      "inputs": [
        {
          "internalType": "address",
          "name": "_job",
          "type": "address"
        },
        {
          "internalType": "address",
          "name": "_newOwner",
          "type": "address"
        }
      ],
      "name": "changeJobOwnership",
      "outputs": [],
      "stateMutability": "nonpayable",
      "type": "function"
    },
    {
      "inputs": [
        {
          "internalType": "address",
          "name": "_token",
          "type": "address"
        },
        {
          "internalType": "address",
          "name": "_keeper",
          "type": "address"
        },
        {
          "internalType": "uint256",
          "name": "_amount",
          "type": "uint256"
        }
      ],
      "name": "directTokenPayment",
      "outputs": [],
      "stateMutability": "nonpayable",
      "type": "function"
    },
    {
      "inputs": [
        {
          "internalType": "address",
          "name": "_jobOrKeeper",
          "type": "address"
        }
      ],
      "name": "dispute",
      "outputs": [],
      "stateMutability": "nonpayable",
      "type": "function"
    },
    {
      "inputs": [
        {
          "internalType": "address",
          "name": "",
          "type": "address"
        }
      ],
      "name": "disputers",
      "outputs": [
        {
          "internalType": "bool",
          "name": "",
          "type": "bool"
        }
      ],
      "stateMutability": "view",
      "type": "function"
    },
    {
      "inputs": [
        {
          "internalType": "address",
          "name": "",
          "type": "address"
        }
      ],
      "name": "disputes",
      "outputs": [
        {
          "internalType": "bool",
          "name": "",
          "type": "bool"
        }
      ],
      "stateMutability": "view",
      "type": "function"
    },
    {
      "inputs": [],
      "name": "fee",
      "outputs": [
        {
          "internalType": "uint256",
          "name": "",
          "type": "uint256"
        }
      ],
      "stateMutability": "view",
      "type": "function"
    },
    {
      "inputs": [
        {
          "internalType": "address",
          "name": "",
          "type": "address"
        }
      ],
      "name": "firstSeen",
      "outputs": [
        {
          "internalType": "uint256",
          "name": "",
          "type": "uint256"
        }
      ],
      "stateMutability": "view",
      "type": "function"
    },
    {
      "inputs": [
        {
          "internalType": "address",
          "name": "_job",
          "type": "address"
        },
        {
          "internalType": "uint256",
          "name": "_amount",
          "type": "uint256"
        }
      ],
      "name": "forceLiquidityCreditsToJob",
      "outputs": [],
      "stateMutability": "nonpayable",
      "type": "function"
    },
    {
      "inputs": [],
      "name": "governance",
      "outputs": [
        {
          "internalType": "address",
          "name": "",
          "type": "address"
        }
      ],
      "stateMutability": "view",
      "type": "function"
    },
    {
      "inputs": [
        {
          "internalType": "address",
          "name": "",
          "type": "address"
        }
      ],
      "name": "hasBonded",
      "outputs": [
        {
          "internalType": "bool",
          "name": "",
          "type": "bool"
        }
      ],
      "stateMutability": "view",
      "type": "function"
    },
    {
      "inputs": [],
      "name": "inflationPeriod",
      "outputs": [
        {
          "internalType": "uint256",
          "name": "",
          "type": "uint256"
        }
      ],
      "stateMutability": "view",
      "type": "function"
    },
    {
      "inputs": [
        {
          "internalType": "address",
          "name": "_keeper",
          "type": "address"
        },
        {
          "internalType": "address",
          "name": "_bond",
          "type": "address"
        },
        {
          "internalType": "uint256",
          "name": "_minBond",
          "type": "uint256"
        },
        {
          "internalType": "uint256",
          "name": "_earned",
          "type": "uint256"
        },
        {
          "internalType": "uint256",
          "name": "_age",
          "type": "uint256"
        }
      ],
      "name": "isBondedKeeper",
      "outputs": [
        {
          "internalType": "bool",
          "name": "_isBondedKeeper",
          "type": "bool"
        }
      ],
      "stateMutability": "nonpayable",
      "type": "function"
    },
    {
      "inputs": [
        {
          "internalType": "address",
          "name": "_keeper",
          "type": "address"
        }
      ],
      "name": "isKeeper",
      "outputs": [
        {
          "internalType": "bool",
          "name": "_isKeeper",
          "type": "bool"
        }
      ],
      "stateMutability": "nonpayable",
      "type": "function"
    },
    {
      "inputs": [
        {
          "internalType": "address",
          "name": "_job",
          "type": "address"
        }
      ],
      "name": "jobLiquidityCredits",
      "outputs": [
        {
          "internalType": "uint256",
          "name": "_liquidityCredits",
          "type": "uint256"
        }
      ],
      "stateMutability": "view",
      "type": "function"
    },
    {
      "inputs": [
        {
          "internalType": "address",
          "name": "",
          "type": "address"
        }
      ],
      "name": "jobOwner",
      "outputs": [
        {
          "internalType": "address",
          "name": "",
          "type": "address"
        }
      ],
      "stateMutability": "view",
      "type": "function"
    },
    {
      "inputs": [
        {
          "internalType": "address",
          "name": "",
          "type": "address"
        }
      ],
      "name": "jobPendingOwner",
      "outputs": [
        {
          "internalType": "address",
          "name": "",
          "type": "address"
        }
      ],
      "stateMutability": "view",
      "type": "function"
    },
    {
      "inputs": [
        {
          "internalType": "address",
          "name": "_job",
          "type": "address"
        }
      ],
      "name": "jobPeriodCredits",
      "outputs": [
        {
          "internalType": "uint256",
          "name": "_periodCredits",
          "type": "uint256"
        }
      ],
      "stateMutability": "view",
      "type": "function"
    },
    {
      "inputs": [
        {
          "internalType": "address",
          "name": "",
          "type": "address"
        },
        {
          "internalType": "address",
          "name": "",
          "type": "address"
        }
      ],
      "name": "jobTokenCredits",
      "outputs": [
        {
          "internalType": "uint256",
          "name": "",
          "type": "uint256"
        }
      ],
      "stateMutability": "view",
      "type": "function"
    },
    {
      "inputs": [
        {
          "internalType": "address",
          "name": "",
          "type": "address"
        },
        {
          "internalType": "address",
          "name": "",
          "type": "address"
        }
      ],
      "name": "jobTokenCreditsAddedAt",
      "outputs": [
        {
          "internalType": "uint256",
          "name": "",
          "type": "uint256"
        }
      ],
      "stateMutability": "view",
      "type": "function"
    },
    {
      "inputs": [],
      "name": "jobs",
      "outputs": [
        {
          "internalType": "address[]",
          "name": "_list",
          "type": "address[]"
        }
      ],
      "stateMutability": "view",
      "type": "function"
    },
    {
      "inputs": [],
      "name": "keep3rHelper",
      "outputs": [
        {
          "internalType": "address",
          "name": "",
          "type": "address"
        }
      ],
      "stateMutability": "view",
      "type": "function"
    },
    {
      "inputs": [],
      "name": "keep3rV1",
      "outputs": [
        {
          "internalType": "address",
          "name": "",
          "type": "address"
        }
      ],
      "stateMutability": "view",
      "type": "function"
    },
    {
      "inputs": [],
      "name": "keep3rV1Proxy",
      "outputs": [
        {
          "internalType": "address",
          "name": "",
          "type": "address"
        }
      ],
      "stateMutability": "view",
      "type": "function"
    },
    {
      "inputs": [],
      "name": "keepers",
      "outputs": [
        {
          "internalType": "address[]",
          "name": "_list",
          "type": "address[]"
        }
      ],
      "stateMutability": "view",
      "type": "function"
    },
    {
      "inputs": [],
      "name": "kp3rWethPool",
      "outputs": [
        {
          "internalType": "address",
          "name": "",
          "type": "address"
        }
      ],
      "stateMutability": "view",
      "type": "function"
    },
    {
      "inputs": [
        {
          "internalType": "address",
          "name": "",
          "type": "address"
        },
        {
          "internalType": "address",
          "name": "",
          "type": "address"
        }
      ],
      "name": "liquidityAmount",
      "outputs": [
        {
          "internalType": "uint256",
          "name": "",
          "type": "uint256"
        }
      ],
      "stateMutability": "view",
      "type": "function"
    },
    {
      "inputs": [],
      "name": "liquidityMinimum",
      "outputs": [
        {
          "internalType": "uint256",
          "name": "",
          "type": "uint256"
        }
      ],
      "stateMutability": "view",
      "type": "function"
    },
    {
      "inputs": [
        {
          "internalType": "address",
          "name": "_fromJob",
          "type": "address"
        },
        {
          "internalType": "address",
          "name": "_toJob",
          "type": "address"
        }
      ],
      "name": "migrateJob",
      "outputs": [],
      "stateMutability": "nonpayable",
      "type": "function"
    },
    {
      "inputs": [
        {
          "internalType": "address",
          "name": "_liquidity",
          "type": "address"
        }
      ],
      "name": "observeLiquidity",
      "outputs": [
        {
          "components": [
            {
              "internalType": "int56",
              "name": "current",
              "type": "int56"
            },
            {
              "internalType": "int56",
              "name": "difference",
              "type": "int56"
            },
            {
              "internalType": "uint256",
              "name": "period",
              "type": "uint256"
            }
          ],
          "internalType": "struct IKeep3rJobFundableLiquidity.TickCache",
          "name": "_tickCache",
          "type": "tuple"
        }
      ],
      "stateMutability": "view",
      "type": "function"
    },
    {
      "inputs": [
        {
          "internalType": "address",
          "name": "",
          "type": "address"
        },
        {
          "internalType": "address",
          "name": "",
          "type": "address"
        }
      ],
      "name": "pendingBonds",
      "outputs": [
        {
          "internalType": "uint256",
          "name": "",
          "type": "uint256"
        }
      ],
      "stateMutability": "view",
      "type": "function"
    },
    {
      "inputs": [],
      "name": "pendingGovernance",
      "outputs": [
        {
          "internalType": "address",
          "name": "",
          "type": "address"
        }
      ],
      "stateMutability": "view",
      "type": "function"
    },
    {
      "inputs": [
        {
          "internalType": "address",
          "name": "",
          "type": "address"
        }
      ],
      "name": "pendingJobMigrations",
      "outputs": [
        {
          "internalType": "address",
          "name": "",
          "type": "address"
        }
      ],
      "stateMutability": "view",
      "type": "function"
    },
    {
      "inputs": [
        {
          "internalType": "address",
          "name": "",
          "type": "address"
        },
        {
          "internalType": "address",
          "name": "",
          "type": "address"
        }
      ],
      "name": "pendingUnbonds",
      "outputs": [
        {
          "internalType": "uint256",
          "name": "",
          "type": "uint256"
        }
      ],
      "stateMutability": "view",
      "type": "function"
    },
    {
      "inputs": [
        {
          "internalType": "address",
          "name": "_liquidity",
          "type": "address"
        },
        {
          "internalType": "uint256",
          "name": "_amount",
          "type": "uint256"
        }
      ],
      "name": "quoteLiquidity",
      "outputs": [
        {
          "internalType": "uint256",
          "name": "_periodCredits",
          "type": "uint256"
        }
      ],
      "stateMutability": "view",
      "type": "function"
    },
    {
      "inputs": [
        {
          "internalType": "address",
          "name": "_disputer",
          "type": "address"
        }
      ],
      "name": "removeDisputer",
      "outputs": [],
      "stateMutability": "nonpayable",
      "type": "function"
    },
    {
      "inputs": [
        {
          "internalType": "address",
          "name": "_slasher",
          "type": "address"
        }
      ],
      "name": "removeSlasher",
      "outputs": [],
      "stateMutability": "nonpayable",
      "type": "function"
    },
    {
      "inputs": [
        {
          "internalType": "address",
          "name": "_jobOrKeeper",
          "type": "address"
        }
      ],
      "name": "resolve",
      "outputs": [],
      "stateMutability": "nonpayable",
      "type": "function"
    },
    {
      "inputs": [
        {
          "internalType": "address",
          "name": "_keeper",
          "type": "address"
        }
      ],
      "name": "revoke",
      "outputs": [],
      "stateMutability": "nonpayable",
      "type": "function"
    },
    {
      "inputs": [
        {
          "internalType": "address",
          "name": "_liquidity",
          "type": "address"
        }
      ],
      "name": "revokeLiquidity",
      "outputs": [],
      "stateMutability": "nonpayable",
      "type": "function"
    },
    {
      "inputs": [],
      "name": "rewardPeriodTime",
      "outputs": [
        {
          "internalType": "uint256",
          "name": "",
          "type": "uint256"
        }
      ],
      "stateMutability": "view",
      "type": "function"
    },
    {
      "inputs": [
        {
          "internalType": "address",
          "name": "",
          "type": "address"
        }
      ],
      "name": "rewardedAt",
      "outputs": [
        {
          "internalType": "uint256",
          "name": "",
          "type": "uint256"
        }
      ],
      "stateMutability": "view",
      "type": "function"
    },
    {
      "inputs": [
        {
          "internalType": "address",
          "name": "_token",
          "type": "address"
        },
        {
          "internalType": "uint256",
          "name": "_amount",
          "type": "uint256"
        },
        {
          "internalType": "address",
          "name": "_to",
          "type": "address"
        }
      ],
      "name": "sendDust",
      "outputs": [],
      "stateMutability": "nonpayable",
      "type": "function"
    },
    {
      "inputs": [
        {
          "internalType": "uint256",
          "name": "_bondTime",
          "type": "uint256"
        }
      ],
      "name": "setBondTime",
      "outputs": [],
      "stateMutability": "nonpayable",
      "type": "function"
    },
    {
      "inputs": [
        {
          "internalType": "uint256",
          "name": "_fee",
          "type": "uint256"
        }
      ],
      "name": "setFee",
      "outputs": [],
      "stateMutability": "nonpayable",
      "type": "function"
    },
    {
      "inputs": [
        {
          "internalType": "address",
          "name": "_governance",
          "type": "address"
        }
      ],
      "name": "setGovernance",
      "outputs": [],
      "stateMutability": "nonpayable",
      "type": "function"
    },
    {
      "inputs": [
        {
          "internalType": "uint256",
          "name": "_inflationPeriod",
          "type": "uint256"
        }
      ],
      "name": "setInflationPeriod",
      "outputs": [],
      "stateMutability": "nonpayable",
      "type": "function"
    },
    {
      "inputs": [
        {
          "internalType": "address",
          "name": "_keep3rHelper",
          "type": "address"
        }
      ],
      "name": "setKeep3rHelper",
      "outputs": [],
      "stateMutability": "nonpayable",
      "type": "function"
    },
    {
      "inputs": [
        {
          "internalType": "address",
          "name": "_keep3rV1",
          "type": "address"
        }
      ],
      "name": "setKeep3rV1",
      "outputs": [],
      "stateMutability": "nonpayable",
      "type": "function"
    },
    {
      "inputs": [
        {
          "internalType": "address",
          "name": "_keep3rV1Proxy",
          "type": "address"
        }
      ],
      "name": "setKeep3rV1Proxy",
      "outputs": [],
      "stateMutability": "nonpayable",
      "type": "function"
    },
    {
      "inputs": [
        {
          "internalType": "address",
          "name": "_kp3rWethPool",
          "type": "address"
        }
      ],
      "name": "setKp3rWethPool",
      "outputs": [],
      "stateMutability": "nonpayable",
      "type": "function"
    },
    {
      "inputs": [
        {
          "internalType": "uint256",
          "name": "_liquidityMinimum",
          "type": "uint256"
        }
      ],
      "name": "setLiquidityMinimum",
      "outputs": [],
      "stateMutability": "nonpayable",
      "type": "function"
    },
    {
      "inputs": [
        {
          "internalType": "uint256",
          "name": "_rewardPeriodTime",
          "type": "uint256"
        }
      ],
      "name": "setRewardPeriodTime",
      "outputs": [],
      "stateMutability": "nonpayable",
      "type": "function"
    },
    {
      "inputs": [
        {
          "internalType": "uint256",
          "name": "_unbondTime",
          "type": "uint256"
        }
      ],
      "name": "setUnbondTime",
      "outputs": [],
      "stateMutability": "nonpayable",
      "type": "function"
    },
    {
      "inputs": [
        {
          "internalType": "address",
          "name": "_keeper",
          "type": "address"
        },
        {
          "internalType": "address",
          "name": "_bonded",
          "type": "address"
        },
        {
          "internalType": "uint256",
          "name": "_amount",
          "type": "uint256"
        }
      ],
      "name": "slash",
      "outputs": [],
      "stateMutability": "nonpayable",
      "type": "function"
    },
    {
      "inputs": [
        {
          "internalType": "address",
          "name": "_job",
          "type": "address"
        },
        {
          "internalType": "address",
          "name": "_liquidity",
          "type": "address"
        },
        {
          "internalType": "uint256",
          "name": "_amount",
          "type": "uint256"
        }
      ],
      "name": "slashLiquidityFromJob",
      "outputs": [],
      "stateMutability": "nonpayable",
      "type": "function"
    },
    {
      "inputs": [
        {
          "internalType": "address",
          "name": "_job",
          "type": "address"
        },
        {
          "internalType": "address",
          "name": "_token",
          "type": "address"
        },
        {
          "internalType": "uint256",
          "name": "_amount",
          "type": "uint256"
        }
      ],
      "name": "slashTokenFromJob",
      "outputs": [],
      "stateMutability": "nonpayable",
      "type": "function"
    },
    {
      "inputs": [
        {
          "internalType": "address",
          "name": "",
          "type": "address"
        }
      ],
      "name": "slashers",
      "outputs": [
        {
          "internalType": "bool",
          "name": "",
          "type": "bool"
        }
      ],
      "stateMutability": "view",
      "type": "function"
    },
    {
      "inputs": [
        {
          "internalType": "address",
          "name": "_job",
          "type": "address"
        }
      ],
      "name": "totalJobCredits",
      "outputs": [
        {
          "internalType": "uint256",
          "name": "_credits",
          "type": "uint256"
        }
      ],
      "stateMutability": "view",
      "type": "function"
    },
    {
      "inputs": [
        {
          "internalType": "address",
          "name": "_bonding",
          "type": "address"
        },
        {
          "internalType": "uint256",
          "name": "_amount",
          "type": "uint256"
        }
      ],
      "name": "unbond",
      "outputs": [],
      "stateMutability": "nonpayable",
      "type": "function"
    },
    {
      "inputs": [
        {
          "internalType": "address",
          "name": "_job",
          "type": "address"
        },
        {
          "internalType": "address",
          "name": "_liquidity",
          "type": "address"
        },
        {
          "internalType": "uint256",
          "name": "_amount",
          "type": "uint256"
        }
      ],
      "name": "unbondLiquidityFromJob",
      "outputs": [],
      "stateMutability": "nonpayable",
      "type": "function"
    },
    {
      "inputs": [],
      "name": "unbondTime",
      "outputs": [
        {
          "internalType": "uint256",
          "name": "",
          "type": "uint256"
        }
      ],
      "stateMutability": "view",
      "type": "function"
    },
    {
      "inputs": [
        {
          "internalType": "address",
          "name": "_bonding",
          "type": "address"
        }
      ],
      "name": "withdraw",
      "outputs": [],
      "stateMutability": "nonpayable",
      "type": "function"
    },
    {
      "inputs": [
        {
          "internalType": "address",
          "name": "_job",
          "type": "address"
        },
        {
          "internalType": "address",
          "name": "_liquidity",
          "type": "address"
        },
        {
          "internalType": "address",
          "name": "_receiver",
          "type": "address"
        }
      ],
      "name": "withdrawLiquidityFromJob",
      "outputs": [],
      "stateMutability": "nonpayable",
      "type": "function"
    },
    {
      "inputs": [
        {
          "internalType": "address",
          "name": "_job",
          "type": "address"
        },
        {
          "internalType": "address",
          "name": "_token",
          "type": "address"
        },
        {
          "internalType": "uint256",
          "name": "_amount",
          "type": "uint256"
        },
        {
          "internalType": "address",
          "name": "_receiver",
          "type": "address"
        }
      ],
      "name": "withdrawTokenCreditsFromJob",
      "outputs": [],
      "stateMutability": "nonpayable",
      "type": "function"
    },
    {
      "inputs": [
        {
          "internalType": "address",
          "name": "",
          "type": "address"
        }
      ],
      "name": "workCompleted",
      "outputs": [
        {
          "internalType": "uint256",
          "name": "",
          "type": "uint256"
        }
      ],
      "stateMutability": "view",
      "type": "function"
    },
    {
      "inputs": [
        {
          "internalType": "address",
          "name": "_keeper",
          "type": "address"
        }
      ],
      "name": "worked",
      "outputs": [],
      "stateMutability": "nonpayable",
      "type": "function"
    },
    {
      "inputs": [
        {
          "internalType": "address",
          "name": "",
          "type": "address"
        }
      ],
      "name": "workedAt",
      "outputs": [
        {
          "internalType": "uint256",
          "name": "",
          "type": "uint256"
        }
      ],
      "stateMutability": "view",
      "type": "function"
    }
  ],
  "bytecode": "0x60806040526203f480601f55621275006020556729a2241af62c000060215562069780602255622cd300602355601e6024553480156200003e57600080fd5b506040516200674c3803806200674c833981016040819052620000619162000202565b60016000558383838388806001600160a01b038116620000c75760405162461bcd60e51b815260206004820152601960248201527f4e6f476f7665726e616e63655a65726f41646472657373282900000000000000604482015260640160405180910390fd5b601780546001600160a01b03199081166001600160a01b0393841617909155601d80548216888416178155601b80548316888516179055601c80548316878516179055601e8054831686851690811782556000818152600e602052604090819020805490951690911790935590549054915163696a437b60e01b81529183166004830152909116915063696a437b9060240160206040518083038186803b1580156200017257600080fd5b505afa15801562000187573d6000803e3d6000fd5b505050506040513d601f19601f82011682018060405250810190620001ad919062000272565b6001600160a01b03919091166000908152600f60205260409020805460ff1916911515919091179055506200029d9650505050505050565b80516001600160a01b0381168114620001fd57600080fd5b919050565b600080600080600060a086880312156200021b57600080fd5b6200022686620001e5565b94506200023660208701620001e5565b93506200024660408701620001e5565b92506200025660608701620001e5565b91506200026660808701620001e5565b90509295509295909350565b6000602082840312156200028557600080fd5b815180151581146200029657600080fd5b9392505050565b61649f80620002ad6000396000f3fe608060405234801561001057600080fd5b50600436106103dd5760003560e01c8063034d4c61146103e257806307b435c2146104085780630c620bce146104335780630d6a1f87146104485780631101eb411461045b57806311466d721461047057806315006b8214610483578063160e1e31146104ae578063165e62e7146104c1578063168f92e7146104fe5780631b44555e146105295780631c5a9d9c146105495780631ef94b911461055c57806321040b011461057c578063238efcbc146105a7578063274a8db4146105af578063461411bc146105e257806351cff8d9146105ec57806352a4de29146105ff57806355ea6c4714610612578063575288bf14610625578063594a3a931461063857806359a2255e1461064b5780635aa6e6751461065e5780635ebe23f0146106715780635feeb7941461067a578063633fb68f1461068d57806364bb43ee1461069657806368a9f19c146106a9578063694798e6146106bc57806369fe0e2d146106e75780636ba42aaa146106fa5780636cf262bc1461070d5780636e2a9ca61461072057806372da828a1461073357806374a8f10314610746578063768b5d90146107595780637b40c913146107625780637c8fce2314610775578063878c723e1461077d5780638bb6dfa8146107a65780638cb22b76146107b95780638fe204dd146107dc57806390a4684e146107ef578063951dc22c14610802578063966abd001461080a57806398e90a0f1461081d5780639d5c33d814610846578063a214580914610859578063a39744b51461086c578063a515366a14610897578063a5d059ca146108aa578063a676f9ff146108bd578063a734f06e146108dd578063a7d2e784146108f8578063aac6aa9c14610901578063ab033ea914610914578063af320e8114610927578063b0103b1a1461093a578063b23922331461095d578063b440027f14610970578063b600702a1461099b578063b7e77340146109ae578063b87fcbff146109c1578063c5198abc146109e4578063c7ae40d0146109f7578063cb4be2bb14610a0a578063cb54694d14610a1d578063cd22af1b14610a30578063d55995fe14610a5b578063dd2080d614610a6e578063ddca3f4314610a81578063e326ac4314610a8a578063e74f823914610aaa578063ebbb619414610abd578063ec00cdfc14610ad0578063ec342ad014610ae3578063ec8ca64314610aec578063f0f346b914610b15578063f11a1d1a14610b28578063f136a09d14610b3b578063f25e311b14610b5b578063f39c38a014610b6e578063f75f9f7b14610b81578063f9d46cf214610b94578063fc253d2b14610ba7578063fe75bc4614610bb0575b600080fd5b6103f56103f0366004615bd6565b610bc3565b6040519081526020015b60405180910390f35b6103f5610416366004615c10565b601260209081526000928352604080842090915290825290205481565b61043b610cc8565b6040516103ff9190615f11565b6103f5610456366004615d79565b610cd9565b61046e610469366004615c94565b610ddf565b005b61046e61047e366004615d79565b610f2e565b6103f5610491366004615c10565b601060209081526000928352604080842090915290825290205481565b61046e6104bc366004615bd6565b6110b3565b6104d46104cf366004615bd6565b611217565b604080518251600690810b825260208085015190910b9082015291810151908201526060016103ff565b6103f561050c366004615c10565b600960209081526000928352604080842090915290825290205481565b6103f5610537366004615bd6565b60056020526000908152604090205481565b61046e610557366004615bd6565b6115dd565b601b5461056f906001600160a01b031681565b6040516103ff9190615e88565b6103f561058a366004615c10565b601360209081526000928352604080842090915290825290205481565b61046e6116e0565b6105d26105bd366004615bd6565b601a6020526000908152604090205460ff1681565b60405190151581526020016103ff565b6103f56201518081565b61046e6105fa366004615bd6565b611795565b61046e61060d366004615c94565b61197b565b61046e610620366004615bd6565b611bd5565b61046e610633366004615c94565b611c87565b61046e610646366004615c10565b611f6c565b61046e610659366004615bd6565b612010565b60175461056f906001600160a01b031681565b6103f5601f5481565b61046e610688366004615bd6565b6120e9565b6103f560215481565b61046e6106a4366004615bd6565b61238c565b61046e6106b7366004615bd6565b612438565b6103f56106ca366004615c10565b602860209081526000928352604080842090915290825290205481565b61046e6106f5366004615e3a565b612512565b6105d2610708366004615bd6565b612571565b6103f561071b366004615bd6565b6125b0565b61046e61072e366004615c94565b6126e6565b61046e610741366004615bd6565b612833565b61046e610754366004615bd6565b6128ce565b6103f560225481565b601e5461056f906001600160a01b031681565b61043b6129b3565b61056f61078b366004615bd6565b6001602052600090815260409020546001600160a01b031681565b6103f56107b4366004615bd6565b6129bf565b6105d26107c7366004615bd6565b60146020526000908152604090205460ff1681565b61046e6107ea366004615e3a565b612a97565b61046e6107fd366004615c10565b612af4565b61043b612c0b565b61046e610818366004615da5565b612c17565b61056f61082b366004615bd6565b6002602052600090815260409020546001600160a01b031681565b61046e610854366004615bd6565b612d2b565b61046e610867366004615c49565b612e06565b6103f561087a366004615c10565b600860209081526000928352604080842090915290825290205481565b61046e6108a5366004615d79565b612fe1565b61046e6108b8366004615d79565b613260565b6103f56108cb366004615bd6565b60296020526000908152604090205481565b61056f73eeeeeeeeeeeeeeeeeeeeeeeeeeeeeeeeeeeeeeee81565b6103f560205481565b61046e61090f366004615bd6565b613328565b61046e610922366004615bd6565b613400565b61046e610935366004615c10565b613475565b6105d2610948366004615bd6565b60076020526000908152604090205460ff1681565b61046e61096b366004615e3a565b613943565b6103f561097e366004615c10565b602560209081526000928352604080842090915290825290205481565b61046e6109a9366004615bd6565b6139a2565b61046e6109bc366004615e3a565b613bef565b6105d26109cf366004615bd6565b60196020526000908152604090205460ff1681565b61046e6109f2366004615bd6565b613c4e565b601c5461056f906001600160a01b031681565b61046e610a18366004615bd6565b613d58565b61046e610a2b366004615e3a565b613df3565b6103f5610a3e366004615c10565b601160209081526000928352604080842090915290825290205481565b61046e610a69366004615cd5565b613e99565b61046e610a7c366004615c94565b614126565b6103f560245481565b6103f5610a98366004615bd6565b60066020526000908152604090205481565b61046e610ab8366004615c94565b614297565b61046e610acb366004615e3a565b614346565b61046e610ade366004615bd6565b6143a5565b6103f561271081565b61056f610afa366004615bd6565b602c602052600090815260409020546001600160a01b031681565b61046e610b23366004615bd6565b614440565b601d5461056f906001600160a01b031681565b6103f5610b49366004615bd6565b602a6020526000908152604090205481565b61046e610b69366004615c94565b614519565b60185461056f906001600160a01b031681565b61046e610b8f366004615bd6565b6147ab565b6105d2610ba2366004615d28565b614885565b6103f560235481565b61046e610bbe366004615d79565b61494d565b600080610bcf836125b0565b90506000610be960225442610be491906162e3565b614a34565b6001600160a01b0385166000908152602960205260409020541115610c8d576022546001600160a01b038516600090815260296020526040902054610c2e90426162e3565b10610c6a576022546001600160a01b038516600090815260296020526040902054610c599190616248565b610c6390426162e3565b9050610ca3565b6001600160a01b038416600090815260296020526040902054610c6390426162e3565b610c9642614a34565b610ca090426162e3565b90505b610cad8183614a4e565b610cb6856129bf565b610cc09190616248565b949350505050565b6060610cd46026614a78565b905090565b6000610ce6602684614a8c565b15610dd9576000610cf684611217565b90508060400151600014610dd7576001600160a01b0384166000908152600f602052604081205460ff16610d37578160200151610d3290616355565b610d3d565b81602001515b601d5460225460405163a0d2710760e01b8152929350610dce926001600160a01b039092169163a0d2710791610d79918991879160040161620b565b60206040518083038186803b158015610d9157600080fd5b505afa158015610da5573d6000803e3d6000fd5b505050506040513d601f19601f82011682018060405250810190610dc99190615e53565b614aa1565b92505050610dd9565b505b92915050565b6001600160a01b038381166000908152600160205260409020548491163314610e235760405162461bcd60e51b8152600401610e1a90616179565b60405180910390fd5b602054610e309042616248565b6001600160a01b03808616600081815260126020908152604080832094891680845294825280832095909555918152601382528381209281529190529081208054849290610e7f908490616248565b90915550610e909050848484614ab2565b6001600160a01b038085166000908152602860209081526040808320938716835292905220548015801590610ecf5750602154610ecd8286614d17565b105b15610eec5760405162461bcd60e51b8152600401610e1a906161a1565b836001600160a01b0316856001600160a01b031660008051602061644a83398151915285604051610f1f91815260200190565b60405180910390a35050505050565b3360008181526007602052604090205460ff1615610f5e5760405162461bcd60e51b8152600401610e1a9061612b565b610f69601582614a8c565b610f855760405162461bcd60e51b8152600401610e1a90615f91565b610f8e81614e35565b15610fe9576001600160a01b038116600081815260296020908152604080832054600a835281842054600b9093529281902054905160008051602061640a83398151915293610fe09390929091616232565b60405180910390a25b6001600160a01b0381166000908152600a6020526040902054821115611068576110128161500b565b6001600160a01b038116600081815260296020908152604080832054600a835281842054600b9093529281902054905160008051602061640a8339815191529361105f9390929091616232565b60405180910390a25b611073818484615099565b601b546001600160a01b038085169183821691166000805160206163ea833981519152855a6040516110a6929190616224565b60405180910390a4505050565b6017546001600160a01b031633146110dd5760405162461bcd60e51b8152600401610e1a9061605f565b6001600160a01b0381166111035760405162461bcd60e51b8152600401610e1a90616152565b601e80546001600160a01b038084166001600160a01b031992831681179093556000838152600e6020526040908190208054909316909317909155601d54915163696a437b60e01b815291169063696a437b90611164908490600401615e88565b60206040518083038186803b15801561117c57600080fd5b505afa158015611190573d6000803e3d6000fd5b505050506040513d601f19601f820116820180604052508101906111b49190615ddc565b6001600160a01b0382166000908152600f602052604090819020805460ff191692151592909217909155517f9bb1515b0fc2645a3f011162460a22fdd512e0bca265e7dc9ba6bceae8930afa9061120c908390615e88565b60405180910390a150565b604080516060810182526000808252602082018190529181019190915261123d42614a34565b6001600160a01b0383166000908152602b602052604090206001015414156112b357506001600160a01b03166000908152602b602090815260409182902082516060810184528154600681810b810b810b8352600160381b909104810b810b900b92810192909252600101549181019190915290565b6000806112c760225442610be491906162e3565b6001600160a01b0385166000908152602b602052604090206001015490915081141561142b57604080516001808252818301909252600091602080830190803683375050506001600160a01b0386166000908152602b602052604090205490915060060b61133442614a34565b61133e90426162e3565b82600081518110611351576113516163be565b63ffffffff909216602092830291909101820152601d546001600160a01b038881166000908152600e90935260409283902054925163dc686d9160e01b81529181169263dc686d91926113ad9291909116908690600401615e9c565b60606040518083038186803b1580156113c557600080fd5b505afa1580156113d9573d6000803e3d6000fd5b505050506040513d601f19601f820116820180604052508101906113fd9190615df7565b600692830b90920b80885291955061141791839150616293565b600690810b900b6020860152506115b49050565b6001600160a01b0384166000908152602b60205260409020600101548111156115b45760408051600280825260608201835260009260208301908036833701905050905061147842614a34565b61148290426162e3565b81600081518110611495576114956163be565b602002602001019063ffffffff16908163ffffffff16815250506022546114bb42614a34565b6114c590426162e3565b6114cf9190616248565b816001815181106114e2576114e26163be565b63ffffffff909216602092830291909101820152601d546001600160a01b038781166000908152600e909352604080842054905163dc686d9160e01b81529282169263dc686d919261153a9216908690600401615e9c565b60606040518083038186803b15801561155257600080fd5b505afa158015611566573d6000803e3d6000fd5b505050506040513d601f19601f8201168201806040525081019061158a9190615df7565b600692830b90920b80885291955091506115a5908290616293565b600690810b900b602086015250505b81156115cd576115c342614a34565b60408401526115d5565b600060408401525b50505b919050565b3360009081526007602052604090205460ff161561160d5760405162461bcd60e51b8152600401610e1a906160e0565b3360009081526011602090815260408083206001600160a01b03851684529091529020546116715760405162461bcd60e51b8152602060048201526011602482015270426f6e6473556e6578697374656e74282960781b6044820152606401610e1a565b3360009081526011602090815260408083206001600160a01b038516845290915290205442116116d35760405162461bcd60e51b815260206004820152600d60248201526c426f6e64734c6f636b6564282960981b6044820152606401610e1a565b6116dd338261517c565b50565b6018546001600160a01b031633146117345760405162461bcd60e51b81526020600482015260176024820152764f6e6c7950656e64696e67476f7665726e616e6365282960481b6044820152606401610e1a565b60188054601780546001600160a01b0383166001600160a01b031991821681179092559091169091556040517fc73be659241aade67e9a059bcf21494955018b213dbd1179054ccf928b13f3b69161178b91615e88565b60405180910390a1565b600260005414156117b85760405162461bcd60e51b8152600401610e1a906161d4565b600260009081553381526012602090815260408083206001600160a01b03851684529091529020546117fc5760405162461bcd60e51b8152600401610e1a90616089565b3360009081526012602090815260408083206001600160a01b0385168452909152902054421161183e5760405162461bcd60e51b8152600401610e1a90615fba565b3360009081526007602052604090205460ff161561186e5760405162461bcd60e51b8152600401610e1a906160e0565b3360009081526013602090815260408083206001600160a01b0385811680865291909352922054601b5490929116141561190157601c5460405163140e25ad60e31b8152600481018390526001600160a01b039091169063a0712d6890602401600060405180830381600087803b1580156118e857600080fd5b505af11580156118fc573d6000803e3d6000fd5b505050505b3360008181526013602090815260408083206001600160a01b0387168085529252822091909155611932918361523d565b6040518181526001600160a01b0383169033907f2717ead6b9200dd235aad468c9809ea400fe33ac69b5bfaa6d3e90fc922b63989060200160405180910390a350506001600055565b6002600054141561199e5760405162461bcd60e51b8152600401610e1a906161d4565b60026000556119ae602683614a8c565b6119f65760405162461bcd60e51b81526020600482015260196024820152784c697175696469747950616972556e617070726f766564282960381b6044820152606401610e1a565b611a01601584614a8c565b611a1d5760405162461bcd60e51b8152600401610e1a906160b6565b6001600160a01b0383166000908152600d60205260409020611a3f9083615298565b50611a49836152ad565b6021546001600160a01b03808516600090815260286020908152604080832093871683529290522054611a8790611a81908490616248565b84614d17565b1015611aa55760405162461bcd60e51b8152600401610e1a906161a1565b6001600160a01b038316600081815260296020908152604080832054600a835281842054600b9093529281902054905160008051602061640a83398151915293611af29390929091616232565b60405180910390a2611b0f6001600160a01b03831633308461530b565b6001600160a01b03808416600090815260286020908152604080832093861683529290529081208054839290611b46908490616248565b90915550611b599050610dc98284614d17565b6001600160a01b0384166000908152600b602052604081208054909190611b81908490616248565b909155505060405181815233906001600160a01b0384811691908616907f4e186bc75a2220191b826baff3ee63c3e970e94e58a9007ff94c9a7b8e6ebb3f9060200160405180910390a45050600160005550565b336000908152601a602052604090205460ff16611c045760405162461bcd60e51b8152600401610e1a90616037565b6001600160a01b03811660009081526007602052604090205460ff16611c3c5760405162461bcd60e51b8152600401610e1a90616010565b6001600160a01b038116600081815260076020526040808220805460ff19169055513392917fe02b2375d8fb4aef3e5bc5d53bffcf70b6f185c5c93e69dcbe8b6cfc58e837e291a350565b60026000541415611caa5760405162461bcd60e51b8152600401610e1a906161d4565b6002600055611cba601584614a8c565b611cd65760405162461bcd60e51b8152600401610e1a906160b6565b601b546001600160a01b0383811691161415611d275760405162461bcd60e51b815260206004820152601060248201526f546f6b656e556e616c6c6f776564282960801b6044820152606401610e1a565b6040516370a0823160e01b81526000906001600160a01b038416906370a0823190611d56903090600401615e88565b60206040518083038186803b158015611d6e57600080fd5b505afa158015611d82573d6000803e3d6000fd5b505050506040513d601f19601f82011682018060405250810190611da69190615e53565b9050611dbd6001600160a01b03841633308561530b565b600081846001600160a01b03166370a08231306040518263ffffffff1660e01b8152600401611dec9190615e88565b60206040518083038186803b158015611e0457600080fd5b505afa158015611e18573d6000803e3d6000fd5b505050506040513d601f19601f82011682018060405250810190611e3c9190615e53565b611e4691906162e3565b9050600061271060245483611e5b9190616274565b611e659190616260565b9050611e7181836162e3565b6001600160a01b038088166000908152600960209081526040808320938a1683529290529081208054909190611ea8908490616248565b90915550506001600160a01b0380871660009081526025602090815260408083208985168085529252909120429055601754611ee592168361523d565b6001600160a01b0386166000908152600c60205260409020611f079086615298565b50336001600160a01b0316856001600160a01b0316876001600160a01b03167fec1a37d4a331a5059081e0fb5da1735e7890900cd215a4fb1e9f2779fd7b83eb85604051611f5791815260200190565b60405180910390a45050600160005550505050565b6001600160a01b038281166000908152600160205260409020548391163314611fa75760405162461bcd60e51b8152600401610e1a90616179565b6001600160a01b03838116600081815260026020908152604080832080546001600160a01b031916888716908117909155600190925280832054905191941692917fa8bad3f0b781e1d954af9945167d5f80bfe5e57930f17c93843187c77557a6b891a4505050565b6001600160a01b0381811660009081526002602052604090205482911633146120735760405162461bcd60e51b81526020600482015260156024820152744f6e6c7950656e64696e674a6f624f776e6572282960581b6044820152606401610e1a565b6001600160a01b03828116600081815260016020908152604080832080546002909352818420805487166001600160a01b031980861691909117909255805490911690555193169283929133917fcf30c54296d5eee76168b564c59c50578d49c271733a470f32707c8cfbc88a8b9190a4505050565b3360008181526007602052604090205460ff16156121195760405162461bcd60e51b8152600401610e1a9061612b565b612124601582614a8c565b6121405760405162461bcd60e51b8152600401610e1a90615f91565b61214981614e35565b156121a4576001600160a01b038116600081815260296020908152604080832054600a835281842054600b9093529281902054905160008051602061640a8339815191529361219b9390929091616232565b60405180910390a25b60005a601d546001600160a01b038581166000908152600860209081526040808320601b548516845290915280822054905163516c332360e01b815260048101919091529394509291169063516c33239060240160206040518083038186803b15801561221057600080fd5b505afa158015612224573d6000803e3d6000fd5b505050506040513d601f19601f820116820180604052508101906122489190615e53565b905060006127108261227285602e5461226191906162e3565b601e546001600160a01b0316614d17565b61227c9190616274565b6122869190616260565b6001600160a01b0385166000908152600a6020526040902054909150811115612308576122b28461500b565b6001600160a01b038416600081815260296020908152604080832054600a835281842054600b9093529281902054905160008051602061640a833981519152936122ff9390929091616232565b60405180910390a25b60005a602e5461231891906162e3565b905083602e5461232891906162e3565b6123328383616274565b61233c9190616260565b9150612349858784615099565b601b546001600160a01b038088169187821691166000805160206163ea833981519152855a60405161237c929190616224565b60405180910390a4505050505050565b6017546001600160a01b031633146123b65760405162461bcd60e51b8152600401610e1a9061605f565b6123c1602682615349565b6124095760405162461bcd60e51b81526020600482015260196024820152784c697175696469747950616972556e6578697374656e74282960381b6044820152606401610e1a565b7f51199d699bdfd516fa88dd0d2f8487c40c147b4867acaa23adc8d4df6b098e568160405161120c9190615e88565b6017546001600160a01b031633146124625760405162461bcd60e51b8152600401610e1a9061605f565b6001600160a01b03811660009081526019602052604090205460ff16156124bf5760405162461bcd60e51b8152602060048201526011602482015270536c61736865724578697374656e74282960781b6044820152606401610e1a565b6001600160a01b03811660009081526019602052604090819020805460ff19166001179055517f049ccb28ab796d3225573a065712f6e7754487ced56056cda8889c337511807b9061120c908390615e88565b6017546001600160a01b0316331461253c5760405162461bcd60e51b8152600401610e1a9061605f565b60248190556040518181527f4c10ca068ff7002cf5da78f2f697d1e91f6f0ac27f7344b28e8ef25263f87e5d9060200161120c565b60005a602e55612582600383614a8c565b156115d85760008051602061642a8339815191525a60405190815260200160405180910390a1506001919050565b6000805b6001600160a01b0383166000908152600d602052604090206125d59061535e565b8110156126e0576001600160a01b0383166000908152600d602052604081206125fe9083615368565b905061260b602682614a8c565b156126cd57600061261b82611217565b905080604001516000146126cb576001600160a01b0382166000908152600f602052604081205460ff1661265c57816020015161265790616355565b612662565b81602001515b601d546001600160a01b03888116600090815260286020908152604080832089851684529091529081902054602254915163a0d2710760e01b81529495506126bd94929093169263a0d2710792610d7992879160040161620b565b6126c79086616248565b9450505b505b50806126d881616326565b9150506125b4565b50919050565b3360009081526019602052604090205460ff166127155760405162461bcd60e51b8152600401610e1a90616104565b6001600160a01b03831660009081526007602052604090205460ff1661274d5760405162461bcd60e51b8152600401610e1a90616010565b612758838383614ab2565b60175460405163a9059cbb60e01b81526001600160a01b038481169263a9059cbb9261278c92909116908590600401615ef8565b602060405180830381600087803b1580156127a657600080fd5b505af19250505080156127d6575060408051601f3d908101601f191682019092526127d391810190615ddc565b60015b6127df576127e1565b505b336001600160a01b0316836001600160a01b03167f6e10247c3c094d220ee99436c164b7f38d63b335a20ed817cbefaee4bb02d20e8484604051612826929190615ef8565b60405180910390a3505050565b6017546001600160a01b0316331461285d5760405162461bcd60e51b8152600401610e1a9061605f565b6001600160a01b0381166128835760405162461bcd60e51b8152600401610e1a90616152565b601d80546001600160a01b0319166001600160a01b0383161790556040517f71973fd672e51deb8f739b1f7e1eab991936645acd6f83e2bde6eeeaff5490b09061120c908390615e88565b3360009081526019602052604090205460ff166128fd5760405162461bcd60e51b8152600401610e1a90616104565b6001600160a01b03811660009081526007602052604090205460ff166129355760405162461bcd60e51b8152600401610e1a90616010565b612940600382615349565b50601b546001600160a01b03808316600090815260086020908152604080832093909416808352929052919091205461297a918391615374565b60405133906001600160a01b038316907f038a17b9b553c0c3fc2ed14b957a5d8420a1666fd2efe5c1b3fe5f23eea61bb390600090a350565b6060610cd46015614a78565b6000806129cb836125b0565b90506129de60225442610be491906162e3565b6001600160a01b0384166000908152602960205260409020541115610dd9576022546001600160a01b038416600090815260296020526040902054612a2390426162e3565b10612a30578091506126e0565b60008111612a56576001600160a01b0383166000908152600a6020526040902054612a90565b6001600160a01b0383166000908152600b6020908152604080832054600a90925290912054612a86908390616274565b612a909190616260565b91506126e0565b6017546001600160a01b03163314612ac15760405162461bcd60e51b8152600401610e1a9061605f565b60208181556040518281527fc8d443472c9783cc36f8f5f5091f08ce9f37fc2f9e6d79cf1d9aaf40a433fee2910161120c565b6001600160a01b038281166000908152600160205260409020548391163314612b2f5760405162461bcd60e51b8152600401610e1a90616179565b816001600160a01b0316836001600160a01b03161415612b8c5760405162461bcd60e51b81526020600482015260186024820152774a6f624d6967726174696f6e496d706f737369626c65282960401b6044820152606401610e1a565b6001600160a01b038381166000818152602c6020908152604080832080546001600160a01b0319169588169586179055602d825280832094835293905282902042905590517fff0456758201108de53c0ff04c69988d4678ff455b2ce6f733328cf85722c04c90612bfe908590615e88565b60405180910390a2505050565b6060610cd46003614a78565b6017546001600160a01b03163314612c415760405162461bcd60e51b8152600401610e1a9061605f565b6001600160a01b038116612c675760405162461bcd60e51b8152600401610e1a90616152565b6001600160a01b03831673eeeeeeeeeeeeeeeeeeeeeeeeeeeeeeeeeeeeeeee1415612cc8576040516001600160a01b0382169083156108fc029084906000818181858888f19350505050158015612cc2573d6000803e3d6000fd5b50612cdc565b612cdc6001600160a01b038416828461523d565b604080516001600160a01b0385811682526020820185905283168183015290517f9a3055ded8c8b5f21bbf4946c5afab6e1fa8b3f057922658e5e1ade125fb0b1e9181900360600190a1505050565b6017546001600160a01b03163314612d555760405162461bcd60e51b8152600401610e1a9061605f565b6001600160a01b0381166000908152601a602052604090205460ff1615612db35760405162461bcd60e51b815260206004820152601260248201527144697370757465724578697374656e74282960701b6044820152606401610e1a565b6001600160a01b0381166000908152601a602052604090819020805460ff19166001179055517f8addc69f897ecca0e41d70ed4ff9d75a9148a615a0fbda8597e53aea2684302f9061120c908390615e88565b6001600160a01b038381166000908152600160205260409020548491163314612e415760405162461bcd60e51b8152600401610e1a90616179565b6001600160a01b038216612e675760405162461bcd60e51b8152600401610e1a90616152565b6001600160a01b03808516600090815260126020908152604080832093871683529290522054612ea95760405162461bcd60e51b8152600401610e1a90616089565b6001600160a01b038085166000908152601260209081526040808320938716835292905220544211612eed5760405162461bcd60e51b8152600401610e1a90615fba565b6001600160a01b03841660009081526007602052604090205460ff1615612f265760405162461bcd60e51b8152600401610e1a906160e0565b6001600160a01b0380851660009081526013602090815260408083209387168084529390915290205490612f5b90848361523d565b826001600160a01b0316846001600160a01b0316866001600160a01b03167ffdb7893bf11f50c621e59cc7f1cf540e94295cb27ca869ec7ed7618ca792886284604051612faa91815260200190565b60405180910390a45050506001600160a01b0391821660009081526013602090815260408083209390941682529190915290812055565b600260005414156130045760405162461bcd60e51b8152600401610e1a906161d4565b600260009081553381526007602052604090205460ff16156130385760405162461bcd60e51b8152600401610e1a906160e0565b613043601533614a8c565b156130805760405162461bcd60e51b815260206004820152600d60248201526c416c7265616479414a6f62282960981b6044820152606401610e1a565b601f5461308d9042616248565b3360009081526011602090815260408083206001600160a01b03871680855292528083209390935591516370a0823160e01b81529091906370a08231906130d8903090600401615e88565b60206040518083038186803b1580156130f057600080fd5b505afa158015613104573d6000803e3d6000fd5b505050506040513d601f19601f820116820180604052508101906131289190615e53565b905061313f6001600160a01b03841633308561530b565b6040516370a0823160e01b815281906001600160a01b038516906370a082319061316d903090600401615e88565b60206040518083038186803b15801561318557600080fd5b505afa158015613199573d6000803e3d6000fd5b505050506040513d601f19601f820116820180604052508101906131bd9190615e53565b6131c791906162e3565b336000908152601460209081526040808320805460ff19166001179055601082528083206001600160a01b0388168452909152812080549294508492909190613211908490616248565b90915550506040518281526001600160a01b0384169033907fa7e66869262026842e8d81f5e6806cdc8d846e27c824e2e22f4fe51442771b349060200160405180910390a35050600160005550565b60205461326d9042616248565b3360008181526012602090815260408083206001600160a01b038816808552908352818420959095559282526008815282822093825292909252812080548392906132b99084906162e3565b90915550503360009081526013602090815260408083206001600160a01b0386168452909152812080548392906132f1908490616248565b90915550506040518181526001600160a01b03831690339060008051602061644a8339815191529060200160405180910390a35050565b6017546001600160a01b031633146133525760405162461bcd60e51b8152600401610e1a9061605f565b6001600160a01b03811660009081526019602052604090205460ff166133b05760405162461bcd60e51b8152602060048201526013602482015272536c6173686572556e6578697374656e74282960681b6044820152606401610e1a565b6001600160a01b03811660009081526019602052604090819020805460ff19169055517f3ed8cbce8cab40e59282f1743e2b607effa08b5cbe0111bb4721134f2f80d0259061120c908390615e88565b6017546001600160a01b0316331461342a5760405162461bcd60e51b8152600401610e1a9061605f565b601880546001600160a01b0319166001600160a01b0383161790556040517fe987aaedf9d279143bdf1eee16cf1d0feb47742867d81083df8d6cd0a5ac857f9061120c908390615e88565b6001600160a01b0381811660009081526001602052604090205482911633146134b05760405162461bcd60e51b8152600401610e1a90616179565b6001600160a01b03831660009081526007602052604090205460ff16806134ef57506001600160a01b03821660009081526007602052604090205460ff165b1561350c5760405162461bcd60e51b8152600401610e1a9061612b565b6001600160a01b038381166000908152602c60205260409020548116908316146135745760405162461bcd60e51b81526020600482015260196024820152784a6f624d6967726174696f6e556e617661696c61626c65282960381b6044820152606401610e1a565b6001600160a01b038084166000908152602d60209081526040808320938616835292905220546135a690603c90616248565b4210156135ec5760405162461bcd60e51b81526020600482015260146024820152734a6f624d6967726174696f6e4c6f636b6564282960601b6044820152606401610e1a565b6135f5836152ad565b6135fe826152ad565b6001600160a01b0383166000908152600c6020526040812061361f9061535e565b1115613701576001600160a01b0383166000908152600c602052604081206136479082615368565b6001600160a01b03808616600090815260096020818152604080842085871680865290835281852054958a168552928252808420928452919052812080549394509192613695908490616248565b90915550506001600160a01b0380851660008181526009602090815260408083209486168352938152838220829055918152600c909152206136d79082615349565b506001600160a01b0383166000908152600c602052604090206136fa9082615298565b50506135fe565b6001600160a01b0383166000908152600d602052604081206137229061535e565b1115613804576001600160a01b0383166000908152600d6020526040812061374a9082615368565b6001600160a01b03808616600090815260286020818152604080842085871680865290835281852054958a168552928252808420928452919052812080549394509192613798908490616248565b90915550506001600160a01b038085166000908152602860209081526040808320858516845282528083208390559286168252600d9052206137da9082615298565b506001600160a01b0384166000908152600d602052604090206137fd9082615349565b5050613701565b6001600160a01b038084166000908152600b602052604080822054928516825281208054909190613836908490616248565b90915550506001600160a01b038084166000908152600b60209081526040808320839055600a9091528082205492851682528120805490919061387a908490616248565b90915550506001600160a01b0383166000908152600a6020908152604080832083905560299091528120556138b0601584615349565b506001600160a01b03808416600081815260016020908152604080832080546001600160a01b031990811690915560028352818420805482169055602d8352818420958816808552958352818420849055938352602c909152908190208054909216909155517f9b712b63e3fb1325fa042d3c238ce8144937875065900528ea1e4f3b00f379f290612bfe908690615e88565b6017546001600160a01b0316331461396d5760405162461bcd60e51b8152600401610e1a9061605f565b60238190556040518181527fbdcfd7b8482f31cff6a87c362d9e2e3887f4cdc2018c7c485d8e78a7b2fadb699060200161120c565b6017546001600160a01b031633146139cc5760405162461bcd60e51b8152600401610e1a9061605f565b6139d7602682615298565b613a1d5760405162461bcd60e51b81526020600482015260176024820152764c697175696469747950616972417070726f766564282960481b6044820152606401610e1a565b806001600160a01b03166316f0115b6040518163ffffffff1660e01b815260040160206040518083038186803b158015613a5657600080fd5b505afa158015613a6a573d6000803e3d6000fd5b505050506040513d601f19601f82011682018060405250810190613a8e9190615bf3565b6001600160a01b038281166000908152600e60205260409081902080546001600160a01b0319169383169384179055601d54905163696a437b60e01b815291169163696a437b91613ae29190600401615e88565b60206040518083038186803b158015613afa57600080fd5b505afa158015613b0e573d6000803e3d6000fd5b505050506040513d601f19601f82011682018060405250810190613b329190615ddc565b6001600160a01b0382166000908152600f60205260409020805460ff1916911515919091179055613b6281611217565b6001600160a01b0382166000908152602b60209081526040918290208351815492850151600690810b66ffffffffffffff908116600160381b026001600160701b03199095169290910b161791909117815591810151600190920191909155517fabfa8db4d238fa78bf4e15fcc91328dd35f3978f200e2857a56bb719732b7b0b9061120c908390615e88565b6017546001600160a01b03163314613c195760405162461bcd60e51b8152600401610e1a9061605f565b601f8190556040518181527fd319ef78d2b690bb773fcccc2d096306bac7c9222dd0bb6b300f461e4a376b439060200161120c565b613c59601582614a8c565b15613c9a5760405162461bcd60e51b81526020600482015260116024820152704a6f62416c72656164794164646564282960781b6044820152606401610e1a565b6001600160a01b03811660009081526014602052604090205460ff1615613cf65760405162461bcd60e51b815260206004820152601060248201526f416c7265616479414b6565706572282960801b6044820152606401610e1a565b613d01601582615298565b506001600160a01b03811660008181526001602052604080822080546001600160a01b03191633908117909155905190917fed3faef50715743626cd57de74281a2b17cdbfc11c0486feda541fb911e0293d91a350565b6017546001600160a01b03163314613d825760405162461bcd60e51b8152600401610e1a9061605f565b6001600160a01b038116613da85760405162461bcd60e51b8152600401610e1a90616152565b601c80546001600160a01b0319166001600160a01b0383161790556040517feb931b4b5a98d20a6b1e6693a7c59d8e337a06e2f1473bb776e19251db7ae2509061120c908390615e88565b6017546001600160a01b03163314613e1d5760405162461bcd60e51b8152600401610e1a9061605f565b62015180811015613e645760405162461bcd60e51b81526020600482015260116024820152704d696e526577617264506572696f64282960781b6044820152606401610e1a565b60228190556040518181527f54aafa56429e22230b52f1495588ffc632277d74f3a85ec755e13ac50c1584d99060200161120c565b60026000541415613ebc5760405162461bcd60e51b8152600401610e1a906161d4565b600260009081556001600160a01b03858116825260016020526040909120548591163314613efc5760405162461bcd60e51b8152600401610e1a90616179565b6001600160a01b03808616600090815260256020908152604080832093881683529290522054613f2e90603c90616248565b4211613f765760405162461bcd60e51b81526020600482015260176024820152764a6f62546f6b656e437265646974734c6f636b6564282960481b6044820152606401610e1a565b6001600160a01b03808616600090815260096020908152604080832093881683529290522054831115613feb5760405162461bcd60e51b815260206004820152601d60248201527f496e73756666696369656e744a6f62546f6b656e4372656469747328290000006044820152606401610e1a565b6001600160a01b03851660009081526007602052604090205460ff16156140245760405162461bcd60e51b8152600401610e1a9061612b565b6001600160a01b0380861660009081526009602090815260408083209388168352929052908120805485929061405b9084906162e3565b9091555061407590506001600160a01b038516838561523d565b6001600160a01b038086166000908152600960209081526040808320938816835292905220546140c3576001600160a01b0385166000908152600c602052604090206140c19085615349565b505b816001600160a01b0316846001600160a01b0316866001600160a01b03167f53e982dd9ec088d634c74c98fbbc161f808b4b6469a26c657120b9a31cb34bfe8660405161411291815260200190565b60405180910390a450506001600055505050565b3360008181526007602052604090205460ff16156141565760405162461bcd60e51b8152600401610e1a9061612b565b6001600160a01b03831660009081526007602052604090205460ff161561418f5760405162461bcd60e51b8152600401610e1a906160e0565b61419a601582614a8c565b6141b65760405162461bcd60e51b8152600401610e1a90615f91565b6001600160a01b038082166000908152600960209081526040808320938816835292905220548211156141fb5760405162461bcd60e51b8152600401610e1a90615fe3565b6001600160a01b038082166000908152600960209081526040808320938816835292905290812080548492906142329084906162e3565b9091555061424c90506001600160a01b038516848461523d565b826001600160a01b0316816001600160a01b0316856001600160a01b03166000805160206163ea833981519152855a604051614289929190616224565b60405180910390a450505050565b3360009081526019602052604090205460ff166142c65760405162461bcd60e51b8152600401610e1a90616104565b6001600160a01b03831660009081526007602052604090205460ff166142fe5760405162461bcd60e51b8152600401610e1a90616010565b614309838383615374565b60405181815233906001600160a01b038516907f10a73de7ab6e9023aa6e2bc23f7abf4dcef591487e7e55f44c00e34fe60d56db90602001612826565b6017546001600160a01b031633146143705760405162461bcd60e51b8152600401610e1a9061605f565b60218190556040518181527f24d51b415694a791b1c77df7817c075ac82b83ce611bcd8627d2e66cf37aa3e79060200161120c565b6017546001600160a01b031633146143cf5760405162461bcd60e51b8152600401610e1a9061605f565b6001600160a01b0381166143f55760405162461bcd60e51b8152600401610e1a90616152565b601b80546001600160a01b0319166001600160a01b0383161790556040517f1d1a3e7caf0717056e48dc8aefa54d806c7af86324fece4e5d49f8e1f01f84bf9061120c908390615e88565b6017546001600160a01b0316331461446a5760405162461bcd60e51b8152600401610e1a9061605f565b6001600160a01b0381166000908152601a602052604090205460ff166144c95760405162461bcd60e51b81526020600482015260146024820152734469737075746572556e6578697374656e74282960601b6044820152606401610e1a565b6001600160a01b0381166000908152601a602052604090819020805460ff19169055517f5e8bd21d0a98cb2caf33706e56139ff40ffbdca7ec5d9d412a0a2292496dc70e9061120c908390615e88565b3360009081526019602052604090205460ff166145485760405162461bcd60e51b8152600401610e1a90616104565b6001600160a01b03831660009081526007602052604090205460ff166145805760405162461bcd60e51b8152600401610e1a90616010565b6001600160a01b0383166000908152600c602052604090206145a29083614a8c565b6145e55760405162461bcd60e51b81526020600482015260146024820152734a6f62546f6b656e556e6578697374656e74282960601b6044820152606401610e1a565b6001600160a01b038084166000908152600960209081526040808320938616835292905220548111156146535760405162461bcd60e51b81526020600482015260166024820152754a6f62546f6b656e496e73756666696369656e74282960501b6044820152606401610e1a565b60175460405163a9059cbb60e01b81526001600160a01b038481169263a9059cbb9261468792909116908590600401615ef8565b602060405180830381600087803b1580156146a157600080fd5b505af19250505080156146d1575060408051601f3d908101601f191682019092526146ce91810190615ddc565b60015b6146da576146dc565b505b6001600160a01b038084166000908152600960209081526040808320938616835292905290812080548392906147139084906162e3565b90915550506001600160a01b03808416600090815260096020908152604080832093861683529290522054614766576001600160a01b0383166000908152600c602052604090206147649083615349565b505b336001600160a01b0316836001600160a01b03167f20262b97130b5cb8f80624eed2733df2b05db4a0789b4a3d0157e1d3183331048484604051612826929190615ef8565b336000908152601a602052604090205460ff166147da5760405162461bcd60e51b8152600401610e1a90616037565b6001600160a01b03811660009081526007602052604090205460ff16156148375760405162461bcd60e51b8152602060048201526011602482015270416c72656164794469737075746564282960781b6044820152606401610e1a565b6001600160a01b038116600081815260076020526040808220805460ff19166001179055513392917f070125a1c0f5202217aae14ec399abfaaa13c2fd98a91d43bd3a897dd4751e8091a350565b60005a602e55614896600387614a8c565b80156148c757506001600160a01b038087166000908152600860209081526040808320938916835292905220548411155b80156148eb57506001600160a01b0386166000908152600560205260409020548311155b801561491a57506001600160a01b038616600090815260066020526040902054829061491790426162e3565b10155b156149445760008051602061642a8339815191525a60405190815260200160405180910390a15060015b95945050505050565b6017546001600160a01b031633146149775760405162461bcd60e51b8152600401610e1a9061605f565b614982601583614a8c565b61499e5760405162461bcd60e51b8152600401610e1a906160b6565b6149a7826152ad565b6001600160a01b0382166000908152600a6020526040812080548392906149cf908490616248565b90915550506001600160a01b038216600081815260296020908152604080832054600a909252918290205491517f5abcf5031fdbd3badb9d1e09094208de329aee72730e87650f346584205d23d192614a289291616224565b60405180910390a25050565b600060225482614a449190616341565b610dd990836162e3565b60006022548310156126e057602254614a678385616274565b614a719190616260565b9050610dd9565b60606000614a858361547a565b9392505050565b6000614a85836001600160a01b0384166154d6565b6000610dd9826022546023546154ee565b60026000541415614ad55760405162461bcd60e51b8152600401610e1a906161d4565b600260009081556001600160a01b0384168152600d60205260409020614afb9083614a8c565b614b425760405162461bcd60e51b81526020600482015260186024820152774a6f624c6971756964697479556e6578697374656e74282960401b6044820152606401610e1a565b6001600160a01b03808416600090815260286020908152604080832093861683529290522054811115614bb45760405162461bcd60e51b815260206004820152601a6024820152794a6f624c6971756964697479496e73756666696369656e74282960301b6044820152606401610e1a565b614bbd8361559c565b6000614bcc610dc98385614d17565b6001600160a01b0385166000908152600b602052604090205490915015614c82576001600160a01b0384166000908152600b6020908152604080832054600a90925290912054614c1d908390616274565b614c279190616260565b6001600160a01b0385166000908152600a602052604081208054909190614c4f9084906162e3565b90915550506001600160a01b0384166000908152600b602052604081208054839290614c7c9084906162e3565b90915550505b6001600160a01b03808516600090815260286020908152604080832093871683529290529081208054849290614cb99084906162e3565b90915550506001600160a01b03808516600090815260286020908152604080832093871683529290522054614d0c576001600160a01b0384166000908152600d60205260409020614d0a9084615349565b505b505060016000555050565b6001600160a01b0381166000908152602b602052604081206001015415610dd9576001600160a01b0382166000908152600f602052604081205460ff16614d89576001600160a01b0383166000908152602b6020526040902054614d8490600160381b900460060b616355565b614dad565b6001600160a01b0383166000908152602b6020526040902054600160381b900460060b5b601d5460225460405163a0d2710760e01b81529293506001600160a01b039091169163a0d2710791614de5918891869160040161620b565b60206040518083038186803b158015614dfd57600080fd5b505afa158015614e11573d6000803e3d6000fd5b505050506040513d601f19601f82011682018060405250810190610cc09190615e53565b6000614e4042614a34565b6001600160a01b03831660009081526029602052604090205410156115d857614e7060225442610be491906162e3565b6001600160a01b03831660009081526029602052604090205411614ee657614e978261559c565b6001600160a01b0382166000908152600b6020908152604080832054600a90925290912055614ec542614a34565b6001600160a01b038316600090815260296020526040902055506001919050565b6022546001600160a01b038316600090815260296020526040902054614f0c90426162e3565b10614f6857614f1a8261559c565b6001600160a01b0382166000908152600b6020908152604080832054600a83528184205560225460299092528220805491929091614f59908490616248565b90915550600191506115d89050565b614f7142614a34565b6001600160a01b0383166000908152602a602052604090205410156115d8576001600160a01b0382166000908152600b6020526040902054614fb28361559c565b6001600160a01b0383166000908152600b6020908152604080832054600a909252909120548291614fe291616274565b614fec9190616260565b6001600160a01b0384166000908152600a602052604090205550919050565b6001600160a01b0381166000908152602960205260409020546150509061503290426162e3565b6001600160a01b0383166000908152600b6020526040902054614a4e565b6001600160a01b0382166000908152600a602052604081208054909190615078908490616248565b90915550506001600160a01b03166000908152602960205260409020429055565b6001600160a01b0383166000908152600a60205260409020548111156150d15760405162461bcd60e51b8152600401610e1a90615fe3565b6001600160a01b0383166000908152602a60209081526040808320429055600a909152812080548392906151069084906162e3565b90915550506001600160a01b038083166000908152600860209081526040808320601b5490941683529290529081208054839290615145908490616248565b90915550506001600160a01b03821660009081526005602052604081208054839290615172908490616248565b9091555050505050565b6001600160a01b0382166000908152600660205260409020546151b5576001600160a01b03821660009081526006602052604090204290555b6151c0600383615298565b506001600160a01b038281166000908152601060209081526040808320938516835292905290812080549190556151f88284836155c1565b816001600160a01b0316836001600160a01b03167f3673530133b6da67e9854f605b0cfa7bb9798cd33c18036dfc10d8da7c4d4a758360405161282691815260200190565b6152938363a9059cbb60e01b848460405160240161525c929190615ef8565b60408051601f198184030181529190526020810180516001600160e01b03166001600160e01b031990931692909217909152615676565b505050565b6000614a85836001600160a01b038416615748565b6152b681614e35565b506152c08161500b565b6001600160a01b0381166000908152600a6020908152604080832054600b909252909120546152ef9190615792565b6001600160a01b039091166000908152600a6020526040902055565b6040516001600160a01b03808516602483015283166044820152606481018290526153439085906323b872dd60e01b9060840161525c565b50505050565b6000614a85836001600160a01b0384166157a8565b6000610dd9825490565b6000614a85838361589b565b601b546001600160a01b038381169116146154435760175460405163a9059cbb60e01b81526001600160a01b038481169263a9059cbb926153bd92909116908590600401615ef8565b602060405180830381600087803b1580156153d757600080fd5b505af1925050508015615407575060408051601f3d908101601f1916820190925261540491810190615ddc565b60015b615441573d808015615435576040519150601f19603f3d011682016040523d82523d6000602084013e61543a565b606091505b5050615443565b505b6001600160a01b038084166000908152600860209081526040808320938616835292905290812080548392906151729084906162e3565b6060816000018054806020026020016040519081016040528092919081815260200182805480156154ca57602002820191906000526020600020905b8154815260200190600101908083116154b6575b50505050509050919050565b60009081526001919091016020526040902054151590565b600080806000198587098587029250828110838203039150508060001415615528576000841161551d57600080fd5b508290049050614a85565b80841161553457600080fd5b600084868809600260036001881981018916988990049182028318808302840302808302840302808302840302808302840302808302840302918202909203026000889003889004909101858311909403939093029303949094049190911702949350505050565b6155a5816158c5565b6001600160a01b039091166000908152600b6020526040902055565b6001600160a01b038083166000908152600860209081526040808320938716835292905290812080548392906155f8908490616248565b9091555050601b546001600160a01b038481169116141561529357601b54604051630852cd8d60e31b8152600481018390526001600160a01b03909116906342966c6890602401600060405180830381600087803b15801561565957600080fd5b505af115801561566d573d6000803e3d6000fd5b50505050505050565b60006156cb826040518060400160405280602081526020017f5361666545524332303a206c6f772d6c6576656c2063616c6c206661696c6564815250856001600160a01b0316615aa99092919063ffffffff16565b80519091501561529357808060200190518101906156e99190615ddc565b6152935760405162461bcd60e51b815260206004820152602a60248201527f5361666545524332303a204552433230206f7065726174696f6e20646964206e6044820152691bdd081cdd58d8d9595960b21b6064820152608401610e1a565b600061575483836154d6565b61578a57508154600181810184556000848152602080822090930184905584548482528286019093526040902091909155610dd9565b506000610dd9565b60008183106157a15781614a85565b5090919050565b600081815260018301602052604081205480156158915760006157cc6001836162e3565b85549091506000906157e0906001906162e3565b9050818114615845576000866000018281548110615800576158006163be565b9060005260206000200154905080876000018481548110615823576158236163be565b6000918252602080832090910192909255918252600188019052604090208390555b8554869080615856576158566163a8565b600190038181906000526020600020016000905590558560010160008681526020019081526020016000206000905560019350505050610dd9565b6000915050610dd9565b60008260000182815481106158b2576158b26163be565b9060005260206000200154905092915050565b60006158d042614a34565b601e546001600160a01b03166000908152602b60205260409020600101541461596757601e54615908906001600160a01b0316611217565b601e546001600160a01b03166000908152602b60209081526040918290208351815492850151600690810b66ffffffffffffff908116600160381b026001600160701b03199095169290910b1617919091178155910151600191909101555b60005b6001600160a01b0383166000908152600d6020526040902061598b9061535e565b8110156126e0576001600160a01b0383166000908152600d602052604081206159b49083615368565b90506159c1602682614a8c565b15615a96576159cf42614a34565b6001600160a01b0382166000908152602b602052604090206001015414615a55576159f981611217565b6001600160a01b0382166000908152602b60209081526040918290208351815492850151600690810b66ffffffffffffff908116600160381b026001600160701b03199095169290910b16179190911781559101516001909101555b6001600160a01b03808516600090815260286020908152604080832093851683529290522054615a8990610dc99083614d17565b615a939084616248565b92505b5080615aa181616326565b91505061596a565b6060610cc0848460008585843b615b025760405162461bcd60e51b815260206004820152601d60248201527f416464726573733a2063616c6c20746f206e6f6e2d636f6e74726163740000006044820152606401610e1a565b600080866001600160a01b03168587604051615b1e9190615e6c565b60006040518083038185875af1925050503d8060008114615b5b576040519150601f19603f3d011682016040523d82523d6000602084013e615b60565b606091505b5091509150615b70828286615b7b565b979650505050505050565b60608315615b8a575081614a85565b825115615b9a5782518084602001fd5b8160405162461bcd60e51b8152600401610e1a9190615f5e565b805180151581146115d857600080fd5b8051600681900b81146115d857600080fd5b600060208284031215615be857600080fd5b8135614a85816163d4565b600060208284031215615c0557600080fd5b8151614a85816163d4565b60008060408385031215615c2357600080fd5b8235615c2e816163d4565b91506020830135615c3e816163d4565b809150509250929050565b600080600060608486031215615c5e57600080fd5b8335615c69816163d4565b92506020840135615c79816163d4565b91506040840135615c89816163d4565b809150509250925092565b600080600060608486031215615ca957600080fd5b8335615cb4816163d4565b92506020840135615cc4816163d4565b929592945050506040919091013590565b60008060008060808587031215615ceb57600080fd5b8435615cf6816163d4565b93506020850135615d06816163d4565b9250604085013591506060850135615d1d816163d4565b939692955090935050565b600080600080600060a08688031215615d4057600080fd5b8535615d4b816163d4565b94506020860135615d5b816163d4565b94979496505050506040830135926060810135926080909101359150565b60008060408385031215615d8c57600080fd5b8235615d97816163d4565b946020939093013593505050565b600080600060608486031215615dba57600080fd5b8335615dc5816163d4565b9250602084013591506040840135615c89816163d4565b600060208284031215615dee57600080fd5b614a8582615bb4565b600080600060608486031215615e0c57600080fd5b615e1584615bc4565b9250615e2360208501615bc4565b9150615e3160408501615bb4565b90509250925092565b600060208284031215615e4c57600080fd5b5035919050565b600060208284031215615e6557600080fd5b5051919050565b60008251615e7e8184602087016162fa565b9190910192915050565b6001600160a01b0391909116815260200190565b6001600160a01b038316815260406020808301829052835191830182905260009184820191906060850190845b81811015615eeb57845163ffffffff1683529383019391830191600101615ec9565b5090979650505050505050565b6001600160a01b03929092168252602082015260400190565b6020808252825182820181905260009190848201906040850190845b81811015615f525783516001600160a01b031683529284019291840191600101615f2d565b50909695505050505050565b6020815260008251806020840152615f7d8160408501602087016162fa565b601f01601f19169190910160400192915050565b6020808252600f908201526e4a6f62556e617070726f766564282960881b604082015260600190565b6020808252600f908201526e556e626f6e64734c6f636b6564282960881b604082015260600190565b602080825260139082015272496e73756666696369656e7446756e6473282960681b604082015260600190565b6020808252600d908201526c4e6f744469737075746564282960981b604082015260600190565b6020808252600e908201526d4f6e6c794469737075746572282960901b604082015260600190565b60208082526010908201526f4f6e6c79476f7665726e616e6365282960801b604082015260600190565b602080825260139082015272556e626f6e6473556e6578697374656e74282960681b604082015260600190565b60208082526010908201526f4a6f62556e617661696c61626c65282960801b604082015260600190565b6020808252600a90820152694469737075746564282960b01b604082015260600190565b6020808252600d908201526c4f6e6c79536c6173686572282960981b604082015260600190565b6020808252600d908201526c4a6f624469737075746564282960981b604082015260600190565b6020808252600d908201526c5a65726f41646472657373282960981b604082015260600190565b6020808252600e908201526d4f6e6c794a6f624f776e6572282960901b604082015260600190565b6020808252601990820152784a6f624c69717569646974794c6573735468616e4d696e282960381b604082015260600190565b6020808252601f908201527f5265656e7472616e637947756172643a207265656e7472616e742063616c6c00604082015260600190565b92835260069190910b6020830152604082015260600190565b918252602082015260400190565b9283526020830191909152604082015260600190565b6000821982111561625b5761625b61637c565b500190565b60008261626f5761626f616392565b500490565b600081600019048311821515161561628e5761628e61637c565b500290565b60008160060b8360060b6000811281667fffffffffffff19018312811516156162be576162be61637c565b81667fffffffffffff0183138116156162d9576162d961637c565b5090039392505050565b6000828210156162f5576162f561637c565b500390565b60005b838110156163155781810151838201526020016162fd565b838111156153435750506000910152565b600060001982141561633a5761633a61637c565b5060010190565b60008261635057616350616392565b500690565b60008160060b667fffffffffffff198114156163735761637361637c565b60000392915050565b634e487b7160e01b600052601160045260246000fd5b634e487b7160e01b600052601260045260246000fd5b634e487b7160e01b600052603160045260246000fd5b634e487b7160e01b600052603260045260246000fd5b6001600160a01b03811681146116dd57600080fdfe46f2180879a7123a197cc3828c28955d70d661c70acbdc02450daf5f9a9c1cfaee3f0daba9837d1ab0597acf34328550e4832d02e24e467825e7c2dd318c38204851cad52e624c8f7a1d44c28a80db05988ba2451fc0db6b0ec338d8eca95afb9aaab310d247ad45aef26bbdefc4ebf20c728fdb84c92b95b2b05d21826940dea26469706673582212203f651bf07265ef307ee75bcc522c3d14dfe2c4fa8fd472ed54baebc33de3fc5264736f6c63430008070033",
  "linkReferences": {},
  "deployedLinkReferences": {}
}