{
  "_format": "hh-sol-artifact-1",
  "contractName": "Keep3r",
  "sourceName": "solidity/contracts/Keep3r.sol",
  "abi": [
    {
      "inputs": [
        {
          "internalType": "address",
          "name": "_governance",
          "type": "address"
        },
        {
          "internalType": "address",
          "name": "_keep3rHelper",
          "type": "address"
        },
        {
          "internalType": "address",
          "name": "_keep3rV1",
          "type": "address"
        },
        {
          "internalType": "address",
          "name": "_keep3rV1Proxy",
          "type": "address"
        },
        {
          "internalType": "address",
          "name": "_kp3rWethPool",
          "type": "address"
        }
      ],
      "stateMutability": "nonpayable",
      "type": "constructor"
    },
    {
      "inputs": [],
      "name": "AlreadyAJob",
      "type": "error"
    },
    {
      "inputs": [],
      "name": "AlreadyAKeeper",
      "type": "error"
    },
    {
      "inputs": [],
      "name": "AlreadyDisputed",
      "type": "error"
    },
    {
      "inputs": [],
      "name": "BondsLocked",
      "type": "error"
    },
    {
      "inputs": [],
      "name": "BondsUnexistent",
      "type": "error"
    },
    {
      "inputs": [],
      "name": "Disputed",
      "type": "error"
    },
    {
      "inputs": [],
      "name": "DisputerExistent",
      "type": "error"
    },
    {
      "inputs": [],
      "name": "DisputerUnexistent",
      "type": "error"
    },
    {
      "inputs": [],
      "name": "IllegalArguments",
      "type": "error"
    },
    {
      "inputs": [],
      "name": "InsufficientFunds",
      "type": "error"
    },
    {
      "inputs": [],
      "name": "InsufficientJobTokenCredits",
      "type": "error"
    },
    {
      "inputs": [],
      "name": "JobAlreadyAdded",
      "type": "error"
    },
    {
      "inputs": [],
      "name": "JobDisputed",
      "type": "error"
    },
    {
      "inputs": [],
      "name": "JobLiquidityInsufficient",
      "type": "error"
    },
    {
      "inputs": [],
      "name": "JobLiquidityLessThanMin",
      "type": "error"
    },
    {
      "inputs": [],
      "name": "JobLiquidityUnexistent",
      "type": "error"
    },
    {
      "inputs": [],
      "name": "JobMigrationImpossible",
      "type": "error"
    },
    {
      "inputs": [],
      "name": "JobMigrationLocked",
      "type": "error"
    },
    {
      "inputs": [],
      "name": "JobMigrationUnavailable",
      "type": "error"
    },
    {
      "inputs": [],
      "name": "JobTokenCreditsLocked",
      "type": "error"
    },
    {
      "inputs": [],
      "name": "JobTokenInsufficient",
      "type": "error"
    },
    {
      "inputs": [],
      "name": "JobTokenUnexistent",
      "type": "error"
    },
    {
      "inputs": [],
      "name": "JobUnapproved",
      "type": "error"
    },
    {
      "inputs": [],
      "name": "JobUnavailable",
      "type": "error"
    },
    {
      "inputs": [],
      "name": "JobUnexistent",
      "type": "error"
    },
    {
      "inputs": [],
      "name": "LiquidityPairApproved",
      "type": "error"
    },
    {
      "inputs": [],
      "name": "LiquidityPairUnapproved",
      "type": "error"
    },
    {
      "inputs": [],
      "name": "LiquidityPairUnexistent",
      "type": "error"
    },
    {
      "inputs": [],
      "name": "MinRewardPeriod",
      "type": "error"
    },
    {
      "inputs": [],
      "name": "NoGovernanceZeroAddress",
      "type": "error"
    },
    {
      "inputs": [],
      "name": "NotDisputed",
      "type": "error"
    },
    {
      "inputs": [],
      "name": "OnlyDisputerOrGovernance",
      "type": "error"
    },
    {
      "inputs": [],
      "name": "OnlyGovernance",
      "type": "error"
    },
    {
      "inputs": [],
      "name": "OnlyJobOwner",
      "type": "error"
    },
    {
      "inputs": [],
      "name": "OnlyPendingGovernance",
      "type": "error"
    },
    {
      "inputs": [],
      "name": "OnlyPendingJobOwner",
      "type": "error"
    },
    {
      "inputs": [],
      "name": "OnlySlasherOrGovernance",
      "type": "error"
    },
    {
      "inputs": [],
      "name": "SlasherExistent",
      "type": "error"
    },
    {
      "inputs": [],
      "name": "SlasherUnexistent",
      "type": "error"
    },
    {
      "inputs": [],
      "name": "TokenUnallowed",
      "type": "error"
    },
    {
      "inputs": [],
      "name": "UnbondsLocked",
      "type": "error"
    },
    {
      "inputs": [],
      "name": "UnbondsUnexistent",
      "type": "error"
    },
    {
      "inputs": [],
      "name": "ZeroAddress",
      "type": "error"
    },
    {
      "anonymous": false,
      "inputs": [
        {
          "indexed": true,
          "internalType": "address",
          "name": "_keeper",
          "type": "address"
        },
        {
          "indexed": true,
          "internalType": "address",
          "name": "_bond",
          "type": "address"
        },
        {
          "indexed": false,
          "internalType": "uint256",
          "name": "_amount",
          "type": "uint256"
        }
      ],
      "name": "Activation",
      "type": "event"
    },
    {
      "anonymous": false,
      "inputs": [
        {
          "indexed": false,
          "internalType": "uint256",
          "name": "_bondTime",
          "type": "uint256"
        }
      ],
      "name": "BondTimeChange",
      "type": "event"
    },
    {
      "anonymous": false,
      "inputs": [
        {
          "indexed": true,
          "internalType": "address",
          "name": "_keeper",
          "type": "address"
        },
        {
          "indexed": true,
          "internalType": "address",
          "name": "_bonding",
          "type": "address"
        },
        {
          "indexed": false,
          "internalType": "uint256",
          "name": "_amount",
          "type": "uint256"
        }
      ],
      "name": "Bonding",
      "type": "event"
    },
    {
      "anonymous": false,
      "inputs": [
        {
          "indexed": true,
          "internalType": "address",
          "name": "_jobOrKeeper",
          "type": "address"
        },
        {
          "indexed": true,
          "internalType": "address",
          "name": "_disputer",
          "type": "address"
        }
      ],
      "name": "Dispute",
      "type": "event"
    },
    {
      "anonymous": false,
      "inputs": [
        {
          "indexed": false,
          "internalType": "address",
          "name": "_disputer",
          "type": "address"
        }
      ],
      "name": "DisputerAdded",
      "type": "event"
    },
    {
      "anonymous": false,
      "inputs": [
        {
          "indexed": false,
          "internalType": "address",
          "name": "_disputer",
          "type": "address"
        }
      ],
      "name": "DisputerRemoved",
      "type": "event"
    },
    {
      "anonymous": false,
      "inputs": [
        {
          "indexed": false,
          "internalType": "address",
          "name": "_token",
          "type": "address"
        },
        {
          "indexed": false,
          "internalType": "uint256",
          "name": "_amount",
          "type": "uint256"
        },
        {
          "indexed": false,
          "internalType": "address",
          "name": "_to",
          "type": "address"
        }
      ],
      "name": "DustSent",
      "type": "event"
    },
    {
      "anonymous": false,
      "inputs": [
        {
          "indexed": false,
          "internalType": "uint256",
          "name": "_fee",
          "type": "uint256"
        }
      ],
      "name": "FeeChange",
      "type": "event"
    },
    {
      "anonymous": false,
      "inputs": [
        {
          "indexed": false,
          "internalType": "address",
          "name": "_pendingGovernance",
          "type": "address"
        }
      ],
      "name": "GovernanceProposal",
      "type": "event"
    },
    {
      "anonymous": false,
      "inputs": [
        {
          "indexed": false,
          "internalType": "address",
          "name": "_governance",
          "type": "address"
        }
      ],
      "name": "GovernanceSet",
      "type": "event"
    },
    {
      "anonymous": false,
      "inputs": [
        {
          "indexed": false,
          "internalType": "uint256",
          "name": "_inflationPeriod",
          "type": "uint256"
        }
      ],
      "name": "InflationPeriodChange",
      "type": "event"
    },
    {
      "anonymous": false,
      "inputs": [
        {
          "indexed": true,
          "internalType": "address",
          "name": "_job",
          "type": "address"
        },
        {
          "indexed": true,
          "internalType": "address",
          "name": "_jobOwner",
          "type": "address"
        }
      ],
      "name": "JobAddition",
      "type": "event"
    },
    {
      "anonymous": false,
      "inputs": [
        {
          "indexed": true,
          "internalType": "address",
          "name": "_fromJob",
          "type": "address"
        },
        {
          "indexed": false,
          "internalType": "address",
          "name": "_toJob",
          "type": "address"
        }
      ],
      "name": "JobMigrationRequested",
      "type": "event"
    },
    {
      "anonymous": false,
      "inputs": [
        {
          "indexed": false,
          "internalType": "address",
          "name": "_fromJob",
          "type": "address"
        },
        {
          "indexed": true,
          "internalType": "address",
          "name": "_toJob",
          "type": "address"
        }
      ],
      "name": "JobMigrationSuccessful",
      "type": "event"
    },
    {
      "anonymous": false,
      "inputs": [
        {
          "indexed": true,
          "internalType": "address",
          "name": "_job",
          "type": "address"
        },
        {
          "indexed": true,
          "internalType": "address",
          "name": "_previousOwner",
          "type": "address"
        },
        {
          "indexed": true,
          "internalType": "address",
          "name": "_newOwner",
          "type": "address"
        }
      ],
      "name": "JobOwnershipAssent",
      "type": "event"
    },
    {
      "anonymous": false,
      "inputs": [
        {
          "indexed": true,
          "internalType": "address",
          "name": "_job",
          "type": "address"
        },
        {
          "indexed": true,
          "internalType": "address",
          "name": "_owner",
          "type": "address"
        },
        {
          "indexed": true,
          "internalType": "address",
          "name": "_pendingOwner",
          "type": "address"
        }
      ],
      "name": "JobOwnershipChange",
      "type": "event"
    },
    {
      "anonymous": false,
      "inputs": [
        {
          "indexed": true,
          "internalType": "address",
          "name": "_job",
          "type": "address"
        }
      ],
      "name": "JobRemoval",
      "type": "event"
    },
    {
      "anonymous": false,
      "inputs": [
        {
          "indexed": true,
          "internalType": "address",
          "name": "_job",
          "type": "address"
        },
        {
          "indexed": false,
          "internalType": "address[]",
          "name": "_liquidities",
          "type": "address[]"
        },
        {
          "indexed": true,
          "internalType": "address",
          "name": "_slasher",
          "type": "address"
        },
        {
          "indexed": false,
          "internalType": "uint256[]",
          "name": "_amounts",
          "type": "uint256[]"
        }
      ],
      "name": "JobSlashLiquidity",
      "type": "event"
    },
    {
      "anonymous": false,
      "inputs": [
        {
          "indexed": true,
          "internalType": "address",
          "name": "_job",
          "type": "address"
        },
        {
          "indexed": false,
          "internalType": "address[]",
          "name": "_tokens",
          "type": "address[]"
        },
        {
          "indexed": true,
          "internalType": "address",
          "name": "_slasher",
          "type": "address"
        },
        {
          "indexed": false,
          "internalType": "uint256[]",
          "name": "_amounts",
          "type": "uint256[]"
        }
      ],
      "name": "JobSlashToken",
      "type": "event"
    },
    {
      "anonymous": false,
      "inputs": [
        {
          "indexed": false,
          "internalType": "address",
          "name": "_keep3rHelper",
          "type": "address"
        }
      ],
      "name": "Keep3rHelperChange",
      "type": "event"
    },
    {
      "anonymous": false,
      "inputs": [
        {
          "indexed": false,
          "internalType": "address",
          "name": "_keep3rV1",
          "type": "address"
        }
      ],
      "name": "Keep3rV1Change",
      "type": "event"
    },
    {
      "anonymous": false,
      "inputs": [
        {
          "indexed": false,
          "internalType": "address",
          "name": "_keep3rV1Proxy",
          "type": "address"
        }
      ],
      "name": "Keep3rV1ProxyChange",
      "type": "event"
    },
    {
      "anonymous": false,
      "inputs": [
        {
          "indexed": true,
          "internalType": "address",
          "name": "_keeper",
          "type": "address"
        },
        {
          "indexed": true,
          "internalType": "address",
          "name": "_slasher",
          "type": "address"
        }
      ],
      "name": "KeeperRevoke",
      "type": "event"
    },
    {
      "anonymous": false,
      "inputs": [
        {
          "indexed": true,
          "internalType": "address",
          "name": "_keeper",
          "type": "address"
        },
        {
          "indexed": true,
          "internalType": "address",
          "name": "_slasher",
          "type": "address"
        },
        {
          "indexed": false,
          "internalType": "uint256",
          "name": "_amount",
          "type": "uint256"
        }
      ],
      "name": "KeeperSlash",
      "type": "event"
    },
    {
      "anonymous": false,
      "inputs": [
        {
          "indexed": false,
          "internalType": "uint256",
          "name": "_gasLeft",
          "type": "uint256"
        }
      ],
      "name": "KeeperValidation",
      "type": "event"
    },
    {
      "anonymous": false,
      "inputs": [
        {
          "indexed": true,
          "internalType": "address",
          "name": "_credit",
          "type": "address"
        },
        {
          "indexed": true,
          "internalType": "address",
          "name": "_job",
          "type": "address"
        },
        {
          "indexed": true,
          "internalType": "address",
          "name": "_keeper",
          "type": "address"
        },
        {
          "indexed": false,
          "internalType": "uint256",
          "name": "_amount",
          "type": "uint256"
        },
        {
          "indexed": false,
          "internalType": "uint256",
          "name": "_gasLeft",
          "type": "uint256"
        }
      ],
      "name": "KeeperWork",
      "type": "event"
    },
    {
      "anonymous": false,
      "inputs": [
        {
          "indexed": false,
          "internalType": "address",
          "name": "_kp3rWethPool",
          "type": "address"
        }
      ],
      "name": "Kp3rWethPoolChange",
      "type": "event"
    },
    {
      "anonymous": false,
      "inputs": [
        {
          "indexed": true,
          "internalType": "address",
          "name": "_job",
          "type": "address"
        },
        {
          "indexed": true,
          "internalType": "address",
          "name": "_liquidity",
          "type": "address"
        },
        {
          "indexed": true,
          "internalType": "address",
          "name": "_provider",
          "type": "address"
        },
        {
          "indexed": false,
          "internalType": "uint256",
          "name": "_amount",
          "type": "uint256"
        }
      ],
      "name": "LiquidityAddition",
      "type": "event"
    },
    {
      "anonymous": false,
      "inputs": [
        {
          "indexed": false,
          "internalType": "address",
          "name": "_liquidity",
          "type": "address"
        }
      ],
      "name": "LiquidityApproval",
      "type": "event"
    },
    {
      "anonymous": false,
      "inputs": [
        {
          "indexed": true,
          "internalType": "address",
          "name": "_job",
          "type": "address"
        },
        {
          "indexed": false,
          "internalType": "uint256",
          "name": "_rewardedAt",
          "type": "uint256"
        },
        {
          "indexed": false,
          "internalType": "uint256",
          "name": "_currentCredits",
          "type": "uint256"
        },
        {
          "indexed": false,
          "internalType": "uint256",
          "name": "_periodCredits",
          "type": "uint256"
        }
      ],
      "name": "LiquidityCreditsReward",
      "type": "event"
    },
    {
      "anonymous": false,
      "inputs": [
        {
          "indexed": false,
          "internalType": "uint256",
          "name": "_liquidityMinimum",
          "type": "uint256"
        }
      ],
      "name": "LiquidityMinimumChange",
      "type": "event"
    },
    {
      "anonymous": false,
      "inputs": [
        {
          "indexed": false,
          "internalType": "address",
          "name": "_liquidity",
          "type": "address"
        }
      ],
      "name": "LiquidityRevocation",
      "type": "event"
    },
    {
      "anonymous": false,
      "inputs": [
        {
          "indexed": true,
          "internalType": "address",
          "name": "_job",
          "type": "address"
        },
        {
          "indexed": true,
          "internalType": "address",
          "name": "_liquidity",
          "type": "address"
        },
        {
          "indexed": true,
          "internalType": "address",
          "name": "_receiver",
          "type": "address"
        },
        {
          "indexed": false,
          "internalType": "uint256",
          "name": "_amount",
          "type": "uint256"
        }
      ],
      "name": "LiquidityWithdrawal",
      "type": "event"
    },
    {
      "anonymous": false,
      "inputs": [
        {
          "indexed": true,
          "internalType": "address",
          "name": "_jobOrKeeper",
          "type": "address"
        },
        {
          "indexed": true,
          "internalType": "address",
          "name": "_resolver",
          "type": "address"
        }
      ],
      "name": "Resolve",
      "type": "event"
    },
    {
      "anonymous": false,
      "inputs": [
        {
          "indexed": false,
          "internalType": "uint256",
          "name": "_rewardPeriodTime",
          "type": "uint256"
        }
      ],
      "name": "RewardPeriodTimeChange",
      "type": "event"
    },
    {
      "anonymous": false,
      "inputs": [
        {
          "indexed": false,
          "internalType": "address",
          "name": "_slasher",
          "type": "address"
        }
      ],
      "name": "SlasherAdded",
      "type": "event"
    },
    {
      "anonymous": false,
      "inputs": [
        {
          "indexed": false,
          "internalType": "address",
          "name": "_slasher",
          "type": "address"
        }
      ],
      "name": "SlasherRemoved",
      "type": "event"
    },
    {
      "anonymous": false,
      "inputs": [
        {
          "indexed": true,
          "internalType": "address",
          "name": "_job",
          "type": "address"
        },
        {
          "indexed": true,
          "internalType": "address",
          "name": "_token",
          "type": "address"
        },
        {
          "indexed": true,
          "internalType": "address",
          "name": "_provider",
          "type": "address"
        },
        {
          "indexed": false,
          "internalType": "uint256",
          "name": "_amount",
          "type": "uint256"
        }
      ],
      "name": "TokenCreditAddition",
      "type": "event"
    },
    {
      "anonymous": false,
      "inputs": [
        {
          "indexed": true,
          "internalType": "address",
          "name": "_job",
          "type": "address"
        },
        {
          "indexed": true,
          "internalType": "address",
          "name": "_token",
          "type": "address"
        },
        {
          "indexed": true,
          "internalType": "address",
          "name": "_receiver",
          "type": "address"
        },
        {
          "indexed": false,
          "internalType": "uint256",
          "name": "_amount",
          "type": "uint256"
        }
      ],
      "name": "TokenCreditWithdrawal",
      "type": "event"
    },
    {
      "anonymous": false,
      "inputs": [
        {
          "indexed": false,
          "internalType": "uint256",
          "name": "_unbondTime",
          "type": "uint256"
        }
      ],
      "name": "UnbondTimeChange",
      "type": "event"
    },
    {
      "anonymous": false,
      "inputs": [
        {
          "indexed": true,
          "internalType": "address",
          "name": "_keeperOrJob",
          "type": "address"
        },
        {
          "indexed": true,
          "internalType": "address",
          "name": "_unbonding",
          "type": "address"
        },
        {
          "indexed": false,
          "internalType": "uint256",
          "name": "_amount",
          "type": "uint256"
        }
      ],
      "name": "Unbonding",
      "type": "event"
    },
    {
      "anonymous": false,
      "inputs": [
        {
          "indexed": true,
          "internalType": "address",
          "name": "_keeper",
          "type": "address"
        },
        {
          "indexed": true,
          "internalType": "address",
          "name": "_bond",
          "type": "address"
        },
        {
          "indexed": false,
          "internalType": "uint256",
          "name": "_amount",
          "type": "uint256"
        }
      ],
      "name": "Withdrawal",
      "type": "event"
    },
    {
      "inputs": [],
      "name": "BASE",
      "outputs": [
        {
          "internalType": "uint256",
          "name": "",
          "type": "uint256"
        }
      ],
      "stateMutability": "view",
      "type": "function"
    },
    {
      "inputs": [],
      "name": "ETH_ADDRESS",
      "outputs": [
        {
          "internalType": "address",
          "name": "",
          "type": "address"
        }
      ],
      "stateMutability": "view",
      "type": "function"
    },
    {
      "inputs": [],
      "name": "MIN_REWARD_PERIOD_TIME",
      "outputs": [
        {
          "internalType": "uint256",
          "name": "",
          "type": "uint256"
        }
      ],
      "stateMutability": "view",
      "type": "function"
    },
    {
      "inputs": [],
      "name": "acceptGovernance",
      "outputs": [],
      "stateMutability": "nonpayable",
      "type": "function"
    },
    {
      "inputs": [
        {
          "internalType": "address",
          "name": "_fromJob",
          "type": "address"
        },
        {
          "internalType": "address",
          "name": "_toJob",
          "type": "address"
        }
      ],
      "name": "acceptJobMigration",
      "outputs": [],
      "stateMutability": "nonpayable",
      "type": "function"
    },
    {
      "inputs": [
        {
          "internalType": "address",
          "name": "_job",
          "type": "address"
        }
      ],
      "name": "acceptJobOwnership",
      "outputs": [],
      "stateMutability": "nonpayable",
      "type": "function"
    },
    {
      "inputs": [
        {
          "internalType": "address",
          "name": "_bonding",
          "type": "address"
        }
      ],
      "name": "activate",
      "outputs": [],
      "stateMutability": "nonpayable",
      "type": "function"
    },
    {
      "inputs": [
        {
          "internalType": "address",
          "name": "_disputer",
          "type": "address"
        }
      ],
      "name": "addDisputer",
      "outputs": [],
      "stateMutability": "nonpayable",
      "type": "function"
    },
    {
      "inputs": [
        {
          "internalType": "address",
          "name": "_job",
          "type": "address"
        }
      ],
      "name": "addJob",
      "outputs": [],
      "stateMutability": "nonpayable",
      "type": "function"
    },
    {
      "inputs": [
        {
          "internalType": "address",
          "name": "_job",
          "type": "address"
        },
        {
          "internalType": "address",
          "name": "_liquidity",
          "type": "address"
        },
        {
          "internalType": "uint256",
          "name": "_amount",
          "type": "uint256"
        }
      ],
      "name": "addLiquidityToJob",
      "outputs": [],
      "stateMutability": "nonpayable",
      "type": "function"
    },
    {
      "inputs": [
        {
          "internalType": "address",
          "name": "_slasher",
          "type": "address"
        }
      ],
      "name": "addSlasher",
      "outputs": [],
      "stateMutability": "nonpayable",
      "type": "function"
    },
    {
      "inputs": [
        {
          "internalType": "address",
          "name": "_job",
          "type": "address"
        },
        {
          "internalType": "address",
          "name": "_token",
          "type": "address"
        },
        {
          "internalType": "uint256",
          "name": "_amount",
          "type": "uint256"
        }
      ],
      "name": "addTokenCreditsToJob",
      "outputs": [],
      "stateMutability": "nonpayable",
      "type": "function"
    },
    {
      "inputs": [
        {
          "internalType": "address",
          "name": "_liquidity",
          "type": "address"
        }
      ],
      "name": "approveLiquidity",
      "outputs": [],
      "stateMutability": "nonpayable",
      "type": "function"
    },
    {
      "inputs": [],
      "name": "approvedLiquidities",
      "outputs": [
        {
          "internalType": "address[]",
          "name": "_list",
          "type": "address[]"
        }
      ],
      "stateMutability": "view",
      "type": "function"
    },
    {
      "inputs": [
        {
          "internalType": "address",
          "name": "_bonding",
          "type": "address"
        },
        {
          "internalType": "uint256",
          "name": "_amount",
          "type": "uint256"
        }
      ],
      "name": "bond",
      "outputs": [],
      "stateMutability": "nonpayable",
      "type": "function"
    },
    {
      "inputs": [],
      "name": "bondTime",
      "outputs": [
        {
          "internalType": "uint256",
          "name": "",
          "type": "uint256"
        }
      ],
      "stateMutability": "view",
      "type": "function"
    },
    {
      "inputs": [
        {
          "internalType": "address",
          "name": "_keeper",
          "type": "address"
        },
        {
          "internalType": "uint256",
          "name": "_payment",
          "type": "uint256"
        }
      ],
      "name": "bondedPayment",
      "outputs": [],
      "stateMutability": "nonpayable",
      "type": "function"
    },
    {
      "inputs": [
        {
          "internalType": "address",
          "name": "",
          "type": "address"
        },
        {
          "internalType": "address",
          "name": "",
          "type": "address"
        }
      ],
      "name": "bonds",
      "outputs": [
        {
          "internalType": "uint256",
          "name": "",
          "type": "uint256"
        }
      ],
      "stateMutability": "view",
      "type": "function"
    },
    {
      "inputs": [
        {
          "internalType": "address",
          "name": "",
          "type": "address"
        },
        {
          "internalType": "address",
          "name": "",
          "type": "address"
        }
      ],
      "name": "canActivateAfter",
      "outputs": [
        {
          "internalType": "uint256",
          "name": "",
          "type": "uint256"
        }
      ],
      "stateMutability": "view",
      "type": "function"
    },
    {
      "inputs": [
        {
          "internalType": "address",
          "name": "",
          "type": "address"
        },
        {
          "internalType": "address",
          "name": "",
          "type": "address"
        }
      ],
      "name": "canWithdrawAfter",
      "outputs": [
        {
          "internalType": "uint256",
          "name": "",
          "type": "uint256"
        }
      ],
      "stateMutability": "view",
      "type": "function"
    },
    {
      "inputs": [
        {
          "internalType": "address",
          "name": "_job",
          "type": "address"
        },
        {
          "internalType": "address",
          "name": "_newOwner",
          "type": "address"
        }
      ],
      "name": "changeJobOwnership",
      "outputs": [],
      "stateMutability": "nonpayable",
      "type": "function"
    },
    {
      "inputs": [
        {
          "internalType": "address",
          "name": "_token",
          "type": "address"
        },
        {
          "internalType": "address",
          "name": "_keeper",
          "type": "address"
        },
        {
          "internalType": "uint256",
          "name": "_amount",
          "type": "uint256"
        }
      ],
      "name": "directTokenPayment",
      "outputs": [],
      "stateMutability": "nonpayable",
      "type": "function"
    },
    {
      "inputs": [
        {
          "internalType": "address",
          "name": "_jobOrKeeper",
          "type": "address"
        }
      ],
      "name": "dispute",
      "outputs": [],
      "stateMutability": "nonpayable",
      "type": "function"
    },
    {
      "inputs": [
        {
          "internalType": "address",
          "name": "",
          "type": "address"
        }
      ],
      "name": "disputers",
      "outputs": [
        {
          "internalType": "bool",
          "name": "",
          "type": "bool"
        }
      ],
      "stateMutability": "view",
      "type": "function"
    },
    {
      "inputs": [
        {
          "internalType": "address",
          "name": "",
          "type": "address"
        }
      ],
      "name": "disputes",
      "outputs": [
        {
          "internalType": "bool",
          "name": "",
          "type": "bool"
        }
      ],
      "stateMutability": "view",
      "type": "function"
    },
    {
      "inputs": [],
      "name": "fee",
      "outputs": [
        {
          "internalType": "uint256",
          "name": "",
          "type": "uint256"
        }
      ],
      "stateMutability": "view",
      "type": "function"
    },
    {
      "inputs": [
        {
          "internalType": "address",
          "name": "",
          "type": "address"
        }
      ],
      "name": "firstSeen",
      "outputs": [
        {
          "internalType": "uint256",
          "name": "",
          "type": "uint256"
        }
      ],
      "stateMutability": "view",
      "type": "function"
    },
    {
      "inputs": [
        {
          "internalType": "address",
          "name": "_job",
          "type": "address"
        },
        {
          "internalType": "uint256",
          "name": "_amount",
          "type": "uint256"
        }
      ],
      "name": "forceLiquidityCreditsToJob",
      "outputs": [],
      "stateMutability": "nonpayable",
      "type": "function"
    },
    {
      "inputs": [],
      "name": "governance",
      "outputs": [
        {
          "internalType": "address",
          "name": "",
          "type": "address"
        }
      ],
      "stateMutability": "view",
      "type": "function"
    },
    {
      "inputs": [
        {
          "internalType": "address",
          "name": "",
          "type": "address"
        }
      ],
      "name": "hasBonded",
      "outputs": [
        {
          "internalType": "bool",
          "name": "",
          "type": "bool"
        }
      ],
      "stateMutability": "view",
      "type": "function"
    },
    {
      "inputs": [],
      "name": "inflationPeriod",
      "outputs": [
        {
          "internalType": "uint256",
          "name": "",
          "type": "uint256"
        }
      ],
      "stateMutability": "view",
      "type": "function"
    },
    {
      "inputs": [
        {
          "internalType": "address",
          "name": "_keeper",
          "type": "address"
        },
        {
          "internalType": "address",
          "name": "_bond",
          "type": "address"
        },
        {
          "internalType": "uint256",
          "name": "_minBond",
          "type": "uint256"
        },
        {
          "internalType": "uint256",
          "name": "_earned",
          "type": "uint256"
        },
        {
          "internalType": "uint256",
          "name": "_age",
          "type": "uint256"
        }
      ],
      "name": "isBondedKeeper",
      "outputs": [
        {
          "internalType": "bool",
          "name": "_isBondedKeeper",
          "type": "bool"
        }
      ],
      "stateMutability": "nonpayable",
      "type": "function"
    },
    {
      "inputs": [
        {
          "internalType": "address",
          "name": "_keeper",
          "type": "address"
        }
      ],
      "name": "isKeeper",
      "outputs": [
        {
          "internalType": "bool",
          "name": "_isKeeper",
          "type": "bool"
        }
      ],
      "stateMutability": "nonpayable",
      "type": "function"
    },
    {
      "inputs": [
        {
          "internalType": "address",
          "name": "_job",
          "type": "address"
        }
      ],
      "name": "jobLiquidityCredits",
      "outputs": [
        {
          "internalType": "uint256",
          "name": "_liquidityCredits",
          "type": "uint256"
        }
      ],
      "stateMutability": "view",
      "type": "function"
    },
    {
      "inputs": [
        {
          "internalType": "address",
          "name": "",
          "type": "address"
        }
      ],
      "name": "jobOwner",
      "outputs": [
        {
          "internalType": "address",
          "name": "",
          "type": "address"
        }
      ],
      "stateMutability": "view",
      "type": "function"
    },
    {
      "inputs": [
        {
          "internalType": "address",
          "name": "",
          "type": "address"
        }
      ],
      "name": "jobPendingOwner",
      "outputs": [
        {
          "internalType": "address",
          "name": "",
          "type": "address"
        }
      ],
      "stateMutability": "view",
      "type": "function"
    },
    {
      "inputs": [
        {
          "internalType": "address",
          "name": "_job",
          "type": "address"
        }
      ],
      "name": "jobPeriodCredits",
      "outputs": [
        {
          "internalType": "uint256",
          "name": "_periodCredits",
          "type": "uint256"
        }
      ],
      "stateMutability": "view",
      "type": "function"
    },
    {
      "inputs": [
        {
          "internalType": "address",
          "name": "",
          "type": "address"
        },
        {
          "internalType": "address",
          "name": "",
          "type": "address"
        }
      ],
      "name": "jobTokenCredits",
      "outputs": [
        {
          "internalType": "uint256",
          "name": "",
          "type": "uint256"
        }
      ],
      "stateMutability": "view",
      "type": "function"
    },
    {
      "inputs": [
        {
          "internalType": "address",
          "name": "",
          "type": "address"
        },
        {
          "internalType": "address",
          "name": "",
          "type": "address"
        }
      ],
      "name": "jobTokenCreditsAddedAt",
      "outputs": [
        {
          "internalType": "uint256",
          "name": "",
          "type": "uint256"
        }
      ],
      "stateMutability": "view",
      "type": "function"
    },
    {
      "inputs": [],
      "name": "jobs",
      "outputs": [
        {
          "internalType": "address[]",
          "name": "_list",
          "type": "address[]"
        }
      ],
      "stateMutability": "view",
      "type": "function"
    },
    {
      "inputs": [],
      "name": "keep3rHelper",
      "outputs": [
        {
          "internalType": "address",
          "name": "",
          "type": "address"
        }
      ],
      "stateMutability": "view",
      "type": "function"
    },
    {
      "inputs": [],
      "name": "keep3rV1",
      "outputs": [
        {
          "internalType": "address",
          "name": "",
          "type": "address"
        }
      ],
      "stateMutability": "view",
      "type": "function"
    },
    {
      "inputs": [],
      "name": "keep3rV1Proxy",
      "outputs": [
        {
          "internalType": "address",
          "name": "",
          "type": "address"
        }
      ],
      "stateMutability": "view",
      "type": "function"
    },
    {
      "inputs": [],
      "name": "keepers",
      "outputs": [
        {
          "internalType": "address[]",
          "name": "_list",
          "type": "address[]"
        }
      ],
      "stateMutability": "view",
      "type": "function"
    },
    {
      "inputs": [],
      "name": "kp3rWethPool",
      "outputs": [
        {
          "internalType": "address",
          "name": "",
          "type": "address"
        }
      ],
      "stateMutability": "view",
      "type": "function"
    },
    {
      "inputs": [
        {
          "internalType": "address",
          "name": "",
          "type": "address"
        },
        {
          "internalType": "address",
          "name": "",
          "type": "address"
        }
      ],
      "name": "liquidityAmount",
      "outputs": [
        {
          "internalType": "uint256",
          "name": "",
          "type": "uint256"
        }
      ],
      "stateMutability": "view",
      "type": "function"
    },
    {
      "inputs": [],
      "name": "liquidityMinimum",
      "outputs": [
        {
          "internalType": "uint256",
          "name": "",
          "type": "uint256"
        }
      ],
      "stateMutability": "view",
      "type": "function"
    },
    {
      "inputs": [
        {
          "internalType": "address",
          "name": "_fromJob",
          "type": "address"
        },
        {
          "internalType": "address",
          "name": "_toJob",
          "type": "address"
        }
      ],
      "name": "migrateJob",
      "outputs": [],
      "stateMutability": "nonpayable",
      "type": "function"
    },
    {
      "inputs": [
        {
          "internalType": "address",
          "name": "_liquidity",
          "type": "address"
        }
      ],
      "name": "observeLiquidity",
      "outputs": [
        {
          "components": [
            {
              "internalType": "int56",
              "name": "current",
              "type": "int56"
            },
            {
              "internalType": "int56",
              "name": "difference",
              "type": "int56"
            },
            {
              "internalType": "uint256",
              "name": "period",
              "type": "uint256"
            }
          ],
          "internalType": "struct IKeep3rJobFundableLiquidity.TickCache",
          "name": "_tickCache",
          "type": "tuple"
        }
      ],
      "stateMutability": "view",
      "type": "function"
    },
    {
      "inputs": [
        {
          "internalType": "address",
          "name": "",
          "type": "address"
        },
        {
          "internalType": "address",
          "name": "",
          "type": "address"
        }
      ],
      "name": "pendingBonds",
      "outputs": [
        {
          "internalType": "uint256",
          "name": "",
          "type": "uint256"
        }
      ],
      "stateMutability": "view",
      "type": "function"
    },
    {
      "inputs": [],
      "name": "pendingGovernance",
      "outputs": [
        {
          "internalType": "address",
          "name": "",
          "type": "address"
        }
      ],
      "stateMutability": "view",
      "type": "function"
    },
    {
      "inputs": [
        {
          "internalType": "address",
          "name": "",
          "type": "address"
        }
      ],
      "name": "pendingJobMigrations",
      "outputs": [
        {
          "internalType": "address",
          "name": "",
          "type": "address"
        }
      ],
      "stateMutability": "view",
      "type": "function"
    },
    {
      "inputs": [
        {
          "internalType": "address",
          "name": "",
          "type": "address"
        },
        {
          "internalType": "address",
          "name": "",
          "type": "address"
        }
      ],
      "name": "pendingUnbonds",
      "outputs": [
        {
          "internalType": "uint256",
          "name": "",
          "type": "uint256"
        }
      ],
      "stateMutability": "view",
      "type": "function"
    },
    {
      "inputs": [
        {
          "internalType": "address",
          "name": "_liquidity",
          "type": "address"
        },
        {
          "internalType": "uint256",
          "name": "_amount",
          "type": "uint256"
        }
      ],
      "name": "quoteLiquidity",
      "outputs": [
        {
          "internalType": "uint256",
          "name": "_periodCredits",
          "type": "uint256"
        }
      ],
      "stateMutability": "view",
      "type": "function"
    },
    {
      "inputs": [
        {
          "internalType": "address",
          "name": "_disputer",
          "type": "address"
        }
      ],
      "name": "removeDisputer",
      "outputs": [],
      "stateMutability": "nonpayable",
      "type": "function"
    },
    {
      "inputs": [
        {
          "internalType": "address",
          "name": "_job",
          "type": "address"
        }
      ],
      "name": "removeJob",
      "outputs": [],
      "stateMutability": "nonpayable",
      "type": "function"
    },
    {
      "inputs": [
        {
          "internalType": "address",
          "name": "_slasher",
          "type": "address"
        }
      ],
      "name": "removeSlasher",
      "outputs": [],
      "stateMutability": "nonpayable",
      "type": "function"
    },
    {
      "inputs": [
        {
          "internalType": "address",
          "name": "_jobOrKeeper",
          "type": "address"
        }
      ],
      "name": "resolve",
      "outputs": [],
      "stateMutability": "nonpayable",
      "type": "function"
    },
    {
      "inputs": [
        {
          "internalType": "address",
          "name": "_keeper",
          "type": "address"
        }
      ],
      "name": "revoke",
      "outputs": [],
      "stateMutability": "nonpayable",
      "type": "function"
    },
    {
      "inputs": [
        {
          "internalType": "address",
          "name": "_liquidity",
          "type": "address"
        }
      ],
      "name": "revokeLiquidity",
      "outputs": [],
      "stateMutability": "nonpayable",
      "type": "function"
    },
    {
      "inputs": [],
      "name": "rewardPeriodTime",
      "outputs": [
        {
          "internalType": "uint256",
          "name": "",
          "type": "uint256"
        }
      ],
      "stateMutability": "view",
      "type": "function"
    },
    {
      "inputs": [
        {
          "internalType": "address",
          "name": "",
          "type": "address"
        }
      ],
      "name": "rewardedAt",
      "outputs": [
        {
          "internalType": "uint256",
          "name": "",
          "type": "uint256"
        }
      ],
      "stateMutability": "view",
      "type": "function"
    },
    {
      "inputs": [
        {
          "internalType": "address",
          "name": "_token",
          "type": "address"
        },
        {
          "internalType": "uint256",
          "name": "_amount",
          "type": "uint256"
        },
        {
          "internalType": "address",
          "name": "_to",
          "type": "address"
        }
      ],
      "name": "sendDust",
      "outputs": [],
      "stateMutability": "nonpayable",
      "type": "function"
    },
    {
      "inputs": [
        {
          "internalType": "uint256",
          "name": "_bondTime",
          "type": "uint256"
        }
      ],
      "name": "setBondTime",
      "outputs": [],
      "stateMutability": "nonpayable",
      "type": "function"
    },
    {
      "inputs": [
        {
          "internalType": "uint256",
          "name": "_fee",
          "type": "uint256"
        }
      ],
      "name": "setFee",
      "outputs": [],
      "stateMutability": "nonpayable",
      "type": "function"
    },
    {
      "inputs": [
        {
          "internalType": "address",
          "name": "_governance",
          "type": "address"
        }
      ],
      "name": "setGovernance",
      "outputs": [],
      "stateMutability": "nonpayable",
      "type": "function"
    },
    {
      "inputs": [
        {
          "internalType": "uint256",
          "name": "_inflationPeriod",
          "type": "uint256"
        }
      ],
      "name": "setInflationPeriod",
      "outputs": [],
      "stateMutability": "nonpayable",
      "type": "function"
    },
    {
      "inputs": [
        {
          "internalType": "address",
          "name": "_keep3rHelper",
          "type": "address"
        }
      ],
      "name": "setKeep3rHelper",
      "outputs": [],
      "stateMutability": "nonpayable",
      "type": "function"
    },
    {
      "inputs": [
        {
          "internalType": "address",
          "name": "_keep3rV1",
          "type": "address"
        }
      ],
      "name": "setKeep3rV1",
      "outputs": [],
      "stateMutability": "nonpayable",
      "type": "function"
    },
    {
      "inputs": [
        {
          "internalType": "address",
          "name": "_keep3rV1Proxy",
          "type": "address"
        }
      ],
      "name": "setKeep3rV1Proxy",
      "outputs": [],
      "stateMutability": "nonpayable",
      "type": "function"
    },
    {
      "inputs": [
        {
          "internalType": "uint256",
          "name": "_liquidityMinimum",
          "type": "uint256"
        }
      ],
      "name": "setLiquidityMinimum",
      "outputs": [],
      "stateMutability": "nonpayable",
      "type": "function"
    },
    {
      "inputs": [
        {
          "internalType": "uint256",
          "name": "_rewardPeriodTime",
          "type": "uint256"
        }
      ],
      "name": "setRewardPeriodTime",
      "outputs": [],
      "stateMutability": "nonpayable",
      "type": "function"
    },
    {
      "inputs": [
        {
          "internalType": "uint256",
          "name": "_unbondTime",
          "type": "uint256"
        }
      ],
      "name": "setUnbondTime",
      "outputs": [],
      "stateMutability": "nonpayable",
      "type": "function"
    },
    {
      "inputs": [
        {
          "internalType": "address",
          "name": "_kp3rWethPool",
          "type": "address"
        }
      ],
      "name": "setkp3rWethPool",
      "outputs": [],
      "stateMutability": "nonpayable",
      "type": "function"
    },
    {
      "inputs": [
        {
          "internalType": "address",
          "name": "_bonded",
          "type": "address"
        },
        {
          "internalType": "address",
          "name": "_keeper",
          "type": "address"
        },
        {
          "internalType": "uint256",
          "name": "_amount",
          "type": "uint256"
        }
      ],
      "name": "slash",
      "outputs": [],
      "stateMutability": "nonpayable",
      "type": "function"
    },
    {
      "inputs": [
        {
          "internalType": "address",
          "name": "_job",
          "type": "address"
        },
        {
          "internalType": "address[]",
          "name": "_liquidities",
          "type": "address[]"
        },
        {
          "internalType": "uint256[]",
          "name": "_amounts",
          "type": "uint256[]"
        }
      ],
      "name": "slashLiquidityFromJob",
      "outputs": [],
      "stateMutability": "nonpayable",
      "type": "function"
    },
    {
      "inputs": [
        {
          "internalType": "address",
          "name": "_job",
          "type": "address"
        },
        {
          "internalType": "address[]",
          "name": "_tokens",
          "type": "address[]"
        },
        {
          "internalType": "uint256[]",
          "name": "_amounts",
          "type": "uint256[]"
        }
      ],
      "name": "slashTokenFromJob",
      "outputs": [],
      "stateMutability": "nonpayable",
      "type": "function"
    },
    {
      "inputs": [
        {
          "internalType": "address",
          "name": "",
          "type": "address"
        }
      ],
      "name": "slashers",
      "outputs": [
        {
          "internalType": "bool",
          "name": "",
          "type": "bool"
        }
      ],
      "stateMutability": "view",
      "type": "function"
    },
    {
      "inputs": [
        {
          "internalType": "address",
          "name": "_job",
          "type": "address"
        }
      ],
      "name": "totalJobCredits",
      "outputs": [
        {
          "internalType": "uint256",
          "name": "_credits",
          "type": "uint256"
        }
      ],
      "stateMutability": "view",
      "type": "function"
    },
    {
      "inputs": [
        {
          "internalType": "address",
          "name": "_bonding",
          "type": "address"
        },
        {
          "internalType": "uint256",
          "name": "_amount",
          "type": "uint256"
        }
      ],
      "name": "unbond",
      "outputs": [],
      "stateMutability": "nonpayable",
      "type": "function"
    },
    {
      "inputs": [
        {
          "internalType": "address",
          "name": "_job",
          "type": "address"
        },
        {
          "internalType": "address",
          "name": "_liquidity",
          "type": "address"
        },
        {
          "internalType": "uint256",
          "name": "_amount",
          "type": "uint256"
        }
      ],
      "name": "unbondLiquidityFromJob",
      "outputs": [],
      "stateMutability": "nonpayable",
      "type": "function"
    },
    {
      "inputs": [],
      "name": "unbondTime",
      "outputs": [
        {
          "internalType": "uint256",
          "name": "",
          "type": "uint256"
        }
      ],
      "stateMutability": "view",
      "type": "function"
    },
    {
      "inputs": [
        {
          "internalType": "address",
          "name": "_bonding",
          "type": "address"
        }
      ],
      "name": "withdraw",
      "outputs": [],
      "stateMutability": "nonpayable",
      "type": "function"
    },
    {
      "inputs": [
        {
          "internalType": "address",
          "name": "_job",
          "type": "address"
        },
        {
          "internalType": "address",
          "name": "_liquidity",
          "type": "address"
        },
        {
          "internalType": "address",
          "name": "_receiver",
          "type": "address"
        }
      ],
      "name": "withdrawLiquidityFromJob",
      "outputs": [],
      "stateMutability": "nonpayable",
      "type": "function"
    },
    {
      "inputs": [
        {
          "internalType": "address",
          "name": "_job",
          "type": "address"
        },
        {
          "internalType": "address",
          "name": "_token",
          "type": "address"
        },
        {
          "internalType": "uint256",
          "name": "_amount",
          "type": "uint256"
        },
        {
          "internalType": "address",
          "name": "_receiver",
          "type": "address"
        }
      ],
      "name": "withdrawTokenCreditsFromJob",
      "outputs": [],
      "stateMutability": "nonpayable",
      "type": "function"
    },
    {
      "inputs": [
        {
          "internalType": "address",
          "name": "",
          "type": "address"
        }
      ],
      "name": "workCompleted",
      "outputs": [
        {
          "internalType": "uint256",
          "name": "",
          "type": "uint256"
        }
      ],
      "stateMutability": "view",
      "type": "function"
    },
    {
      "inputs": [
        {
          "internalType": "address",
          "name": "_keeper",
          "type": "address"
        }
      ],
      "name": "worked",
      "outputs": [],
      "stateMutability": "nonpayable",
      "type": "function"
    },
    {
      "inputs": [
        {
          "internalType": "address",
          "name": "",
          "type": "address"
        }
      ],
      "name": "workedAt",
      "outputs": [
        {
          "internalType": "uint256",
          "name": "",
          "type": "uint256"
        }
      ],
      "stateMutability": "view",
      "type": "function"
    }
  ],
  "bytecode": "0x60806040526203f480601f55621275006020556729a2241af62c000060215562069780602255622cd300602355601e6024553480156200003e57600080fd5b5060405162006dc738038062006dc783398101604081905262000061916200021b565b60016000558383838388806001600160a01b038116620000c75760405162461bcd60e51b815260206004820152601960248201527f4e6f476f7665726e616e63655a65726f41646472657373282900000000000000604482015260640160405180910390fd5b601780546001600160a01b03199081166001600160a01b0393841617909155601d80548216888416179055601b80548216878416178155601c80548316878516179055601e8054831686851690811782556000818152600e6020526040908190208054909516909117909355905490549151630a5b522760e01b815290831660048201529116602482015273__$c5dd7ebc0ce14d94f217945953a329b66b$__9150630a5b52279060440160206040518083038186803b1580156200018b57600080fd5b505af4158015620001a0573d6000803e3d6000fd5b505050506040513d601f19601f82011682018060405250810190620001c691906200028b565b6001600160a01b03919091166000908152600f60205260409020805460ff191691151591909117905550620002b69650505050505050565b80516001600160a01b03811681146200021657600080fd5b919050565b600080600080600060a086880312156200023457600080fd5b6200023f86620001fe565b94506200024f60208701620001fe565b93506200025f60408701620001fe565b92506200026f60608701620001fe565b91506200027f60808701620001fe565b90509295509295909350565b6000602082840312156200029e57600080fd5b81518015158114620002af57600080fd5b9392505050565b616b0180620002c66000396000f3fe608060405234801561001057600080fd5b50600436106103e85760003560e01c8063034d4c61146103ed57806307b435c2146104135780630c620bce1461043e5780630d6a1f87146104535780631101eb411461046657806311466d721461047b57806315006b821461048e578063165e62e7146104b9578063168f92e7146104f65780631b44555e146105215780631c5a9d9c146105415780631ef94b911461055457806321040b0114610574578063238efcbc1461059f578063274a8db4146105a757806331062aa4146105da578063461411bc146105ed57806351cff8d9146105f757806352a4de291461060a57806355ea6c471461061d578063575288bf14610630578063594a3a931461064357806359a2255e146106565780635aa6e675146106695780635ebe23f01461067c5780635feeb79414610685578063633fb68f1461069857806364bb43ee146106a157806368a9f19c146106b4578063694798e6146106c757806369fe0e2d146106f25780636ba42aaa146107055780636cf262bc1461071857806372da828a1461072b57806374a8f1031461073e578063768b5d90146107515780637b40c9131461075a5780637c8fce231461076d5780638071198914610775578063878c723e146107885780638bb6dfa8146107b15780638cb22b76146107c45780638fe204dd146107e757806390a4684e146107fa578063951dc22c1461080d578063966abd001461081557806398e90a0f146108285780639c36f259146108515780639d5c33d814610864578063a214580914610877578063a39744b51461088a578063a515366a146108b5578063a5d059ca146108c8578063a676f9ff146108db578063a734f06e146108fb578063a7d2e78414610916578063aac6aa9c1461091f578063ab033ea914610932578063af320e8114610945578063b0103b1a14610958578063b23922331461097b578063b440027f1461098e578063b600702a146109b9578063b7e77340146109cc578063b87fcbff146109df578063c5198abc14610a02578063c6997fa714610a15578063c7ae40d014610a28578063cb4be2bb14610a3b578063cb54694d14610a4e578063cd22af1b14610a61578063d55995fe14610a8c578063dd2080d614610a9f578063ddca3f4314610ab2578063e326ac4314610abb578063e74f823914610adb578063ebbb619414610aee578063ec00cdfc14610b01578063ec342ad014610b14578063ec8ca64314610b1d578063f0f346b914610b46578063f11a1d1a14610b59578063f136a09d14610b6c578063f39c38a014610b8c578063f75f9f7b14610b9f578063f9d46cf214610bb2578063fc253d2b14610bc5578063fe75bc4614610bce575b600080fd5b6104006103fb36600461605c565b610be1565b6040519081526020015b60405180910390f35b610400610421366004616096565b601260209081526000928352604080842090915290825290205481565b610446610ce6565b60405161040a91906164c4565b6104006104613660046162db565b610cf7565b61047961047436600461611a565b610e03565b005b6104796104893660046162db565b610f52565b61040061049c366004616096565b601060209081526000928352604080842090915290825290205481565b6104cc6104c736600461605c565b6110d9565b604080518251600690810b825260208085015190910b90820152918101519082015260600161040a565b610400610504366004616096565b600960209081526000928352604080842090915290825290205481565b61040061052f36600461605c565b60056020526000908152604090205481565b61047961054f36600461605c565b6114bc565b601b54610567906001600160a01b031681565b60405161040a919061642e565b610400610582366004616096565b601360209081526000928352604080842090915290825290205481565b6104796115bf565b6105ca6105b536600461605c565b601a6020526000908152604090205460ff1681565b604051901515815260200161040a565b6104796105e83660046161ff565b611674565b6104006201518081565b61047961060536600461605c565b611b13565b61047961061836600461611a565b611d03565b61047961062b36600461605c565b611f5d565b61047961063e36600461611a565b612028565b610479610651366004616096565b61230d565b61047961066436600461605c565b6123b1565b601754610567906001600160a01b031681565b610400601f5481565b61047961069336600461605c565b61248a565b61040060215481565b6104796106af36600461605c565b61272f565b6104796106c236600461605c565b6127e6565b6104006106d5366004616096565b602860209081526000928352604080842090915290825290205481565b61047961070036600461639c565b6128c0565b6105ca61071336600461605c565b61291f565b61040061072636600461605c565b61295e565b61047961073936600461605c565b612aa3565b61047961074c36600461605c565b612b3e565b61040060225481565b601e54610567906001600160a01b031681565b610446612c69565b61047961078336600461605c565b612c75565b61056761079636600461605c565b6001602052600090815260409020546001600160a01b031681565b6104006107bf36600461605c565b612d2b565b6105ca6107d236600461605c565b60146020526000908152604090205460ff1681565b6104796107f536600461639c565b612e03565b610479610808366004616096565b612e60565b610446612f77565b610479610823366004616307565b612f83565b61056761083636600461605c565b6002602052600090815260409020546001600160a01b031681565b61047961085f36600461605c565b613097565b61047961087236600461605c565b613206565b6104796108853660046160cf565b6132e1565b610400610898366004616096565b600860209081526000928352604080842090915290825290205481565b6104796108c33660046162db565b6134bc565b6104796108d63660046162db565b61372e565b6104006108e936600461605c565b60296020526000908152604090205481565b61056773eeeeeeeeeeeeeeeeeeeeeeeeeeeeeeeeeeeeeeee81565b61040060205481565b61047961092d36600461605c565b6137f6565b61047961094036600461605c565b6138ce565b610479610953366004616096565b613943565b6105ca61096636600461605c565b60076020526000908152604090205460ff1681565b61047961098936600461639c565b613dda565b61040061099c366004616096565b602560209081526000928352604080842090915290825290205481565b6104796109c736600461605c565b613e39565b6104796109da36600461639c565b614035565b6105ca6109ed36600461605c565b60196020526000908152604090205460ff1681565b610479610a1036600461605c565b614094565b610479610a233660046161ff565b61419e565b601c54610567906001600160a01b031681565b610479610a4936600461605c565b6143b7565b610479610a5c36600461639c565b614452565b610400610a6f366004616096565b601160209081526000928352604080842090915290825290205481565b610479610a9a36600461615b565b6144f8565b610479610aad36600461611a565b614785565b61040060245481565b610400610ac936600461605c565b60066020526000908152604090205481565b610479610ae936600461611a565b6148f8565b610479610afc36600461639c565b6149e7565b610479610b0f36600461605c565b614a46565b61040061271081565b610567610b2b36600461605c565b602c602052600090815260409020546001600160a01b031681565b610479610b5436600461605c565b614ae1565b601d54610567906001600160a01b031681565b610400610b7a36600461605c565b602a6020526000908152604090205481565b601854610567906001600160a01b031681565b610479610bad36600461605c565b614bba565b6105ca610bc03660046161ae565b614cad565b61040060235481565b610479610bdc3660046162db565b614d75565b600080610bed8361295e565b90506000610c0760225442610c02919061692f565b614e55565b6001600160a01b0385166000908152602960205260409020541115610cab576022546001600160a01b038516600090815260296020526040902054610c4c904261692f565b10610c88576022546001600160a01b038516600090815260296020526040902054610c779190616894565b610c81904261692f565b9050610cc1565b6001600160a01b038416600090815260296020526040902054610c81904261692f565b610cb442614e55565b610cbe904261692f565b90505b610ccb8183614e6f565b610cd485612d2b565b610cde9190616894565b949350505050565b6060610cf26026614ea4565b905090565b6000610d04602684614eb8565b15610dfd576000610d14846110d9565b90508060400151600014610dfb576001600160a01b0384166000908152600f602052604081205460ff16610d55578160200151610d50906169a1565b610d5b565b81602001515b9050610df273__$c5dd7ebc0ce14d94f217945953a329b66b$__63a0d2710786846022546040518463ffffffff1660e01b8152600401610d9d93929190616812565b60206040518083038186803b158015610db557600080fd5b505af4158015610dc9573d6000803e3d6000fd5b505050506040513d601f19601f82011682018060405250810190610ded91906163b5565b614ecd565b92505050610dfd565b505b92915050565b6001600160a01b038381166000908152600160205260409020548491163314610e475760405162461bcd60e51b8152600401610e3e90616780565b60405180910390fd5b602054610e549042616894565b6001600160a01b03808616600081815260126020908152604080832094891680845294825280832095909555918152601382528381209281529190529081208054849290610ea3908490616894565b90915550610eb49050848484614f5f565b6001600160a01b038085166000908152602860209081526040808320938716835292905220548015801590610ef35750602154610ef182866151c4565b105b15610f105760405162461bcd60e51b8152600401610e3e906167a8565b836001600160a01b0316856001600160a01b0316600080516020616aac83398151915285604051610f4391815260200190565b60405180910390a35050505050565b3360008181526007602052604090205460ff1615610f825760405162461bcd60e51b8152600401610e3e90616732565b610f8d601582614eb8565b610fa95760405162461bcd60e51b8152600401610e3e90616554565b610fb2816152e9565b1561100d576001600160a01b038116600081815260296020908152604080832054600a835281842054600b90935292819020549051600080516020616a6c83398151915293611004939092909161682b565b60405180910390a25b6001600160a01b0381166000908152600a602052604090205482111561108c57611036816154bf565b6001600160a01b038116600081815260296020908152604080832054600a835281842054600b90935292819020549051600080516020616a6c83398151915293611083939092909161682b565b60405180910390a25b61109781848461554d565b601b546001600160a01b03808516918382169116600080516020616a4c833981519152855a6040805192835260208301919091520160405180910390a4505050565b60408051606081018252600080825260208201819052918101919091526110ff42614e55565b6001600160a01b0383166000908152602b6020526040902060010154141561117557506001600160a01b03166000908152602b602090815260409182902082516060810184528154600681810b810b810b8352600160381b909104810b810b900b92810192909252600101549181019190915290565b60008061118960225442610c02919061692f565b6001600160a01b0385166000908152602b60205260409020600101549091508114156112fa57604080516001808252818301909252600091602080830190803683375050506001600160a01b0386166000908152602b602052604090205490915060060b6111f642614e55565b611200904261692f565b8260008151811061121357611213616a0a565b63ffffffff9092166020928302919091018201526001600160a01b038088166000908152600e90925260409182902054915163dc686d9160e01b815273__$c5dd7ebc0ce14d94f217945953a329b66b$__9263dc686d919261127c92911690869060040161645c565b60606040518083038186803b15801561129457600080fd5b505af41580156112a8573d6000803e3d6000fd5b505050506040513d601f19601f820116820180604052508101906112cc9190616359565b600692830b90920b8088529195506112e6918391506168df565b600690810b900b6020860152506114939050565b6001600160a01b0384166000908152602b60205260409020600101548111156114935760408051600280825260608201835260009260208301908036833701905050905061134742614e55565b611351904261692f565b8160008151811061136457611364616a0a565b602002602001019063ffffffff16908163ffffffff168152505060225461138a42614e55565b611394904261692f565b61139e9190616894565b816001815181106113b1576113b1616a0a565b63ffffffff9092166020928302919091018201526001600160a01b038087166000908152600e909252604080832054905163dc686d9160e01b815273__$c5dd7ebc0ce14d94f217945953a329b66b$__9263dc686d919261141992911690869060040161645c565b60606040518083038186803b15801561143157600080fd5b505af4158015611445573d6000803e3d6000fd5b505050506040513d601f19601f820116820180604052508101906114699190616359565b600692830b90920b80885291955091506114849082906168df565b600690810b900b602086015250505b81156114ac576114a242614e55565b60408401526114b4565b600060408401525b50505b919050565b3360009081526007602052604090205460ff16156114ec5760405162461bcd60e51b8152600401610e3e906166af565b3360009081526011602090815260408083206001600160a01b03851684529091529020546115505760405162461bcd60e51b8152602060048201526011602482015270426f6e6473556e6578697374656e74282960781b6044820152606401610e3e565b3360009081526011602090815260408083206001600160a01b038516845290915290205442116115b25760405162461bcd60e51b815260206004820152600d60248201526c426f6e64734c6f636b6564282960981b6044820152606401610e3e565b6115bc3382615630565b50565b6018546001600160a01b031633146116135760405162461bcd60e51b81526020600482015260176024820152764f6e6c7950656e64696e67476f7665726e616e6365282960481b6044820152606401610e3e565b60188054601780546001600160a01b0383166001600160a01b031991821681179092559091169091556040517fc73be659241aade67e9a059bcf21494955018b213dbd1179054ccf928b13f3b69161166a9161642e565b60405180910390a1565b600260005414156116975760405162461bcd60e51b8152600401610e3e906167db565b600260009081553381526019602052604090205460ff161580156116c657506017546001600160a01b03163314155b156116e35760405162461bcd60e51b8152600401610e3e906166ff565b6001600160a01b03831660009081526007602052604090205460ff1661171b5760405162461bcd60e51b8152600401610e3e906165d3565b805182511461173c5760405162461bcd60e51b8152600401610e3e906166d3565b60005b8251811015611abb5761179883828151811061175d5761175d616a0a565b6020026020010151600c6000876001600160a01b03166001600160a01b03168152602001908152602001600020614eb890919063ffffffff16565b6117db5760405162461bcd60e51b81526020600482015260146024820152734a6f62546f6b656e556e6578697374656e74282960601b6044820152606401610e3e565b8181815181106117ed576117ed616a0a565b602002602001015160096000866001600160a01b03166001600160a01b03168152602001908152602001600020600085848151811061182e5761182e616a0a565b60200260200101516001600160a01b03166001600160a01b0316815260200190815260200160002054101561189e5760405162461bcd60e51b81526020600482015260166024820152754a6f62546f6b656e496e73756666696369656e74282960501b6044820152606401610e3e565b8281815181106118b0576118b0616a0a565b60200260200101516001600160a01b031663a9059cbb601760009054906101000a90046001600160a01b03168484815181106118ee576118ee616a0a565b60200260200101516040518363ffffffff1660e01b81526004016119139291906164ab565b602060405180830381600087803b15801561192d57600080fd5b505af192505050801561195d575060408051601f3d908101601f1916820190925261195a9181019061633e565b60015b61196657611968565b505b81818151811061197a5761197a616a0a565b602002602001015160096000866001600160a01b03166001600160a01b0316815260200190815260200160002060008584815181106119bb576119bb616a0a565b60200260200101516001600160a01b03166001600160a01b0316815260200190815260200160002060008282546119f2919061692f565b90915550506001600160a01b03841660009081526009602052604081208451909190859084908110611a2657611a26616a0a565b60200260200101516001600160a01b03166001600160a01b031681526020019081526020016000205460001415611aa957611aa7838281518110611a6c57611a6c616a0a565b6020026020010151600c6000876001600160a01b03166001600160a01b031681526020019081526020016000206156ff90919063ffffffff16565b505b80611ab381616972565b91505061173f565b50336001600160a01b0316836001600160a01b03167fa5e842a19761bd460b27dcb0a5408d0a2d1b992b0663c4475f385ad8fb9e3b508484604051611b019291906164d7565b60405180910390a35050600160005550565b60026000541415611b365760405162461bcd60e51b8152600401610e3e906167db565b600260009081553381526012602090815260408083206001600160a01b0385168452909152902054611b7a5760405162461bcd60e51b8152600401610e3e90616658565b3360009081526012602090815260408083206001600160a01b03851684529091529020544211611bbc5760405162461bcd60e51b8152600401610e3e9061657d565b3360009081526007602052604090205460ff1615611bec5760405162461bcd60e51b8152600401610e3e906166af565b3360009081526013602090815260408083206001600160a01b0385811680865291909352922054601b54909291161415611c7f57601c5460405163140e25ad60e31b8152600481018390526001600160a01b039091169063a0712d6890602401600060405180830381600087803b158015611c6657600080fd5b505af1158015611c7a573d6000803e3d6000fd5b505050505b611c936001600160a01b0383163383615714565b6040518181526001600160a01b0383169033907f2717ead6b9200dd235aad468c9809ea400fe33ac69b5bfaa6d3e90fc922b63989060200160405180910390a3503360009081526013602090815260408083206001600160a01b0394909416835292905290812081905560019055565b60026000541415611d265760405162461bcd60e51b8152600401610e3e906167db565b6002600055611d36602683614eb8565b611d7e5760405162461bcd60e51b81526020600482015260196024820152784c697175696469747950616972556e617070726f766564282960381b6044820152606401610e3e565b611d89601584614eb8565b611da55760405162461bcd60e51b8152600401610e3e90616685565b6001600160a01b0383166000908152600d60205260409020611dc7908361576f565b50611dd183615784565b6021546001600160a01b03808516600090815260286020908152604080832093871683529290522054611e0f90611e09908490616894565b846151c4565b1015611e2d5760405162461bcd60e51b8152600401610e3e906167a8565b6001600160a01b038316600081815260296020908152604080832054600a835281842054600b90935292819020549051600080516020616a6c83398151915293611e7a939092909161682b565b60405180910390a2611e976001600160a01b0383163330846157e2565b6001600160a01b03808416600090815260286020908152604080832093861683529290529081208054839290611ece908490616894565b90915550611ee19050610ded82846151c4565b6001600160a01b0384166000908152600b602052604081208054909190611f09908490616894565b909155505060405181815233906001600160a01b0384811691908616907f4e186bc75a2220191b826baff3ee63c3e970e94e58a9007ff94c9a7b8e6ebb3f9060200160405180910390a45050600160005550565b336000908152601a602052604090205460ff16158015611f8857506017546001600160a01b03163314155b15611fa55760405162461bcd60e51b8152600401610e3e906165fa565b6001600160a01b03811660009081526007602052604090205460ff16611fdd5760405162461bcd60e51b8152600401610e3e906165d3565b6001600160a01b038116600081815260076020526040808220805460ff19169055513392917fe02b2375d8fb4aef3e5bc5d53bffcf70b6f185c5c93e69dcbe8b6cfc58e837e291a350565b6002600054141561204b5760405162461bcd60e51b8152600401610e3e906167db565b600260005561205b601584614eb8565b6120775760405162461bcd60e51b8152600401610e3e90616685565b601b546001600160a01b03838116911614156120c85760405162461bcd60e51b815260206004820152601060248201526f546f6b656e556e616c6c6f776564282960801b6044820152606401610e3e565b6040516370a0823160e01b81526000906001600160a01b038416906370a08231906120f790309060040161642e565b60206040518083038186803b15801561210f57600080fd5b505afa158015612123573d6000803e3d6000fd5b505050506040513d601f19601f8201168201806040525081019061214791906163b5565b905061215e6001600160a01b0384163330856157e2565b600081846001600160a01b03166370a08231306040518263ffffffff1660e01b815260040161218d919061642e565b60206040518083038186803b1580156121a557600080fd5b505afa1580156121b9573d6000803e3d6000fd5b505050506040513d601f19601f820116820180604052508101906121dd91906163b5565b6121e7919061692f565b90506000612710602454836121fc91906168c0565b61220691906168ac565b9050612212818361692f565b6001600160a01b038088166000908152600960209081526040808320938a1683529290529081208054909190612249908490616894565b90915550506001600160a01b0380871660009081526025602090815260408083208985168085529252909120429055601754612286921683615714565b6001600160a01b0386166000908152600c602052604090206122a8908661576f565b50336001600160a01b0316856001600160a01b0316876001600160a01b03167fec1a37d4a331a5059081e0fb5da1735e7890900cd215a4fb1e9f2779fd7b83eb856040516122f891815260200190565b60405180910390a45050600160005550505050565b6001600160a01b0382811660009081526001602052604090205483911633146123485760405162461bcd60e51b8152600401610e3e90616780565b6001600160a01b03838116600081815260026020908152604080832080546001600160a01b031916888716908117909155600190925280832054905191941692917fa8bad3f0b781e1d954af9945167d5f80bfe5e57930f17c93843187c77557a6b891a4505050565b6001600160a01b0381811660009081526002602052604090205482911633146124145760405162461bcd60e51b81526020600482015260156024820152744f6e6c7950656e64696e674a6f624f776e6572282960581b6044820152606401610e3e565b6001600160a01b03828116600081815260016020908152604080832080546002909352818420805487166001600160a01b031980861691909117909255805490911690555193169283929133917fcf30c54296d5eee76168b564c59c50578d49c271733a470f32707c8cfbc88a8b9190a4505050565b3360008181526007602052604090205460ff16156124ba5760405162461bcd60e51b8152600401610e3e90616732565b6124c5601582614eb8565b6124e15760405162461bcd60e51b8152600401610e3e90616554565b6124ea816152e9565b15612545576001600160a01b038116600081815260296020908152604080832054600a835281842054600b90935292819020549051600080516020616a6c8339815191529361253c939092909161682b565b60405180910390a25b60005a601d546001600160a01b038581166000908152600860209081526040808320601b548516845290915280822054905163516c332360e01b815260048101919091529394509291169063516c33239060240160206040518083038186803b1580156125b157600080fd5b505afa1580156125c5573d6000803e3d6000fd5b505050506040513d601f19601f820116820180604052508101906125e991906163b5565b905060006127108261261385602e54612602919061692f565b601e546001600160a01b03166151c4565b61261d91906168c0565b61262791906168ac565b6001600160a01b0385166000908152600a60205260409020549091508111156126a957612653846154bf565b6001600160a01b038416600081815260296020908152604080832054600a835281842054600b90935292819020549051600080516020616a6c833981519152936126a0939092909161682b565b60405180910390a25b60005a602e546126b9919061692f565b905083602e546126c9919061692f565b6126d383836168c0565b6126dd91906168ac565b91506126ea85878461554d565b601b546001600160a01b03808816918782169116600080516020616a4c833981519152855a6040805192835260208301919091520160405180910390a4505050505050565b6017546001600160a01b031633146127595760405162461bcd60e51b8152600401610e3e9061662e565b6127646026826156ff565b6127ac5760405162461bcd60e51b81526020600482015260196024820152784c697175696469747950616972556e6578697374656e74282960381b6044820152606401610e3e565b7f51199d699bdfd516fa88dd0d2f8487c40c147b4867acaa23adc8d4df6b098e56816040516127db919061642e565b60405180910390a150565b6017546001600160a01b031633146128105760405162461bcd60e51b8152600401610e3e9061662e565b6001600160a01b03811660009081526019602052604090205460ff161561286d5760405162461bcd60e51b8152602060048201526011602482015270536c61736865724578697374656e74282960781b6044820152606401610e3e565b6001600160a01b03811660009081526019602052604090819020805460ff19166001179055517f049ccb28ab796d3225573a065712f6e7754487ced56056cda8889c337511807b906127db90839061642e565b6017546001600160a01b031633146128ea5760405162461bcd60e51b8152600401610e3e9061662e565b60248190556040518181527f4c10ca068ff7002cf5da78f2f697d1e91f6f0ac27f7344b28e8ef25263f87e5d906020016127db565b60005a602e55612930600383614eb8565b156114b757600080516020616a8c8339815191525a60405190815260200160405180910390a1506001919050565b6000805b6001600160a01b0383166000908152600d6020526040902061298390615820565b811015612a9d576001600160a01b0383166000908152600d602052604081206129ac908361582a565b90506129b9602682614eb8565b15612a8a5760006129c9826110d9565b90508060400151600014612a88576001600160a01b0382166000908152600f602052604081205460ff16612a0a578160200151612a05906169a1565b612a10565b81602001515b6001600160a01b038088166000908152602860209081526040808320938816835292905281902054602254915163a0d2710760e01b8152929350612a7a9273__$c5dd7ebc0ce14d94f217945953a329b66b$__9263a0d2710792610d9d9290918791600401616812565b612a849086616894565b9450505b505b5080612a9581616972565b915050612962565b50919050565b6017546001600160a01b03163314612acd5760405162461bcd60e51b8152600401610e3e9061662e565b6001600160a01b038116612af35760405162461bcd60e51b8152600401610e3e90616759565b601d80546001600160a01b0319166001600160a01b0383161790556040517f71973fd672e51deb8f739b1f7e1eab991936645acd6f83e2bde6eeeaff5490b0906127db90839061642e565b60026000541415612b615760405162461bcd60e51b8152600401610e3e906167db565b600260009081553381526019602052604090205460ff16158015612b9057506017546001600160a01b03163314155b15612bad5760405162461bcd60e51b8152600401610e3e906166ff565b6001600160a01b03811660009081526007602052604090205460ff16612be55760405162461bcd60e51b8152600401610e3e906165d3565b612bf06003826156ff565b50601b546001600160a01b038281166000908152600860209081526040808320939094168083529290529190912054612c2b91908390615836565b60405133906001600160a01b038316907f038a17b9b553c0c3fc2ed14b957a5d8420a1666fd2efe5c1b3fe5f23eea61bb390600090a3506001600055565b6060610cf26015614ea4565b6017546001600160a01b03163314612c9f5760405162461bcd60e51b8152600401610e3e9061662e565b612caa601582614eb8565b612ce85760405162461bcd60e51b815260206004820152600f60248201526e4a6f62556e6578697374656e74282960881b6044820152606401610e3e565b612cf36015826156ff565b506040516001600160a01b038216907f2f1d5acba4879642ef052c131baf540eea5bcc666f118e4e9a21143a1910b32390600090a250565b600080612d378361295e565b9050612d4a60225442610c02919061692f565b6001600160a01b0384166000908152602960205260409020541115610dfd576022546001600160a01b038416600090815260296020526040902054612d8f904261692f565b10612d9c57809150612a9d565b60008111612dc2576001600160a01b0383166000908152600a6020526040902054612dfc565b6001600160a01b0383166000908152600b6020908152604080832054600a90925290912054612df29083906168c0565b612dfc91906168ac565b9150612a9d565b6017546001600160a01b03163314612e2d5760405162461bcd60e51b8152600401610e3e9061662e565b60208181556040518281527fc8d443472c9783cc36f8f5f5091f08ce9f37fc2f9e6d79cf1d9aaf40a433fee291016127db565b6001600160a01b038281166000908152600160205260409020548391163314612e9b5760405162461bcd60e51b8152600401610e3e90616780565b816001600160a01b0316836001600160a01b03161415612ef85760405162461bcd60e51b81526020600482015260186024820152774a6f624d6967726174696f6e496d706f737369626c65282960401b6044820152606401610e3e565b6001600160a01b038381166000818152602c6020908152604080832080546001600160a01b0319169588169586179055602d825280832094835293905282902042905590517fff0456758201108de53c0ff04c69988d4678ff455b2ce6f733328cf85722c04c90612f6a90859061642e565b60405180910390a2505050565b6060610cf26003614ea4565b6017546001600160a01b03163314612fad5760405162461bcd60e51b8152600401610e3e9061662e565b6001600160a01b038116612fd35760405162461bcd60e51b8152600401610e3e90616759565b6001600160a01b03831673eeeeeeeeeeeeeeeeeeeeeeeeeeeeeeeeeeeeeeee1415613034576040516001600160a01b0382169083156108fc029084906000818181858888f1935050505015801561302e573d6000803e3d6000fd5b50613048565b6130486001600160a01b0384168284615714565b604080516001600160a01b0385811682526020820185905283168183015290517f9a3055ded8c8b5f21bbf4946c5afab6e1fa8b3f057922658e5e1ade125fb0b1e9181900360600190a1505050565b6017546001600160a01b031633146130c15760405162461bcd60e51b8152600401610e3e9061662e565b6001600160a01b0381166130e75760405162461bcd60e51b8152600401610e3e90616759565b601e80546001600160a01b038084166001600160a01b031992831681179093556000838152600e6020526040908190208054909316909317909155601b549151630a5b522760e01b815273__$c5dd7ebc0ce14d94f217945953a329b66b$__92630a5b52279261315e929116908590600401616442565b60206040518083038186803b15801561317657600080fd5b505af415801561318a573d6000803e3d6000fd5b505050506040513d601f19601f820116820180604052508101906131ae919061633e565b6001600160a01b0382166000908152600f602052604090819020805460ff191692151592909217909155517f9bb1515b0fc2645a3f011162460a22fdd512e0bca265e7dc9ba6bceae8930afa906127db90839061642e565b6017546001600160a01b031633146132305760405162461bcd60e51b8152600401610e3e9061662e565b6001600160a01b0381166000908152601a602052604090205460ff161561328e5760405162461bcd60e51b815260206004820152601260248201527144697370757465724578697374656e74282960701b6044820152606401610e3e565b6001600160a01b0381166000908152601a602052604090819020805460ff19166001179055517f8addc69f897ecca0e41d70ed4ff9d75a9148a615a0fbda8597e53aea2684302f906127db90839061642e565b6001600160a01b03838116600090815260016020526040902054849116331461331c5760405162461bcd60e51b8152600401610e3e90616780565b6001600160a01b0382166133425760405162461bcd60e51b8152600401610e3e90616759565b6001600160a01b038085166000908152601260209081526040808320938716835292905220546133845760405162461bcd60e51b8152600401610e3e90616658565b6001600160a01b0380851660009081526012602090815260408083209387168352929052205442116133c85760405162461bcd60e51b8152600401610e3e9061657d565b6001600160a01b03841660009081526007602052604090205460ff16156134015760405162461bcd60e51b8152600401610e3e906166af565b6001600160a01b0380851660009081526013602090815260408083209387168084529390915290205490613436908483615714565b826001600160a01b0316846001600160a01b0316866001600160a01b03167ffdb7893bf11f50c621e59cc7f1cf540e94295cb27ca869ec7ed7618ca79288628460405161348591815260200190565b60405180910390a45050506001600160a01b0391821660009081526013602090815260408083209390941682529190915290812055565b600260005414156134df5760405162461bcd60e51b8152600401610e3e906167db565b600260009081553381526007602052604090205460ff16156135135760405162461bcd60e51b8152600401610e3e906166af565b61351e601533614eb8565b1561355b5760405162461bcd60e51b815260206004820152600d60248201526c416c7265616479414a6f62282960981b6044820152606401610e3e565b601f546135689042616894565b3360009081526011602090815260408083206001600160a01b03871680855292528083209390935591516370a0823160e01b81529091906370a08231906135b390309060040161642e565b60206040518083038186803b1580156135cb57600080fd5b505afa1580156135df573d6000803e3d6000fd5b505050506040513d601f19601f8201168201806040525081019061360391906163b5565b905061361a6001600160a01b0384163330856157e2565b6040516370a0823160e01b815281906001600160a01b038516906370a082319061364890309060040161642e565b60206040518083038186803b15801561366057600080fd5b505afa158015613674573d6000803e3d6000fd5b505050506040513d601f19601f8201168201806040525081019061369891906163b5565b6136a2919061692f565b336000908152601460209081526040808320805460ff19166001179055601082528083206001600160a01b03881684529091528120805492945084929091906136ec908490616894565b90915550506040518281526001600160a01b0384169033907fa7e66869262026842e8d81f5e6806cdc8d846e27c824e2e22f4fe51442771b3490602001611b01565b60205461373b9042616894565b3360008181526012602090815260408083206001600160a01b0388168085529083528184209590955592825260088152828220938252929092528120805483929061378790849061692f565b90915550503360009081526013602090815260408083206001600160a01b0386168452909152812080548392906137bf908490616894565b90915550506040518181526001600160a01b038316903390600080516020616aac8339815191529060200160405180910390a35050565b6017546001600160a01b031633146138205760405162461bcd60e51b8152600401610e3e9061662e565b6001600160a01b03811660009081526019602052604090205460ff1661387e5760405162461bcd60e51b8152602060048201526013602482015272536c6173686572556e6578697374656e74282960681b6044820152606401610e3e565b6001600160a01b03811660009081526019602052604090819020805460ff19169055517f3ed8cbce8cab40e59282f1743e2b607effa08b5cbe0111bb4721134f2f80d025906127db90839061642e565b6017546001600160a01b031633146138f85760405162461bcd60e51b8152600401610e3e9061662e565b601880546001600160a01b0319166001600160a01b0383161790556040517fe987aaedf9d279143bdf1eee16cf1d0feb47742867d81083df8d6cd0a5ac857f906127db90839061642e565b6001600160a01b03818116600090815260016020526040902054829116331461397e5760405162461bcd60e51b8152600401610e3e90616780565b6001600160a01b03831660009081526007602052604090205460ff16806139bd57506001600160a01b03821660009081526007602052604090205460ff165b156139da5760405162461bcd60e51b8152600401610e3e90616732565b6001600160a01b038381166000908152602c6020526040902054811690831614613a425760405162461bcd60e51b81526020600482015260196024820152784a6f624d6967726174696f6e556e617661696c61626c65282960381b6044820152606401610e3e565b6001600160a01b038084166000908152602d6020908152604080832093861683529290522054613a7490603c90616894565b421015613aba5760405162461bcd60e51b81526020600482015260146024820152734a6f624d6967726174696f6e4c6f636b6564282960601b6044820152606401610e3e565b613ac383615784565b613acc82615784565b6001600160a01b0383166000908152600c60205260408120613aed90615820565b1115613bcf576001600160a01b0383166000908152600c60205260408120613b15908261582a565b6001600160a01b03808616600090815260096020818152604080842085871680865290835281852054958a168552928252808420928452919052812080549394509192613b63908490616894565b90915550506001600160a01b0380851660008181526009602090815260408083209486168352938152838220829055918152600c90915220613ba590826156ff565b506001600160a01b0383166000908152600c60205260409020613bc8908261576f565b5050613acc565b6001600160a01b0383166000908152600d60205260408120613bf090615820565b1115613cd2576001600160a01b0383166000908152600d60205260408120613c18908261582a565b6001600160a01b03808616600090815260286020818152604080842085871680865290835281852054958a168552928252808420928452919052812080549394509192613c66908490616894565b90915550506001600160a01b038085166000908152602860209081526040808320858516845282528083208390559286168252600d905220613ca8908261576f565b506001600160a01b0384166000908152600d60205260409020613ccb90826156ff565b5050613bcf565b6001600160a01b038084166000908152600b602052604080822054928516825281208054909190613d04908490616894565b90915550506001600160a01b038084166000908152600b60209081526040808320839055600a90915280822054928516825281208054909190613d48908490616894565b90915550506001600160a01b0383166000908152600a602090815260408083208390556029909152812055613d7e6015846156ff565b506001600160a01b038084166000908152602c60205260409081902080546001600160a01b031916905551908316907f9b712b63e3fb1325fa042d3c238ce8144937875065900528ea1e4f3b00f379f290612f6a90869061642e565b6017546001600160a01b03163314613e045760405162461bcd60e51b8152600401610e3e9061662e565b60238190556040518181527fbdcfd7b8482f31cff6a87c362d9e2e3887f4cdc2018c7c485d8e78a7b2fadb69906020016127db565b6017546001600160a01b03163314613e635760405162461bcd60e51b8152600401610e3e9061662e565b613e6e60268261576f565b613eb45760405162461bcd60e51b81526020600482015260176024820152764c697175696469747950616972417070726f766564282960481b6044820152606401610e3e565b806001600160a01b03166316f0115b6040518163ffffffff1660e01b815260040160206040518083038186803b158015613eed57600080fd5b505afa158015613f01573d6000803e3d6000fd5b505050506040513d601f19601f82011682018060405250810190613f259190616079565b6001600160a01b038281166000908152600e60205260409081902080546001600160a01b0319169383169384179055601b549051630a5b522760e01b815273__$c5dd7ebc0ce14d94f217945953a329b66b$__93630a5b522793613f8d931691600401616442565b60206040518083038186803b158015613fa557600080fd5b505af4158015613fb9573d6000803e3d6000fd5b505050506040513d601f19601f82011682018060405250810190613fdd919061633e565b6001600160a01b0382166000908152600f602052604090819020805460ff191692151592909217909155517fabfa8db4d238fa78bf4e15fcc91328dd35f3978f200e2857a56bb719732b7b0b906127db90839061642e565b6017546001600160a01b0316331461405f5760405162461bcd60e51b8152600401610e3e9061662e565b601f8190556040518181527fd319ef78d2b690bb773fcccc2d096306bac7c9222dd0bb6b300f461e4a376b43906020016127db565b61409f601582614eb8565b156140e05760405162461bcd60e51b81526020600482015260116024820152704a6f62416c72656164794164646564282960781b6044820152606401610e3e565b6001600160a01b03811660009081526014602052604090205460ff161561413c5760405162461bcd60e51b815260206004820152601060248201526f416c7265616479414b6565706572282960801b6044820152606401610e3e565b61414760158261576f565b506001600160a01b03811660008181526001602052604080822080546001600160a01b03191633908117909155905190917fed3faef50715743626cd57de74281a2b17cdbfc11c0486feda541fb911e0293d91a350565b3360009081526019602052604090205460ff161580156141c957506017546001600160a01b03163314155b156141e65760405162461bcd60e51b8152600401610e3e906166ff565b6001600160a01b03831660009081526007602052604090205460ff1661421e5760405162461bcd60e51b8152600401610e3e906165d3565b805182511461423f5760405162461bcd60e51b8152600401610e3e906166d3565b60005b8251811015614364576142888484838151811061426157614261616a0a565b602002602001015184848151811061427b5761427b616a0a565b6020026020010151614f5f565b82818151811061429a5761429a616a0a565b60200260200101516001600160a01b031663a9059cbb601760009054906101000a90046001600160a01b03168484815181106142d8576142d8616a0a565b60200260200101516040518363ffffffff1660e01b81526004016142fd9291906164ab565b602060405180830381600087803b15801561431757600080fd5b505af1925050508015614347575060408051601f3d908101601f191682019092526143449181019061633e565b60015b61435057614352565b505b8061435c81616972565b915050614242565b50336001600160a01b0316836001600160a01b03167fd2674fa1b0f8b37d8a475bfbc6f116655a96012d141d39dd69e93c353680f80184846040516143aa9291906164d7565b60405180910390a3505050565b6017546001600160a01b031633146143e15760405162461bcd60e51b8152600401610e3e9061662e565b6001600160a01b0381166144075760405162461bcd60e51b8152600401610e3e90616759565b601c80546001600160a01b0319166001600160a01b0383161790556040517feb931b4b5a98d20a6b1e6693a7c59d8e337a06e2f1473bb776e19251db7ae250906127db90839061642e565b6017546001600160a01b0316331461447c5760405162461bcd60e51b8152600401610e3e9061662e565b620151808110156144c35760405162461bcd60e51b81526020600482015260116024820152704d696e526577617264506572696f64282960781b6044820152606401610e3e565b60228190556040518181527f54aafa56429e22230b52f1495588ffc632277d74f3a85ec755e13ac50c1584d9906020016127db565b6002600054141561451b5760405162461bcd60e51b8152600401610e3e906167db565b600260009081556001600160a01b0385811682526001602052604090912054859116331461455b5760405162461bcd60e51b8152600401610e3e90616780565b6001600160a01b0380861660009081526025602090815260408083209388168352929052205461458d90603c90616894565b42116145d55760405162461bcd60e51b81526020600482015260176024820152764a6f62546f6b656e437265646974734c6f636b6564282960481b6044820152606401610e3e565b6001600160a01b0380861660009081526009602090815260408083209388168352929052205483111561464a5760405162461bcd60e51b815260206004820152601d60248201527f496e73756666696369656e744a6f62546f6b656e4372656469747328290000006044820152606401610e3e565b6001600160a01b03851660009081526007602052604090205460ff16156146835760405162461bcd60e51b8152600401610e3e90616732565b6001600160a01b038086166000908152600960209081526040808320938816835292905290812080548592906146ba90849061692f565b909155506146d490506001600160a01b0385168385615714565b6001600160a01b03808616600090815260096020908152604080832093881683529290522054614722576001600160a01b0385166000908152600c6020526040902061472090856156ff565b505b816001600160a01b0316846001600160a01b0316866001600160a01b03167f53e982dd9ec088d634c74c98fbbc161f808b4b6469a26c657120b9a31cb34bfe8660405161477191815260200190565b60405180910390a450506001600055505050565b3360008181526007602052604090205460ff16156147b55760405162461bcd60e51b8152600401610e3e90616732565b6001600160a01b03831660009081526007602052604090205460ff16156147ee5760405162461bcd60e51b8152600401610e3e906166af565b6147f9601582614eb8565b6148155760405162461bcd60e51b8152600401610e3e90616554565b6001600160a01b0380821660009081526009602090815260408083209388168352929052205482111561485a5760405162461bcd60e51b8152600401610e3e906165a6565b6001600160a01b0380821660009081526009602090815260408083209388168352929052908120805484929061489190849061692f565b909155506148ab90506001600160a01b0385168484615714565b826001600160a01b0316816001600160a01b0316856001600160a01b0316600080516020616a4c833981519152855a6040805192835260208301919091520160405180910390a450505050565b6002600054141561491b5760405162461bcd60e51b8152600401610e3e906167db565b600260009081553381526019602052604090205460ff1615801561494a57506017546001600160a01b03163314155b156149675760405162461bcd60e51b8152600401610e3e906166ff565b6001600160a01b03821660009081526007602052604090205460ff1661499f5760405162461bcd60e51b8152600401610e3e906165d3565b6149aa838383615836565b60405181815233906001600160a01b038416907f10a73de7ab6e9023aa6e2bc23f7abf4dcef591487e7e55f44c00e34fe60d56db90602001611b01565b6017546001600160a01b03163314614a115760405162461bcd60e51b8152600401610e3e9061662e565b60218190556040518181527f24d51b415694a791b1c77df7817c075ac82b83ce611bcd8627d2e66cf37aa3e7906020016127db565b6017546001600160a01b03163314614a705760405162461bcd60e51b8152600401610e3e9061662e565b6001600160a01b038116614a965760405162461bcd60e51b8152600401610e3e90616759565b601b80546001600160a01b0319166001600160a01b0383161790556040517f1d1a3e7caf0717056e48dc8aefa54d806c7af86324fece4e5d49f8e1f01f84bf906127db90839061642e565b6017546001600160a01b03163314614b0b5760405162461bcd60e51b8152600401610e3e9061662e565b6001600160a01b0381166000908152601a602052604090205460ff16614b6a5760405162461bcd60e51b81526020600482015260146024820152734469737075746572556e6578697374656e74282960601b6044820152606401610e3e565b6001600160a01b0381166000908152601a602052604090819020805460ff19169055517f5e8bd21d0a98cb2caf33706e56139ff40ffbdca7ec5d9d412a0a2292496dc70e906127db90839061642e565b336000908152601a602052604090205460ff16158015614be557506017546001600160a01b03163314155b15614c025760405162461bcd60e51b8152600401610e3e906165fa565b6001600160a01b03811660009081526007602052604090205460ff1615614c5f5760405162461bcd60e51b8152602060048201526011602482015270416c72656164794469737075746564282960781b6044820152606401610e3e565b6001600160a01b038116600081815260076020526040808220805460ff19166001179055513392917f070125a1c0f5202217aae14ec399abfaaa13c2fd98a91d43bd3a897dd4751e8091a350565b60005a602e55614cbe600387614eb8565b8015614cef57506001600160a01b038087166000908152600860209081526040808320938916835292905220548411155b8015614d1357506001600160a01b0386166000908152600560205260409020548311155b8015614d4257506001600160a01b0386166000908152600660205260409020548290614d3f904261692f565b10155b15614d6c57600080516020616a8c8339815191525a60405190815260200160405180910390a15060015b95945050505050565b6017546001600160a01b03163314614d9f5760405162461bcd60e51b8152600401610e3e9061662e565b614daa601583614eb8565b614dc65760405162461bcd60e51b8152600401610e3e90616685565b614dcf82615784565b6001600160a01b0382166000908152600a602052604081208054839290614df7908490616894565b90915550506001600160a01b038216600081815260296020908152604080832054600a835281842054600b90935292819020549051600080516020616a6c83398151915293614e49939092909161682b565b60405180910390a25050565b600060225482614e65919061698d565b610dfd908361692f565b6000602254831015612a9d5760225482614e89828661698d565b614e9391906168c0565b614e9d91906168ac565b9050610dfd565b60606000614eb18361593c565b9392505050565b6000614eb1836001600160a01b038416615998565b60225460235460405163554d048960e11b815260009273__$c5dd7ebc0ce14d94f217945953a329b66b$__9263aa9a091292614f0f928792909160040161682b565b60206040518083038186803b158015614f2757600080fd5b505af4158015614f3b573d6000803e3d6000fd5b505050506040513d601f19601f82011682018060405250810190610dfd91906163b5565b60026000541415614f825760405162461bcd60e51b8152600401610e3e906167db565b600260009081556001600160a01b0384168152600d60205260409020614fa89083614eb8565b614fef5760405162461bcd60e51b81526020600482015260186024820152774a6f624c6971756964697479556e6578697374656e74282960401b6044820152606401610e3e565b6001600160a01b038084166000908152602860209081526040808320938616835292905220548111156150615760405162461bcd60e51b815260206004820152601a6024820152794a6f624c6971756964697479496e73756666696369656e74282960301b6044820152606401610e3e565b61506a836159b0565b6000615079610ded83856151c4565b6001600160a01b0385166000908152600b60205260409020549091501561512f576001600160a01b0384166000908152600b6020908152604080832054600a909252909120546150ca9083906168c0565b6150d491906168ac565b6001600160a01b0385166000908152600a6020526040812080549091906150fc90849061692f565b90915550506001600160a01b0384166000908152600b60205260408120805483929061512990849061692f565b90915550505b6001600160a01b0380851660009081526028602090815260408083209387168352929052908120805484929061516690849061692f565b90915550506001600160a01b038085166000908152602860209081526040808320938716835292905220546151b9576001600160a01b0384166000908152600d602052604090206151b790846156ff565b505b505060016000555050565b6001600160a01b0381166000908152602b602052604081206001015415610dfd576001600160a01b0382166000908152600f602052604081205460ff16615236576001600160a01b0383166000908152602b602052604090205461523190600160381b900460060b6169a1565b61525a565b6001600160a01b0383166000908152602b6020526040902054600160381b900460060b5b60225460405163a0d2710760e01b815291925073__$c5dd7ebc0ce14d94f217945953a329b66b$__9163a0d27107916152999188918691600401616812565b60206040518083038186803b1580156152b157600080fd5b505af41580156152c5573d6000803e3d6000fd5b505050506040513d601f19601f82011682018060405250810190610cde91906163b5565b60006152f442614e55565b6001600160a01b03831660009081526029602052604090205410156114b75761532460225442610c02919061692f565b6001600160a01b0383166000908152602960205260409020541161539a5761534b826159b0565b6001600160a01b0382166000908152600b6020908152604080832054600a9092529091205561537942614e55565b6001600160a01b038316600090815260296020526040902055506001919050565b6022546001600160a01b0383166000908152602960205260409020546153c0904261692f565b1061541c576153ce826159b0565b6001600160a01b0382166000908152600b6020908152604080832054600a8352818420556022546029909252822080549192909161540d908490616894565b90915550600191506114b79050565b61542542614e55565b6001600160a01b0383166000908152602a602052604090205410156114b7576001600160a01b0382166000908152600b6020526040902054615466836159b0565b6001600160a01b0383166000908152600b6020908152604080832054600a909252909120548291615496916168c0565b6154a091906168ac565b6001600160a01b0384166000908152600a602052604090205550919050565b6001600160a01b038116600090815260296020526040902054615504906154e6904261692f565b6001600160a01b0383166000908152600b6020526040902054614e6f565b6001600160a01b0382166000908152600a60205260408120805490919061552c908490616894565b90915550506001600160a01b03166000908152602960205260409020429055565b6001600160a01b0383166000908152600a60205260409020548111156155855760405162461bcd60e51b8152600401610e3e906165a6565b6001600160a01b0383166000908152602a60209081526040808320429055600a909152812080548392906155ba90849061692f565b90915550506001600160a01b038083166000908152600860209081526040808320601b54909416835292905290812080548392906155f9908490616894565b90915550506001600160a01b03821660009081526005602052604081208054839290615626908490616894565b9091555050505050565b6001600160a01b038216600090815260066020526040902054615669576001600160a01b03821660009081526006602052604090204290555b61567460038361576f565b506001600160a01b038083166000908152601060209081526040808320938516835292905220546156a68284836159d5565b6001600160a01b0383811660008181526010602090815260408083209487168084529482528083209290925590518481527f3673530133b6da67e9854f605b0cfa7bb9798cd33c18036dfc10d8da7c4d4a7591016143aa565b6000614eb1836001600160a01b038416615a8a565b61576a8363a9059cbb60e01b84846040516024016157339291906164ab565b60408051601f198184030181529190526020810180516001600160e01b03166001600160e01b031990931692909217909152615b7d565b505050565b6000614eb1836001600160a01b038416615c4f565b61578d816152e9565b50615797816154bf565b6001600160a01b0381166000908152600a6020908152604080832054600b909252909120546157c69190615c99565b6001600160a01b039091166000908152600a6020526040902055565b6040516001600160a01b038085166024830152831660448201526064810182905261581a9085906323b872dd60e01b90608401615733565b50505050565b6000610dfd825490565b6000614eb18383615caf565b601b546001600160a01b038481169116146159055760175460405163a9059cbb60e01b81526001600160a01b038581169263a9059cbb9261587f929091169085906004016164ab565b602060405180830381600087803b15801561589957600080fd5b505af19250505080156158c9575060408051601f3d908101601f191682019092526158c69181019061633e565b60015b615903573d8080156158f7576040519150601f19603f3d011682016040523d82523d6000602084013e6158fc565b606091505b5050615905565b505b6001600160a01b0380831660009081526008602090815260408083209387168352929052908120805483929061562690849061692f565b60608160000180548060200260200160405190810160405280929190818152602001828054801561598c57602002820191906000526020600020905b815481526020019060010190808311615978575b50505050509050919050565b60009081526001919091016020526040902054151590565b6159b981615cd9565b6001600160a01b039091166000908152600b6020526040902055565b6001600160a01b03808316600090815260086020908152604080832093871683529290529081208054839290615a0c908490616894565b9091555050601b546001600160a01b038481169116141561576a57601b54604051630852cd8d60e31b8152600481018390526001600160a01b03909116906342966c6890602401600060405180830381600087803b158015615a6d57600080fd5b505af1158015615a81573d6000803e3d6000fd5b50505050505050565b60008181526001830160205260408120548015615b73576000615aae60018361692f565b8554909150600090615ac29060019061692f565b9050818114615b27576000866000018281548110615ae257615ae2616a0a565b9060005260206000200154905080876000018481548110615b0557615b05616a0a565b6000918252602080832090910192909255918252600188019052604090208390555b8554869080615b3857615b386169f4565b600190038181906000526020600020016000905590558560010160008681526020019081526020016000206000905560019350505050610dfd565b6000915050610dfd565b6000615bd2826040518060400160405280602081526020017f5361666545524332303a206c6f772d6c6576656c2063616c6c206661696c6564815250856001600160a01b0316615ebd9092919063ffffffff16565b80519091501561576a5780806020019051810190615bf0919061633e565b61576a5760405162461bcd60e51b815260206004820152602a60248201527f5361666545524332303a204552433230206f7065726174696f6e20646964206e6044820152691bdd081cdd58d8d9595960b21b6064820152608401610e3e565b6000615c5b8383615998565b615c9157508154600181810184556000848152602080822090930184905584548482528286019093526040902091909155610dfd565b506000610dfd565b6000818310615ca85781614eb1565b5090919050565b6000826000018281548110615cc657615cc6616a0a565b9060005260206000200154905092915050565b6000615ce442614e55565b601e546001600160a01b03166000908152602b602052604090206001015414615d7b57601e54615d1c906001600160a01b03166110d9565b601e546001600160a01b03166000908152602b60209081526040918290208351815492850151600690810b66ffffffffffffff908116600160381b026001600160701b03199095169290910b1617919091178155910151600191909101555b60005b6001600160a01b0383166000908152600d60205260409020615d9f90615820565b811015612a9d576001600160a01b0383166000908152600d60205260408120615dc8908361582a565b9050615dd5602682614eb8565b15615eaa57615de342614e55565b6001600160a01b0382166000908152602b602052604090206001015414615e6957615e0d816110d9565b6001600160a01b0382166000908152602b60209081526040918290208351815492850151600690810b66ffffffffffffff908116600160381b026001600160701b03199095169290910b16179190911781559101516001909101555b6001600160a01b03808516600090815260286020908152604080832093851683529290522054615e9d90610ded90836151c4565b615ea79084616894565b92505b5080615eb581616972565b915050615d7e565b6060610cde848460008585843b615f165760405162461bcd60e51b815260206004820152601d60248201527f416464726573733a2063616c6c20746f206e6f6e2d636f6e74726163740000006044820152606401610e3e565b600080866001600160a01b03168587604051615f329190616412565b60006040518083038185875af1925050503d8060008114615f6f576040519150601f19603f3d011682016040523d82523d6000602084013e615f74565b606091505b5091509150615f84828286615f8f565b979650505050505050565b60608315615f9e575081614eb1565b825115615fae5782518084602001fd5b8160405162461bcd60e51b8152600401610e3e9190616521565b600082601f830112615fd957600080fd5b81356020615fee615fe983616871565b616841565b80838252828201915082860187848660051b890101111561600e57600080fd5b60005b8581101561602d57813584529284019290840190600101616011565b5090979650505050505050565b805180151581146114b757600080fd5b8051600681900b81146114b757600080fd5b60006020828403121561606e57600080fd5b8135614eb181616a36565b60006020828403121561608b57600080fd5b8151614eb181616a36565b600080604083850312156160a957600080fd5b82356160b481616a36565b915060208301356160c481616a36565b809150509250929050565b6000806000606084860312156160e457600080fd5b83356160ef81616a36565b925060208401356160ff81616a36565b9150604084013561610f81616a36565b809150509250925092565b60008060006060848603121561612f57600080fd5b833561613a81616a36565b9250602084013561614a81616a36565b929592945050506040919091013590565b6000806000806080858703121561617157600080fd5b843561617c81616a36565b9350602085013561618c81616a36565b92506040850135915060608501356161a381616a36565b939692955090935050565b600080600080600060a086880312156161c657600080fd5b85356161d181616a36565b945060208601356161e181616a36565b94979496505050506040830135926060810135926080909101359150565b60008060006060848603121561621457600080fd5b833561621f81616a36565b92506020848101356001600160401b038082111561623c57600080fd5b818701915087601f83011261625057600080fd5b813561625e615fe982616871565b8082825285820191508585018b878560051b880101111561627e57600080fd5b600095505b838610156162aa57803561629681616a36565b835260019590950194918601918601616283565b509650505060408701359250808311156162c357600080fd5b50506162d186828701615fc8565b9150509250925092565b600080604083850312156162ee57600080fd5b82356162f981616a36565b946020939093013593505050565b60008060006060848603121561631c57600080fd5b833561632781616a36565b925060208401359150604084013561610f81616a36565b60006020828403121561635057600080fd5b614eb18261603a565b60008060006060848603121561636e57600080fd5b6163778461604a565b92506163856020850161604a565b91506163936040850161603a565b90509250925092565b6000602082840312156163ae57600080fd5b5035919050565b6000602082840312156163c757600080fd5b5051919050565b600081518084526020808501945080840160005b838110156164075781516001600160a01b0316875295820195908201906001016163e2565b509495945050505050565b60008251616424818460208701616946565b9190910192915050565b6001600160a01b0391909116815260200190565b6001600160a01b0392831681529116602082015260400190565b6001600160a01b038316815260406020808301829052835191830182905260009184820191906060850190845b8181101561602d57845163ffffffff1683529383019391830191600101616489565b6001600160a01b03929092168252602082015260400190565b602081526000614eb160208301846163ce565b6040815260006164ea60408301856163ce565b82810360208481019190915284518083528582019282019060005b8181101561602d57845183529383019391830191600101616505565b6020815260008251806020840152616540816040850160208701616946565b601f01601f19169190910160400192915050565b6020808252600f908201526e4a6f62556e617070726f766564282960881b604082015260600190565b6020808252600f908201526e556e626f6e64734c6f636b6564282960881b604082015260600190565b602080825260139082015272496e73756666696369656e7446756e6473282960681b604082015260600190565b6020808252600d908201526c4e6f744469737075746564282960981b604082015260600190565b6020808252601a90820152794f6e6c7944697370757465724f72476f7665726e616e6365282960301b604082015260600190565b60208082526010908201526f4f6e6c79476f7665726e616e6365282960801b604082015260600190565b602080825260139082015272556e626f6e6473556e6578697374656e74282960681b604082015260600190565b60208082526010908201526f4a6f62556e617661696c61626c65282960801b604082015260600190565b6020808252600a90820152694469737075746564282960b01b604082015260600190565b602080825260129082015271496c6c6567616c417267756d656e7473282960701b604082015260600190565b6020808252601990820152784f6e6c79536c61736865724f72476f7665726e616e6365282960381b604082015260600190565b6020808252600d908201526c4a6f624469737075746564282960981b604082015260600190565b6020808252600d908201526c5a65726f41646472657373282960981b604082015260600190565b6020808252600e908201526d4f6e6c794a6f624f776e6572282960901b604082015260600190565b6020808252601990820152784a6f624c69717569646974794c6573735468616e4d696e282960381b604082015260600190565b6020808252601f908201527f5265656e7472616e637947756172643a207265656e7472616e742063616c6c00604082015260600190565b92835260069190910b6020830152604082015260600190565b9283526020830191909152604082015260600190565b604051601f8201601f191681016001600160401b038111828210171561686957616869616a20565b604052919050565b60006001600160401b0382111561688a5761688a616a20565b5060051b60200190565b600082198211156168a7576168a76169c8565b500190565b6000826168bb576168bb6169de565b500490565b60008160001904831182151516156168da576168da6169c8565b500290565b60008160060b8360060b6000811281667fffffffffffff190183128115161561690a5761690a6169c8565b81667fffffffffffff018313811615616925576169256169c8565b5090039392505050565b600082821015616941576169416169c8565b500390565b60005b83811015616961578181015183820152602001616949565b8381111561581a5750506000910152565b6000600019821415616986576169866169c8565b5060010190565b60008261699c5761699c6169de565b500690565b60008160060b667fffffffffffff198114156169bf576169bf6169c8565b60000392915050565b634e487b7160e01b600052601160045260246000fd5b634e487b7160e01b600052601260045260246000fd5b634e487b7160e01b600052603160045260246000fd5b634e487b7160e01b600052603260045260246000fd5b634e487b7160e01b600052604160045260246000fd5b6001600160a01b03811681146115bc57600080fdfe46f2180879a7123a197cc3828c28955d70d661c70acbdc02450daf5f9a9c1cfaee3f0daba9837d1ab0597acf34328550e4832d02e24e467825e7c2dd318c38204851cad52e624c8f7a1d44c28a80db05988ba2451fc0db6b0ec338d8eca95afb9aaab310d247ad45aef26bbdefc4ebf20c728fdb84c92b95b2b05d21826940dea264697066735822122018a78a53c7e936f007658f0950d1b95d65e6c85267a22087e62d67ea145a714264736f6c63430008070033",
  "linkReferences": {
    "solidity/contracts/libraries/Keep3rLibrary.sol": {
      "Keep3rLibrary": [
        {
          "length": 20,
          "start": 340
        },
        {
          "length": 20,
          "start": 4136
        },
        {
          "length": 20,
          "start": 5399
        },
        {
          "length": 20,
          "start": 5812
        },
        {
          "length": 20,
          "start": 11542
        },
        {
          "length": 20,
          "start": 13305
        },
        {
          "length": 20,
          "start": 16939
        },
        {
          "length": 20,
          "start": 20907
        },
        {
          "length": 20,
          "start": 21813
        }
      ]
    }
  },
  "deployedLinkReferences": {
    "solidity/contracts/libraries/Keep3rLibrary.sol": {
      "Keep3rLibrary": [
        {
          "length": 20,
          "start": 3426
        },
        {
          "length": 20,
          "start": 4689
        },
        {
          "length": 20,
          "start": 5102
        },
        {
          "length": 20,
          "start": 10832
        },
        {
          "length": 20,
          "start": 12595
        },
        {
          "length": 20,
          "start": 16229
        },
        {
          "length": 20,
          "start": 20197
        },
        {
          "length": 20,
          "start": 21103
        }
      ]
    }
  }
}