{
  "_format": "hh-sol-artifact-1",
  "contractName": "Keep3r",
  "sourceName": "solidity/contracts/Keep3r.sol",
  "abi": [
    {
      "inputs": [
        {
          "internalType": "address",
          "name": "_governance",
          "type": "address"
        },
        {
          "internalType": "address",
          "name": "_keep3rHelper",
          "type": "address"
        },
        {
          "internalType": "address",
          "name": "_keep3rV1",
          "type": "address"
        },
        {
          "internalType": "address",
          "name": "_keep3rV1Proxy",
          "type": "address"
        },
        {
          "internalType": "address",
          "name": "_kp3rWethPool",
          "type": "address"
        }
      ],
      "stateMutability": "nonpayable",
      "type": "constructor"
    },
    {
      "anonymous": false,
      "inputs": [
        {
          "indexed": true,
          "internalType": "address",
          "name": "_keeper",
          "type": "address"
        },
        {
          "indexed": true,
          "internalType": "address",
          "name": "_bond",
          "type": "address"
        },
        {
          "indexed": false,
          "internalType": "uint256",
          "name": "_amount",
          "type": "uint256"
        }
      ],
      "name": "Activation",
      "type": "event"
    },
    {
      "anonymous": false,
      "inputs": [
        {
          "indexed": false,
          "internalType": "uint256",
          "name": "_bondTime",
          "type": "uint256"
        }
      ],
      "name": "BondTimeChange",
      "type": "event"
    },
    {
      "anonymous": false,
      "inputs": [
        {
          "indexed": true,
          "internalType": "address",
          "name": "_keeper",
          "type": "address"
        },
        {
          "indexed": true,
          "internalType": "address",
          "name": "_bonding",
          "type": "address"
        },
        {
          "indexed": false,
          "internalType": "uint256",
          "name": "_amount",
          "type": "uint256"
        }
      ],
      "name": "Bonding",
      "type": "event"
    },
    {
      "anonymous": false,
      "inputs": [
        {
          "indexed": true,
          "internalType": "address",
          "name": "_jobOrKeeper",
          "type": "address"
        },
        {
          "indexed": true,
          "internalType": "address",
          "name": "_disputer",
          "type": "address"
        }
      ],
      "name": "Dispute",
      "type": "event"
    },
    {
      "anonymous": false,
      "inputs": [
        {
          "indexed": false,
          "internalType": "address",
          "name": "_disputer",
          "type": "address"
        }
      ],
      "name": "DisputerAdded",
      "type": "event"
    },
    {
      "anonymous": false,
      "inputs": [
        {
          "indexed": false,
          "internalType": "address",
          "name": "_disputer",
          "type": "address"
        }
      ],
      "name": "DisputerRemoved",
      "type": "event"
    },
    {
      "anonymous": false,
      "inputs": [
        {
          "indexed": false,
          "internalType": "uint256",
          "name": "_fee",
          "type": "uint256"
        }
      ],
      "name": "FeeChange",
      "type": "event"
    },
    {
      "anonymous": false,
      "inputs": [
        {
          "indexed": false,
          "internalType": "address",
          "name": "_pendingGovernance",
          "type": "address"
        }
      ],
      "name": "GovernanceProposal",
      "type": "event"
    },
    {
      "anonymous": false,
      "inputs": [
        {
          "indexed": false,
          "internalType": "address",
          "name": "_governance",
          "type": "address"
        }
      ],
      "name": "GovernanceSet",
      "type": "event"
    },
    {
      "anonymous": false,
      "inputs": [
        {
          "indexed": false,
          "internalType": "uint256",
          "name": "_inflationPeriod",
          "type": "uint256"
        }
      ],
      "name": "InflationPeriodChange",
      "type": "event"
    },
    {
      "anonymous": false,
      "inputs": [
        {
          "indexed": true,
          "internalType": "address",
          "name": "_job",
          "type": "address"
        },
        {
          "indexed": true,
          "internalType": "address",
          "name": "_jobOwner",
          "type": "address"
        }
      ],
      "name": "JobAddition",
      "type": "event"
    },
    {
      "anonymous": false,
      "inputs": [
        {
          "indexed": true,
          "internalType": "address",
          "name": "_fromJob",
          "type": "address"
        },
        {
          "indexed": false,
          "internalType": "address",
          "name": "_toJob",
          "type": "address"
        }
      ],
      "name": "JobMigrationRequested",
      "type": "event"
    },
    {
      "anonymous": false,
      "inputs": [
        {
          "indexed": false,
          "internalType": "address",
          "name": "_fromJob",
          "type": "address"
        },
        {
          "indexed": true,
          "internalType": "address",
          "name": "_toJob",
          "type": "address"
        }
      ],
      "name": "JobMigrationSuccessful",
      "type": "event"
    },
    {
      "anonymous": false,
      "inputs": [
        {
          "indexed": true,
          "internalType": "address",
          "name": "_job",
          "type": "address"
        },
        {
          "indexed": true,
          "internalType": "address",
          "name": "_previousOwner",
          "type": "address"
        },
        {
          "indexed": true,
          "internalType": "address",
          "name": "_newOwner",
          "type": "address"
        }
      ],
      "name": "JobOwnershipAssent",
      "type": "event"
    },
    {
      "anonymous": false,
      "inputs": [
        {
          "indexed": true,
          "internalType": "address",
          "name": "_job",
          "type": "address"
        },
        {
          "indexed": true,
          "internalType": "address",
          "name": "_owner",
          "type": "address"
        },
        {
          "indexed": true,
          "internalType": "address",
          "name": "_pendingOwner",
          "type": "address"
        }
      ],
      "name": "JobOwnershipChange",
      "type": "event"
    },
    {
      "anonymous": false,
      "inputs": [
        {
          "indexed": true,
          "internalType": "address",
          "name": "_job",
          "type": "address"
        },
        {
          "indexed": false,
          "internalType": "address",
          "name": "_liquidity",
          "type": "address"
        },
        {
          "indexed": true,
          "internalType": "address",
          "name": "_slasher",
          "type": "address"
        },
        {
          "indexed": false,
          "internalType": "uint256",
          "name": "_amount",
          "type": "uint256"
        }
      ],
      "name": "JobSlashLiquidity",
      "type": "event"
    },
    {
      "anonymous": false,
      "inputs": [
        {
          "indexed": true,
          "internalType": "address",
          "name": "_job",
          "type": "address"
        },
        {
          "indexed": false,
          "internalType": "address",
          "name": "_token",
          "type": "address"
        },
        {
          "indexed": true,
          "internalType": "address",
          "name": "_slasher",
          "type": "address"
        },
        {
          "indexed": false,
          "internalType": "uint256",
          "name": "_amount",
          "type": "uint256"
        }
      ],
      "name": "JobSlashToken",
      "type": "event"
    },
    {
      "anonymous": false,
      "inputs": [
        {
          "indexed": false,
          "internalType": "address",
          "name": "_keep3rHelper",
          "type": "address"
        }
      ],
      "name": "Keep3rHelperChange",
      "type": "event"
    },
    {
      "anonymous": false,
      "inputs": [
        {
          "indexed": false,
          "internalType": "address",
          "name": "_keep3rV1",
          "type": "address"
        }
      ],
      "name": "Keep3rV1Change",
      "type": "event"
    },
    {
      "anonymous": false,
      "inputs": [
        {
          "indexed": false,
          "internalType": "address",
          "name": "_keep3rV1Proxy",
          "type": "address"
        }
      ],
      "name": "Keep3rV1ProxyChange",
      "type": "event"
    },
    {
      "anonymous": false,
      "inputs": [
        {
          "indexed": true,
          "internalType": "address",
          "name": "_keeper",
          "type": "address"
        },
        {
          "indexed": true,
          "internalType": "address",
          "name": "_slasher",
          "type": "address"
        }
      ],
      "name": "KeeperRevoke",
      "type": "event"
    },
    {
      "anonymous": false,
      "inputs": [
        {
          "indexed": true,
          "internalType": "address",
          "name": "_keeper",
          "type": "address"
        },
        {
          "indexed": true,
          "internalType": "address",
          "name": "_slasher",
          "type": "address"
        },
        {
          "indexed": false,
          "internalType": "uint256",
          "name": "_amount",
          "type": "uint256"
        }
      ],
      "name": "KeeperSlash",
      "type": "event"
    },
    {
      "anonymous": false,
      "inputs": [
        {
          "indexed": false,
          "internalType": "uint256",
          "name": "_gasLeft",
          "type": "uint256"
        }
      ],
      "name": "KeeperValidation",
      "type": "event"
    },
    {
      "anonymous": false,
      "inputs": [
        {
          "indexed": true,
          "internalType": "address",
          "name": "_credit",
          "type": "address"
        },
        {
          "indexed": true,
          "internalType": "address",
          "name": "_job",
          "type": "address"
        },
        {
          "indexed": true,
          "internalType": "address",
          "name": "_keeper",
          "type": "address"
        },
        {
          "indexed": false,
          "internalType": "uint256",
          "name": "_amount",
          "type": "uint256"
        },
        {
          "indexed": false,
          "internalType": "uint256",
          "name": "_gasLeft",
          "type": "uint256"
        }
      ],
      "name": "KeeperWork",
      "type": "event"
    },
    {
      "anonymous": false,
      "inputs": [
        {
          "indexed": false,
          "internalType": "address",
          "name": "_kp3rWethPool",
          "type": "address"
        }
      ],
      "name": "Kp3rWethPoolChange",
      "type": "event"
    },
    {
      "anonymous": false,
      "inputs": [
        {
          "indexed": true,
          "internalType": "address",
          "name": "_job",
          "type": "address"
        },
        {
          "indexed": true,
          "internalType": "address",
          "name": "_liquidity",
          "type": "address"
        },
        {
          "indexed": true,
          "internalType": "address",
          "name": "_provider",
          "type": "address"
        },
        {
          "indexed": false,
          "internalType": "uint256",
          "name": "_amount",
          "type": "uint256"
        }
      ],
      "name": "LiquidityAddition",
      "type": "event"
    },
    {
      "anonymous": false,
      "inputs": [
        {
          "indexed": false,
          "internalType": "address",
          "name": "_liquidity",
          "type": "address"
        }
      ],
      "name": "LiquidityApproval",
      "type": "event"
    },
    {
      "anonymous": false,
      "inputs": [
        {
          "indexed": true,
          "internalType": "address",
          "name": "_job",
          "type": "address"
        },
        {
          "indexed": false,
          "internalType": "uint256",
          "name": "_rewardedAt",
          "type": "uint256"
        },
        {
          "indexed": false,
          "internalType": "uint256",
          "name": "_currentCredits",
          "type": "uint256"
        }
      ],
      "name": "LiquidityCreditsForced",
      "type": "event"
    },
    {
      "anonymous": false,
      "inputs": [
        {
          "indexed": true,
          "internalType": "address",
          "name": "_job",
          "type": "address"
        },
        {
          "indexed": false,
          "internalType": "uint256",
          "name": "_rewardedAt",
          "type": "uint256"
        },
        {
          "indexed": false,
          "internalType": "uint256",
          "name": "_currentCredits",
          "type": "uint256"
        },
        {
          "indexed": false,
          "internalType": "uint256",
          "name": "_periodCredits",
          "type": "uint256"
        }
      ],
      "name": "LiquidityCreditsReward",
      "type": "event"
    },
    {
      "anonymous": false,
      "inputs": [
        {
          "indexed": false,
          "internalType": "uint256",
          "name": "_liquidityMinimum",
          "type": "uint256"
        }
      ],
      "name": "LiquidityMinimumChange",
      "type": "event"
    },
    {
      "anonymous": false,
      "inputs": [
        {
          "indexed": false,
          "internalType": "address",
          "name": "_liquidity",
          "type": "address"
        }
      ],
      "name": "LiquidityRevocation",
      "type": "event"
    },
    {
      "anonymous": false,
      "inputs": [
        {
          "indexed": true,
          "internalType": "address",
          "name": "_job",
          "type": "address"
        },
        {
          "indexed": true,
          "internalType": "address",
          "name": "_liquidity",
          "type": "address"
        },
        {
          "indexed": true,
          "internalType": "address",
          "name": "_receiver",
          "type": "address"
        },
        {
          "indexed": false,
          "internalType": "uint256",
          "name": "_amount",
          "type": "uint256"
        }
      ],
      "name": "LiquidityWithdrawal",
      "type": "event"
    },
    {
      "anonymous": false,
      "inputs": [
        {
          "indexed": true,
          "internalType": "address",
          "name": "_jobOrKeeper",
          "type": "address"
        },
        {
          "indexed": true,
          "internalType": "address",
          "name": "_resolver",
          "type": "address"
        }
      ],
      "name": "Resolve",
      "type": "event"
    },
    {
      "anonymous": false,
      "inputs": [
        {
          "indexed": false,
          "internalType": "uint256",
          "name": "_rewardPeriodTime",
          "type": "uint256"
        }
      ],
      "name": "RewardPeriodTimeChange",
      "type": "event"
    },
    {
      "anonymous": false,
      "inputs": [
        {
          "indexed": false,
          "internalType": "address",
          "name": "_slasher",
          "type": "address"
        }
      ],
      "name": "SlasherAdded",
      "type": "event"
    },
    {
      "anonymous": false,
      "inputs": [
        {
          "indexed": false,
          "internalType": "address",
          "name": "_slasher",
          "type": "address"
        }
      ],
      "name": "SlasherRemoved",
      "type": "event"
    },
    {
      "anonymous": false,
      "inputs": [
        {
          "indexed": true,
          "internalType": "address",
          "name": "_job",
          "type": "address"
        },
        {
          "indexed": true,
          "internalType": "address",
          "name": "_token",
          "type": "address"
        },
        {
          "indexed": true,
          "internalType": "address",
          "name": "_provider",
          "type": "address"
        },
        {
          "indexed": false,
          "internalType": "uint256",
          "name": "_amount",
          "type": "uint256"
        }
      ],
      "name": "TokenCreditAddition",
      "type": "event"
    },
    {
      "anonymous": false,
      "inputs": [
        {
          "indexed": true,
          "internalType": "address",
          "name": "_job",
          "type": "address"
        },
        {
          "indexed": true,
          "internalType": "address",
          "name": "_token",
          "type": "address"
        },
        {
          "indexed": true,
          "internalType": "address",
          "name": "_receiver",
          "type": "address"
        },
        {
          "indexed": false,
          "internalType": "uint256",
          "name": "_amount",
          "type": "uint256"
        }
      ],
      "name": "TokenCreditWithdrawal",
      "type": "event"
    },
    {
      "anonymous": false,
      "inputs": [
        {
          "indexed": false,
          "internalType": "uint256",
          "name": "_unbondTime",
          "type": "uint256"
        }
      ],
      "name": "UnbondTimeChange",
      "type": "event"
    },
    {
      "anonymous": false,
      "inputs": [
        {
          "indexed": true,
          "internalType": "address",
          "name": "_keeperOrJob",
          "type": "address"
        },
        {
          "indexed": true,
          "internalType": "address",
          "name": "_unbonding",
          "type": "address"
        },
        {
          "indexed": false,
          "internalType": "uint256",
          "name": "_amount",
          "type": "uint256"
        }
      ],
      "name": "Unbonding",
      "type": "event"
    },
    {
      "anonymous": false,
      "inputs": [
        {
          "indexed": true,
          "internalType": "address",
          "name": "_keeper",
          "type": "address"
        },
        {
          "indexed": true,
          "internalType": "address",
          "name": "_bond",
          "type": "address"
        },
        {
          "indexed": false,
          "internalType": "uint256",
          "name": "_amount",
          "type": "uint256"
        }
      ],
      "name": "Withdrawal",
      "type": "event"
    },
    {
      "inputs": [],
      "name": "BASE",
      "outputs": [
        {
          "internalType": "uint256",
          "name": "",
          "type": "uint256"
        }
      ],
      "stateMutability": "view",
      "type": "function"
    },
    {
      "inputs": [],
      "name": "MIN_REWARD_PERIOD_TIME",
      "outputs": [
        {
          "internalType": "uint256",
          "name": "",
          "type": "uint256"
        }
      ],
      "stateMutability": "view",
      "type": "function"
    },
    {
      "inputs": [],
      "name": "acceptGovernance",
      "outputs": [],
      "stateMutability": "nonpayable",
      "type": "function"
    },
    {
      "inputs": [
        {
          "internalType": "address",
          "name": "_fromJob",
          "type": "address"
        },
        {
          "internalType": "address",
          "name": "_toJob",
          "type": "address"
        }
      ],
      "name": "acceptJobMigration",
      "outputs": [],
      "stateMutability": "nonpayable",
      "type": "function"
    },
    {
      "inputs": [
        {
          "internalType": "address",
          "name": "_job",
          "type": "address"
        }
      ],
      "name": "acceptJobOwnership",
      "outputs": [],
      "stateMutability": "nonpayable",
      "type": "function"
    },
    {
      "inputs": [
        {
          "internalType": "address",
          "name": "_bonding",
          "type": "address"
        }
      ],
      "name": "activate",
      "outputs": [],
      "stateMutability": "nonpayable",
      "type": "function"
    },
    {
      "inputs": [
        {
          "internalType": "address",
          "name": "_job",
          "type": "address"
        }
      ],
      "name": "addJob",
      "outputs": [],
      "stateMutability": "nonpayable",
      "type": "function"
    },
    {
      "inputs": [
        {
          "internalType": "address",
          "name": "_job",
          "type": "address"
        },
        {
          "internalType": "address",
          "name": "_liquidity",
          "type": "address"
        },
        {
          "internalType": "uint256",
          "name": "_amount",
          "type": "uint256"
        }
      ],
      "name": "addLiquidityToJob",
      "outputs": [],
      "stateMutability": "nonpayable",
      "type": "function"
    },
    {
      "inputs": [
        {
          "internalType": "address",
          "name": "_job",
          "type": "address"
        },
        {
          "internalType": "address",
          "name": "_token",
          "type": "address"
        },
        {
          "internalType": "uint256",
          "name": "_amount",
          "type": "uint256"
        }
      ],
      "name": "addTokenCreditsToJob",
      "outputs": [],
      "stateMutability": "nonpayable",
      "type": "function"
    },
    {
      "inputs": [
        {
          "internalType": "address",
          "name": "_liquidity",
          "type": "address"
        }
      ],
      "name": "approveLiquidity",
      "outputs": [],
      "stateMutability": "nonpayable",
      "type": "function"
    },
    {
      "inputs": [],
      "name": "approvedLiquidities",
      "outputs": [
        {
          "internalType": "address[]",
          "name": "_list",
          "type": "address[]"
        }
      ],
      "stateMutability": "view",
      "type": "function"
    },
    {
      "inputs": [
        {
          "internalType": "address",
          "name": "_bonding",
          "type": "address"
        },
        {
          "internalType": "uint256",
          "name": "_amount",
          "type": "uint256"
        }
      ],
      "name": "bond",
      "outputs": [],
      "stateMutability": "nonpayable",
      "type": "function"
    },
    {
      "inputs": [],
      "name": "bondTime",
      "outputs": [
        {
          "internalType": "uint256",
          "name": "",
          "type": "uint256"
        }
      ],
      "stateMutability": "view",
      "type": "function"
    },
    {
      "inputs": [
        {
          "internalType": "address",
          "name": "_keeper",
          "type": "address"
        },
        {
          "internalType": "uint256",
          "name": "_payment",
          "type": "uint256"
        }
      ],
      "name": "bondedPayment",
      "outputs": [],
      "stateMutability": "nonpayable",
      "type": "function"
    },
    {
      "inputs": [
        {
          "internalType": "address",
          "name": "",
          "type": "address"
        },
        {
          "internalType": "address",
          "name": "",
          "type": "address"
        }
      ],
      "name": "bonds",
      "outputs": [
        {
          "internalType": "uint256",
          "name": "",
          "type": "uint256"
        }
      ],
      "stateMutability": "view",
      "type": "function"
    },
    {
      "inputs": [
        {
          "internalType": "address",
          "name": "",
          "type": "address"
        },
        {
          "internalType": "address",
          "name": "",
          "type": "address"
        }
      ],
      "name": "canActivateAfter",
      "outputs": [
        {
          "internalType": "uint256",
          "name": "",
          "type": "uint256"
        }
      ],
      "stateMutability": "view",
      "type": "function"
    },
    {
      "inputs": [
        {
          "internalType": "address",
          "name": "",
          "type": "address"
        },
        {
          "internalType": "address",
          "name": "",
          "type": "address"
        }
      ],
      "name": "canWithdrawAfter",
      "outputs": [
        {
          "internalType": "uint256",
          "name": "",
          "type": "uint256"
        }
      ],
      "stateMutability": "view",
      "type": "function"
    },
    {
      "inputs": [
        {
          "internalType": "address",
          "name": "_job",
          "type": "address"
        },
        {
          "internalType": "address",
          "name": "_newOwner",
          "type": "address"
        }
      ],
      "name": "changeJobOwnership",
      "outputs": [],
      "stateMutability": "nonpayable",
      "type": "function"
    },
    {
      "inputs": [
        {
          "internalType": "address",
          "name": "_token",
          "type": "address"
        },
        {
          "internalType": "address",
          "name": "_keeper",
          "type": "address"
        },
        {
          "internalType": "uint256",
          "name": "_amount",
          "type": "uint256"
        }
      ],
      "name": "directTokenPayment",
      "outputs": [],
      "stateMutability": "nonpayable",
      "type": "function"
    },
    {
      "inputs": [
        {
          "internalType": "address",
          "name": "_jobOrKeeper",
          "type": "address"
        }
      ],
      "name": "dispute",
      "outputs": [],
      "stateMutability": "nonpayable",
      "type": "function"
    },
    {
      "inputs": [
        {
          "internalType": "address",
          "name": "",
          "type": "address"
        }
      ],
      "name": "disputers",
      "outputs": [
        {
          "internalType": "bool",
          "name": "",
          "type": "bool"
        }
      ],
      "stateMutability": "view",
      "type": "function"
    },
    {
      "inputs": [
        {
          "internalType": "address",
          "name": "",
          "type": "address"
        }
      ],
      "name": "disputes",
      "outputs": [
        {
          "internalType": "bool",
          "name": "",
          "type": "bool"
        }
      ],
      "stateMutability": "view",
      "type": "function"
    },
    {
      "inputs": [],
      "name": "fee",
      "outputs": [
        {
          "internalType": "uint256",
          "name": "",
          "type": "uint256"
        }
      ],
      "stateMutability": "view",
      "type": "function"
    },
    {
      "inputs": [
        {
          "internalType": "address",
          "name": "",
          "type": "address"
        }
      ],
      "name": "firstSeen",
      "outputs": [
        {
          "internalType": "uint256",
          "name": "",
          "type": "uint256"
        }
      ],
      "stateMutability": "view",
      "type": "function"
    },
    {
      "inputs": [
        {
          "internalType": "address",
          "name": "_job",
          "type": "address"
        },
        {
          "internalType": "uint256",
          "name": "_amount",
          "type": "uint256"
        }
      ],
      "name": "forceLiquidityCreditsToJob",
      "outputs": [],
      "stateMutability": "nonpayable",
      "type": "function"
    },
    {
      "inputs": [],
      "name": "governance",
      "outputs": [
        {
          "internalType": "address",
          "name": "",
          "type": "address"
        }
      ],
      "stateMutability": "view",
      "type": "function"
    },
    {
      "inputs": [
        {
          "internalType": "address",
          "name": "",
          "type": "address"
        }
      ],
      "name": "hasBonded",
      "outputs": [
        {
          "internalType": "bool",
          "name": "",
          "type": "bool"
        }
      ],
      "stateMutability": "view",
      "type": "function"
    },
    {
      "inputs": [],
      "name": "inflationPeriod",
      "outputs": [
        {
          "internalType": "uint256",
          "name": "",
          "type": "uint256"
        }
      ],
      "stateMutability": "view",
      "type": "function"
    },
    {
      "inputs": [
        {
          "internalType": "address",
          "name": "_keeper",
          "type": "address"
        },
        {
          "internalType": "address",
          "name": "_bond",
          "type": "address"
        },
        {
          "internalType": "uint256",
          "name": "_minBond",
          "type": "uint256"
        },
        {
          "internalType": "uint256",
          "name": "_earned",
          "type": "uint256"
        },
        {
          "internalType": "uint256",
          "name": "_age",
          "type": "uint256"
        }
      ],
      "name": "isBondedKeeper",
      "outputs": [
        {
          "internalType": "bool",
          "name": "_isBondedKeeper",
          "type": "bool"
        }
      ],
      "stateMutability": "nonpayable",
      "type": "function"
    },
    {
      "inputs": [
        {
          "internalType": "address",
          "name": "_keeper",
          "type": "address"
        }
      ],
      "name": "isKeeper",
      "outputs": [
        {
          "internalType": "bool",
          "name": "_isKeeper",
          "type": "bool"
        }
      ],
      "stateMutability": "nonpayable",
      "type": "function"
    },
    {
      "inputs": [
        {
          "internalType": "address",
          "name": "_job",
          "type": "address"
        }
      ],
      "name": "jobLiquidityCredits",
      "outputs": [
        {
          "internalType": "uint256",
          "name": "_liquidityCredits",
          "type": "uint256"
        }
      ],
      "stateMutability": "view",
      "type": "function"
    },
    {
      "inputs": [
        {
          "internalType": "address",
          "name": "",
          "type": "address"
        }
      ],
      "name": "jobOwner",
      "outputs": [
        {
          "internalType": "address",
          "name": "",
          "type": "address"
        }
      ],
      "stateMutability": "view",
      "type": "function"
    },
    {
      "inputs": [
        {
          "internalType": "address",
          "name": "",
          "type": "address"
        }
      ],
      "name": "jobPendingOwner",
      "outputs": [
        {
          "internalType": "address",
          "name": "",
          "type": "address"
        }
      ],
      "stateMutability": "view",
      "type": "function"
    },
    {
      "inputs": [
        {
          "internalType": "address",
          "name": "_job",
          "type": "address"
        }
      ],
      "name": "jobPeriodCredits",
      "outputs": [
        {
          "internalType": "uint256",
          "name": "_periodCredits",
          "type": "uint256"
        }
      ],
      "stateMutability": "view",
      "type": "function"
    },
    {
      "inputs": [
        {
          "internalType": "address",
          "name": "",
          "type": "address"
        },
        {
          "internalType": "address",
          "name": "",
          "type": "address"
        }
      ],
      "name": "jobTokenCredits",
      "outputs": [
        {
          "internalType": "uint256",
          "name": "",
          "type": "uint256"
        }
      ],
      "stateMutability": "view",
      "type": "function"
    },
    {
      "inputs": [
        {
          "internalType": "address",
          "name": "",
          "type": "address"
        },
        {
          "internalType": "address",
          "name": "",
          "type": "address"
        }
      ],
      "name": "jobTokenCreditsAddedAt",
      "outputs": [
        {
          "internalType": "uint256",
          "name": "",
          "type": "uint256"
        }
      ],
      "stateMutability": "view",
      "type": "function"
    },
    {
      "inputs": [],
      "name": "jobs",
      "outputs": [
        {
          "internalType": "address[]",
          "name": "_list",
          "type": "address[]"
        }
      ],
      "stateMutability": "view",
      "type": "function"
    },
    {
      "inputs": [],
      "name": "keep3rHelper",
      "outputs": [
        {
          "internalType": "address",
          "name": "",
          "type": "address"
        }
      ],
      "stateMutability": "view",
      "type": "function"
    },
    {
      "inputs": [],
      "name": "keep3rV1",
      "outputs": [
        {
          "internalType": "address",
          "name": "",
          "type": "address"
        }
      ],
      "stateMutability": "view",
      "type": "function"
    },
    {
      "inputs": [],
      "name": "keep3rV1Proxy",
      "outputs": [
        {
          "internalType": "address",
          "name": "",
          "type": "address"
        }
      ],
      "stateMutability": "view",
      "type": "function"
    },
    {
      "inputs": [],
      "name": "keepers",
      "outputs": [
        {
          "internalType": "address[]",
          "name": "_list",
          "type": "address[]"
        }
      ],
      "stateMutability": "view",
      "type": "function"
    },
    {
      "inputs": [],
      "name": "kp3rWethPool",
      "outputs": [
        {
          "internalType": "address",
          "name": "",
          "type": "address"
        }
      ],
      "stateMutability": "view",
      "type": "function"
    },
    {
      "inputs": [
        {
          "internalType": "address",
          "name": "",
          "type": "address"
        },
        {
          "internalType": "address",
          "name": "",
          "type": "address"
        }
      ],
      "name": "liquidityAmount",
      "outputs": [
        {
          "internalType": "uint256",
          "name": "",
          "type": "uint256"
        }
      ],
      "stateMutability": "view",
      "type": "function"
    },
    {
      "inputs": [],
      "name": "liquidityMinimum",
      "outputs": [
        {
          "internalType": "uint256",
          "name": "",
          "type": "uint256"
        }
      ],
      "stateMutability": "view",
      "type": "function"
    },
    {
      "inputs": [
        {
          "internalType": "address",
          "name": "_fromJob",
          "type": "address"
        },
        {
          "internalType": "address",
          "name": "_toJob",
          "type": "address"
        }
      ],
      "name": "migrateJob",
      "outputs": [],
      "stateMutability": "nonpayable",
      "type": "function"
    },
    {
      "inputs": [
        {
          "internalType": "address",
          "name": "_liquidity",
          "type": "address"
        }
      ],
      "name": "observeLiquidity",
      "outputs": [
        {
          "components": [
            {
              "internalType": "int56",
              "name": "current",
              "type": "int56"
            },
            {
              "internalType": "int56",
              "name": "difference",
              "type": "int56"
            },
            {
              "internalType": "uint256",
              "name": "period",
              "type": "uint256"
            }
          ],
          "internalType": "struct IKeep3rJobFundableLiquidity.TickCache",
          "name": "_tickCache",
          "type": "tuple"
        }
      ],
      "stateMutability": "view",
      "type": "function"
    },
    {
      "inputs": [
        {
          "internalType": "address",
          "name": "",
          "type": "address"
        },
        {
          "internalType": "address",
          "name": "",
          "type": "address"
        }
      ],
      "name": "pendingBonds",
      "outputs": [
        {
          "internalType": "uint256",
          "name": "",
          "type": "uint256"
        }
      ],
      "stateMutability": "view",
      "type": "function"
    },
    {
      "inputs": [],
      "name": "pendingGovernance",
      "outputs": [
        {
          "internalType": "address",
          "name": "",
          "type": "address"
        }
      ],
      "stateMutability": "view",
      "type": "function"
    },
    {
      "inputs": [
        {
          "internalType": "address",
          "name": "",
          "type": "address"
        }
      ],
      "name": "pendingJobMigrations",
      "outputs": [
        {
          "internalType": "address",
          "name": "",
          "type": "address"
        }
      ],
      "stateMutability": "view",
      "type": "function"
    },
    {
      "inputs": [
        {
          "internalType": "address",
          "name": "",
          "type": "address"
        },
        {
          "internalType": "address",
          "name": "",
          "type": "address"
        }
      ],
      "name": "pendingUnbonds",
      "outputs": [
        {
          "internalType": "uint256",
          "name": "",
          "type": "uint256"
        }
      ],
      "stateMutability": "view",
      "type": "function"
    },
    {
      "inputs": [
        {
          "internalType": "address",
          "name": "_liquidity",
          "type": "address"
        },
        {
          "internalType": "uint256",
          "name": "_amount",
          "type": "uint256"
        }
      ],
      "name": "quoteLiquidity",
      "outputs": [
        {
          "internalType": "uint256",
          "name": "_periodCredits",
          "type": "uint256"
        }
      ],
      "stateMutability": "view",
      "type": "function"
    },
    {
      "inputs": [
        {
          "internalType": "address",
          "name": "_jobOrKeeper",
          "type": "address"
        }
      ],
      "name": "resolve",
      "outputs": [],
      "stateMutability": "nonpayable",
      "type": "function"
    },
    {
      "inputs": [
        {
          "internalType": "address",
          "name": "_keeper",
          "type": "address"
        }
      ],
      "name": "revoke",
      "outputs": [],
      "stateMutability": "nonpayable",
      "type": "function"
    },
    {
      "inputs": [
        {
          "internalType": "address",
          "name": "_liquidity",
          "type": "address"
        }
      ],
      "name": "revokeLiquidity",
      "outputs": [],
      "stateMutability": "nonpayable",
      "type": "function"
    },
    {
      "inputs": [],
      "name": "rewardPeriodTime",
      "outputs": [
        {
          "internalType": "uint256",
          "name": "",
          "type": "uint256"
        }
      ],
      "stateMutability": "view",
      "type": "function"
    },
    {
      "inputs": [
        {
          "internalType": "address",
          "name": "",
          "type": "address"
        }
      ],
      "name": "rewardedAt",
      "outputs": [
        {
          "internalType": "uint256",
          "name": "",
          "type": "uint256"
        }
      ],
      "stateMutability": "view",
      "type": "function"
    },
    {
      "inputs": [
        {
          "internalType": "uint256",
          "name": "_bondTime",
          "type": "uint256"
        }
      ],
      "name": "setBondTime",
      "outputs": [],
      "stateMutability": "nonpayable",
      "type": "function"
    },
    {
      "inputs": [
        {
          "internalType": "uint256",
          "name": "_fee",
          "type": "uint256"
        }
      ],
      "name": "setFee",
      "outputs": [],
      "stateMutability": "nonpayable",
      "type": "function"
    },
    {
      "inputs": [
        {
          "internalType": "address",
          "name": "_governance",
          "type": "address"
        }
      ],
      "name": "setGovernance",
      "outputs": [],
      "stateMutability": "nonpayable",
      "type": "function"
    },
    {
      "inputs": [
        {
          "internalType": "uint256",
          "name": "_inflationPeriod",
          "type": "uint256"
        }
      ],
      "name": "setInflationPeriod",
      "outputs": [],
      "stateMutability": "nonpayable",
      "type": "function"
    },
    {
      "inputs": [
        {
          "internalType": "address",
          "name": "_keep3rHelper",
          "type": "address"
        }
      ],
      "name": "setKeep3rHelper",
      "outputs": [],
      "stateMutability": "nonpayable",
      "type": "function"
    },
    {
      "inputs": [
        {
          "internalType": "address",
          "name": "_keep3rV1",
          "type": "address"
        }
      ],
      "name": "setKeep3rV1",
      "outputs": [],
      "stateMutability": "nonpayable",
      "type": "function"
    },
    {
      "inputs": [
        {
          "internalType": "address",
          "name": "_keep3rV1Proxy",
          "type": "address"
        }
      ],
      "name": "setKeep3rV1Proxy",
      "outputs": [],
      "stateMutability": "nonpayable",
      "type": "function"
    },
    {
      "inputs": [
        {
          "internalType": "address",
          "name": "_kp3rWethPool",
          "type": "address"
        }
      ],
      "name": "setKp3rWethPool",
      "outputs": [],
      "stateMutability": "nonpayable",
      "type": "function"
    },
    {
      "inputs": [
        {
          "internalType": "uint256",
          "name": "_liquidityMinimum",
          "type": "uint256"
        }
      ],
      "name": "setLiquidityMinimum",
      "outputs": [],
      "stateMutability": "nonpayable",
      "type": "function"
    },
    {
      "inputs": [
        {
          "internalType": "uint256",
          "name": "_rewardPeriodTime",
          "type": "uint256"
        }
      ],
      "name": "setRewardPeriodTime",
      "outputs": [],
      "stateMutability": "nonpayable",
      "type": "function"
    },
    {
      "inputs": [
        {
          "internalType": "uint256",
          "name": "_unbondTime",
          "type": "uint256"
        }
      ],
      "name": "setUnbondTime",
      "outputs": [],
      "stateMutability": "nonpayable",
      "type": "function"
    },
    {
      "inputs": [
        {
          "internalType": "address",
          "name": "_keeper",
          "type": "address"
        },
        {
          "internalType": "address",
          "name": "_bonded",
          "type": "address"
        },
        {
          "internalType": "uint256",
          "name": "_amount",
          "type": "uint256"
        }
      ],
      "name": "slash",
      "outputs": [],
      "stateMutability": "nonpayable",
      "type": "function"
    },
    {
      "inputs": [
        {
          "internalType": "address",
          "name": "_job",
          "type": "address"
        },
        {
          "internalType": "address",
          "name": "_liquidity",
          "type": "address"
        },
        {
          "internalType": "uint256",
          "name": "_amount",
          "type": "uint256"
        }
      ],
      "name": "slashLiquidityFromJob",
      "outputs": [],
      "stateMutability": "nonpayable",
      "type": "function"
    },
    {
      "inputs": [
        {
          "internalType": "address",
          "name": "_job",
          "type": "address"
        },
        {
          "internalType": "address",
          "name": "_token",
          "type": "address"
        },
        {
          "internalType": "uint256",
          "name": "_amount",
          "type": "uint256"
        }
      ],
      "name": "slashTokenFromJob",
      "outputs": [],
      "stateMutability": "nonpayable",
      "type": "function"
    },
    {
      "inputs": [
        {
          "internalType": "address",
          "name": "",
          "type": "address"
        }
      ],
      "name": "slashers",
      "outputs": [
        {
          "internalType": "bool",
          "name": "",
          "type": "bool"
        }
      ],
      "stateMutability": "view",
      "type": "function"
    },
    {
      "inputs": [
        {
          "internalType": "address",
          "name": "_job",
          "type": "address"
        }
      ],
      "name": "totalJobCredits",
      "outputs": [
        {
          "internalType": "uint256",
          "name": "_credits",
          "type": "uint256"
        }
      ],
      "stateMutability": "view",
      "type": "function"
    },
    {
      "inputs": [
        {
          "internalType": "address",
          "name": "_bonding",
          "type": "address"
        },
        {
          "internalType": "uint256",
          "name": "_amount",
          "type": "uint256"
        }
      ],
      "name": "unbond",
      "outputs": [],
      "stateMutability": "nonpayable",
      "type": "function"
    },
    {
      "inputs": [
        {
          "internalType": "address",
          "name": "_job",
          "type": "address"
        },
        {
          "internalType": "address",
          "name": "_liquidity",
          "type": "address"
        },
        {
          "internalType": "uint256",
          "name": "_amount",
          "type": "uint256"
        }
      ],
      "name": "unbondLiquidityFromJob",
      "outputs": [],
      "stateMutability": "nonpayable",
      "type": "function"
    },
    {
      "inputs": [],
      "name": "unbondTime",
      "outputs": [
        {
          "internalType": "uint256",
          "name": "",
          "type": "uint256"
        }
      ],
      "stateMutability": "view",
      "type": "function"
    },
    {
      "inputs": [
        {
          "internalType": "address",
          "name": "_bonding",
          "type": "address"
        }
      ],
      "name": "withdraw",
      "outputs": [],
      "stateMutability": "nonpayable",
      "type": "function"
    },
    {
      "inputs": [
        {
          "internalType": "address",
          "name": "_job",
          "type": "address"
        },
        {
          "internalType": "address",
          "name": "_liquidity",
          "type": "address"
        },
        {
          "internalType": "address",
          "name": "_receiver",
          "type": "address"
        }
      ],
      "name": "withdrawLiquidityFromJob",
      "outputs": [],
      "stateMutability": "nonpayable",
      "type": "function"
    },
    {
      "inputs": [
        {
          "internalType": "address",
          "name": "_job",
          "type": "address"
        },
        {
          "internalType": "address",
          "name": "_token",
          "type": "address"
        },
        {
          "internalType": "uint256",
          "name": "_amount",
          "type": "uint256"
        },
        {
          "internalType": "address",
          "name": "_receiver",
          "type": "address"
        }
      ],
      "name": "withdrawTokenCreditsFromJob",
      "outputs": [],
      "stateMutability": "nonpayable",
      "type": "function"
    },
    {
      "inputs": [
        {
          "internalType": "address",
          "name": "",
          "type": "address"
        }
      ],
      "name": "workCompleted",
      "outputs": [
        {
          "internalType": "uint256",
          "name": "",
          "type": "uint256"
        }
      ],
      "stateMutability": "view",
      "type": "function"
    },
    {
      "inputs": [
        {
          "internalType": "address",
          "name": "_keeper",
          "type": "address"
        }
      ],
      "name": "worked",
      "outputs": [],
      "stateMutability": "nonpayable",
      "type": "function"
    },
    {
      "inputs": [
        {
          "internalType": "address",
          "name": "",
          "type": "address"
        }
      ],
      "name": "workedAt",
      "outputs": [
        {
          "internalType": "uint256",
          "name": "",
          "type": "uint256"
        }
      ],
      "stateMutability": "view",
      "type": "function"
    }
  ],
  "bytecode": "0x60806040526203f480601f55621275006020556729a2241af62c000060215562069780602255622cd300602355601e6024553480156200003e57600080fd5b50604051620061df380380620061df833981016040819052620000619162000202565b60016000558383838388806001600160a01b038116620000c75760405162461bcd60e51b815260206004820152601960248201527f4e6f476f7665726e616e63655a65726f41646472657373282900000000000000604482015260640160405180910390fd5b601780546001600160a01b03199081166001600160a01b0393841617909155601d80548216888416178155601b80548316888516179055601c80548316878516179055601e8054831686851690811782556000818152600e602052604090819020805490951690911790935590549054915163696a437b60e01b81529183166004830152909116915063696a437b9060240160206040518083038186803b1580156200017257600080fd5b505afa15801562000187573d6000803e3d6000fd5b505050506040513d601f19601f82011682018060405250810190620001ad919062000272565b6001600160a01b03919091166000908152600f60205260409020805460ff1916911515919091179055506200029d9650505050505050565b80516001600160a01b0381168114620001fd57600080fd5b919050565b600080600080600060a086880312156200021b57600080fd5b6200022686620001e5565b94506200023660208701620001e5565b93506200024660408701620001e5565b92506200025660608701620001e5565b91506200026660808701620001e5565b90509295509295909350565b6000602082840312156200028557600080fd5b815180151581146200029657600080fd5b9392505050565b615f3280620002ad6000396000f3fe608060405234801561001057600080fd5b506004361061039b5760003560e01c8063034d4c61146103a057806307b435c2146103c65780630c620bce146103f15780630d6a1f87146104065780631101eb411461041957806311466d721461042e57806315006b8214610441578063160e1e311461046c578063165e62e71461047f578063168f92e7146104bc5780631b44555e146104e75780631c5a9d9c146105075780631ef94b911461051a57806321040b011461053a578063238efcbc14610565578063274a8db41461056d578063461411bc146105a057806351cff8d9146105aa57806352a4de29146105bd57806355ea6c47146105d0578063575288bf146105e3578063594a3a93146105f657806359a2255e146106095780635aa6e6751461061c5780635ebe23f01461062f5780635feeb79414610638578063633fb68f1461064b57806364bb43ee14610654578063694798e61461066757806369fe0e2d146106925780636ba42aaa146106a55780636cf262bc146106b85780636e2a9ca6146106cb57806372da828a146106de57806374a8f103146106f1578063768b5d90146107045780637b40c9131461070d5780637c8fce2314610720578063878c723e146107285780638bb6dfa8146107515780638cb22b76146107645780638fe204dd1461078757806390a4684e1461079a578063951dc22c146107ad57806398e90a0f146107b5578063a2145809146107de578063a39744b5146107f1578063a515366a1461081c578063a5d059ca1461082f578063a676f9ff14610842578063a7d2e78414610862578063ab033ea91461086b578063af320e811461087e578063b0103b1a14610891578063b2392233146108b4578063b440027f146108c7578063b600702a146108f2578063b7e7734014610905578063b87fcbff14610918578063c5198abc1461093b578063c7ae40d01461094e578063cb4be2bb14610961578063cb54694d14610974578063cd22af1b14610987578063d55995fe146109b2578063dd2080d6146109c5578063ddca3f43146109d8578063e326ac43146109e1578063e74f823914610a01578063ebbb619414610a14578063ec00cdfc14610a27578063ec342ad014610a3a578063ec8ca64314610a43578063f11a1d1a14610a6c578063f136a09d14610a7f578063f25e311b14610a9f578063f39c38a014610ab2578063f75f9f7b14610ac5578063f9d46cf214610ad8578063fc253d2b14610aeb578063fe75bc4614610af4575b600080fd5b6103b36103ae3660046156a0565b610b07565b6040519081526020015b60405180910390f35b6103b36103d43660046156da565b601260209081526000928352604080842090915290825290205481565b6103f9610c0c565b6040516103bd91906159a4565b6103b3610414366004615843565b610c1d565b61042c61042736600461575e565b610d23565b005b61042c61043c366004615843565b610e72565b6103b361044f3660046156da565b601060209081526000928352604080842090915290825290205481565b61042c61047a3660046156a0565b610ff7565b61049261048d3660046156a0565b61115b565b604080518251600690810b825260208085015190910b9082015291810151908201526060016103bd565b6103b36104ca3660046156da565b600960209081526000928352604080842090915290825290205481565b6103b36104f53660046156a0565b60056020526000908152604090205481565b61042c6105153660046156a0565b611521565b601b5461052d906001600160a01b031681565b6040516103bd919061591b565b6103b36105483660046156da565b601360209081526000928352604080842090915290825290205481565b61042c611624565b61059061057b3660046156a0565b601a6020526000908152604090205460ff1681565b60405190151581526020016103bd565b6103b36201518081565b61042c6105b83660046156a0565b6116d9565b61042c6105cb36600461575e565b6118bf565b61042c6105de3660046156a0565b611b19565b61042c6105f136600461575e565b611bcb565b61042c6106043660046156da565b611eb0565b61042c6106173660046156a0565b611f54565b60175461052d906001600160a01b031681565b6103b3601f5481565b61042c6106463660046156a0565b61202d565b6103b360215481565b61042c6106623660046156a0565b6122d0565b6103b36106753660046156da565b602860209081526000928352604080842090915290825290205481565b61042c6106a03660046158cd565b61237c565b6105906106b33660046156a0565b6123db565b6103b36106c63660046156a0565b61241a565b61042c6106d936600461575e565b612550565b61042c6106ec3660046156a0565b61269d565b61042c6106ff3660046156a0565b612738565b6103b360225481565b601e5461052d906001600160a01b031681565b6103f961281d565b61052d6107363660046156a0565b6001602052600090815260409020546001600160a01b031681565b6103b361075f3660046156a0565b612829565b6105906107723660046156a0565b60146020526000908152604090205460ff1681565b61042c6107953660046158cd565b612901565b61042c6107a83660046156da565b61295e565b6103f9612a75565b61052d6107c33660046156a0565b6002602052600090815260409020546001600160a01b031681565b61042c6107ec366004615713565b612a81565b6103b36107ff3660046156da565b600860209081526000928352604080842090915290825290205481565b61042c61082a366004615843565b612c5c565b61042c61083d366004615843565b612edb565b6103b36108503660046156a0565b60296020526000908152604090205481565b6103b360205481565b61042c6108793660046156a0565b612fa3565b61042c61088c3660046156da565b613018565b61059061089f3660046156a0565b60076020526000908152604090205460ff1681565b61042c6108c23660046158cd565b6134e6565b6103b36108d53660046156da565b602560209081526000928352604080842090915290825290205481565b61042c6109003660046156a0565b613545565b61042c6109133660046158cd565b613792565b6105906109263660046156a0565b60196020526000908152604090205460ff1681565b61042c6109493660046156a0565b6137f1565b601c5461052d906001600160a01b031681565b61042c61096f3660046156a0565b6138fb565b61042c6109823660046158cd565b613996565b6103b36109953660046156da565b601160209081526000928352604080842090915290825290205481565b61042c6109c036600461579f565b613a3c565b61042c6109d336600461575e565b613cc9565b6103b360245481565b6103b36109ef3660046156a0565b60066020526000908152604090205481565b61042c610a0f36600461575e565b613e3a565b61042c610a223660046158cd565b613ee9565b61042c610a353660046156a0565b613f48565b6103b361271081565b61052d610a513660046156a0565b602c602052600090815260409020546001600160a01b031681565b601d5461052d906001600160a01b031681565b6103b3610a8d3660046156a0565b602a6020526000908152604090205481565b61042c610aad36600461575e565b613fe3565b60185461052d906001600160a01b031681565b61042c610ad33660046156a0565b614275565b610590610ae63660046157f2565b61434f565b6103b360235481565b61042c610b02366004615843565b614417565b600080610b138361241a565b90506000610b2d60225442610b289190615d76565b6144fe565b6001600160a01b0385166000908152602960205260409020541115610bd1576022546001600160a01b038516600090815260296020526040902054610b729042615d76565b10610bae576022546001600160a01b038516600090815260296020526040902054610b9d9190615cdb565b610ba79042615d76565b9050610be7565b6001600160a01b038416600090815260296020526040902054610ba79042615d76565b610bda426144fe565b610be49042615d76565b90505b610bf18183614518565b610bfa85612829565b610c049190615cdb565b949350505050565b6060610c186026614542565b905090565b6000610c2a602684614556565b15610d1d576000610c3a8461115b565b90508060400151600014610d1b576001600160a01b0384166000908152600f602052604081205460ff16610c7b578160200151610c7690615de8565b610c81565b81602001515b601d5460225460405163a0d2710760e01b8152929350610d12926001600160a01b039092169163a0d2710791610cbd9189918791600401615c9e565b60206040518083038186803b158015610cd557600080fd5b505afa158015610ce9573d6000803e3d6000fd5b505050506040513d601f19601f82011682018060405250810190610d0d91906158e6565b61456b565b92505050610d1d565b505b92915050565b6001600160a01b038381166000908152600160205260409020548491163314610d675760405162461bcd60e51b8152600401610d5e90615c0c565b60405180910390fd5b602054610d749042615cdb565b6001600160a01b03808616600081815260126020908152604080832094891680845294825280832095909555918152601382528381209281529190529081208054849290610dc3908490615cdb565b90915550610dd4905084848461457c565b6001600160a01b038085166000908152602860209081526040808320938716835292905220548015801590610e135750602154610e1182866147e1565b105b15610e305760405162461bcd60e51b8152600401610d5e90615c34565b836001600160a01b0316856001600160a01b0316600080516020615edd83398151915285604051610e6391815260200190565b60405180910390a35050505050565b3360008181526007602052604090205460ff1615610ea25760405162461bcd60e51b8152600401610d5e90615bbe565b610ead601582614556565b610ec95760405162461bcd60e51b8152600401610d5e90615a24565b610ed2816148ff565b15610f2d576001600160a01b038116600081815260296020908152604080832054600a835281842054600b90935292819020549051600080516020615e9d83398151915293610f249390929091615cc5565b60405180910390a25b6001600160a01b0381166000908152600a6020526040902054821115610fac57610f5681614ad5565b6001600160a01b038116600081815260296020908152604080832054600a835281842054600b90935292819020549051600080516020615e9d83398151915293610fa39390929091615cc5565b60405180910390a25b610fb7818484614b63565b601b546001600160a01b03808516918382169116600080516020615e7d833981519152855a604051610fea929190615cb7565b60405180910390a4505050565b6017546001600160a01b031633146110215760405162461bcd60e51b8152600401610d5e90615af2565b6001600160a01b0381166110475760405162461bcd60e51b8152600401610d5e90615be5565b601e80546001600160a01b038084166001600160a01b031992831681179093556000838152600e6020526040908190208054909316909317909155601d54915163696a437b60e01b815291169063696a437b906110a890849060040161591b565b60206040518083038186803b1580156110c057600080fd5b505afa1580156110d4573d6000803e3d6000fd5b505050506040513d601f19601f820116820180604052508101906110f8919061586f565b6001600160a01b0382166000908152600f602052604090819020805460ff191692151592909217909155517f9bb1515b0fc2645a3f011162460a22fdd512e0bca265e7dc9ba6bceae8930afa9061115090839061591b565b60405180910390a150565b6040805160608101825260008082526020820181905291810191909152611181426144fe565b6001600160a01b0383166000908152602b602052604090206001015414156111f757506001600160a01b03166000908152602b602090815260409182902082516060810184528154600681810b810b810b8352600160381b909104810b810b900b92810192909252600101549181019190915290565b60008061120b60225442610b289190615d76565b6001600160a01b0385166000908152602b602052604090206001015490915081141561136f57604080516001808252818301909252600091602080830190803683375050506001600160a01b0386166000908152602b602052604090205490915060060b611278426144fe565b6112829042615d76565b8260008151811061129557611295615e51565b63ffffffff909216602092830291909101820152601d546001600160a01b038881166000908152600e90935260409283902054925163dc686d9160e01b81529181169263dc686d91926112f1929190911690869060040161592f565b60606040518083038186803b15801561130957600080fd5b505afa15801561131d573d6000803e3d6000fd5b505050506040513d601f19601f82011682018060405250810190611341919061588a565b600692830b90920b80885291955061135b91839150615d26565b600690810b900b6020860152506114f89050565b6001600160a01b0384166000908152602b60205260409020600101548111156114f8576040805160028082526060820183526000926020830190803683370190505090506113bc426144fe565b6113c69042615d76565b816000815181106113d9576113d9615e51565b602002602001019063ffffffff16908163ffffffff16815250506022546113ff426144fe565b6114099042615d76565b6114139190615cdb565b8160018151811061142657611426615e51565b63ffffffff909216602092830291909101820152601d546001600160a01b038781166000908152600e909352604080842054905163dc686d9160e01b81529282169263dc686d919261147e921690869060040161592f565b60606040518083038186803b15801561149657600080fd5b505afa1580156114aa573d6000803e3d6000fd5b505050506040513d601f19601f820116820180604052508101906114ce919061588a565b600692830b90920b80885291955091506114e9908290615d26565b600690810b900b602086015250505b811561151157611507426144fe565b6040840152611519565b600060408401525b50505b919050565b3360009081526007602052604090205460ff16156115515760405162461bcd60e51b8152600401610d5e90615b73565b3360009081526011602090815260408083206001600160a01b03851684529091529020546115b55760405162461bcd60e51b8152602060048201526011602482015270426f6e6473556e6578697374656e74282960781b6044820152606401610d5e565b3360009081526011602090815260408083206001600160a01b038516845290915290205442116116175760405162461bcd60e51b815260206004820152600d60248201526c426f6e64734c6f636b6564282960981b6044820152606401610d5e565b6116213382614c46565b50565b6018546001600160a01b031633146116785760405162461bcd60e51b81526020600482015260176024820152764f6e6c7950656e64696e67476f7665726e616e6365282960481b6044820152606401610d5e565b60188054601780546001600160a01b0383166001600160a01b031991821681179092559091169091556040517fc73be659241aade67e9a059bcf21494955018b213dbd1179054ccf928b13f3b6916116cf9161591b565b60405180910390a1565b600260005414156116fc5760405162461bcd60e51b8152600401610d5e90615c67565b600260009081553381526012602090815260408083206001600160a01b03851684529091529020546117405760405162461bcd60e51b8152600401610d5e90615b1c565b3360009081526012602090815260408083206001600160a01b038516845290915290205442116117825760405162461bcd60e51b8152600401610d5e90615a4d565b3360009081526007602052604090205460ff16156117b25760405162461bcd60e51b8152600401610d5e90615b73565b3360009081526013602090815260408083206001600160a01b0385811680865291909352922054601b5490929116141561184557601c5460405163140e25ad60e31b8152600481018390526001600160a01b039091169063a0712d6890602401600060405180830381600087803b15801561182c57600080fd5b505af1158015611840573d6000803e3d6000fd5b505050505b3360008181526013602090815260408083206001600160a01b03871680855292528220919091556118769183614d07565b6040518181526001600160a01b0383169033907f2717ead6b9200dd235aad468c9809ea400fe33ac69b5bfaa6d3e90fc922b63989060200160405180910390a350506001600055565b600260005414156118e25760405162461bcd60e51b8152600401610d5e90615c67565b60026000556118f2602683614556565b61193a5760405162461bcd60e51b81526020600482015260196024820152784c697175696469747950616972556e617070726f766564282960381b6044820152606401610d5e565b611945601584614556565b6119615760405162461bcd60e51b8152600401610d5e90615b49565b6001600160a01b0383166000908152600d602052604090206119839083614d62565b5061198d83614d77565b6021546001600160a01b038085166000908152602860209081526040808320938716835292905220546119cb906119c5908490615cdb565b846147e1565b10156119e95760405162461bcd60e51b8152600401610d5e90615c34565b6001600160a01b038316600081815260296020908152604080832054600a835281842054600b90935292819020549051600080516020615e9d83398151915293611a369390929091615cc5565b60405180910390a2611a536001600160a01b038316333084614dd5565b6001600160a01b03808416600090815260286020908152604080832093861683529290529081208054839290611a8a908490615cdb565b90915550611a9d9050610d0d82846147e1565b6001600160a01b0384166000908152600b602052604081208054909190611ac5908490615cdb565b909155505060405181815233906001600160a01b0384811691908616907f4e186bc75a2220191b826baff3ee63c3e970e94e58a9007ff94c9a7b8e6ebb3f9060200160405180910390a45050600160005550565b336000908152601a602052604090205460ff16611b485760405162461bcd60e51b8152600401610d5e90615aca565b6001600160a01b03811660009081526007602052604090205460ff16611b805760405162461bcd60e51b8152600401610d5e90615aa3565b6001600160a01b038116600081815260076020526040808220805460ff19169055513392917fe02b2375d8fb4aef3e5bc5d53bffcf70b6f185c5c93e69dcbe8b6cfc58e837e291a350565b60026000541415611bee5760405162461bcd60e51b8152600401610d5e90615c67565b6002600055611bfe601584614556565b611c1a5760405162461bcd60e51b8152600401610d5e90615b49565b601b546001600160a01b0383811691161415611c6b5760405162461bcd60e51b815260206004820152601060248201526f546f6b656e556e616c6c6f776564282960801b6044820152606401610d5e565b6040516370a0823160e01b81526000906001600160a01b038416906370a0823190611c9a90309060040161591b565b60206040518083038186803b158015611cb257600080fd5b505afa158015611cc6573d6000803e3d6000fd5b505050506040513d601f19601f82011682018060405250810190611cea91906158e6565b9050611d016001600160a01b038416333085614dd5565b600081846001600160a01b03166370a08231306040518263ffffffff1660e01b8152600401611d30919061591b565b60206040518083038186803b158015611d4857600080fd5b505afa158015611d5c573d6000803e3d6000fd5b505050506040513d601f19601f82011682018060405250810190611d8091906158e6565b611d8a9190615d76565b9050600061271060245483611d9f9190615d07565b611da99190615cf3565b9050611db58183615d76565b6001600160a01b038088166000908152600960209081526040808320938a1683529290529081208054909190611dec908490615cdb565b90915550506001600160a01b0380871660009081526025602090815260408083208985168085529252909120429055601754611e29921683614d07565b6001600160a01b0386166000908152600c60205260409020611e4b9086614d62565b50336001600160a01b0316856001600160a01b0316876001600160a01b03167fec1a37d4a331a5059081e0fb5da1735e7890900cd215a4fb1e9f2779fd7b83eb85604051611e9b91815260200190565b60405180910390a45050600160005550505050565b6001600160a01b038281166000908152600160205260409020548391163314611eeb5760405162461bcd60e51b8152600401610d5e90615c0c565b6001600160a01b03838116600081815260026020908152604080832080546001600160a01b031916888716908117909155600190925280832054905191941692917fa8bad3f0b781e1d954af9945167d5f80bfe5e57930f17c93843187c77557a6b891a4505050565b6001600160a01b038181166000908152600260205260409020548291163314611fb75760405162461bcd60e51b81526020600482015260156024820152744f6e6c7950656e64696e674a6f624f776e6572282960581b6044820152606401610d5e565b6001600160a01b03828116600081815260016020908152604080832080546002909352818420805487166001600160a01b031980861691909117909255805490911690555193169283929133917fcf30c54296d5eee76168b564c59c50578d49c271733a470f32707c8cfbc88a8b9190a4505050565b3360008181526007602052604090205460ff161561205d5760405162461bcd60e51b8152600401610d5e90615bbe565b612068601582614556565b6120845760405162461bcd60e51b8152600401610d5e90615a24565b61208d816148ff565b156120e8576001600160a01b038116600081815260296020908152604080832054600a835281842054600b90935292819020549051600080516020615e9d833981519152936120df9390929091615cc5565b60405180910390a25b60005a601d546001600160a01b038581166000908152600860209081526040808320601b548516845290915280822054905163516c332360e01b815260048101919091529394509291169063516c33239060240160206040518083038186803b15801561215457600080fd5b505afa158015612168573d6000803e3d6000fd5b505050506040513d601f19601f8201168201806040525081019061218c91906158e6565b90506000612710826121b685602e546121a59190615d76565b601e546001600160a01b03166147e1565b6121c09190615d07565b6121ca9190615cf3565b6001600160a01b0385166000908152600a602052604090205490915081111561224c576121f684614ad5565b6001600160a01b038416600081815260296020908152604080832054600a835281842054600b90935292819020549051600080516020615e9d833981519152936122439390929091615cc5565b60405180910390a25b60005a602e5461225c9190615d76565b905083602e5461226c9190615d76565b6122768383615d07565b6122809190615cf3565b915061228d858784614b63565b601b546001600160a01b03808816918782169116600080516020615e7d833981519152855a6040516122c0929190615cb7565b60405180910390a4505050505050565b6017546001600160a01b031633146122fa5760405162461bcd60e51b8152600401610d5e90615af2565b612305602682614e13565b61234d5760405162461bcd60e51b81526020600482015260196024820152784c697175696469747950616972556e6578697374656e74282960381b6044820152606401610d5e565b7f51199d699bdfd516fa88dd0d2f8487c40c147b4867acaa23adc8d4df6b098e5681604051611150919061591b565b6017546001600160a01b031633146123a65760405162461bcd60e51b8152600401610d5e90615af2565b60248190556040518181527f4c10ca068ff7002cf5da78f2f697d1e91f6f0ac27f7344b28e8ef25263f87e5d90602001611150565b60005a602e556123ec600383614556565b1561151c57600080516020615ebd8339815191525a60405190815260200160405180910390a1506001919050565b6000805b6001600160a01b0383166000908152600d6020526040902061243f90614e28565b81101561254a576001600160a01b0383166000908152600d602052604081206124689083614e32565b9050612475602682614556565b156125375760006124858261115b565b90508060400151600014612535576001600160a01b0382166000908152600f602052604081205460ff166124c65781602001516124c190615de8565b6124cc565b81602001515b601d546001600160a01b03888116600090815260286020908152604080832089851684529091529081902054602254915163a0d2710760e01b815294955061252794929093169263a0d2710792610cbd928791600401615c9e565b6125319086615cdb565b9450505b505b508061254281615db9565b91505061241e565b50919050565b3360009081526019602052604090205460ff1661257f5760405162461bcd60e51b8152600401610d5e90615b97565b6001600160a01b03831660009081526007602052604090205460ff166125b75760405162461bcd60e51b8152600401610d5e90615aa3565b6125c283838361457c565b60175460405163a9059cbb60e01b81526001600160a01b038481169263a9059cbb926125f69290911690859060040161598b565b602060405180830381600087803b15801561261057600080fd5b505af1925050508015612640575060408051601f3d908101601f1916820190925261263d9181019061586f565b60015b6126495761264b565b505b336001600160a01b0316836001600160a01b03167f6e10247c3c094d220ee99436c164b7f38d63b335a20ed817cbefaee4bb02d20e848460405161269092919061598b565b60405180910390a3505050565b6017546001600160a01b031633146126c75760405162461bcd60e51b8152600401610d5e90615af2565b6001600160a01b0381166126ed5760405162461bcd60e51b8152600401610d5e90615be5565b601d80546001600160a01b0319166001600160a01b0383161790556040517f71973fd672e51deb8f739b1f7e1eab991936645acd6f83e2bde6eeeaff5490b09061115090839061591b565b3360009081526019602052604090205460ff166127675760405162461bcd60e51b8152600401610d5e90615b97565b6001600160a01b03811660009081526007602052604090205460ff1661279f5760405162461bcd60e51b8152600401610d5e90615aa3565b6127aa600382614e13565b50601b546001600160a01b0380831660009081526008602090815260408083209390941680835292905291909120546127e4918391614e3e565b60405133906001600160a01b038316907f038a17b9b553c0c3fc2ed14b957a5d8420a1666fd2efe5c1b3fe5f23eea61bb390600090a350565b6060610c186015614542565b6000806128358361241a565b905061284860225442610b289190615d76565b6001600160a01b0384166000908152602960205260409020541115610d1d576022546001600160a01b03841660009081526029602052604090205461288d9042615d76565b1061289a5780915061254a565b600081116128c0576001600160a01b0383166000908152600a60205260409020546128fa565b6001600160a01b0383166000908152600b6020908152604080832054600a909252909120546128f0908390615d07565b6128fa9190615cf3565b915061254a565b6017546001600160a01b0316331461292b5760405162461bcd60e51b8152600401610d5e90615af2565b60208181556040518281527fc8d443472c9783cc36f8f5f5091f08ce9f37fc2f9e6d79cf1d9aaf40a433fee29101611150565b6001600160a01b0382811660009081526001602052604090205483911633146129995760405162461bcd60e51b8152600401610d5e90615c0c565b816001600160a01b0316836001600160a01b031614156129f65760405162461bcd60e51b81526020600482015260186024820152774a6f624d6967726174696f6e496d706f737369626c65282960401b6044820152606401610d5e565b6001600160a01b038381166000818152602c6020908152604080832080546001600160a01b0319169588169586179055602d825280832094835293905282902042905590517fff0456758201108de53c0ff04c69988d4678ff455b2ce6f733328cf85722c04c90612a6890859061591b565b60405180910390a2505050565b6060610c186003614542565b6001600160a01b038381166000908152600160205260409020548491163314612abc5760405162461bcd60e51b8152600401610d5e90615c0c565b6001600160a01b038216612ae25760405162461bcd60e51b8152600401610d5e90615be5565b6001600160a01b03808516600090815260126020908152604080832093871683529290522054612b245760405162461bcd60e51b8152600401610d5e90615b1c565b6001600160a01b038085166000908152601260209081526040808320938716835292905220544211612b685760405162461bcd60e51b8152600401610d5e90615a4d565b6001600160a01b03841660009081526007602052604090205460ff1615612ba15760405162461bcd60e51b8152600401610d5e90615b73565b6001600160a01b0380851660009081526013602090815260408083209387168084529390915290205490612bd6908483614d07565b826001600160a01b0316846001600160a01b0316866001600160a01b03167ffdb7893bf11f50c621e59cc7f1cf540e94295cb27ca869ec7ed7618ca792886284604051612c2591815260200190565b60405180910390a45050506001600160a01b0391821660009081526013602090815260408083209390941682529190915290812055565b60026000541415612c7f5760405162461bcd60e51b8152600401610d5e90615c67565b600260009081553381526007602052604090205460ff1615612cb35760405162461bcd60e51b8152600401610d5e90615b73565b612cbe601533614556565b15612cfb5760405162461bcd60e51b815260206004820152600d60248201526c416c7265616479414a6f62282960981b6044820152606401610d5e565b601f54612d089042615cdb565b3360009081526011602090815260408083206001600160a01b03871680855292528083209390935591516370a0823160e01b81529091906370a0823190612d5390309060040161591b565b60206040518083038186803b158015612d6b57600080fd5b505afa158015612d7f573d6000803e3d6000fd5b505050506040513d601f19601f82011682018060405250810190612da391906158e6565b9050612dba6001600160a01b038416333085614dd5565b6040516370a0823160e01b815281906001600160a01b038516906370a0823190612de890309060040161591b565b60206040518083038186803b158015612e0057600080fd5b505afa158015612e14573d6000803e3d6000fd5b505050506040513d601f19601f82011682018060405250810190612e3891906158e6565b612e429190615d76565b336000908152601460209081526040808320805460ff19166001179055601082528083206001600160a01b0388168452909152812080549294508492909190612e8c908490615cdb565b90915550506040518281526001600160a01b0384169033907fa7e66869262026842e8d81f5e6806cdc8d846e27c824e2e22f4fe51442771b349060200160405180910390a35050600160005550565b602054612ee89042615cdb565b3360008181526012602090815260408083206001600160a01b03881680855290835281842095909555928252600881528282209382529290925281208054839290612f34908490615d76565b90915550503360009081526013602090815260408083206001600160a01b038616845290915281208054839290612f6c908490615cdb565b90915550506040518181526001600160a01b038316903390600080516020615edd8339815191529060200160405180910390a35050565b6017546001600160a01b03163314612fcd5760405162461bcd60e51b8152600401610d5e90615af2565b601880546001600160a01b0319166001600160a01b0383161790556040517fe987aaedf9d279143bdf1eee16cf1d0feb47742867d81083df8d6cd0a5ac857f9061115090839061591b565b6001600160a01b0381811660009081526001602052604090205482911633146130535760405162461bcd60e51b8152600401610d5e90615c0c565b6001600160a01b03831660009081526007602052604090205460ff168061309257506001600160a01b03821660009081526007602052604090205460ff165b156130af5760405162461bcd60e51b8152600401610d5e90615bbe565b6001600160a01b038381166000908152602c60205260409020548116908316146131175760405162461bcd60e51b81526020600482015260196024820152784a6f624d6967726174696f6e556e617661696c61626c65282960381b6044820152606401610d5e565b6001600160a01b038084166000908152602d602090815260408083209386168352929052205461314990603c90615cdb565b42101561318f5760405162461bcd60e51b81526020600482015260146024820152734a6f624d6967726174696f6e4c6f636b6564282960601b6044820152606401610d5e565b61319883614d77565b6131a182614d77565b6001600160a01b0383166000908152600c602052604081206131c290614e28565b11156132a4576001600160a01b0383166000908152600c602052604081206131ea9082614e32565b6001600160a01b03808616600090815260096020818152604080842085871680865290835281852054958a168552928252808420928452919052812080549394509192613238908490615cdb565b90915550506001600160a01b0380851660008181526009602090815260408083209486168352938152838220829055918152600c9091522061327a9082614e13565b506001600160a01b0383166000908152600c6020526040902061329d9082614d62565b50506131a1565b6001600160a01b0383166000908152600d602052604081206132c590614e28565b11156133a7576001600160a01b0383166000908152600d602052604081206132ed9082614e32565b6001600160a01b03808616600090815260286020818152604080842085871680865290835281852054958a16855292825280842092845291905281208054939450919261333b908490615cdb565b90915550506001600160a01b038085166000908152602860209081526040808320858516845282528083208390559286168252600d90522061337d9082614d62565b506001600160a01b0384166000908152600d602052604090206133a09082614e13565b50506132a4565b6001600160a01b038084166000908152600b6020526040808220549285168252812080549091906133d9908490615cdb565b90915550506001600160a01b038084166000908152600b60209081526040808320839055600a9091528082205492851682528120805490919061341d908490615cdb565b90915550506001600160a01b0383166000908152600a602090815260408083208390556029909152812055613453601584614e13565b506001600160a01b03808416600081815260016020908152604080832080546001600160a01b031990811690915560028352818420805482169055602d8352818420958816808552958352818420849055938352602c909152908190208054909216909155517f9b712b63e3fb1325fa042d3c238ce8144937875065900528ea1e4f3b00f379f290612a6890869061591b565b6017546001600160a01b031633146135105760405162461bcd60e51b8152600401610d5e90615af2565b60238190556040518181527fbdcfd7b8482f31cff6a87c362d9e2e3887f4cdc2018c7c485d8e78a7b2fadb6990602001611150565b6017546001600160a01b0316331461356f5760405162461bcd60e51b8152600401610d5e90615af2565b61357a602682614d62565b6135c05760405162461bcd60e51b81526020600482015260176024820152764c697175696469747950616972417070726f766564282960481b6044820152606401610d5e565b806001600160a01b03166316f0115b6040518163ffffffff1660e01b815260040160206040518083038186803b1580156135f957600080fd5b505afa15801561360d573d6000803e3d6000fd5b505050506040513d601f19601f8201168201806040525081019061363191906156bd565b6001600160a01b038281166000908152600e60205260409081902080546001600160a01b0319169383169384179055601d54905163696a437b60e01b815291169163696a437b91613685919060040161591b565b60206040518083038186803b15801561369d57600080fd5b505afa1580156136b1573d6000803e3d6000fd5b505050506040513d601f19601f820116820180604052508101906136d5919061586f565b6001600160a01b0382166000908152600f60205260409020805460ff19169115159190911790556137058161115b565b6001600160a01b0382166000908152602b60209081526040918290208351815492850151600690810b66ffffffffffffff908116600160381b026001600160701b03199095169290910b161791909117815591810151600190920191909155517fabfa8db4d238fa78bf4e15fcc91328dd35f3978f200e2857a56bb719732b7b0b9061115090839061591b565b6017546001600160a01b031633146137bc5760405162461bcd60e51b8152600401610d5e90615af2565b601f8190556040518181527fd319ef78d2b690bb773fcccc2d096306bac7c9222dd0bb6b300f461e4a376b4390602001611150565b6137fc601582614556565b1561383d5760405162461bcd60e51b81526020600482015260116024820152704a6f62416c72656164794164646564282960781b6044820152606401610d5e565b6001600160a01b03811660009081526014602052604090205460ff16156138995760405162461bcd60e51b815260206004820152601060248201526f416c7265616479414b6565706572282960801b6044820152606401610d5e565b6138a4601582614d62565b506001600160a01b03811660008181526001602052604080822080546001600160a01b03191633908117909155905190917fed3faef50715743626cd57de74281a2b17cdbfc11c0486feda541fb911e0293d91a350565b6017546001600160a01b031633146139255760405162461bcd60e51b8152600401610d5e90615af2565b6001600160a01b03811661394b5760405162461bcd60e51b8152600401610d5e90615be5565b601c80546001600160a01b0319166001600160a01b0383161790556040517feb931b4b5a98d20a6b1e6693a7c59d8e337a06e2f1473bb776e19251db7ae2509061115090839061591b565b6017546001600160a01b031633146139c05760405162461bcd60e51b8152600401610d5e90615af2565b62015180811015613a075760405162461bcd60e51b81526020600482015260116024820152704d696e526577617264506572696f64282960781b6044820152606401610d5e565b60228190556040518181527f54aafa56429e22230b52f1495588ffc632277d74f3a85ec755e13ac50c1584d990602001611150565b60026000541415613a5f5760405162461bcd60e51b8152600401610d5e90615c67565b600260009081556001600160a01b03858116825260016020526040909120548591163314613a9f5760405162461bcd60e51b8152600401610d5e90615c0c565b6001600160a01b03808616600090815260256020908152604080832093881683529290522054613ad190603c90615cdb565b4211613b195760405162461bcd60e51b81526020600482015260176024820152764a6f62546f6b656e437265646974734c6f636b6564282960481b6044820152606401610d5e565b6001600160a01b03808616600090815260096020908152604080832093881683529290522054831115613b8e5760405162461bcd60e51b815260206004820152601d60248201527f496e73756666696369656e744a6f62546f6b656e4372656469747328290000006044820152606401610d5e565b6001600160a01b03851660009081526007602052604090205460ff1615613bc75760405162461bcd60e51b8152600401610d5e90615bbe565b6001600160a01b03808616600090815260096020908152604080832093881683529290529081208054859290613bfe908490615d76565b90915550613c1890506001600160a01b0385168385614d07565b6001600160a01b03808616600090815260096020908152604080832093881683529290522054613c66576001600160a01b0385166000908152600c60205260409020613c649085614e13565b505b816001600160a01b0316846001600160a01b0316866001600160a01b03167f53e982dd9ec088d634c74c98fbbc161f808b4b6469a26c657120b9a31cb34bfe86604051613cb591815260200190565b60405180910390a450506001600055505050565b3360008181526007602052604090205460ff1615613cf95760405162461bcd60e51b8152600401610d5e90615bbe565b6001600160a01b03831660009081526007602052604090205460ff1615613d325760405162461bcd60e51b8152600401610d5e90615b73565b613d3d601582614556565b613d595760405162461bcd60e51b8152600401610d5e90615a24565b6001600160a01b03808216600090815260096020908152604080832093881683529290522054821115613d9e5760405162461bcd60e51b8152600401610d5e90615a76565b6001600160a01b03808216600090815260096020908152604080832093881683529290529081208054849290613dd5908490615d76565b90915550613def90506001600160a01b0385168484614d07565b826001600160a01b0316816001600160a01b0316856001600160a01b0316600080516020615e7d833981519152855a604051613e2c929190615cb7565b60405180910390a450505050565b3360009081526019602052604090205460ff16613e695760405162461bcd60e51b8152600401610d5e90615b97565b6001600160a01b03831660009081526007602052604090205460ff16613ea15760405162461bcd60e51b8152600401610d5e90615aa3565b613eac838383614e3e565b60405181815233906001600160a01b038516907f10a73de7ab6e9023aa6e2bc23f7abf4dcef591487e7e55f44c00e34fe60d56db90602001612690565b6017546001600160a01b03163314613f135760405162461bcd60e51b8152600401610d5e90615af2565b60218190556040518181527f24d51b415694a791b1c77df7817c075ac82b83ce611bcd8627d2e66cf37aa3e790602001611150565b6017546001600160a01b03163314613f725760405162461bcd60e51b8152600401610d5e90615af2565b6001600160a01b038116613f985760405162461bcd60e51b8152600401610d5e90615be5565b601b80546001600160a01b0319166001600160a01b0383161790556040517f1d1a3e7caf0717056e48dc8aefa54d806c7af86324fece4e5d49f8e1f01f84bf9061115090839061591b565b3360009081526019602052604090205460ff166140125760405162461bcd60e51b8152600401610d5e90615b97565b6001600160a01b03831660009081526007602052604090205460ff1661404a5760405162461bcd60e51b8152600401610d5e90615aa3565b6001600160a01b0383166000908152600c6020526040902061406c9083614556565b6140af5760405162461bcd60e51b81526020600482015260146024820152734a6f62546f6b656e556e6578697374656e74282960601b6044820152606401610d5e565b6001600160a01b0380841660009081526009602090815260408083209386168352929052205481111561411d5760405162461bcd60e51b81526020600482015260166024820152754a6f62546f6b656e496e73756666696369656e74282960501b6044820152606401610d5e565b60175460405163a9059cbb60e01b81526001600160a01b038481169263a9059cbb926141519290911690859060040161598b565b602060405180830381600087803b15801561416b57600080fd5b505af192505050801561419b575060408051601f3d908101601f191682019092526141989181019061586f565b60015b6141a4576141a6565b505b6001600160a01b038084166000908152600960209081526040808320938616835292905290812080548392906141dd908490615d76565b90915550506001600160a01b03808416600090815260096020908152604080832093861683529290522054614230576001600160a01b0383166000908152600c6020526040902061422e9083614e13565b505b336001600160a01b0316836001600160a01b03167f20262b97130b5cb8f80624eed2733df2b05db4a0789b4a3d0157e1d318333104848460405161269092919061598b565b336000908152601a602052604090205460ff166142a45760405162461bcd60e51b8152600401610d5e90615aca565b6001600160a01b03811660009081526007602052604090205460ff16156143015760405162461bcd60e51b8152602060048201526011602482015270416c72656164794469737075746564282960781b6044820152606401610d5e565b6001600160a01b038116600081815260076020526040808220805460ff19166001179055513392917f070125a1c0f5202217aae14ec399abfaaa13c2fd98a91d43bd3a897dd4751e8091a350565b60005a602e55614360600387614556565b801561439157506001600160a01b038087166000908152600860209081526040808320938916835292905220548411155b80156143b557506001600160a01b0386166000908152600560205260409020548311155b80156143e457506001600160a01b03861660009081526006602052604090205482906143e19042615d76565b10155b1561440e57600080516020615ebd8339815191525a60405190815260200160405180910390a15060015b95945050505050565b6017546001600160a01b031633146144415760405162461bcd60e51b8152600401610d5e90615af2565b61444c601583614556565b6144685760405162461bcd60e51b8152600401610d5e90615b49565b61447182614d77565b6001600160a01b0382166000908152600a602052604081208054839290614499908490615cdb565b90915550506001600160a01b038216600081815260296020908152604080832054600a909252918290205491517f5abcf5031fdbd3badb9d1e09094208de329aee72730e87650f346584205d23d1926144f29291615cb7565b60405180910390a25050565b60006022548261450e9190615dd4565b610d1d9083615d76565b600060225483101561254a576022546145318385615d07565b61453b9190615cf3565b9050610d1d565b6060600061454f83614f44565b9392505050565b600061454f836001600160a01b038416614fa0565b6000610d1d82602254602354614fb8565b6002600054141561459f5760405162461bcd60e51b8152600401610d5e90615c67565b600260009081556001600160a01b0384168152600d602052604090206145c59083614556565b61460c5760405162461bcd60e51b81526020600482015260186024820152774a6f624c6971756964697479556e6578697374656e74282960401b6044820152606401610d5e565b6001600160a01b0380841660009081526028602090815260408083209386168352929052205481111561467e5760405162461bcd60e51b815260206004820152601a6024820152794a6f624c6971756964697479496e73756666696369656e74282960301b6044820152606401610d5e565b61468783615066565b6000614696610d0d83856147e1565b6001600160a01b0385166000908152600b60205260409020549091501561474c576001600160a01b0384166000908152600b6020908152604080832054600a909252909120546146e7908390615d07565b6146f19190615cf3565b6001600160a01b0385166000908152600a602052604081208054909190614719908490615d76565b90915550506001600160a01b0384166000908152600b602052604081208054839290614746908490615d76565b90915550505b6001600160a01b03808516600090815260286020908152604080832093871683529290529081208054849290614783908490615d76565b90915550506001600160a01b038085166000908152602860209081526040808320938716835292905220546147d6576001600160a01b0384166000908152600d602052604090206147d49084614e13565b505b505060016000555050565b6001600160a01b0381166000908152602b602052604081206001015415610d1d576001600160a01b0382166000908152600f602052604081205460ff16614853576001600160a01b0383166000908152602b602052604090205461484e90600160381b900460060b615de8565b614877565b6001600160a01b0383166000908152602b6020526040902054600160381b900460060b5b601d5460225460405163a0d2710760e01b81529293506001600160a01b039091169163a0d27107916148af9188918691600401615c9e565b60206040518083038186803b1580156148c757600080fd5b505afa1580156148db573d6000803e3d6000fd5b505050506040513d601f19601f82011682018060405250810190610c0491906158e6565b600061490a426144fe565b6001600160a01b038316600090815260296020526040902054101561151c5761493a60225442610b289190615d76565b6001600160a01b038316600090815260296020526040902054116149b05761496182615066565b6001600160a01b0382166000908152600b6020908152604080832054600a9092529091205561498f426144fe565b6001600160a01b038316600090815260296020526040902055506001919050565b6022546001600160a01b0383166000908152602960205260409020546149d69042615d76565b10614a32576149e482615066565b6001600160a01b0382166000908152600b6020908152604080832054600a83528184205560225460299092528220805491929091614a23908490615cdb565b909155506001915061151c9050565b614a3b426144fe565b6001600160a01b0383166000908152602a6020526040902054101561151c576001600160a01b0382166000908152600b6020526040902054614a7c83615066565b6001600160a01b0383166000908152600b6020908152604080832054600a909252909120548291614aac91615d07565b614ab69190615cf3565b6001600160a01b0384166000908152600a602052604090205550919050565b6001600160a01b038116600090815260296020526040902054614b1a90614afc9042615d76565b6001600160a01b0383166000908152600b6020526040902054614518565b6001600160a01b0382166000908152600a602052604081208054909190614b42908490615cdb565b90915550506001600160a01b03166000908152602960205260409020429055565b6001600160a01b0383166000908152600a6020526040902054811115614b9b5760405162461bcd60e51b8152600401610d5e90615a76565b6001600160a01b0383166000908152602a60209081526040808320429055600a90915281208054839290614bd0908490615d76565b90915550506001600160a01b038083166000908152600860209081526040808320601b5490941683529290529081208054839290614c0f908490615cdb565b90915550506001600160a01b03821660009081526005602052604081208054839290614c3c908490615cdb565b9091555050505050565b6001600160a01b038216600090815260066020526040902054614c7f576001600160a01b03821660009081526006602052604090204290555b614c8a600383614d62565b506001600160a01b03828116600090815260106020908152604080832093851683529290529081208054919055614cc282848361508b565b816001600160a01b0316836001600160a01b03167f3673530133b6da67e9854f605b0cfa7bb9798cd33c18036dfc10d8da7c4d4a758360405161269091815260200190565b614d5d8363a9059cbb60e01b8484604051602401614d2692919061598b565b60408051601f198184030181529190526020810180516001600160e01b03166001600160e01b031990931692909217909152615140565b505050565b600061454f836001600160a01b038416615212565b614d80816148ff565b50614d8a81614ad5565b6001600160a01b0381166000908152600a6020908152604080832054600b90925290912054614db9919061525c565b6001600160a01b039091166000908152600a6020526040902055565b6040516001600160a01b0380851660248301528316604482015260648101829052614e0d9085906323b872dd60e01b90608401614d26565b50505050565b600061454f836001600160a01b038416615272565b6000610d1d825490565b600061454f8383615365565b601b546001600160a01b03838116911614614f0d5760175460405163a9059cbb60e01b81526001600160a01b038481169263a9059cbb92614e879290911690859060040161598b565b602060405180830381600087803b158015614ea157600080fd5b505af1925050508015614ed1575060408051601f3d908101601f19168201909252614ece9181019061586f565b60015b614f0b573d808015614eff576040519150601f19603f3d011682016040523d82523d6000602084013e614f04565b606091505b5050614f0d565b505b6001600160a01b03808416600090815260086020908152604080832093861683529290529081208054839290614c3c908490615d76565b606081600001805480602002602001604051908101604052809291908181526020018280548015614f9457602002820191906000526020600020905b815481526020019060010190808311614f80575b50505050509050919050565b60009081526001919091016020526040902054151590565b600080806000198587098587029250828110838203039150508060001415614ff25760008411614fe757600080fd5b50829004905061454f565b808411614ffe57600080fd5b600084868809600260036001881981018916988990049182028318808302840302808302840302808302840302808302840302808302840302918202909203026000889003889004909101858311909403939093029303949094049190911702949350505050565b61506f8161538f565b6001600160a01b039091166000908152600b6020526040902055565b6001600160a01b038083166000908152600860209081526040808320938716835292905290812080548392906150c2908490615cdb565b9091555050601b546001600160a01b0384811691161415614d5d57601b54604051630852cd8d60e31b8152600481018390526001600160a01b03909116906342966c6890602401600060405180830381600087803b15801561512357600080fd5b505af1158015615137573d6000803e3d6000fd5b50505050505050565b6000615195826040518060400160405280602081526020017f5361666545524332303a206c6f772d6c6576656c2063616c6c206661696c6564815250856001600160a01b03166155739092919063ffffffff16565b805190915015614d5d57808060200190518101906151b3919061586f565b614d5d5760405162461bcd60e51b815260206004820152602a60248201527f5361666545524332303a204552433230206f7065726174696f6e20646964206e6044820152691bdd081cdd58d8d9595960b21b6064820152608401610d5e565b600061521e8383614fa0565b61525457508154600181810184556000848152602080822090930184905584548482528286019093526040902091909155610d1d565b506000610d1d565b600081831061526b578161454f565b5090919050565b6000818152600183016020526040812054801561535b576000615296600183615d76565b85549091506000906152aa90600190615d76565b905081811461530f5760008660000182815481106152ca576152ca615e51565b90600052602060002001549050808760000184815481106152ed576152ed615e51565b6000918252602080832090910192909255918252600188019052604090208390555b855486908061532057615320615e3b565b600190038181906000526020600020016000905590558560010160008681526020019081526020016000206000905560019350505050610d1d565b6000915050610d1d565b600082600001828154811061537c5761537c615e51565b9060005260206000200154905092915050565b600061539a426144fe565b601e546001600160a01b03166000908152602b60205260409020600101541461543157601e546153d2906001600160a01b031661115b565b601e546001600160a01b03166000908152602b60209081526040918290208351815492850151600690810b66ffffffffffffff908116600160381b026001600160701b03199095169290910b1617919091178155910151600191909101555b60005b6001600160a01b0383166000908152600d6020526040902061545590614e28565b81101561254a576001600160a01b0383166000908152600d6020526040812061547e9083614e32565b905061548b602682614556565b1561556057615499426144fe565b6001600160a01b0382166000908152602b60205260409020600101541461551f576154c38161115b565b6001600160a01b0382166000908152602b60209081526040918290208351815492850151600690810b66ffffffffffffff908116600160381b026001600160701b03199095169290910b16179190911781559101516001909101555b6001600160a01b0380851660009081526028602090815260408083209385168352929052205461555390610d0d90836147e1565b61555d9084615cdb565b92505b508061556b81615db9565b915050615434565b6060610c04848460008585843b6155cc5760405162461bcd60e51b815260206004820152601d60248201527f416464726573733a2063616c6c20746f206e6f6e2d636f6e74726163740000006044820152606401610d5e565b600080866001600160a01b031685876040516155e891906158ff565b60006040518083038185875af1925050503d8060008114615625576040519150601f19603f3d011682016040523d82523d6000602084013e61562a565b606091505b509150915061563a828286615645565b979650505050505050565b6060831561565457508161454f565b8251156156645782518084602001fd5b8160405162461bcd60e51b8152600401610d5e91906159f1565b8051801515811461151c57600080fd5b8051600681900b811461151c57600080fd5b6000602082840312156156b257600080fd5b813561454f81615e67565b6000602082840312156156cf57600080fd5b815161454f81615e67565b600080604083850312156156ed57600080fd5b82356156f881615e67565b9150602083013561570881615e67565b809150509250929050565b60008060006060848603121561572857600080fd5b833561573381615e67565b9250602084013561574381615e67565b9150604084013561575381615e67565b809150509250925092565b60008060006060848603121561577357600080fd5b833561577e81615e67565b9250602084013561578e81615e67565b929592945050506040919091013590565b600080600080608085870312156157b557600080fd5b84356157c081615e67565b935060208501356157d081615e67565b92506040850135915060608501356157e781615e67565b939692955090935050565b600080600080600060a0868803121561580a57600080fd5b853561581581615e67565b9450602086013561582581615e67565b94979496505050506040830135926060810135926080909101359150565b6000806040838503121561585657600080fd5b823561586181615e67565b946020939093013593505050565b60006020828403121561588157600080fd5b61454f8261567e565b60008060006060848603121561589f57600080fd5b6158a88461568e565b92506158b66020850161568e565b91506158c46040850161567e565b90509250925092565b6000602082840312156158df57600080fd5b5035919050565b6000602082840312156158f857600080fd5b5051919050565b60008251615911818460208701615d8d565b9190910192915050565b6001600160a01b0391909116815260200190565b6001600160a01b038316815260406020808301829052835191830182905260009184820191906060850190845b8181101561597e57845163ffffffff168352938301939183019160010161595c565b5090979650505050505050565b6001600160a01b03929092168252602082015260400190565b6020808252825182820181905260009190848201906040850190845b818110156159e55783516001600160a01b0316835292840192918401916001016159c0565b50909695505050505050565b6020815260008251806020840152615a10816040850160208701615d8d565b601f01601f19169190910160400192915050565b6020808252600f908201526e4a6f62556e617070726f766564282960881b604082015260600190565b6020808252600f908201526e556e626f6e64734c6f636b6564282960881b604082015260600190565b602080825260139082015272496e73756666696369656e7446756e6473282960681b604082015260600190565b6020808252600d908201526c4e6f744469737075746564282960981b604082015260600190565b6020808252600e908201526d4f6e6c794469737075746572282960901b604082015260600190565b60208082526010908201526f4f6e6c79476f7665726e616e6365282960801b604082015260600190565b602080825260139082015272556e626f6e6473556e6578697374656e74282960681b604082015260600190565b60208082526010908201526f4a6f62556e617661696c61626c65282960801b604082015260600190565b6020808252600a90820152694469737075746564282960b01b604082015260600190565b6020808252600d908201526c4f6e6c79536c6173686572282960981b604082015260600190565b6020808252600d908201526c4a6f624469737075746564282960981b604082015260600190565b6020808252600d908201526c5a65726f41646472657373282960981b604082015260600190565b6020808252600e908201526d4f6e6c794a6f624f776e6572282960901b604082015260600190565b6020808252601990820152784a6f624c69717569646974794c6573735468616e4d696e282960381b604082015260600190565b6020808252601f908201527f5265656e7472616e637947756172643a207265656e7472616e742063616c6c00604082015260600190565b92835260069190910b6020830152604082015260600190565b918252602082015260400190565b9283526020830191909152604082015260600190565b60008219821115615cee57615cee615e0f565b500190565b600082615d0257615d02615e25565b500490565b6000816000190483118215151615615d2157615d21615e0f565b500290565b60008160060b8360060b6000811281667fffffffffffff1901831281151615615d5157615d51615e0f565b81667fffffffffffff018313811615615d6c57615d6c615e0f565b5090039392505050565b600082821015615d8857615d88615e0f565b500390565b60005b83811015615da8578181015183820152602001615d90565b83811115614e0d5750506000910152565b6000600019821415615dcd57615dcd615e0f565b5060010190565b600082615de357615de3615e25565b500690565b60008160060b667fffffffffffff19811415615e0657615e06615e0f565b60000392915050565b634e487b7160e01b600052601160045260246000fd5b634e487b7160e01b600052601260045260246000fd5b634e487b7160e01b600052603160045260246000fd5b634e487b7160e01b600052603260045260246000fd5b6001600160a01b038116811461162157600080fdfe46f2180879a7123a197cc3828c28955d70d661c70acbdc02450daf5f9a9c1cfaee3f0daba9837d1ab0597acf34328550e4832d02e24e467825e7c2dd318c38204851cad52e624c8f7a1d44c28a80db05988ba2451fc0db6b0ec338d8eca95afb9aaab310d247ad45aef26bbdefc4ebf20c728fdb84c92b95b2b05d21826940dea2646970667358221220ce9746cc0754e4709598f13917a69929a7eca604606a1e2f4cdb14d6fe1d37f664736f6c63430008070033",
  "linkReferences": {},
  "deployedLinkReferences": {}
}