{
  "_format": "hh-sol-artifact-1",
  "contractName": "Keep3rV1Proxy",
  "sourceName": "contracts/Keep3rV1Proxy.sol",
  "abi": [
    {
      "inputs": [
        {
          "internalType": "address",
          "name": "_governance",
          "type": "address"
        },
        {
          "internalType": "address",
          "name": "_keep3rV1",
          "type": "address"
        }
      ],
      "stateMutability": "nonpayable",
      "type": "constructor"
    },
    {
      "inputs": [],
      "name": "Cooldown",
      "type": "error"
    },
    {
      "inputs": [],
      "name": "NoDrawableAmount",
      "type": "error"
    },
    {
      "inputs": [],
      "name": "OnlyGovernance",
      "type": "error"
    },
    {
      "inputs": [],
      "name": "OnlyMinter",
      "type": "error"
    },
    {
      "inputs": [],
      "name": "OnlyPendingGovernance",
      "type": "error"
    },
    {
      "inputs": [],
      "name": "ZeroAddress",
      "type": "error"
    },
    {
      "anonymous": false,
      "inputs": [
        {
          "indexed": false,
          "internalType": "address",
          "name": "_pendingGovernance",
          "type": "address"
        }
      ],
      "name": "GovernanceProposal",
      "type": "event"
    },
    {
      "anonymous": false,
      "inputs": [
        {
          "indexed": false,
          "internalType": "address",
          "name": "_governance",
          "type": "address"
        }
      ],
      "name": "GovernanceSet",
      "type": "event"
    },
    {
      "inputs": [],
      "name": "acceptGovernance",
      "outputs": [],
      "stateMutability": "nonpayable",
      "type": "function"
    },
    {
      "inputs": [],
      "name": "acceptKeep3rV1Governance",
      "outputs": [],
      "stateMutability": "nonpayable",
      "type": "function"
    },
    {
      "inputs": [
        {
          "internalType": "address",
          "name": "_job",
          "type": "address"
        }
      ],
      "name": "addJob",
      "outputs": [],
      "stateMutability": "nonpayable",
      "type": "function"
    },
    {
      "inputs": [
        {
          "internalType": "address",
          "name": "_job",
          "type": "address"
        },
        {
          "internalType": "uint256",
          "name": "_amount",
          "type": "uint256"
        }
      ],
      "name": "addKPRCredit",
      "outputs": [],
      "stateMutability": "nonpayable",
      "type": "function"
    },
    {
      "inputs": [
        {
          "internalType": "address",
          "name": "recipient",
          "type": "address"
        },
        {
          "internalType": "uint256",
          "name": "amount",
          "type": "uint256"
        }
      ],
      "name": "addRecipient",
      "outputs": [],
      "stateMutability": "nonpayable",
      "type": "function"
    },
    {
      "inputs": [
        {
          "internalType": "address",
          "name": "_voter",
          "type": "address"
        },
        {
          "internalType": "uint256",
          "name": "_amount",
          "type": "uint256"
        }
      ],
      "name": "addVotes",
      "outputs": [],
      "stateMutability": "nonpayable",
      "type": "function"
    },
    {
      "inputs": [
        {
          "internalType": "address",
          "name": "_liquidity",
          "type": "address"
        }
      ],
      "name": "approveLiquidity",
      "outputs": [],
      "stateMutability": "nonpayable",
      "type": "function"
    },
    {
      "inputs": [
        {
          "internalType": "address",
          "name": "",
          "type": "address"
        }
      ],
      "name": "caps",
      "outputs": [
        {
          "internalType": "uint256",
          "name": "",
          "type": "uint256"
        }
      ],
      "stateMutability": "view",
      "type": "function"
    },
    {
      "inputs": [
        {
          "internalType": "address",
          "name": "_keeper",
          "type": "address"
        }
      ],
      "name": "dispute",
      "outputs": [],
      "stateMutability": "nonpayable",
      "type": "function"
    },
    {
      "inputs": [],
      "name": "draw",
      "outputs": [
        {
          "internalType": "uint256",
          "name": "_amount",
          "type": "uint256"
        }
      ],
      "stateMutability": "nonpayable",
      "type": "function"
    },
    {
      "inputs": [],
      "name": "governance",
      "outputs": [
        {
          "internalType": "address",
          "name": "",
          "type": "address"
        }
      ],
      "stateMutability": "view",
      "type": "function"
    },
    {
      "inputs": [],
      "name": "keep3rV1",
      "outputs": [
        {
          "internalType": "address",
          "name": "",
          "type": "address"
        }
      ],
      "stateMutability": "view",
      "type": "function"
    },
    {
      "inputs": [
        {
          "internalType": "address",
          "name": "_account",
          "type": "address"
        },
        {
          "internalType": "uint256",
          "name": "_amount",
          "type": "uint256"
        }
      ],
      "name": "mint",
      "outputs": [],
      "stateMutability": "nonpayable",
      "type": "function"
    },
    {
      "inputs": [
        {
          "internalType": "uint256",
          "name": "_amount",
          "type": "uint256"
        }
      ],
      "name": "mint",
      "outputs": [],
      "stateMutability": "nonpayable",
      "type": "function"
    },
    {
      "inputs": [],
      "name": "minter",
      "outputs": [
        {
          "internalType": "address",
          "name": "",
          "type": "address"
        }
      ],
      "stateMutability": "view",
      "type": "function"
    },
    {
      "inputs": [
        {
          "internalType": "address",
          "name": "",
          "type": "address"
        }
      ],
      "name": "next",
      "outputs": [
        {
          "internalType": "uint256",
          "name": "",
          "type": "uint256"
        }
      ],
      "stateMutability": "view",
      "type": "function"
    },
    {
      "inputs": [],
      "name": "pendingGovernance",
      "outputs": [
        {
          "internalType": "address",
          "name": "",
          "type": "address"
        }
      ],
      "stateMutability": "view",
      "type": "function"
    },
    {
      "inputs": [],
      "name": "recipients",
      "outputs": [
        {
          "internalType": "address[]",
          "name": "",
          "type": "address[]"
        }
      ],
      "stateMutability": "view",
      "type": "function"
    },
    {
      "inputs": [],
      "name": "recipientsCaps",
      "outputs": [
        {
          "components": [
            {
              "internalType": "address",
              "name": "recipient",
              "type": "address"
            },
            {
              "internalType": "uint256",
              "name": "caps",
              "type": "uint256"
            }
          ],
          "internalType": "struct IKeep3rV1Proxy.Recipient[]",
          "name": "_memory",
          "type": "tuple[]"
        }
      ],
      "stateMutability": "view",
      "type": "function"
    },
    {
      "inputs": [
        {
          "internalType": "address",
          "name": "_job",
          "type": "address"
        }
      ],
      "name": "removeJob",
      "outputs": [],
      "stateMutability": "nonpayable",
      "type": "function"
    },
    {
      "inputs": [
        {
          "internalType": "address",
          "name": "recipient",
          "type": "address"
        }
      ],
      "name": "removeRecipient",
      "outputs": [],
      "stateMutability": "nonpayable",
      "type": "function"
    },
    {
      "inputs": [
        {
          "internalType": "address",
          "name": "_voter",
          "type": "address"
        },
        {
          "internalType": "uint256",
          "name": "_amount",
          "type": "uint256"
        }
      ],
      "name": "removeVotes",
      "outputs": [],
      "stateMutability": "nonpayable",
      "type": "function"
    },
    {
      "inputs": [
        {
          "internalType": "address",
          "name": "_keeper",
          "type": "address"
        }
      ],
      "name": "resolve",
      "outputs": [],
      "stateMutability": "nonpayable",
      "type": "function"
    },
    {
      "inputs": [
        {
          "internalType": "address",
          "name": "_keeper",
          "type": "address"
        }
      ],
      "name": "revoke",
      "outputs": [],
      "stateMutability": "nonpayable",
      "type": "function"
    },
    {
      "inputs": [
        {
          "internalType": "address",
          "name": "_liquidity",
          "type": "address"
        }
      ],
      "name": "revokeLiquidity",
      "outputs": [],
      "stateMutability": "nonpayable",
      "type": "function"
    },
    {
      "inputs": [
        {
          "internalType": "address",
          "name": "_governance",
          "type": "address"
        }
      ],
      "name": "setGovernance",
      "outputs": [],
      "stateMutability": "nonpayable",
      "type": "function"
    },
    {
      "inputs": [
        {
          "internalType": "address",
          "name": "_keep3rHelper",
          "type": "address"
        }
      ],
      "name": "setKeep3rHelper",
      "outputs": [],
      "stateMutability": "nonpayable",
      "type": "function"
    },
    {
      "inputs": [
        {
          "internalType": "address",
          "name": "_keep3rV1",
          "type": "address"
        }
      ],
      "name": "setKeep3rV1",
      "outputs": [],
      "stateMutability": "nonpayable",
      "type": "function"
    },
    {
      "inputs": [
        {
          "internalType": "address",
          "name": "_governance",
          "type": "address"
        }
      ],
      "name": "setKeep3rV1Governance",
      "outputs": [],
      "stateMutability": "nonpayable",
      "type": "function"
    },
    {
      "inputs": [
        {
          "internalType": "address",
          "name": "_minter",
          "type": "address"
        }
      ],
      "name": "setMinter",
      "outputs": [],
      "stateMutability": "nonpayable",
      "type": "function"
    },
    {
      "inputs": [
        {
          "internalType": "address",
          "name": "_bonded",
          "type": "address"
        },
        {
          "internalType": "address",
          "name": "_keeper",
          "type": "address"
        },
        {
          "internalType": "uint256",
          "name": "_amount",
          "type": "uint256"
        }
      ],
      "name": "slash",
      "outputs": [],
      "stateMutability": "nonpayable",
      "type": "function"
    }
  ],
  "bytecode": "0x608060405234801561001057600080fd5b5060405161159938038061159983398101604081905261002f9161007c565b600080546001600160a01b039384166001600160a01b031991821617909155600280549290931691161790556100af565b80516001600160a01b038116811461007757600080fd5b919050565b6000806040838503121561008f57600080fd5b61009883610060565b91506100a660208401610060565b90509250929050565b6114db806100be6000396000f3fe608060405234801561001057600080fd5b50600436106101e55760003560e01c8063807119891161010f578063d8ae6faf116100a2578063f39c38a011610071578063f39c38a014610415578063f75f9f7b14610428578063f79822431461043b578063fca3b5aa1461044e57600080fd5b8063d8ae6faf146103c9578063de63298d146103dc578063e74f8239146103ef578063ec00cdfc1461040257600080fd5b8063b600702a116100de578063b600702a1461037b578063ba9b4d651461038e578063c5198abc146103a3578063ce6a0880146103b657600080fd5b80638071198914610322578063a0712d6814610335578063ab033ea914610348578063ab73e3161461035b57600080fd5b80633619cb721161018757806364bb43ee1161015657806364bb43ee146102c957806366d97b21146102dc57806372da828a146102fc57806374a8f1031461030f57600080fd5b80633619cb721461028857806340c10f191461029057806355ea6c47146102a35780635aa6e675146102b657600080fd5b80630eecae21116101c35780630eecae211461024457806312a291981461025a5780631ef94b911461026d578063238efcbc1461028057600080fd5b806307546172146101ea5780630770f8091461021a5780630e57d4ce1461022f575b600080fd5b6003546101fd906001600160a01b031681565b6040516001600160a01b0390911681526020015b60405180910390f35b61022d6102283660046112a2565b610461565b005b6102376104ef565b604051610211919061135e565b61024c610500565b604051908152602001610211565b61022d6102683660046112a2565b6105eb565b6002546101fd906001600160a01b031681565b61022d61063c565b61022d6106c5565b61022d61029e3660046112f9565b61075a565b61022d6102b13660046112a2565b610793565b6000546101fd906001600160a01b031681565b61022d6102d73660046112a2565b6107f0565b61024c6102ea3660046112a2565b60046020526000908152604090205481565b61022d61030a3660046112a2565b61084d565b61022d61031d3660046112a2565b6108aa565b61022d6103303660046112a2565b610907565b61022d610343366004611345565b610964565b61022d6103563660046112a2565b61099c565b61024c6103693660046112a2565b60056020526000908152604090205481565b61022d6103893660046112a2565b610a1b565b610396610a78565b60405161021191906113ab565b61022d6103b13660046112a2565b610b83565b61022d6103c43660046112f9565b610be0565b61022d6103d73660046112f9565b610c76565b61022d6103ea3660046112f9565b610cda565b61022d6103fd3660046112bd565b610d3e565b61022d6104103660046112a2565b610ddc565b6001546101fd906001600160a01b031681565b61022d6104363660046112a2565b610e52565b61022d6104493660046112f9565b610eaf565b61022d61045c3660046112a2565b610f02565b6000546001600160a01b0316331461048c576040516354348f0360e01b815260040160405180910390fd5b60025460405163ab033ea960e01b81526001600160a01b0383811660048301529091169063ab033ea9906024015b600060405180830381600087803b1580156104d457600080fd5b505af11580156104e8573d6000803e3d6000fd5b5050505050565b60606104fb6006610f78565b905090565b336000908152600560205260408120544210156105305760405163b0782df760e01b815260040160405180910390fd5b3360009081526004602052604090205461055d57604051633faaf86560e21b815260040160405180910390fd5b3360009081526005602052604090205462093a809061057c904261141b565b11156105a45761058f4262093a80611403565b336000908152600560205260409020556105cc565b336000908152600560205260408120805462093a8092906105c6908490611403565b90915550505b5033600081815260046020526040902054906105e89082610f8c565b90565b6000546001600160a01b03163314610616576040516354348f0360e01b815260040160405180910390fd5b610621600682611075565b506001600160a01b0316600090815260046020526040812055565b6001546001600160a01b0316331461066757604051637ef5703160e11b815260040160405180910390fd5b60018054600080546001600160a01b0383166001600160a01b031991821681179092559091169091556040519081527fc73be659241aade67e9a059bcf21494955018b213dbd1179054ccf928b13f3b69060200160405180910390a1565b6000546001600160a01b031633146106f0576040516354348f0360e01b815260040160405180910390fd5b600260009054906101000a90046001600160a01b03166001600160a01b031663238efcbc6040518163ffffffff1660e01b8152600401600060405180830381600087803b15801561074057600080fd5b505af1158015610754573d6000803e3d6000fd5b50505050565b6000546001600160a01b03163314610785576040516354348f0360e01b815260040160405180910390fd5b61078f8282610f8c565b5050565b6000546001600160a01b031633146107be576040516354348f0360e01b815260040160405180910390fd5b6002546040516355ea6c4760e01b81526001600160a01b038381166004830152909116906355ea6c47906024016104ba565b6000546001600160a01b0316331461081b576040516354348f0360e01b815260040160405180910390fd5b60025460405163325da1f760e11b81526001600160a01b038381166004830152909116906364bb43ee906024016104ba565b6000546001600160a01b03163314610878576040516354348f0360e01b815260040160405180910390fd5b60025460405163396d414560e11b81526001600160a01b038381166004830152909116906372da828a906024016104ba565b6000546001600160a01b031633146108d5576040516354348f0360e01b815260040160405180910390fd5b6002546040516374a8f10360e01b81526001600160a01b038381166004830152909116906374a8f103906024016104ba565b6000546001600160a01b03163314610932576040516354348f0360e01b815260040160405180910390fd5b600254604051638071198960e01b81526001600160a01b038381166004830152909116906380711989906024016104ba565b6003546001600160a01b0316331461098f57604051639cdc2ed560e01b815260040160405180910390fd5b6109993382610f8c565b50565b6000546001600160a01b031633146109c7576040516354348f0360e01b815260040160405180910390fd5b600180546001600160a01b0319166001600160a01b0383169081179091556040519081527fe987aaedf9d279143bdf1eee16cf1d0feb47742867d81083df8d6cd0a5ac857f9060200160405180910390a150565b6000546001600160a01b03163314610a46576040516354348f0360e01b815260040160405180910390fd5b600254604051635b00381560e11b81526001600160a01b0383811660048301529091169063b600702a906024016104ba565b6060610a846006611093565b67ffffffffffffffff811115610a9c57610a9c61148f565b604051908082528060200260200182016040528015610ae157816020015b6040805180820190915260008082526020820152815260200190600190039081610aba5790505b50905060005b610af16006611093565b811015610b7f576040805180820190915280610b0e60068461109d565b6001600160a01b0316815260200160046000610b2b60068661109d565b6001600160a01b03166001600160a01b0316815260200190815260200160002054815250828281518110610b6157610b61611479565b60200260200101819052508080610b7790611432565b915050610ae7565b5090565b6000546001600160a01b03163314610bae576040516354348f0360e01b815260040160405180910390fd5b60025460405163314662af60e21b81526001600160a01b0383811660048301529091169063c5198abc906024016104ba565b6000546001600160a01b03163314610c0b576040516354348f0360e01b815260040160405180910390fd5b60025460405163019cd41160e71b81526001600160a01b038481166004830152602482018490529091169063ce6a0880906044015b600060405180830381600087803b158015610c5a57600080fd5b505af1158015610c6e573d6000803e3d6000fd5b505050505050565b6000546001600160a01b03163314610ca1576040516354348f0360e01b815260040160405180910390fd5b60025460405163d8ae6faf60e01b81526001600160a01b038481166004830152602482018490529091169063d8ae6faf90604401610c40565b6000546001600160a01b03163314610d05576040516354348f0360e01b815260040160405180910390fd5b60025460405163de63298d60e01b81526001600160a01b038481166004830152602482018490529091169063de63298d90604401610c40565b6000546001600160a01b03163314610d69576040516354348f0360e01b815260040160405180910390fd5b60025460405163e74f823960e01b81526001600160a01b0385811660048301528481166024830152604482018490529091169063e74f823990606401600060405180830381600087803b158015610dbf57600080fd5b505af1158015610dd3573d6000803e3d6000fd5b50505050505050565b6000546001600160a01b03163314610e07576040516354348f0360e01b815260040160405180910390fd5b806001600160a01b038116610e2f5760405163d92e233d60e01b815260040160405180910390fd5b50600280546001600160a01b0319166001600160a01b0392909216919091179055565b6000546001600160a01b03163314610e7d576040516354348f0360e01b815260040160405180910390fd5b60025460405163f75f9f7b60e01b81526001600160a01b0383811660048301529091169063f75f9f7b906024016104ba565b6000546001600160a01b03163314610eda576040516354348f0360e01b815260040160405180910390fd5b610ee56006836110a9565b506001600160a01b03909116600090815260046020526040902055565b6000546001600160a01b03163314610f2d576040516354348f0360e01b815260040160405180910390fd5b806001600160a01b038116610f555760405163d92e233d60e01b815260040160405180910390fd5b50600380546001600160a01b0319166001600160a01b0392909216919091179055565b60606000610f85836110be565b9392505050565b60025460405163140e25ad60e31b8152600481018390526001600160a01b039091169063a0712d6890602401600060405180830381600087803b158015610fd257600080fd5b505af1158015610fe6573d6000803e3d6000fd5b505060025460405163a9059cbb60e01b81526001600160a01b03868116600483015260248201869052909116925063a9059cbb9150604401602060405180830381600087803b15801561103857600080fd5b505af115801561104c573d6000803e3d6000fd5b505050506040513d601f19601f820116820180604052508101906110709190611323565b505050565b600061108a836001600160a01b03841661111a565b90505b92915050565b600061108d825490565b600061108a838361120d565b600061108a836001600160a01b038416611237565b60608160000180548060200260200160405190810160405280929190818152602001828054801561110e57602002820191906000526020600020905b8154815260200190600101908083116110fa575b50505050509050919050565b6000818152600183016020526040812054801561120357600061113e60018361141b565b85549091506000906111529060019061141b565b90508181146111b757600086600001828154811061117257611172611479565b906000526020600020015490508087600001848154811061119557611195611479565b6000918252602080832090910192909255918252600188019052604090208390555b85548690806111c8576111c8611463565b60019003818190600052602060002001600090559055856001016000868152602001908152602001600020600090556001935050505061108d565b600091505061108d565b600082600001828154811061122457611224611479565b9060005260206000200154905092915050565b600081815260018301602052604081205461127e5750815460018181018455600084815260208082209093018490558454848252828601909352604090209190915561108d565b50600061108d565b80356001600160a01b038116811461129d57600080fd5b919050565b6000602082840312156112b457600080fd5b61108a82611286565b6000806000606084860312156112d257600080fd5b6112db84611286565b92506112e960208501611286565b9150604084013590509250925092565b6000806040838503121561130c57600080fd5b61131583611286565b946020939093013593505050565b60006020828403121561133557600080fd5b81518015158114610f8557600080fd5b60006020828403121561135757600080fd5b5035919050565b6020808252825182820181905260009190848201906040850190845b8181101561139f5783516001600160a01b03168352928401929184019160010161137a565b50909695505050505050565b602080825282518282018190526000919060409081850190868401855b828110156113f657815180516001600160a01b031685528601518685015292840192908501906001016113c8565b5091979650505050505050565b600082198211156114165761141661144d565b500190565b60008282101561142d5761142d61144d565b500390565b60006000198214156114465761144661144d565b5060010190565b634e487b7160e01b600052601160045260246000fd5b634e487b7160e01b600052603160045260246000fd5b634e487b7160e01b600052603260045260246000fd5b634e487b7160e01b600052604160045260246000fdfea264697066735822122063513be1e5d0db87455b7929c34a9bfa0e6962d00a6b5627f2dd2d772eb3840864736f6c63430008060033",
  "linkReferences": {},
  "deployedLinkReferences": {}
}